:020000040800F2
:1000000038030020493400000133000001330000B0
:1000100000000000000000000000000000000000E0
:10002000000000000000000000000000013300009C
:10003000000000000000000001330000DF3200007B
:1000400001330000013300000133000001330000E0
:1000500001330000273300004B33000071330000F0
:1000600001330000013300000133000001330000C0
:1000700093330000B7330000DB330000FD33000092
:100080002134000000B501F0DCFA16556E68616E8F
:10009000646C656420496E74657272757074202199
:1000A0000A0000BDCC000000FFFF1E2D2D2D204DAD
:1000B0006563726973702D5374656C6C61726973DA
:1000C00020436F7265202D2D2D00C046E4000000F6
:1000D00042000432647570003868043F3E60043F9B
:1000E00038607047F80000006200053264726F707B
:1000F000043740CF7047C046180100004400053265
:100100007377617007CF043F3860043F3E60043F5F
:100110003A600E007047C0462C01000062000432B5
:100120006E69700007CF043F3860704748010000D7
:10013000440005326F766572B868043F3E60043F44
:100140003860FE687047C0466C010000440005320C
:100150007475636B07CF043F3860043F3E60043F13
:100160003A60043F3960043F3860704790010000F6
:1001700046000432726F74003868B9683A69B86032
:1001800039613A6079687E60FE68F9607047C04600
:10019000B4010000460005322D726F743868B968EA
:1001A0003A6938613960BA60F968FE607E687960E2
:1001B0007047C046C8010000200003323E7201CFE4
:1001C00001B440B440CF7047E0010000200003328A
:1001D000723E043F3E6040BC01BC043F3860704743
:1001E000F8010000200003327240043F3E60019E8F
:1001F000043F3E60009E70470C0200002000063263
:100200007264726F700002B07047C0462402000032
:1002100042000364322F3868F10776104008084323
:10022000386070473802000062000364322A386880
:1002300000187641386070475402000042000464A0
:10024000736872003868F107760840080843386020
:100250007047C0466C0200006200046473686C0062
:1002600038680018764138607047C0468002000048
:100270004200046461627300002E16D47047C046C9
:100280009C0200004300083F646E6567617465006E
:10029000300040CF002808D47047C046BC020000A0
:1002A000420007646E656761746538680021C04369
:1002B000F64301304E4138607047C046D40200001A
:1002C000640002642D0007CF121AB1410E00043FF2
:1002D0003A607047EC020000640002642B0007CF14
:1002E00012184E41043F3A607047C04600030000B8
:1002F000610003733E64043F3E60F6177047C046DA
:100300002C030000420003756D2A38680300734314
:100310003B60010C320C0B005343B6B280B24E432B
:1003200050433618360CF6187047C0465C03000080
:100330004200026D2A003868C11705D0404238607B
:10034000F01704D07642E0E7F017DED0764200B531
:10035000FFF7DBFFFFF7A9FF00BDC0469C030000CD
:1003600044000375642A07CF564341437618010CB5
:10037000130C59437618010C80B292B25143434397
:1003800050430022C91852411204B6180A04090C3D
:1003900080184E41043F38607047C046300400006A
:1003A00044000475646D2A0010B50024043F3E60CB
:1003B0007E68043F3E603E69FFF7A7FF310040CFF3
:1003C000300040CF043F3E603E68043F3E60FE6820
:1003D00003B4FFF79AFF03BC330040CF320040CF95
:1003E000043F3E603E68043F3E603E690FB4FFF745
:1003F0008CFF0FBC9219634140CF89196241634160
:1004000040CF043F3E607E68043F3E60FE680FB40C
:10041000FFF77BFF0FBC9219634140CF89196241FE
:10042000634140CF1E003A607960B86010BDC0469D
:10043000540400004300022A2F0000B540B440CF0E
:10044000FFF779FF043F3E6040BC00F065F80437D9
:1004500000BDC046780400004300052A2F6D6F647C
:1004600000B540B440CFFFF766FF043F3E6040BC9C
:1004700000F052F800BDC0469C0400004300037524
:100480002A2F00B540B440CFFFF73FFF043F3E6046
:1004900040BC00F01CF8043700BDC046C00400009A
:1004A000430006752A2F6D6F640000B540B440CF3D
:1004B000FFF72BFF043F3E6040BC00F008F800BD92
:1004C0000C050000430006756D2F6D6F640010B4BD
:1004D000786839680022002420236400001849410C
:1004E0005241964201D8921B0134013BF5D12023A1
:1004F000640049185241964201D8921B0134013BD5
:10050000F6D104373A60260010BC70478005000021
:100510004300056D2F6D6F6400B5F01718D076425B
:1005200000F024FAF0170DD0FFF7BFFE00F011FA2B
:10053000FFF7CDFF39683E600E46764239683E606F
:100540000E4600BD00F005FAFFF7C1FF764200BD80
:1005500000F00CFAF0170ED0FFF7A7FE00F0F9F943
:10056000FFF7B5FF764239683E600E46764239683D
:100570003E600E4600BD00F0ECF9FFF7A8FF00BD9D
:10058000DC05000044000675642F6D6F640030B414
:100590003C68B86879680022002520236D000018A7
:1005A00049415241944201D8121B0135013BF5D11A
:1005B00020B4002520206D00491852415B419E4225
:1005C00004D8944202D8121BB34101350138F2D14C
:1005D0003D60BA607B6040BC30BC70475406000090
:1005E000440005642F6D6F6400B5F01719D0FFF754
:1005F0005CFEFFF787FDF0170CD0FFF756FEFFF704
:1006000081FDFFF7C4FFFFF77DFDFFF74EFEFFF70B
:1006100079FD00BDFFF776FDFFF7B9FFFFF745FE57
:1006200000BDFFF76FFDF0170ED0FFF73EFEFFF79E
:1006300069FDFFF7ACFFFFF738FEFFF763FDFFF73B
:1006400034FEFFF75FFD00BDFFF75CFDFFF79FFF86
:1006500000BDC0466C060000440002642F0000B5D7
:10066000FFF7C2FFFFF75EFD00BDC04604070000B4
:10067000440002662A0000B5F0170DD0FFF715FE02
:10068000FFF740FDF0170DD0FFF70FFEFFF78CFED0
:1006900040CF01CF386000BDFFF734FDF017F5D033
:1006A000FFF703FEFFF780FE40CF01CF3860FFF772
:1006B000FCFD00BD30B43C68B9687A6800230025B1
:1006C00020206D00491852415B419E4204D894425B
:1006D00002D8121BB34101350138F2D12900202084
:1006E0006D0092185B419E4204D8944202D8121BBE
:1006F000B34101350138F3D13D60BA607B600E0033
:1007000030BC704750070000440002662F0000B55F
:10071000F0170ED0FFF7C9FDFFF7F4FCF0170ED06D
:10072000FFF7C3FDFFF7EEFCFFF7C4FFFFF7FAFC8E
:1007300000BDFFF7E7FCF017F4D0FFF7B6FDFFF7B9
:10074000E1FCFFF7B7FFFFF7B0FDFFF7EBFC00BDE3
:100750006407000020000232210006CF3160726081
:1007600040CF704778070000200002324000043F6D
:10077000706838603668704798070000440003646A
:10078000753C07CF8E4204D801D1904201D8002693
:1007900070470026F6437047B80700004400036422
:1007A000753E07CFB14204D801D1824201D800265C
:1007B00070470026F6437047D807000044000264E3
:1007C0003C0007CF8E4204DC01D1904201DC0026C0
:1007D00070470026F6437047F807000044000264A3
:1007E0003E0007CFB14204DC01D1824201DC002689
:1007F00070470026F6437047080800006200036453
:10080000303C0437F61770472408000042000364A8
:10081000303D01CF002801D000267047013EB6418F
:100820007047C04640080000440003643C3E07CFC8
:10083000904201D1761A01D00026F6437047C04697
:100840005C080000440002643D0007CF904201D0E4
:1008500000267047761A013EB641704770080000C6
:10086000200003737040043F3E603E007047C04666
:1008700080080000200003737021370040CF7047CC
:1008800094080000200003727040043F3E606E46F2
:100890007047C046A4080000200003727021B546CE
:1008A00040CF7047C00800000000056465707468A0
:1008B000F549C91B8908043F3E600E007047C046D9
:1008C000D0080000610003647570043F3E6070470B
:1008D000E008000061000464726F700040CF704750
:1008E000F80800006100043F64757000002E01D01C
:1008F000043F3E607047C0460C090000620004736C
:100900007761700039683E600E0070471C09000076
:100910006200036E697004377047C04630090000FA
:100920006200046F76657200043F3E607E68704727
:10093000480900006200047475636B0001CF083F32
:100940007E6038607047C046600900006300037233
:100950006F7403CF083F78603E600E007047C0465A
:10096000780900006300042D726F740003CF083F04
:100970007E603960060070478C090000200004701A
:1009800069636B00B0003E587047C0469C09000088
:100990002000023E720040B440CF7047B009000012
:1009A000200002723E00043F3E6040BC7047C046DB
:1009B000C4090000200002724000043F3E60009E17
:1009C0007047C046D40900002000057264726F7041
:1009D00001B07047EC090000600004747275650096
:1009E000043F3E600026F6437047C046000A000000
:1009F00060000566616C7365043F3E6000267047C9
:100A0000140A00006A0003616E6401CF064070475B
:100A10000640C046280A00006A000362696301CFED
:100A2000B0430600704786433C0A00006A00026F2C
:100A3000720001CF064370470643C046500A0000CB
:100A40006A0003786F7201CF464070474640C04647
:100A5000600A00006100036E6F74F6437047C04681
:100A6000800A0000410003636C7A300006D0002643
:100A7000400002D001D20136FAE7704720267047C5
:100A8000900A000061000373687276087047C046E0
:100A9000A00A000061000373686C76007047C046CE
:100AA000B00A0000610003726F720120C6417047F6
:100AB000C40A0000610003726F6C0020B619464141
:100AC0007047C046E00A00006C00067273686966F1
:100AD000740001CFF0400600704736080026C0467B
:100AE000FC0A00006C00076172736869667401CFCC
:100AF0003041060070473610F617C046180B00004C
:100B00006C00066C73686966740001CFB040060023
:100B1000704736000026C046280B000061000230F6
:100B20003D00013EB64170473C0B000061000330C0
:100B30003C3E013EB641F6437047C0464C0B0000B8
:100B4000610002303C00F6177047C046680B000099
:100B50004200023E3D0001CFB04201DA002670475C
:100B60000026F6437047C046840B00004200023C5A
:100B70003D0001CFB04201DD002670470026F6435C
:100B80007047C0469C0B00004200013C01CFB042C0
:100B900002DA0026F643704700267047B40B0000C7
:100BA0004200013E01CFB04202DD0026F64370470D
:100BB00000267047C80B0000620003753E3D01CF60
:100BC000861BB641F6437047DC0B000062000375DC
:100BD0003C3D01CF361AB641F6437047F00B00009A
:100BE000620002753C0001CF861BB6417047C046CB
:100BF000040C0000620002753E0001CF361AB641B7
:100C00007047C0461C0C00006B00023C3E0001CF48
:100C1000361A01D00026F6437047C046300C00005B
:100C20006B00013D01CF361A013EB6417047C04608
:100C3000440C00006200036D696E01CFB04200DA1F
:100C400006007047580C00006200036D617801CF08
:100C5000B04200DB06007047700C000062000475B3
:100C60006D61780001CFB04200D306007047C046E6
:100C70008C0C0000620004756D696E0001CFB042FB
:100C800000D806007047000038020020CC0C00009D
:100C90000000046D6F76650007B5310040CF32006B
:100CA00040CF00290FD0B2420DD006D3013E013A09
:100CB000705C50540139FBD105E03078107001367A
:100CC00001320139F9D140CF07BDC046F00C000018
:100CD00000000466696C6C00300040CF310040CFEA
:100CE000002902D001397054FCD140CF7047C04672
:100CF000FC0C00002000014036687047100D000019
:100D00006D00012103CF30600E0070470660016066
:100D1000280D00002000022B210003CF326812189A
:100D200032600E007047C046380D00002000026897
:100D3000400036887047C046500D00006D000268C4
:100D4000210003CF30800E00704706800180C0462E
:100D5000680D0000200003682B2103CF3288121891
:100D600032800E007047C046780D000020000263FC
:100D7000400036787047C046900D00006D00026359
:100D8000210003CF30700E00704706700170C0461E
:100D9000A80D0000200003632B2103CF3278121826
:100DA00032700E007047C046C00D00002000046283
:100DB0006973210003CF3268024332600E0070472E
:100DC000D80D0000200004626963210003CF32685F
:100DD000824332600E007047F00D0000200004785E
:100DE0006F72210003CF3268424032600E007047BC
:100DF0000C0E0000200004626974400001CF3668C8
:100E0000064001D00026F6437047C046240E00007D
:100E1000200005686269732103CF32880243328063
:100E20000E0070473C0E00002000056862696321D7
:100E300003CF3288824332800E007047540E000088
:100E400020000568786F722103CF328842403280DB
:100E50000E007047700E0000200005686269744043
:100E600001CF3688064001D00026F6437047C046C1
:100E7000880E0000200005636269732103CF327879
:100E8000024332700E007047A00E00002000056380
:100E90006269632103CF3278824332700E0070475B
:100EA000B80E000020000563786F722103CF3278FE
:100EB000424032700E007047D40E000020000563DF
:100EC0006269744001CF3678064001D00026F643AF
:100ED0007047C046680F000000000768666C6173C9
:100EE0006821300040CF310040CF594B984221D388
:100EF000584B98421ED2584B1940994219D00122A2
:100F00000240002A16D102889A4213D1534A80180F
:100F1000534A544B1360544B1360544A01231360DB
:100F20000180534A136801201840FBD14F4A8023A7
:100F30001360704700F085FB2A57726F6E6720615F
:100F4000646472657373206F7220646174612066DB
:100F50006F722077726974696E6720666C6173685E
:100F600020210A0002F06AF9B80F000000000E66A6
:100F70006C617368706167656572617365000FB558
:100F8000300040CF324B984214D3354A354B136072
:100F9000354B1360354A02231360364A1060334ADA
:100FA00042231360324A136801201840FBD12F4AB4
:100FB000802313600FBDC0463410000000000A6596
:100FC00072617365666C61736800214872B621496D
:100FD000214A038893421CD0043F3E600600043F30
:100FE0003E6000F02EFB10457261736520626C6FED
:100FF000636B20617420200000F060FB00F021FB97
:101000000C2066726F6D20466C6173680A00FFF7F2
:10101000B6FF02308842DCD100F013FB1246696E45
:1010200069736865642E20526573657420210A0017
:1010300002F00CFA7810000000000E657261736512
:10104000666C61736866726F6D00300040CFBDE7FB
:101050000040000000000100FFFF00000000000849
:101060000420024023016745AB89EFCD10200240E8
:101070000C200240142002408C1000006900012B5B
:1010800001CF3618704736180036C046A010000051
:101090006900012D01CF861B7047361A003EC046FD
:1010A000B0100000610002312D00013E7047C046C3
:1010B000C0100000610002312B0001367047C046AD
:1010C000D0100000610002322D00023E7047C04681
:1010D000E0100000610002322B0002367047C0466B
:1010E000F41000006100066E656761746500764269
:1010F0007047C04608110000610003616273002E52
:1011000000D576427047C046501100004200057578
:101110002F6D6F64310040CF002903D1043F3E6042
:1011200000267047012200238E4206D9003104D4E4
:101130005200490001D48E42FAD88E4201D3761A69
:10114000134349085208F8D1043F3E601E0070471F
:10115000C01100004200042F6D6F640000B5300024
:1011600040CF002E1CDA764200280CDA4042043FC1
:101170003E600600FFF7CEFF300040CF7642043FCE
:101180003E60060000BD043F3E600600FFF7C2FF60
:10119000300040CF40427642043F3E60060000BD32
:1011A000002807DA4042043F3E600600FFF7B2FF26
:1011B000764200BD043F3E600600FFF7ABFF00BD76
:1011C000D41100004200036D6F6400B5FFF7C6FF45
:1011D00040CF00BDE81100004200012F00B5FFF72D
:1011E000BDFF043700BDC046F81100006A00012AA7
:1011F00001CF4643704746430812000061000232A7
:101200002A0076007047C0461812000061000232C2
:101210002F0076107047C0462C1200006100046554
:1012200076656E000120304036187047401200008D
:101230004000046261736500043F3E60114E7047D8
:101240005812000000000662696E617279000D4854
:10125000022101607047C046701200000000076460
:101260006563696D616C07480A2101607047C0467B
:10127000B012000000000368657802481021016088
:1012800070470000100000207749784808607849CE
:101290007848086078497948086079497948086051
:1012A0007949462008607949794808607047C04606
:1012B000CC120000810009686F6F6B2D656D697439
:1012C000043F3E60734E7047CE130000E8120000EA
:1012D000810008686F6F6B2D6B657900043F3E607D
:1012E0006D4E7047F61300000813000081000A6875
:1012F0006F6F6B2D3F656D697400043F3E60674EF4
:10130000704720140000C0462413000081000968C3
:101310006F6F6B2D3F6B6579043F3E60604E704789
:101320004E1400004413000081000A686F6F6B2D9B
:10133000706175736500043F3E605A4E7047BE325F
:101340000000C0465C130000000004656D69740075
:101350000FB5504800F02FF80FBDC04670130000C5
:101360000000036B65790FB54B4800F024F80FBD02
:10137000881300000000053F656D697400B547489B
:1013800000F019F800BDC046A01300000000043FA3
:101390006B65790000B5424800F00DF800BDC0460D
:1013A000BC130000000005706175736500B53D4811
:1013B00000F001F800BD00688746C046E413000055
:1013C00000000B73657269616C2D656D697400B501
:1013D00000F026F8002E40CFFAD0334A167040CFE6
:1013E00000BDC0460C14000000000A7365726961FC
:1013F0006C2D6B65790000B500F029F8002E40CF08
:10140000FAD0043F3E60294A167800BD3C14000023
:1014100000000C73657269616C2D3F656D69740025
:1014200000B5FFF7C3FF043F3E6000262048016877
:101430008020014000D0F64300BDC046B414000037
:1014400000000B73657269616C2D3F6B657900B5A7
:10145000FFF7ACFF043F3E600026154801682020DE
:10146000014000D0F64300BD1410024000005E00B1
:10147000181002400040000000000048000028282A
:1014800024000048100100000C38014000380140E1
:101490000D000000FC1F0020F81F0020F41F00209A
:1014A000F01F0020EC1F00202838014024380140A4
:1014B0001C38014030150000000005717565727917
:1014C0000FB5F44800210170F3490022FFF74BFFEC
:1014D000300040CF20281BD2092818D00A2823D05A
:1014E0000D2821D00828F1D1002AEFD000F0A9F86A
:1014F00003082008002AE9D00B009B181878013A4D
:1015000080230340E2D040230340F3D0DEE72020D5
:10151000C72ADBD2043F3E600600FFF719FF013205
:101520000B009B181870D1E70A7000F043F80FBD4C
:1015300080150000000007636F6D706172650FB564
:10154000300040CF31780278914216D110E0013658
:10155000013032780378412A02D35B2A00D220324C
:10156000412B02D35B2B00D220339A4205D10139A3
:101570000029ECD10026F64300E000260FBDC0464E
:101580009415000000000263720000B500F059F8E5
:10159000010A00BDA8150000000002626C00043FB3
:1015A0003E6020267047C046BC1500000000057351
:1015B00070616365043F3E602026C9E6CC150000DB
:1015C0005000065B636861725D0005E0E415000091
:1015D000000004636861720000B501F0F7FA01369B
:1015E000367800BDF415000050000128043F3E602D
:1015F000292606E00C1600005000015C043F3E6006
:10160000002600B501F0EEFA40CF00BD3416000010
:101610001000022E2200A14800B5043F3E600600E3
:1016200000F0E2F9043F3E60222601F0DBFA00F010
:1016300034FD00BD8416000010000273220098489B
:10164000EAE70EB47246013A043F3E601600137892
:101650000121013319405B187146C9188E460EBC32
:1016600016E00EB47246013A043F3E60160013784D
:101670000121013319405B187146C9188E460EBC12
:101680007047C046B0160000000004747970650011
:1016900003B5310040CF0878002807D00131043F5E
:1016A0003E600E78FFF754FE0138F7D103BDC04607
:1016B000EC1600000000046865782E0007B53100C4
:1016C00040CF20200F220438043F3E600E00C64069
:1016D0001640092E01D9373600E03036FFF738FEC4
:1016E0000028F0D1FFF766FF07BDC046FC160000DA
:1016F000000003682E731FB56A4C0EE00C17000043
:10170000000003752E731FB5674C06E08C170000B0
:101710000000022E73001FB5644C6549C91B89087F
:10172000644A106803B40A201060FFF78AFF085368
:101730007461636B3A205B00043F3E600E0001F071
:1017400021FCFFF77EFF025D200003BC594A1060B8
:1017500000290AD0584A106806B4043F3E600600CB
:10176000A04706BC043A0139F5D1FFF76AFF06200D
:10177000544F533A2000043F3E603600A047FFF725
:1017800060FF04202A3E0A001FBDC046DC1700008F
:1017900000000464756D700000B5300040CF20215A
:1017A000FFF74FFF072064756D703E0A043F3E60EF
:1017B0000600FFF783FFFFF744FF023A200002888C
:1017C000043F3E601600FFF779FFFFF73AFF032062
:1017D0003E0A02300139E9D100BDC046C018000000
:1017E000000005776F72647300B5FFF72AFF067774
:1017F0006F7264730A0000F078FE300040CF817988
:10180000FF2945D0FFF71DFF0941646472657373BA
:101810003A20043F3E600600FFF750FFFFF711FF3C
:10182000064C696E6B3A200002680430043F3E604B
:101830001600FFF743FF01880230FFF702FF07465B
:101840006C6167733A20043F3E600E00FFF736FF7D
:10185000043F3E60060000F065FEFFF7F2FE06431F
:101860006F64653A2000043F3E600600FFF726FFE4
:10187000FFF7E7FE064E616D653A2000FFF708FFAF
:10188000FFF7DFFE010A0D48824201D01000B6E7E3
:1018900000BD000000000020700000204216000083
:1018A00062160000BD160000732F0000852F000097
:1018B000380200201000002034020020FFFFFFFF4C
:1018C000DC19000000001072656769737465726C42
:1018D00069746572616C2C003FB5350040CF2900FA
:1018E000C90029432D0295480543FF2300223000FB
:1018F000D040984301D00132F9E73000D040184081
:101900002843043F3E60060000F08FFB8C480543EF
:1019100018009040864310D000243000E0409843E7
:1019200001D00134F9E7101B043F3E600E00800136
:10193000064300F07AFB2200DFE7002A06D0043FCE
:101940003E600E009201164300F06FFB40CF3FBD9A
:101950001FB5310040CF7B4C0C43C9000C434901FB
:10196000300040CF020EFF231A40744B0B43134349
:10197000043F3E601E0000F058FB043F3E6026001E
:1019800000F053FB020CFF231A406F4B0B43134331
:10199000043F3E601E0000F048FB043F3E6026000E
:1019A00000F043FB020AFF231A40674B0B4313432B
:1019B000043F3E601E0000F038FB043F3E602600FE
:1019C00000F033FB0200FF231A405F4B0B4313432D
:1019D000043F3E601E0000F028FB1FBD4C1A0000B3
:1019E00000000563616C6C2C0FB5330000F032FE13
:1019F000300040CF1B1A043B5449194000290ED037
:101A0000534A91420BD00136043F3E600026FFF757
:101A100063FF043F3E604F4E00F007FB0FBD40CF19
:101A20005B084D484D4919400843DB0A4C491940B1
:101A3000090408439B0A0121194089060843043F11
:101A40003E60060000F019FB0FBDC046A01A000062
:101A50000000086C69746572616C2C0008B5043F65
:101A60003E60404E00F0E1FA043F3E603E4E00F022
:101A7000DCFA3E4B3000184098420BD1F643043F4D
:101A80003E600626FFF728FF043F3E60384E00F018
:101A9000CCFA08BD043F3E600626FFF71DFF08BDD7
:101AA000FC1A0000200005646F65733E1A200002D6
:101AB000BF308047043F3E607646013E7047043F9A
:101AC0003E607646013E00F000F92A4A1368310074
:101AD00040CF0220084000D10231023111600136AE
:101AE000043F3E600026FFF733FF043F3E60194E7F
:101AF00000F09BFA136000F030FA00BD7C1B000080
:101B00000000073C6275696C647300B500F07DFBF2
:101B100000F0A0FD0220064040CF04D1043F3E600B
:101B2000362600F082FA043F3E60134E00F07DFA44
:101B3000043F3E60102600F0CFFA00BD00200000F8
:101B40000010000000020000003000000100C0FF93
:101B50000000C0FF8047000000F800F0FF07000011
:101B6000FF030000043F00003E6000000000FFFF94
:101B7000F64300000400002000B50000881B0000B0
:101B80005000035B275D03E0F01B0000000001270D
:101B900000B501F01BF8300040CF017800290CD1CE
:101BA000FFF74FFD102027206E65656473206E617E
:101BB0006D6520210A0001F041FB043F3E600600F4
:101BC00000F0C0FC40CF002E10D1D748043F3E604B
:101BD0000600FFF75DFDFFF734FD0C206E6F7420EB
:101BE000666F756E642E0A0001F028FB00BDC046CA
:101BF000401C0000100008706F7374706F6E6500F9
:101C000000B500F0E3FF00F09DFC300040CF002E57
:101C1000DBD01021014010290ED0202101402029C5
:101C200005D1FFF71BFF043F3E60C04E04E0FFF705
:101C300015FF043F3E60BE4EFFF7D6FE00BDC04616
:101C40008C1C0000000007696E6C696E652C00B585
:101C5000B849B94AB94B3088884208D0904208D078
:101C6000984206D0043F3E60060000F0DEF90236DE
:101C7000F1E740CF00BD0EB4AF4AB04B018802304F
:101C8000914201D09942F9D10EBC7047A01C0000CE
:101C90000000047265742C00043F3E60A64EC4E14F
:101CA000B01C00003000046578697400F4E7C04699
:101CB000E81C00003000077265637572736500B53B
:101CC00000F003F8FFF790FE00BD0FB59C480068D8
:101CD00006300178013101220A4089184018043F7A
:101CE0003E6006000FBDC046FC1C000040000573AE
:101CF00074617465043F3E60924E7047101D000091
:101D00000000015D8F480021C94301607047C04653
:101D1000201D00001000015B8A480021016070470F
:101D2000481D00000000013A00B58748076000F038
:101D30006CFA043F3E607F4E00F077F98148002145
:101D4000C943016000BDC046901D00003000013B4A
:101D500000B57D480168B9420ED0FFF772FC15202E
:101D6000537461636B206E6F742062616C616E638B
:101D700065642E0A01F062FA043F3E606E4E00F088
:101D800054F900F0EAF86F480021016000BDC04638
:101D9000A81D000000000765786563757465300054
:101DA00040CF01308746C046C01D000010000969C1
:101DB0006D6D656469617465043F3E601026F7E0EF
:101DC000D81D0000100006696E6C696E6500043F46
:101DD0003E602026ECE0C046F41D000010000B63BE
:101DE0006F6D70696C656F6E6C79043F3E60302674
:101DF000DEE0C046101E000010000A302D666F6C39
:101E00006461626C6500043F3E604026D0E0C046DD
:101E10002C1E000010000A312D666F6C6461626C2C
:101E20006500043F3E604126C2E0C046481E0000F7
:101E300010000A322D666F6C6461626C6500043FAD
:101E40003E604226B4E0C046641E000010000A3323
:101E50002D666F6C6461626C6500043F3E604326D2
:101E6000A6E0C046801E000010000A342D666F6C8C
:101E70006461626C6500043F3E60442698E0C046A1
:101E80009C1E000010000A352D666F6C6461626C48
:101E90006500043F3E6045268AE0C046B81E00004B
:101EA00010000A362D666F6C6461626C6500043F39
:101EB0003E6046267CE0C046D41E000010000A3773
:101EC0002D666F6C6461626C6500043F3E6047265E
:101ED0006EE0C046041F0000000008636F6E73745C
:101EE000616E740000B500F090F9FFF7B7FD043F94
:101EF0003E60124E00F099F8FFF785FF00F02DF8D4
:101F000000BDC0464C1F000000000932636F6E73B5
:101F100074616E7400B500F078F939683E600E4661
:101F2000FFF79CFDE1E70000380300204E1C000095
:101F3000E819000000B5000000BD00007047000077
:101F4000080000200C0000201C000020A01F000042
:101F5000000006736D756467650022480168224AB7
:101F6000914219D200B502390A88204B9A4204D115
:101F7000043F3E60002600F058F81D480068043F0A
:101F80003E6006001B4909680431164A1368116057
:101F900000F04BF8136000BD043F3E60002607E0F0
:101FA000F81F0000000008736574666C61677300B9
:101FB00000B50C4801680C4A914205D20C480168F2
:101FC0003143016040CF00BD320040CF0948006876
:101FD00004300188054B994201D1110000E0114302
:101FE000018000BD0400002000000020FFFF000071
:101FF00028000020080000202020000000000761C9
:102000006C69676E342C00B5754801680220014088
:1020100004D0043F3E60002600F007F800BDC04633
:1020200054200000000002682C000FB56C480168C5
:102030006C4A914205D2043F3E600E00FEF751FF0C
:1020400002E0320040CF0A80043F3E60022600F0EA
:1020500043F80FBD702000000000012C00B5043FC4
:102060003E60FFF7E2FF360CFFF7DFFF00BDC04622
:102070008C2000000000033E3C2C00B5043F3E6075
:10208000360CFFF7D2FFFFF7D0FF00BDCC200000D9
:10209000000007737472696E672C07B5300040CF7B
:1020A00001780131022909D30288043F3E601600FD
:1020B000FFF7BBFF0230023906D0F3E70278043F96
:1020C0003E601600FFF7B1FF07BDC04628210000A3
:1020D000000005616C6C6F7441480168414A91428F
:1020E0000FD2320040CF89183F4A914219D3FFF7EF
:1020F000A8FA0B466C6173682066756C6C0A01F077
:102100009DF8320040CF8918384A1268914208D3AE
:10211000FFF797FA0952616D2066756C6C0A01F041
:102120008DF801607047C0465021000000000D632B
:102130006F6D70696C65746F72616D3F043F3E60D6
:102140000026274800682749884248D3F64370474D
:102150007021000000000C636F6D70696C65746F16
:1021600072616D001E4800681E49884211D3704795
:10217000FC21000000000E636F6D70696C65746F68
:10218000666C61736800164800681649884200D280
:1021900070471748174902680B680A6003601048C7
:1021A000154902680B680A600360104800688342A2
:1021B00015D300B5FFF745FA2320566172696162B5
:1021C0006C657320636F6C6C6964652077697468F3
:1021D0002064696374696F6E6172790A00BD70472B
:1021E0000400002000000020000001002C0000205E
:1021F000080000202400002020000020E42200002D
:102200000000066372656174650000B500F0DEFCD5
:10221000300040CF017800290ED1FFF712FA1520C7
:10222000437265617465206E65656473206E616DCF
:102230006520210A01F002F8043F3E600600043FD9
:102240003E6000F07FF940CF300040CF00280ED034
:10225000FFF7F7F9095265646566696E6520043F0A
:102260003E60FFF715FAFFF7ECF9022E0A00FFF7C0
:10227000CAFE00F0EFF98C4800688C4988421DD2F4
:102280008B4800210160043F3E600626FFF724FFD3
:1022900039683E600E46FFF700FF864801680A680D
:1022A000854B9A4207D1804A13681160043F3E6013
:1022B000FFF7D4FE1360066040CF00BD7D48043FA9
:1022C0003E600668FFF7CAFE043F3E600026F64304
:1022D000FFF7ABFE7748310040CF0160FFF7DDFE2E
:1022E00000BDC046FC2200000000087661726961F2
:1022F000626C6500043F3E60012613E01423000079
:10230000000009327661726961626C65043F3E606B
:10231000022607E0EC2300000000096E7661726976
:1023200061626C6500B5FFF770FF5F4801685F4A46
:10233000914233D20F200640B20060480168891AEA
:102340005F4A91420BD2FFF77CF90F4E6F74206504
:102350006E6F7567682052414D0A00F06FFF016093
:10236000043F3E600E00FFF779FB043F3E60554E90
:10237000FFF75BFE300040CF0200002805D00E6062
:102380000431FFF76BFE0138F9D1043F3E6080262F
:102390001643FFF70DFEFFF7E0FD00BD00F05AF910
:1023A0000220064040CF04D1043F3E603626FFF7AE
:1023B0003CFE043F3E60444EFFF75FFE043F3E603C
:1023C000424EFFF75AFE043F3E603E4EFFF72DFEA1
:1023D000300040CF002803D0FFF740FE0138FBD18A
:1023E000FFF711FDFFF7B9FD00BDC046D424000082
:1023F0000000076275666665723A00B5FFF705FF73
:102400000120304036180220304036182648016836
:10241000264A914226D229480168891B284A9142BE
:102420000BD2FFF70EF90F4E6F7420656E6F756754
:10243000682052414D0A00F001FF0160043F3E60F8
:102440000E00FFF70BFB043F3E601E4EFFF7EDFD55
:10245000FFF704FE043F3E601D4EFFF7A9FDFFF7A6
:102460007CFD00BD00F0F6F80220064040CF04D10C
:10247000043F3E603626FFF7D8FD043F3E60124E13
:10248000FFF7FBFD043F3E60104EFFF7F6FD043FF3
:102490003E600C4EFFF7C9FDFFF71EFEFFF7B3FCD1
:1024A000FFF75BFD00BD00000400002000000020DD
:1024B0002800002008000020FFFFFFFF2C00002064
:1024C00000040020704700003E60043F02367E4654
:1024D000400100000425000000000F446963746996
:1024E0006F6E61727973746172742C4800682C4B42
:1024F0001B682C49043F3E60884201D22A4E704737
:102500001E0070473825000000000A736B69707365
:102510007472696E67003178013101220A408918AE
:102520007618704706B40178013101220A408918F3
:10253000401806BC7047C046B42500000000046681
:10254000696E64001FB53400FFF7CFFF300040CF45
:10255000002600238179FF291CD08188134A9142EB
:10256000026812D00630043F3E600600043F3E6021
:102570002600FEF7E4FF002E40CF06D0FFF7D2FF83
:1025800006000B000748864204D20948824201D067
:102590001000DFE7043F3E601E001FBD0400002066
:1025A0000800002000000020A4000000FFFF000041
:1025B000FFFFFFFF10260000000006636A756D70C4
:1025C0002C00320040CF310040CF8B1B043B9A4996
:1025D000194000290DD0994881420AD0FFF731F8FF
:1025E0000D4A756D7020746F6F206661720A00F07D
:1025F00025FE5B10FF210B40134330001E0000B589
:102600008F4A13681060FFF710FD136000BDC046CD
:10261000482600000000056A756D702C310040CF1F
:10262000300040CF0B1A043B86491940002902D0E4
:10263000854A9142D2D15B10844A1340844A1343A5
:10264000043F3E601E00DAE7302700000000046807
:1026500065726500043F3E60794E3668704700B58C
:10266000043F3E607B4EFFF7E0FC043F3E607A4E45
:10267000FFF7DBFC00BDEDE700B500F037F8396887
:102680003E600E46043F3E60744EFFF79AFF00BD69
:1026900000B500F02BF839683E600E46043F3E60FE
:1026A0006F4EFFF78EFF00BD00B5FFF7D8FF00F0BB
:1026B0001DF839683E600E46043F3E60694EFFF7E4
:1026C00080FF00BD00B500F011F839683E600E468D
:1026D000FFF7A4FF00BD00B5FFF7C1FFFFF7BAFF8A
:1026E000043F3E600226FFF7F7FC00BD00B5FFF790
:1026F000B1FF043F3E600226FFF7EEFC00BD00B5CF
:10270000FFF7A8FFFFF78AFF00BD00B5FFF7A2FFA4
:10271000043F3E60534EFFF754FF00BD00B5FFF786
:1027200099FF043F3E604D4EFFF74BFF00BDC04692
:102730006C2700003000047468656E00052E01D11E
:1027400040CFDCE7022E01D140CFDEE7FEF779FF74
:10275000175374727563747572657320646F6E2796
:1027600074206D617463680A00F068FD98270000AA
:10277000300004656C73650000B5022EE6D140CFD1
:10278000FFF7B4FF39683E600E46FFF7BEFF043F17
:102790003E60052600BDC046B0270000300002693B
:1027A000660000B5FFF797FF043F3E60022600BDBC
:1027B000D827000030000672657065617400042E31
:1027C000C4D140CF39683E600E4600B5FFF77AFFAE
:1027D000FFF79BFF00BDC046F427000030000577DF
:1027E00068696C65012EB1D140CF00B5FFF7D9FF04
:1027F000023600BD08280000300005756E74696C53
:10280000012EA3D140CF4FE71C2800003000056106
:102810006761696E012E99D140CF53E768280000A7
:10282000300005626567696E00B5FFF724FF043F5D
:102830003E60012600BD000001FFFFFF00FFFFFF1B
:102840000400002001F8FFFF00F8FFFFFF07000071
:1028500000E00000002E000040CF000000D100008A
:1028600000D7000000D00000782800002000016B95
:10287000043F3E60029E7047882800002000016AE5
:10288000043F3E60009E70479828000020000169C8
:10289000043F3E6026007047D82800003000056CD9
:1028A0006561766500B5674801683B00043F1A68BA
:1028B000043B1A60043304338B42F8D103B4FFF7AE
:1028C00015FF03BC330040CF04390B6001600439AD
:1028D0000A6801320A6000BDEC280000200006757D
:1028E0006E6C6F6F700030BC7047C04624290000CA
:1028F0003000052B6C6F6F70032E00D026E740CFA1
:1029000000B5043F3E60504EFFF7A1F9FFF7C0FE4F
:102910001AE0802000060019A419401B801940CF3E
:102920007047C046682900003000046C6F6F70006B
:10293000032E00D00AE740CF00B5043F3E60434E6F
:10294000FFF785F9FFF798FE00F01CF93D483100CC
:1029500040CF0160043F3E603D4EFFF778F900BD77
:102960000134AC427047C046B029000078000264D0
:102970006F0000B5043F3E60364EFFF768F93148FE
:102980000168043F3E600E00043F3E600026076081
:10299000FFF771FE043F3E60032600BD00B500F066
:1029A0002EF8ECE730B4340040CF350040CF70470C
:1029B000642A00007800033F646F00B5043F3E6066
:1029C000244EFFF744F9043F3E60234EFFF72DFBF2
:1029D0001C480168043F3E600E00FFF787FE013689
:1029E000043F3E60012617480760FFF744FE043F9E
:1029F0003E60032600BD00B500F001F8E3E700B536
:102A0000043F3E60154EFFF710FB043F3E60042676
:102A1000FEF762FF013B08D0043F3E600526FEF74B
:102A20005BFF013B00F0E4FB00BD043F3E60352648
:102A3000FFF7FBFA043F3E60094EFFF7F6FA00F09D
:102A4000D7FB00BD180000201229000060290000FB
:102A5000E6280000A4290000AC42000030B40000C9
:102A600040CF0000802A00003000046361736500DD
:102A7000043F3E600026043F3E6008267047C04683
:102A8000982A00003000033F6F6648480AE0013E84
:102A9000B64140CF7047C046242B00007800026F3B
:102AA00066004348082E00D050E640CF00B5043FF2
:102AB0003E600600FFF7CBF8FFF718FE39683E606E
:102AC0000E460136043F3E600926043F3E60394E03
:102AD000FFF7ABFA00BD00B5300040CF013B01B4B9
:102AE00000F086FB01BC082E00D02FE640CF043F4B
:102AF0003E600600FF213140B14204D12E490E4311
:102B0000FFF793FAD8E7043F3E600026FEF7E4FEA5
:102B1000043F3E60294EFFF788FACDE7300040CFF2
:102B2000B04270475C2B0000300005656E646F6634
:102B3000092E00D00AE640CF00B540B440CFFFF7E1
:102B4000D5FD39683E600E46FFF7E8FD043F3E6064
:102B500040BC043F3E60082600BDC046C02B0000BC
:102B6000300007656E6463617365082E00D0EDE583
:102B700040CF00B5043F3E600E4EFFF756FA00F01E
:102B800001F800BD00B5300040CF00280DD003B4DF
:102B900001213140002903D0013EFFF7B6FD01E0DD
:102BA000FFF7ADFD03BC0138EFE700BD8E2A000042
:102BB0001C2B000040CF0000002E0000B04200009F
:102BC000D82B0000000005746F6B656E2020043F59
:102BD0003E60060006E0C046342C00000000057090
:102BE0006172736530B510480178104A1278104B45
:102BF00000248018202E07D1914210D001300132DC
:102C00000578B542F8D006E0914208D00130013293
:102C10000578B54203D0013301341D70F4E7034851
:102C20000270034E347030BD7000002000000020A0
:102C300038030020742C0000000005646967697483
:102C4000D24B1B68303E0BD30A2E0BD3073E0A2E05
:102C500006D3242E06D3203E0A2E01D3242E01D3E0
:102C6000002670479E42FBD2043F3E600026F6439A
:102C70007047C0467C2D00000000066E756D6265D1
:102C800072003FB5300001780126012204B4BF4B29
:102C90001B680024002500293CD00130013902784E
:102CA0002D2A04D101B00022D24304B4F3E7232A31
:102CB00001D10A23EFE7242A01D11023EBE7252ACB
:102CC00001D10223E7E72E2A01D10226E3E72C2ACD
:102CD00036D0043F3E601600FFF7B4FF002E40CF11
:102CE0002BD0043F3E602600043F3E602E00043F90
:102CF0003E601E00043F3E6000260FB4FDF733FB2C
:102D00000FBC350040CF340040CF0022A4195541FC
:102D100040CFC0E704BC002A04D50022E443ED43C1
:102D20000134554133002600012B02D0043F3E60A0
:102D30002E00043F3E601E003FBD01B000263FBD97
:102D40002500002402260029E4D0425C01392E2A05
:102D5000F9D0043F3E601600FFF774FF002E40CF0D
:102D6000EBD0043F3C60043F3E601E000FB4FDF713
:102D7000AEFB0FBC340040CF40CFE4E7A02D0000F5
:102D80000000062E6469676974000A2E01D230368D
:102D900004E0242E01D2373600E023267047C046D7
:102DA000D82D0000000004686F6C6400330040CF31
:102DB000774801783F290DD201310170401801296F
:102DC00007D0013802780130027001380139012939
:102DD000F7D103707047C046F82D00000000056869
:102DE0006F6C643C330040CF694801783F2902D2C0
:102DF0000131017043547047102E0000000004732D
:102E000069676E00002E01D440CF70472D26CDE7B4
:102E1000202E0000000002233E0004375C4E704765
:102E2000382E000000000366235310B5202400F064
:102E300008F8013CFBD110BD5C2E000000000266CA
:102E4000230000B5043F3E60504E3668FDF75DFA42
:102E5000FFF79BFFFFF7C6FF00BDC046782E0000BE
:102E600000000223530000B500F00AF8002EFBD149
:102E700038680028F8D100BDA42E0000000001230E
:102E800000B5043F3E60414E3668043F3E60002678
:102E9000FDF77DFBFDF736F940CFFFF776FFFFF733
:102EA00085FF00BDB82E00000000023C230038481A
:102EB000002101707047C046CC2E00000000026661
:102EC0002E00043F3E60202605E0C0461C2F000077
:102ED000000003662E6E00B510B4340040CFFDF73D
:102EE0002DFDFDF7C9F9043F3E600026FFF7DFFF27
:102EF000FFF7B9FF40CF2C26FFF774FF002C03D05B
:102F0000FFF79FFF013CFBD110BC40CFFFF77AFFDA
:102F1000043F3E60043F3E601EE0C046342F000088
:102F200000000375642E00B5FFF7C1FFFFF79BFF9C
:102F300012E0C046682F0000000002642E0000B5B9
:102F4000FDF7FCFCFDF798F9FFF7B1FFFFF78BFFEA
:102F5000FDF7FFFCFFF756FFFFF75FFFFEF798FB5B
:102F6000FEF728FB00BDC0467C2F00000000027564
:102F70002E00043F3E600026D5E7C046942F000097
:102F80000000012E043F3E60F617D8E71000002035
:102F90003000002014320000000009696E74657270
:102FA0007072657430B5B24887420BD9FEF749FBA1
:102FB00010537461636B20756E646572666C6F7715
:102FC0000A003BE1AB4887420AD2FEF73AFB0F53B7
:102FD0007461636B206F766572666C6F770A2DE1A2
:102FE000FFF7F4FD300040CF0178002900D130BD5B
:102FF000A14C2568002D01D13D002560043F3E60B5
:103000000600FFF79FFA310040CF320040CF002A80
:1030100017D1043F3E600600FFF733FE320040CF79
:10302000002AC0D1043F3E600600FEF731FBFEF7E8
:1030300008FB0C206E6F7420666F756E642E0A009C
:10304000FCE08E4B1B68002B1ED100252560302331
:103050000B40302B11D1043F3E600600FEF718FBF9
:10306000FEF7EFFA1220697320636F6D70696C656B
:103070002D6F6E6C792E0A00E0E0043F3E60160072
:10308000FEF78DFEFFF78FFF80200840802810D0CC
:10309000EB1B9B0840200840402810D10820084026
:1030A000082802D1002B00D01FE00F2008408342E7
:1030B00005D3043F3E601600FEF771FE73E700F093
:1030C00097F8043F3E60160010220A40102A02D1F1
:1030D000FEF765FE67E720220A40202A02D1FEF7AC
:1030E000B6FD60E7FEF780FC5DE7072001401000B9
:1030F000FEF7C1FD012915D1012BDAD1FF213140A5
:10310000B14204D140880643FEF78FFF4BE7043FEE
:103110003E600026FEF7E0FB043F3E600688FEF7B7
:1031200084FF40E7022902D1012BC2D1EFE7032936
:103130001CD1012BBDD1FF213140B1420AD15049F0
:103140000E43FEF772FF0432043F3E601600FEF7A6
:103150007EFD28E7043F3E600026FEF7BDFB0232FD
:10316000043F3E601600FEF772FD1CE7042918D1EB
:10317000012B9ED1330040CF002B00D113E71F223B
:103180001A409A4205D0043F3E604688FEF74DFF44
:1031900009E7043F3E6006889B011E43FEF745FF9A
:1031A00001E7052921D1012B0FD1043F3E60002604
:1031B000FEF792FB043F3E600688FEF736FF043FB1
:1031C0003E60304EFEF731FFEDE6043F3E600026E4
:1031D000FEF782FB043F3E600126FEF77DFB043FC5
:1031E0003E604688FEF721FFDDE601308047DAE6E3
:1031F00000B5002B0BD0013B043F3E609E00BE5942
:10320000FEF72CFC002BF6D1043D2F0040CF00250B
:10321000256000BD30320000810009686F6F6B2DA2
:1032200071756974043F3E60174E70475A32000052
:1032300094320000000004717569740013488546DB
:103240000B4F13480A2101600C48002101600A4815
:10325000002101600C4800688746FEF731F9FFF74E
:10326000A1FEFEF7EEF905206F6B2E0AF5E70000D0
:103270003802002038010020140000200C0000203B
:10328000003E000040CF0000E81F0020380300206F
:1032900010000020A432000020000465696E740054
:1032A00062B67047B432000020000464696E740096
:1032B00072B67047C03200000000036E6F70704736
:1032C000E432000081000B6972712D7379737469A7
:1032D000636B043F3E60A44E7047BE320000A248BC
:1032E00000688746083300008100096972712D6605
:1032F00061756C74043F3E609C4E70478400000012
:103300009A4800688746C0462C33000081000B694C
:1033100072712D65787469305F31043F3E60944E60
:103320007047BE3200009248006887465033000064
:1033300081000B6972712D65787469325F33043FC7
:103340003E608C4E7047BE3200008A480068874657
:103350007833000081000C6972712D6578746934CE
:103360005F313500043F3E60834E7047BE3200003F
:10337000814800688746C04698330000810007698D
:1033800072712D616463043F3E607C4E7047BE32B3
:1033900000007A4800688746BC33000081000B6952
:1033A00072712D74696D315F7570043F3E60744EAB
:1033B0007047BE320000724800688746E033000064
:1033C00081000B6972712D74696D315F6363043F15
:1033D0003E606C4E7047BE3200006A480068874607
:1033E000043400008100086972712D74696D320027
:1033F000043F3E60644E7047BE3200006248006881
:103400008746C046283400008100086972712D7417
:10341000696D3300043F3E605C4E7047BE32000071
:103420005A4800688746C04600400000FFFF182D3C
:103430002D2D20466C6173682044696374696F6E3A
:10344000617279202D2D2D00FDF71EFF5048854615
:10345000504F2A2650485149016051485149016056
:103460005048514D040002680430018802304F4B2F
:10347000994222D04E4B0B4009D0FFF753F8FEF78C
:10348000FAFB0388408800040343ED1A15E080230B
:103490000B4012D00F23194089006D1AFFF742F834
:1034A000FEF7E9FB043F3E600600043F3E602E004D
:1034B000043F3E600E00FDF7EFFB3E48824205D020
:1034C000100006321278FF2A00D0CBE73A48046099
:1034D0003A4805603A483B49344A884204D00238A9
:1034E00003889342F9D0023037490860FEF7A9F803
:1034F000424D6563726973702D5374656C6C6172B3
:10350000697320312E312077697468204D30206333
:103510006F726520666F722053544D3332463035DA
:1035200031206279204D61747468696173204B6F3A
:1035300063680A0025480A210160254800210160CE
:103540002448002101602448043F3E600600FEF745
:10355000F9FF40CF002E02D0FEF721FC7AE640CFE3
:103560006CE604696E697400E41F0020E01F00200F
:10357000DC1F0020D81F0020D41F0020D01F0020F7
:10358000CC1F0020C81F0020C41F0020C01F002027
:10359000380300203802002004000020000400202E
:1035A00008000020A400000000200020FFFF000011
:1035B00000010000FFFFFFFF240000202C0000207E
:1035C000000001000040000020000020100000204A
:0C35D0000C0000201400002062350000F8
:0400000508000000EF
:00000001FF
