:020000040800F2
:1000000030030020D136000061350000613500006A
:1000100000000000000000000000000000000000E0
:100020000000000000000000000000008B35000010
:1000300000000000000000008B3500003F3500008C
:100040008B3500008B3500008B3500008B350000B0
:100050008B350000AF350000D3350000F9350000C6
:100060008B3500008B3500008B3500008B35000090
:100070001B3600003F360000633600008536000066
:10008000A93600008B3500008B3500008B35000051
:100090008B3500008B3500008B3500008B35000060
:1000A0008B3500008B3500008B3500008B35000050
:1000B0008B3500008B3500008B3500008B35000040
:1000C0008B350000EC000000FFFF1E2D2D2D204D74
:1000D0006563726973702D5374656C6C61726973BA
:1000E00020436F7265202D2D2D00C04604010000B5
:1000F00042000432647570003868043F3E60043F7B
:1001000038607047180100006200053264726F7039
:10011000043740CF7047C046380100004400053224
:100120007377617007CF043F3860043F3E60043F3F
:100130003A600E007047C0464C0100006200043275
:100140006E69700007CF043F386070476801000097
:10015000440005326F766572B868043F3E60043F24
:100160003860FE687047C0468C01000044000532CC
:100170007475636B07CF043F3860043F3E60043FF3
:100180003A60043F3960043F38607047B0010000B6
:1001900046000432726F74003868B9683A69B86012
:1001A00039613A6079687E60FE68F9607047C046E0
:1001B000D4010000460005322D726F743868B968AA
:1001C0003A6938613960BA60F968FE607E687960C2
:1001D0007047C046E8010000200003323E7201CFA4
:1001E00001B440B440CF7047000200002000033249
:1001F000723E043F3E6040BC01BC043F3860704723
:1002000018020000200003327240043F3E60019E4D
:10021000043F3E60009E70472C0200002000063222
:100220007264726F700002B07047C04644020000F2
:1002300042000364322F3868F10776104008084303
:10024000386070475802000062000364322A386840
:100250000018764138607047740200004200046460
:10026000736872003868F107760840080843386000
:100270007047C0468C0200006200046473686C0022
:1002800038680018764138607047C046A002000008
:100290004200046461627300002E16D47047C046A9
:1002A000BC0200004300083F646E6567617465002E
:1002B000300040CF002808D47047C046DC02000060
:1002C000420007646E656761746538680021C04349
:1002D000F64301304E4138607047C046F4020000DA
:1002E000640002642D0007CF121AB1410E00043FD2
:1002F0003A6070470C030000640002642B0007CFD3
:1003000012184E41043F3A607047C0462003000077
:10031000610003733E64043F3E60F6177047C046B9
:100320004C030000420003756D2A386803007343D4
:100330003B60010C320C0B005343B6B280B24E430B
:1003400050433618360CF6187047C0467C03000040
:100350004200026D2A003868C11705D0404238605B
:10036000F01704D07642E0E7F017DED0764200B511
:10037000FFF7DBFFFFF7A9FF00BDC046BC0300008D
:1003800044000375642A07CF564341437618010C95
:10039000130C59437618010C80B292B25143434377
:1003A00050430022C91852411204B6180A04090C1D
:1003B00080184E41043F38607047C046500400002A
:1003C00044000475646D2A0010B50024043F3E60AB
:1003D0007E68043F3E603E69FFF7A7FF310040CFD3
:1003E000300040CF043F3E603E68043F3E60FE6800
:1003F00003B4FFF79AFF03BC330040CF320040CF75
:10040000043F3E603E68043F3E603E690FB4FFF724
:100410008CFF0FBC9219634140CF8919624163413F
:1004200040CF043F3E607E68043F3E60FE680FB4EC
:10043000FFF77BFF0FBC9219634140CF89196241DE
:10044000634140CF1E003A607960B86010BDC0467D
:10045000740400004300022A2F0000B540B440CFCE
:10046000FFF779FF043F3E6040BC00F04FF80437CF
:1004700000BDC046980400004300052A2F6D6F643C
:1004800000B540B440CFFFF766FF043F3E6040BC7C
:1004900000F03CF800BDC046BC04000043000375FA
:1004A0002A2F00B540B440CFFFF73FFF043F3E6026
:1004B00040BC00F01CF8043700BDC046E00400005A
:1004C000430006752A2F6D6F640000B540B440CF1D
:1004D000FFF72BFF043F3E6040BC00F008F800BD72
:1004E00000050000430006756D2F6D6F640000B5B8
:1004F000043F3E60002600F01AF840CF043700BDEC
:10050000200500004300056D2F6D6F6400B5043FAA
:100510003E60F61700F034F840CF043700BDC04607
:100520007405000044000675642F6D6F640030B4DC
:10053000002300227968B86835003C6840264000F6
:10054000494152415B41AB4202D804D3A24202D39B
:10055000121BAB410130013EF1D10E0038607B60CF
:10056000BA6030BC704730B400237A68B9680020A4
:10057000E2E7C046EC050000440005642F6D6F649F
:1005800000B5F01719D0FFF7A0FEFFF7CBFDF0176D
:100590000CD0FFF79AFEFFF7C5FDFFF7C8FFFFF786
:1005A000C1FDFFF792FEFFF7BDFD00BDFFF7BAFDED
:1005B000FFF7BDFFFFF789FE00BDFFF7B3FDF017A2
:1005C0000ED0FFF782FEFFF7ADFDFFF7B0FFFFF79C
:1005D0007CFEFFF7A7FDFFF778FEFFF7A3FD00BD48
:1005E000FFF7A0FDFFF7A3FF00BDC0460406000013
:1005F000440002642F0000B5FFF7C2FFFFF7A2FD21
:1006000000BDC0464C060000440002662A0000B54A
:10061000F0170DD0FFF759FEFFF784FDF0170DD04E
:10062000FFF753FEFFF7D0FE40CF01CF386000BD8B
:10063000FFF778FDF017F5D0FFF747FEFFF7C4FE90
:1006400040CF01CF3860FFF740FE00BD98060000A4
:10065000440002662F0000B5F0170ED0FFF735FEFC
:10066000FFF760FDF0170ED0FFF72FFEFFF75AFDE2
:10067000FFF779FFFFF766FD00BDFFF753FDF017A9
:10068000F4D0FFF722FEFFF74DFDFFF76CFFFFF7F9
:100690001CFEFFF757FD00BDAC0600002000023233
:1006A000210006CF3160726040CF7047C006000065
:1006B000200002324000043F70683860366870479E
:1006C000E006000044000364753C07CF8E4204D866
:1006D00001D1904201D8002670470026F6437047AA
:1006E0000007000044000364753E07CFB14204D800
:1006F00001D1824201D8002670470026F643704798
:1007000020070000440002643C0007CF8E4204DC56
:1007100001D1904201DC002670470026F643704765
:1007200040070000440002643E0007CFB14204DCF1
:1007300001D1824201DC002670470026F643704753
:100740005007000062000364303C0437F61770471E
:100750006C07000042000364303D01CF002801D047
:1007600000267047013EB6417047C046880700002A
:10077000440003643C3E07CF904201D1761A01D079
:100780000026F6437047C046A407000044000264F8
:100790003D0007CF904201D000267047761A013EF7
:1007A000B6417047B8070000200003737040043F53
:1007B0003E603E007047C046C8070000200003733B
:1007C0007021370040CF7047DC0700002000037223
:1007D0007040043F3E606E467047C046EC07000024
:1007E000200003727021B54640CF70470808000012
:1007F0000000056465707468F549C91B8908043FE9
:100800003E600E007047C046180800006100036497
:100810007570043F3E607047280800006100046462
:10082000726F700040CF7047400800006100043FC5
:1008300064757000002E01D0043F3E607047C046D2
:1008400054080000620004737761700039683E60EC
:100850000E007047640800006200036E6970043780
:100860007047C046780800006200046F7665720029
:10087000043F3E607E687047900800006200047488
:1008800075636B0001CF083F7E6038607047C046DB
:10089000A8080000630003726F7403CF083F7860FC
:1008A0003E600E007047C046C00800006300042D83
:1008B000726F740003CF083F7E6039600600704796
:1008C000D40800002000047069636B00B0003E583B
:1008D0007047C046E40800002000023E720040B4A9
:1008E00040CF7047F8080000200002723E00043F2D
:1008F0003E6040BC7047C0460C09000020000272F8
:100900004000043F3E60009E7047C0461C09000046
:100910002000057264726F7001B0704734090000E6
:100920006000047472756500043F3E600026F64363
:100930007047C0464809000060000566616C736539
:10094000043F3E60002670475C0900006A000361B6
:100950006E6401CF064070470640C0467009000033
:100960006A000362696301CFB043060070478643A3
:10097000840900006A00026F720001CF06437047CD
:100980000643C046980900006A0003786F7201CFE1
:10099000464070474640C046A80900006100036E0B
:1009A0006F74F6437047C046C809000041000363F6
:1009B0006C7A300006D00026400002D001D2013609
:1009C000FAE7704720267047D809000061000373DA
:1009D000687276087047C046E8090000610003733A
:1009E000686C76007047C046F80900006100037229
:1009F0006F720120C64170470C0A0000610003724B
:100A00006F6C0020B61946417047C046280A0000A6
:100A10006C00067273686966740001CFF0400600CE
:100A2000704736080026C046440A00006C00076183
:100A300072736869667401CF3041060070473610E2
:100A4000F617C046600A00006C00066C73686966A1
:100A5000740001CFB0400600704736000026C04643
:100A6000700A0000610002303D00013EB64170474F
:100A7000840A0000610003303C3E013EB641F6436B
:100A80007047C046940A0000610002303C00F6172F
:100A90007047C046B00A00004200023E3D0001CF50
:100AA000B04201DA002670470026F6437047C04680
:100AB000CC0A00004200023C3D0001CFB04201DD03
:100AC000002670470026F6437047C046E40A00003F
:100AD0004200013C01CFB04202DA0026F6437047E3
:100AE00000267047FC0A00004200013E01CFB042E0
:100AF00002DD0026F643704700267047100B000009
:100B0000620003753E3D01CF861BB641F643704738
:100B1000240B0000620003753C3D01CF361AB6413C
:100B2000F6437047380B0000620002753C0001CFAD
:100B3000861BB6417047C0464C0B00006200027530
:100B40003E0001CF361AB6417047C046640B000024
:100B50006B00023C3E0001CF361A01D00026F6435E
:100B60007047C046780B00006B00013D01CF361A7C
:100B7000013EB6417047C0468C0B00006200036D19
:100B8000696E01CFB04200DA06007047A00B00008A
:100B90006200036D617801CFB04200DB0600704750
:100BA000B80B0000620004756D61780001CFB0429F
:100BB00000D306007047C046D40B000062000475E5
:100BC0006D696E0001CFB04200D80600704700008A
:100BD00030020020140C00000000046D6F766500E8
:100BE00007B5310040CF320040CF00290FD0B242CC
:100BF0000DD006D3013E013A705C50540139FBD14F
:100C000005E030781070013601320139F9D140CF5A
:100C100007BDC046380C000000000466696C6C001B
:100C2000300040CF310040CF002902D0013970544C
:100C3000FCD140CF7047C046440C0000200001406A
:100C4000366870475C0C00006D00012103CF3060F6
:100C50000E0070470660704701607047840C00000A
:100C60006D00022B210003CF3268121832600E0093
:100C70007047026892190260704702685218026059
:100C80007047C046940C000020000268400036887F
:100C90007047C046B00C00006D000268210003CF11
:100CA00030800E0070470680704701807047C04654
:100CB000D80C00006D0003682B2103CF3288121876
:100CC00032800E00704702889219028070470288B5
:100CD000521802807047C046E80C000020000263F2
:100CE000400036787047C046040D00006D00026376
:100CF000210003CF30700E007047067070470170FE
:100D00007047C0462C0D00006D0003632B2103CFFC
:100D10003278121832700E00704702789219027001
:100D200070470278521802707047C046540D000098
:100D30006D0004626973210003CF326802433260A0
:100D40000E007047026832430260704702680A432F
:100D5000026070477C0D00006D0004626963210031
:100D600003CF3268824332600E0070470268B2439C
:100D70000260704702688A4302607047A40D000059
:100D80006D0004786F72210003CF326842403260F8
:100D90000E007047026872400260704702684A4065
:100DA00002607047C00D00002000046269744000BA
:100DB00001CF3668064001D00026F6437047C04692
:100DC000E80D00006D0005686269732103CF328869
:100DD000024332800E00704702883243028070471F
:100DE00002880A4302807047100E00006D000568FB
:100DF0006269632103CF3288824332800E007047DC
:100E00000288B2430280704702888A43028070479A
:100E1000380E00006D000568786F722103CF3288AC
:100E2000424032800E007047028872400280704754
:100E300002884A4002807047540E00002000056876
:100E40006269744001CF3688064001D00026F6431F
:100E50007047C0467C0E00006D0005636269732117
:100E600003CF3278024332700E007047027832436B
:100E70000270704702780A4302707047A40E0000A7
:100E80006D0005636269632103CF3278824332705B
:100E90000E0070470278B2430270704702788A43AE
:100EA00002707047CC0E00006D000563786F7221F0
:100EB00003CF3278424032700E00704702787240A1
:100EC0000270704702784A4002707047E80E0000D6
:100ED000200005636269744001CF3678064001D076
:100EE0000026F6437047C046F80E00006100056317
:100EF000656C6C2B04367047080F000061000563B9
:100F0000656C6C73B60070479C0F000000000768AA
:100F1000666C61736821300040CF310040CF594B7F
:100F2000984221D3584B98421ED2584B19409942AF
:100F300019D001220240002A16D102889A4213D108
:100F4000534A8018534A544B1360544B1360544A0D
:100F5000012313600180534A136801201840FBD11C
:100F60004F4A80231360704700F0FCFB2A57726FD2
:100F70006E672061646472657373206F72206461B0
:100F8000746120666F722077726974696E6720667B
:100F90006C61736820210A0002F048FAEC0F00002F
:100FA00000000E666C6173687061676565726173DD
:100FB00065000FB5300040CF324B984214D3354A0C
:100FC000354B1360354B1360354A02231360364AA4
:100FD0001060334A42231360324A136801201840DC
:100FE000FBD12F4A802313600FBDC046681000005C
:100FF00000000A6572617365666C61736800214860
:1010000072B62149214A038893421CD0043F3E60B6
:101010000600043F3E6000F0A5FB10457261736559
:1010200020626C6F636B20617420200000F012FC62
:1010300000F098FB0C2066726F6D20466C6173683F
:101040000A00FFF7B6FF02308842DCD100F08AFBCD
:101050001246696E69736865642E20526573657403
:1010600020210A0002F036FBAC10000000000E65E3
:1010700072617365666C61736866726F6D003000D3
:1010800040CFBDE70040000000000100FFFF00006E
:10109000000000080420024023016745AB89EFCD22
:1010A000102002400C20024014200240C01000001A
:1010B0006900012B01CF3618704736180036C0463C
:1010C000D41000006900012D01CF861B7047361A2D
:1010D000003EC046E4100000610002312D00013ED8
:1010E0007047C046F4100000610002312B00013649
:1010F0007047C04604110000610002322D00023E1C
:101100007047C04614110000610002322B00023605
:101110007047C046281100006100066E6567617463
:10112000650076427047C0463C11000061000361D3
:101130006273002E00D576427047C04684110000CD
:10114000420005752F6D6F64310040CF002903D137
:10115000043F3E6000267047012200238E4206D9DC
:10116000003104D45200490001D48E42FAD88E4294
:1011700001D3761A134349085208F8D1043F3E6060
:101180001E007047F41100004200042F6D6F6400D0
:1011900000B5300040CF002E1CDA764200280CDA71
:1011A0004042043F3E600600FFF7CEFF300040CFD4
:1011B0007642043F3E60060000BD043F3E600600EC
:1011C000FFF7C2FF300040CF40427642043F3E600E
:1011D000060000BD002807DA4042043F3E600600DA
:1011E000FFF7B2FF764200BD043F3E600600FFF706
:1011F000ABFF00BD081200004200036D6F6400B534
:10120000FFF7C6FF40CF00BD1C1200004200012FB7
:1012100000B5FFF7BDFF043700BDC0462C1200002B
:101220006A00012A01CF4643704746433C12000042
:10123000610002322A0076007047C0464C1200005E
:10124000610002322F0076107047C0466012000025
:101250006100046576656E000120304036187047E5
:10126000781200008100046261736500043F3E60F3
:10127000864E70470A0000009012000000000662CF
:10128000696E617279008148022101607047C04631
:10129000A8120000000007646563696D616C7B48FB
:1012A0000A2101607047C046E01200000000036898
:1012B0006578764810210160704775497548086067
:1012C00075497648086076497648086076497748D7
:1012D000086077494620086076497748086070477B
:1012E000FC120000810009686F6F6B2D656D6974D9
:1012F000043F3E60714E7047F21300001813000067
:10130000810008686F6F6B2D6B657900043F3E604C
:101310006B4E70471A1400003813000081000A68F1
:101320006F6F6B2D656D69743F00043F3E60654EC5
:10133000704744140000C04654130000810009683F
:101340006F6F6B2D6B65793F043F3E605E4E70475B
:10135000721400007413000081000A686F6F6B2D17
:10136000706175736500043F3E60584E7047DA3413
:101370000000C0468C130000000004656D69740015
:101380000FB54E4800F029F80FBDC046A01300006D
:101390000000036B65790FB5494800F01EF80FBDDA
:1013A000B4130000000005656D69743F454800688E
:1013B0008746C046C81300000000046B65793F00F3
:1013C000414800688746C046E013000000000570F1
:1013D000617573653D480068874600688746C0466A
:1013E0000814000000000B73657269616C2D656D57
:1013F000697400B500F026F8002E40CFFAD0344AC8
:10140000167040CF00BDC0463014000000000A73C3
:10141000657269616C2D6B65790000B500F029F883
:10142000002E40CFFAD0043F3E602A4A167800BD15
:101430006014000000000C73657269616C2D656DAD
:1014400069743F0000B5FFF7C5FF043F3E6000260A
:10145000214801688020014000D0F64300BDC0460D
:10146000DC14000000000B73657269616C2D6B6504
:10147000793F00B5FFF7AEFF043F3E6000261648F7
:1014800001682020014000D0F64300BDFC1F002071
:101490001410024000005E001810024000400000DE
:1014A0000000004800002828240000481001000027
:1014B0000C380140003801400D000000F81F0020EA
:1014C000F41F0020F01F0020EC1F0020E81F002068
:1014D00028380140243801401C3801400015000024
:1014E0000000076365787065637400B5386801B4FF
:1014F0000130386000F00BF801BC067040CF00BD31
:10150000741500000000066163636570740000B527
:1015100002CF01390022FFF73EFF300040CF2028E4
:1015200019D2092816D00A281FD00D281DD0082846
:10153000F1D1002AEFD000F015F903082008002AA5
:10154000E9D0885C013A80230340E4D04023034083
:10155000F5D0E0E72020B242DDD2043F3E60060035
:10156000FFF70EFF01328854D5E7160000F0A8F807
:1015700000BDC04688150000400003746962043F46
:101580003E602B4E7047C046A01500008100033E10
:10159000696E043F3E60274E704700000000C04661
:1015A000C815000082000E63757272656E742D732B
:1015B0006F7572636500043F3E601F4E7047000008
:1015C000000068000020C046E41500000000097318
:1015D0006574736F75726365174802CF066041606A
:1015E00040CF704704160000000006736F757263E9
:1015F0006500043F3E60104E043F706838603668F6
:101600007047C0463C160000000005717565727990
:101610000FB5084800210160FFF7B1FF043F3E60AD
:10162000043F3E60C826FFF772FFFFF7D5FF0FBDEE
:1016300068000020E41F0020DC1F00208C16000042
:10164000000007636F6D706172650FB5310040CFA8
:1016500001CF884202D040CF00260FBD02CF002824
:1016600010D001380A5C335C412A02D35B2A00D2D5
:101670002032412B02D35B2B00D220339A42EED092
:1016800000260FBD0026F6430FBDC046A016000081
:1016900000000263720000B500F064F8010A00BDAA
:1016A000B4160000000002626C00043F3E60202679
:1016B0007047C046C816000000000573706163657E
:1016C000043F3E6020265BE6E8160000000006733B
:1016D00070616365730000B5002E03DDFFF7F0FF56
:1016E000013EFBD140CF00BDF81600005000065B64
:1016F000636861725D0005E010170000000004637C
:101700006861720000B501F01FFB40CF367800BD64
:101710002017000050000128043F3E60292606E003
:101720003C1700005000015C043F3E60002600B5FD
:1017300001F014FB043740CF00BDC0468417000001
:101740001000022E2200A14800B5043F3E600600B2
:1017500000F0E2F9043F3E60222601F0FFFA00F0BB
:1017600024FD00BD0AB4043F3E607646013E337856
:101770000121013319405B187146C9188E460ABC15
:101780003CE0C046AC170000100002632200904805
:10179000DAE7043F3E607646013E337801210133AB
:1017A00019405B187146C9188E467047D81700005B
:1017B0001000027322008748C6E7043F3E60764669
:1017C000043F3E60013E36780121731C19405B18CE
:1017D0007146C9188E467047F01700000000056377
:1017E0006F756E740136043F3E60013E3678704777
:1017F00018180000000005637479706501B5307831
:10180000002807D00136043F3E603678FFF7B8FD68
:101810000138F7D140CF01BD481800000000047422
:1018200079706500310040CF300040CF00B500290D
:1018300008D00022043F3E60865CFFF7A1FD013224
:101840009142F7D100BDC046841800000000046832
:1018500065782E0007B5310040CF20200F220438D4
:10186000043F3E600E00C6401640092E01D93736AF
:1018700000E03036FFF784FD0028F0D1FFF720FFAD
:1018800007BDC04694180000000003682E731FB502
:10189000514C0EE0A4180000000003752E731FB514
:1018A0004E4C06E0241900000000022E73001FB504
:1018B0004B4C4C49C91B89084B4A106803B40A2099
:1018C0001060FFF74FFF08537461636B3A205B00B1
:1018D000043F3E600E0001F02DFCFFF743FF025D68
:1018E000200003BC404A106000290AD03F4A10681B
:1018F00006B4043F3E600600A04706BC043A013926
:10190000F5D1FFF72FFF0620544F533A2000043F34
:101910003E603600A047FFF725FF04202A3E0A005C
:101920001FBDC046F0190000000005776F72647398
:1019300000B5FFF717FF06776F7264730A0000F0B7
:1019400072FEFFF70FFF09416464726573733A20FA
:10195000043F3E60FFF77EFFFFF704FF064C696E11
:101960006B3A2000043F3E603668FFF773FFFFF7D5
:10197000F9FE07466C6167733A20043F3E60B68803
:10198000FFF768FFFFF7EEFE06436F64653A20003D
:10199000B01D00F083FE043F3E600600FFF75AFFD3
:1019A000FFF7E0FE064E616D653A2000043F3E60A1
:1019B0000636FFF723FFFFF7D5FE010A00F04BFEC6
:1019C000300040CFBDD040CF00BD00006417000004
:1019D00092170000BA1700005518000023310000CC
:1019E0003531000030020020FC1F00202C020020B6
:1019F0000C1B000000001072656769737465726CDF
:101A000069746572616C2C003FB5350040CF2900C8
:101A1000C90029432D029E480543FF2300223000C0
:101A2000D040984301D00132F9E73000D04018404F
:101A30002843043F3E60060000F07FFB95480543C5
:101A400018009040864310D000243000E0409843B6
:101A500001D00134F9E7101B043F3E600E00800105
:101A6000064300F06AFB2200DFE7002A06D0043FAD
:101A70003E600E009201164300F05FFB40CF3FBD79
:101A80001FB5310040CF844C0C43C9000C434901C1
:101A9000300040CF020EFF231A407D4B0B4313430F
:101AA000043F3E601E0000F048FB043F3E602600FD
:101AB00000F043FB020CFF231A40784B0B43134307
:101AC000043F3E601E0000F038FB043F3E602600ED
:101AD00000F033FB020AFF231A40704B0B43134301
:101AE000043F3E601E0000F028FB043F3E602600DD
:101AF00000F023FB0200FF231A40684B0B43134303
:101B0000043F3E601E0000F018FB1FBD7C1B000060
:101B100000000563616C6C2C0FB5330000F058FEBB
:101B2000300040CF1B1A043B5D49194000290ED0FC
:101B30005C4A91420BD00136043F3E600026FFF71D
:101B400063FF043F3E60584E00F0F7FA0FBD40CFF0
:101B50005B085648564919400843DB0A5549194065
:101B6000090408439B0A0121194089060843043FE0
:101B70003E60060000F009FB0FBDC046D01B000010
:101B80000000086C69746572616C2C0008B5043F34
:101B90003E60494E00F0D1FA043F3E60474E00F0EF
:101BA000CCFA474B3000184098420BD1F643043F23
:101BB0003E600626FFF728FF043F3E60414E00F0DE
:101BC000BCFA08BD043F3E600626FFF71DFF08BDB6
:101BD000F81B00000000066372656174650000B5C3
:101BE00000F03DF81C20000217308047043F3E60A3
:101BF0007646013E00BDC046501C00002000056432
:101C00006F65733E1C20000217308047043F3E6022
:101C10007646013E7047043F3E607646013E2A4AC2
:101C200013682A4909680220084000D102310231B4
:101C300011600136043F3E600026FFF721FF043F9C
:101C40003E60194E00F079FA136000F0E4F900BD2F
:101C5000D41C00000000073C6275696C647300B519
:101C600000F06EFB00F0B4FD0220064040CF04D12E
:101C7000043F3E60362600F060FA043F3E60144E9A
:101C800000F05BFA043F3E60102600F0C1FA00BD90
:101C900000200000001000000002000000300000E2
:101CA0000100C0FF0000C0FF8047000000F800F006
:101CB000FF070000FF030000043F00003E6000003B
:101CC0000000FFFFF6430000000000201400002089
:101CD00000B50000E01C00005000035B275D03E03E
:101CE000F81C00000000012700B501F02DF800F0FD
:101CF00014FD40CF00BDC046401D0000100008701C
:101D00006F7374706F6E650000B501F01DF800F020
:101D100004FD300040CF102101400DD120210140B1
:101D200005D0FFF733FF043F3E60DF4E04E0FFF7CE
:101D30002DFF043F3E60DD4EFFF7EEFE00BDC046C6
:101D40008C1D0000000007696E6C696E652C00B583
:101D5000D749D84AD84B3088884208D0904208D01A
:101D6000984206D0043F3E60060000F0E6F90236D5
:101D7000F1E740CF00BD0EB4CE4ACF4B0188023010
:101D8000914201D09942F9D10EBC7047A01D0000CC
:101D90000000047265742C00043F3E60C54ECCE127
:101DA000B01D00003000046578697400F4E7C04697
:101DB000C81D000030000772656375727365043FCB
:101DC0003E60BE4E3668A7E6E01D00008100057348
:101DD00074617465043F3E60B94E704700000000B6
:101DE000F41D00000000015DB5480021C9430160F9
:101DF0007047C046041E00001000015BB04800217F
:101E0000016070472C1E00000000013A00B5AD488B
:101E1000076000F095FA043F3E60A54E00F08DF992
:101E2000A7480021C943016000BDC046741E0000E0
:101E30003000013B00B5A3480168B9420ED0FFF75E
:101E400091FC1520537461636B206E6F7420626186
:101E50006C616E6365642E0A01F0E8FA043F3E602F
:101E6000944E00F06AF900F0D6F895480021016020
:101E700000BDC046881E00000000076578656375D8
:101E80007465300040CF8746A01E0000100009692D
:101E90006D6D656469617465043F3E601026E9E01C
:101EA000B81E0000100006696E6C696E6500043F84
:101EB0003E602026DEE0C046D41E000010000B630A
:101EC0006F6D70696C656F6E6C79043F3E60302693
:101ED000D0E0C046F01E000010000A302D666F6C86
:101EE0006461626C6500043F3E604026C2E0C0460B
:101EF0000C1F000010000A312D666F6C6461626C6B
:101F00006500043F3E604126B4E0C046281F000043
:101F100010000A322D666F6C6461626C6500043FCC
:101F20003E604226A6E0C046441F000010000A336F
:101F30002D666F6C6461626C6500043F3E604326F1
:101F400098E0C046601F000010000A342D666F6CD8
:101F50006461626C6500043F3E6044268AE0C046CE
:101F60007C1F000010000A352D666F6C6461626C86
:101F70006500043F3E6045267CE0C046981F000097
:101F800010000A362D666F6C6461626C6500043F58
:101F90003E6046266EE0C046B41F000010000A37BF
:101FA0002D666F6C6461626C6500043F3E6047267D
:101FB00060E0C046E41F0000000008636F6E7374A9
:101FC000616E740000B500F0BBF9FFF7DFFD043F60
:101FD0003E60394E00F0B1F8FFF785FF00F01BF8C6
:101FE00000BDC0460820000000000932636F6E7318
:101FF00074616E7400B500F0A3F939683E600E4656
:10200000FFF7C4FDE1E7C04664200000000006734E
:102010006D756467650000B52B4801682A4A9142D6
:102020001AD202390A88294B9A4204D1043F3E60F1
:10203000274E00F082F800F06EF826480068043F52
:102040003E6006002449096804311F4A1368116084
:1020500000F073F8136000BD00F05DF8043F3E60CF
:10206000002608E0DC200000000008736574666C40
:102070006167730000B514480168134A914205D2A4
:10208000144801683143016040CF00BD320040CFA9
:1020900011480068043001880C4B994201D11100AD
:1020A00000E01143018000BD4E1D0000181B000020
:1020B00000B5000000BD00007047000014000020C3
:1020C000D81F00201000002000000020FFFF0000AB
:1020D000000000002000002004000020EC20000090
:1020E000000005616C69676E15E0C04608210000BC
:1020F000410007616C69676E6564012030403618E5
:10210000022030403618704730210000000007617F
:102110006C69676E342C00B57F480168022001406D
:1021200004D0043F3E60002600F007F800BDC04622
:1021300064210000000002682C000FB57648016899
:10214000754A914205D2043F3E600E00FEF7E3FE61
:1021500002E0320040CF0A80043F3E60022600F0D9
:1021600057F80FBD802100000000012C00B5043F8E
:102170003E60FFF7E2FF360CFFF7DFFF00BDC04611
:102180009C2100000000033E3C2C00B5043F3E6053
:10219000360CFFF7D2FFFFF7D0FF00BD042200008E
:1021A000000007737472696E672C07B5FF21314018
:1021B00040CF300040CF002905D1043F3E600026CB
:1021C000FFF7BBFF07BD043F3E60067836020E43B3
:1021D000FFF7B3FF0130013902290AD3043F3E6003
:1021E0004678360202781643FFF7A7FF023002391D
:1021F000F2E7002900D107BD043F3E600678FFF7F3
:102200009CFF07BD60220000000005616C6C6F74CC
:1022100041480168404A91420FD2320040CF8918AC
:102220003E4A914219D3FFF79DFA0B466C617368E1
:102230002066756C6C0A01F0F9F8320040CF8918FD
:10224000374A1268914208D3FFF78CFA0952616D40
:102250002066756C6C0A01F0E9F801607047C046B1
:102260008822000000000D636F6D70696C65746FEB
:1022700072616D3F043F3E60002627480068264992
:10228000884248D3F6437047A822000000000C6340
:102290006F6D70696C65746F72616D001E480068C7
:1022A0001D49884211D370473023000000000E639F
:1022B0006F6D70696C65746F666C61736800164849
:1022C00000681549884200D27047164816490268CE
:1022D0000B680A6003601048144902680B680A60C2
:1022E00003600F480068834215D300B5FFF73AFA40
:1022F00023205661726961626C657320636F6C6C38
:1023000069646520776974682064696374696F6EB5
:102310006172790A00BD70470000002000000100D2
:1023200024000020040000201C00002018000020D1
:102330001C24000000000828637265617465290090
:1023400000B500F001FD002E0ED1FFF70BFA1520AD
:10235000437265617465206E65656473206E616D9E
:102360006520210A01F062F83868043F3E60043FAE
:10237000386000F0A3F940CF002E40CF11D038686C
:10238000043F3E60043F3860FFF7ECF90952656492
:102390006566696E6520FFF745FAFFF7E3F9022EDF
:1023A0000A00FFF7B8FE00F013FA8D4800688C4968
:1023B00088421CD28B4800210160043F3E60062603
:1023C000FFF726FFFEF776FAFFF7EFFE8648016873
:1023D0000A68864B9A4207D1814A13681160043F0C
:1023E0003E60FFF7C3FE1360066040CF10E07E48FA
:1023F000043F3E600668FFF7B9FE043F3E607C4E36
:10240000FFF79BFE7848310040CF0160FFF7CDFE1B
:10241000734801687748016000BDC046342400005D
:102420000000087661726961626C6500043F3E607D
:10243000012613E04C240000000009327661726925
:1024400061626C65043F3E60022607E024250000BF
:102450000000096E7661726961626C6500B5FFF714
:102460006FFF5F4801685E4A914233D20F200640F9
:10247000B20061480168891A604A91420BD2FFF7A5
:1024800071F90F4E6F7420656E6F75676820524149
:102490004D0A00F0CBFF0160043F3E600E00FFF7E5
:1024A00075FB043F3E60564EFFF747FE300040CFBD
:1024B0000200002805D00E600431FFF757FE0138F6
:1024C000F9D1043F3E6080261643FFF7D3FDFFF7A6
:1024D000A2FD00BD00F07CF90220064040CF04D1EF
:1024E000043F3E603626FFF728FE043F3E60454E1F
:1024F000FFF74BFE043F3E60434EFFF746FE043FAE
:102500003E603F4EFFF719FE300040CF002803D059
:10251000FFF72CFE0138FBD1FFF7E5FCFFF77BFD51
:1025200000BDC046102600000000076275666665A3
:10253000723A00B5FFF704FF012030403618022040
:102540003040361826480168254A914226D22A484A
:102550000168891B294A91420BD2FFF703F90F4EFC
:102560006F7420656E6F7567682052414D0A00F0E8
:102570005DFF0160043F3E600E00FFF707FB043F74
:102580003E601F4EFFF7D9FDFFF7F0FD043F3E60B0
:102590001E4EFFF76FFDFFF73EFD00BD00F018F97E
:1025A0000220064040CF04D1043F3E603626FFF7AC
:1025B000C4FD043F3E60134EFFF7E7FD043F3E605D
:1025C000114EFFF7E2FD043F3E600D4EFFF7B5FDF3
:1025D000FFF71EFEFFF787FCFFF71DFD00BD0000A3
:1025E000000000202000002004000020FFFFFFFF6B
:1025F000FFFF000014000020240000203003002012
:10260000704700003E60043F02367E4640010000F5
:102610004026000000000F64696374696F6E617288
:10262000797374617274EB480068EA49043F3E6054
:10263000884201D2E84E7047E84E36687047C0467F
:102640007C26000000000E64696374696F6E61721D
:10265000796E6578740003B53168E148814207D02E
:102660008879FF2804D00E00043F3E60002603BD99
:10267000043F3E600026F64303BDC046B02600007E
:1026800000000A736B6970737472696E6700317849
:10269000013101220A4089187618704706B4017882
:1026A000013101220A408918401806BC7047C04613
:1026B0003027000000000466696E64003FB5002208
:1026C0000023350040CF340040CFFFF7ACFFC548B2
:1026D000B188884217D0043F3E600636FFF782F883
:1026E000043F3E602600043F3E602E00FEF7ADFF33
:1026F000002E40CF07D0B01DFFF7D0FF02000B0027
:10270000B448824204D2FFF7A6FF300040CFDED0AB
:102710001600043F3E601E003FBD00B53100386822
:10272000FFF7CCFF3A68002A01D100F077FD00BD29
:102730008C270000000006636A756D702C00320063
:1027400040CF310040CF8B1B043BA74919400029E3
:102750000DD0A64881420AD0FFF704F80D4A756DE6
:102760007020746F6F206661720A00F05FFE5B106C
:10277000FF210B40134330001E0000B5954A13683B
:102780001060FFF7DAFC136000BDC046C4270000EC
:102790000000056A756D702C310040CF300040CFCD
:1027A0000B1A043B92491940002902D0914A9142E8
:1027B000D2D15B10904A1340904A1343043F3E60CD
:1027C0001E00DAE7DC27000000000468657265007F
:1027D000043F3E607F4E36687047C046CC280000FC
:1027E00000000D666C6173687661722D68657265B4
:1027F000043F3E60824E3668704700B5043F3E603D
:10280000804EFFF79AFC043F3E607F4EFFF795FC39
:1028100000BDDDE700B500F037F839683E600E46D0
:10282000043F3E60794EFFF78AFF00BD00B500F01F
:102830002BF839683E600E46043F3E60744EFFF749
:102840007EFF00BD00B5FFF7D8FF00F01DF8396826
:102850003E600E46043F3E606E4EFFF770FF00BDC7
:1028600000B500F011F839683E600E46FFF794FF9E
:1028700000BD00B5FFF7C1FFFFF7AAFF043F3E60B0
:102880000226FFF7C5FC00BD00B5FFF7A1FF043F1E
:102890003E600226FFF7BCFC00BD00B5FFF798FFC5
:1028A000FFF77AFF00BD00B5FFF792FF043F3E60DF
:1028B000584EFFF744FF00BD00B5FFF789FF043F06
:1028C0003E60524EFFF73BFF00BDC04608290000A6
:1028D0003000047468656E00052E01D140CFDCE73E
:1028E000022E01D140CFDEE7FEF73CFF1753747292
:1028F0007563747572657320646F6E2774206D61E3
:102900007463680A00F092FD342900003000046509
:102910006C73650000B5022EE6D140CFFFF7B4FF1F
:1029200039683E600E46FFF7BEFF043F3E60052655
:1029300000BDC0464C29000030000269660000B5A9
:10294000FFF797FF043F3E60022600BD7429000098
:1029500030000672657065617400042EC4D140CFEA
:1029600039683E600E4600B5FFF77AFFFFF79BFF20
:1029700000BDC046902900003000057768696C658D
:10298000012EB1D140CF00B5FFF7D9FF023600BD0F
:10299000A4290000300005756E74696C012EA3D166
:1029A00040CF4FE7B8290000300005616761696ECC
:1029B000012E99D140CF53E7182A0000300005625C
:1029C0006567696E00B5FFF724FF043F3E6001268E
:1029D00000BD000000000020C40000000400002032
:1029E000FFFFFFFFFFFF000001FFFFFF00FFFFFFF2
:1029F00001F8FFFF00F8FFFFFF07000000E0000004
:102A000024000020002E000040CF000000D1000074
:102A100000D7000000D00000282A00002000016B31
:102A2000043F3E60029E7047382A00002000016A81
:102A3000043F3E60009E7047482A00002000016964
:102A4000043F3E6026007047882A00003000056C75
:102A50006561766500B5D44801683B00043F1A689B
:102A6000043B1A6008338B42F9D103B4FFF70CFF23
:102A700003BC330040CF04390B60016004390A689D
:102A800001320A6000BDC0469C2A00002000067585
:102A90006E6C6F6F700030BC7047C046D42A000067
:102AA0003000052B6C6F6F70032E00D01CE740CFF9
:102AB00000B5043F3E60BD4EFFF749F9FFF7B6FE93
:102AC0001AE0802000060019A419401B801940CF8D
:102AD0007047C046182B00003000046C6F6F700008
:102AE000032E00D000E740CF00B5043F3E60B04E5B
:102AF000FFF72DF9FFF78EFE00F00CF9AA48310020
:102B000040CF0160043F3E60AA4EFFF720F900BDB0
:102B10000134AC427047C046602B0000780002646C
:102B20006F0000B5043F3E60A34EFFF710F99E48CA
:102B30000168043F3E600E00043F3E6000260760CF
:102B4000FFF767FE043F3E60032600BD00B500F0BE
:102B50002EF8ECE730B4340040CF350040CF70475A
:102B6000F42B00007800033F646F00B5043F3E6023
:102B7000914EFFF7ECF8043F3E60904EFFF7DDFA10
:102B800089480168043F3E600E00FFF77DFE013674
:102B9000043F3E60012684480760FFF73AFE043F89
:102BA0003E60032600BD00B500F001F8E3E700B584
:102BB000043F3E60824EFFF7C0FA043F3E600426A9
:102BC000FEF722FF013B08D0043F3E600526FEF7DA
:102BD0001BFF013B00F003FC00BD043F3E603526B7
:102BE000FFF7ABFA043F3E60764EFFF7A6FA00F01F
:102BF000F6FB00BD102C000030000463617365001B
:102C0000043F3E600026043F3E6008267047C046F1
:102C1000282C00003000033F6F666B480AE0013E3D
:102C2000B64140CF7047C046B42C00007800026F18
:102C300066006648082E00D056E640CF00B5043F37
:102C40003E600600FFF783F8FFF71EFE39683E601E
:102C50000E460136043F3E600926043F3E60594E51
:102C6000FFF76BFA00BD00B5300040CF013B01B467
:102C700000F0B5FB01BC082E00D035E640CF043F84
:102C80003E600600FF213140B14204D150490E435D
:102C9000FFF753FAD8E7043F3E600026FEF7B4FE84
:102CA000043F3E604B4EFFF748FACDE7300040CF7F
:102CB000B0427047EC2C0000300005656E646F6612
:102CC000092E00D010E640CF00B540B440CFFFF74A
:102CD000DBFD39683E600E46FFF7EEFD043F3E60C7
:102CE00040BC043F3E60082600BDC0463C2D0000AD
:102CF000300007656E6463617365082E00D0F3E5EC
:102D000040CF00B5043F3E602E4EFFF716FA00F0AC
:102D100001F800BD00B5300040CF00280DD003B44D
:102D200001213140002903D0013EFFF7BCFD01E045
:102D3000FFF7B3FD03BC0138EFE700BD502D0000E5
:102D4000000005746F6B656E043F3E60202605E051
:102D5000DC2D0000000005706172736510B5FEF790
:102D600048FC310040CF300040CF1B4A1268841825
:102D7000202E07D191420FD0835CB34202D10132A1
:102D80008418F7E7914207D0835C0132B342F9D14E
:102D90008618361B013E01E08618361B043F3C6056
:102DA0000D48026010BD00000C000020C22A000087
:102DB000102B0000962A0000542B0000AC420000AB
:102DC00030B4000040CF00001E2C0000AC2C0000EE
:102DD000002E0000B0420000E41F00201C2E000066
:102DE0000000056469676974D44B1B68303E0BD3DF
:102DF0000A2E0BD3073E0A2E06D3242E06D3203EDE
:102E00000A2E01D3242E01D3002670479E42FBD206
:102E1000043F3E600026F6437047C046282F00005E
:102E20000000066E756D626572003FB5310040CFDF
:102E3000701E0126012204B4C04B1B68002400252B
:102E400000293CD00130013902782D2A04D101B08B
:102E50000022D24304B4F3E7232A01D10A23EFE787
:102E6000242A01D11023EBE7252A01D10223E7E729
:102E70002E2A01D10226E3E72C2A36D0043F3E60F9
:102E80001600FFF7B3FF002E40CF2BD0043F3E606B
:102E90002600043F3E602E00043F3E601E00043FBB
:102EA0003E6000260FB4FDF76EFA0FBC350040CF30
:102EB000340040CF0022A419554140CFC0E704BCE4
:102EC000002A04D50022E443ED4301345541330088
:102ED0002600012B02D0043F3E602E00043F3E60DE
:102EE0001E003FBD01B000263FBD25000024022684
:102EF0000029E4D0425C01392E2AF9D0043F3E601B
:102F00001600FFF773FF002E40CFEBD0043F3C606C
:102F1000043F3E601E000FB4FDF7E9FA0FBC340019
:102F200040CF40CFE4E7C0464C2F00000000062E03
:102F30006469676974000A2E01D2303604E0242ED9
:102F400001D2373600E023267047C046842F0000A8
:102F5000000004686F6C6400330040CF784801784B
:102F60003F290DD2013101704018012907D00138E5
:102F7000027801300270013801390129F7D103705C
:102F80007047C046A42F0000000005686F6C643CC9
:102F9000330040CF6A4801783F2902D201310170E5
:102FA00043547047BC2F00000000047369676E0033
:102FB000002E01D440CF70472D26CDE7D02F000042
:102FC000000002233E005E480678013038607047FA
:102FD000E82F000000000366235310B5202400F002
:102FE00008F8013CFBD110BD0C3000000000026667
:102FF000230000B5043F3E60504E3668FDF795F95A
:10300000FFF799FFFFF7C4FF00BDC046283000005E
:1030100000000223530000B500F00AF8002EFBD197
:1030200038680028F8D100BD5430000000000123AA
:1030300000B5043F3E60414E3668043F3E600026C6
:10304000FDF775FAFDF76EF840CFFFF774FFFFF755
:1030500083FF00BD683000000000023C23003848B8
:10306000002101707047C0467C30000000000266FD
:103070002E00043F3E60202605E0C046CC30000014
:10308000000003662E6E00B510B4340040CFFDF78B
:10309000F9FBFDF701F9043F3E600026FFF7DFFF73
:1030A000FFF7B9FF40CF2C26FFF772FF002C03D0AB
:1030B000FFF79FFF013CFBD110BC40CFFFF778FF2B
:1030C000043F3E60043F3E601EE0C046E430000026
:1030D00000000375642E00B5FFF7C1FFFFF79BFFEB
:1030E00012E0C04618310000000002642E0000B556
:1030F000FDF7C8FBFDF7D0F8FFF7B1FFFFF78BFF37
:10310000FDF7CBFBFFF754FFFFF75DFFFEF78AFBF0
:10311000FEF7D6FA00BDC0462C3100000000027553
:103120002E00043F3E600026D5E7C0464431000033
:103130000000012E043F3E60F617D8E7FC1F002078
:10314000280000208C3100000000086576616C7555
:103150006174650000B5FEF74CFA01CF01B440B4CC
:1031600040CFC148016802B400210160FEF734FA83
:1031700000F014F8BC4802BC0160043F3E6040BC53
:1031800001BC043F3860FEF727FA00BD043400009C
:10319000000009696E7465727072657430B5B34869
:1031A00087420BD9FEF7DEFA10537461636B20750A
:1031B0006E646572666C6F770A0037E1AC488742CF
:1031C0000AD2FEF7CFFA0F537461636B206F7665F6
:1031D00072666C6F770A29E1A64C2568002D01D133
:1031E0003D002560FFF7B0FD002E02D1043740CF2F
:1031F00030BD3868043F3E60043F3860FFF75EFA38
:10320000310040CF320040CF002A13D1386831005E
:10321000FFF70BFE320040CF002AC0D1FEF706FBBD
:10322000FEF7A0FA0C206E6F7420666F756E642E28
:103230000A00FBE0904B1B68002B1DD10025256088
:1032400030230B40302B0ED1FEF7ECFAFEF78AFA52
:103250001220697320636F6D70696C652D6F6E6CE1
:10326000792E0A00E2E0043740CF043F3E601600AA
:10327000FEF707FEFFF793FF043740CF802008409A
:103280000ED1EB1B9B08402008400FD008200840BF
:1032900002D0002B00D01DE00F200840834205D350
:1032A000043F3E601600FEF7ECFD78E700F097F86B
:1032B000043F3E60160010220A4002D0FEF7E1FDF6
:1032C0006DE720220A4002D0FEF741FD67E7FEF7D6
:1032D00023FC64E7072001401000FEF74CFD0129A4
:1032E00015D1012BDCD1FF213140B14204D14088FE
:1032F0000643FEF722FF52E7043F3E600026FEF73A
:1033000083FB043F3E600688FEF717FF47E702296C
:1033100002D1012BC4D1EFE703291CD1012BBFD16E
:10332000FF213140B1420AD154490E43FEF705FF57
:103330000432043F3E601600FEF709FD2FE7043F0C
:103340003E600026FEF760FB0232043F3E6016003E
:10335000FEF7FDFC23E7042918D1012BA0D133008F
:1033600040CF002B00D11AE71F221A409A4205D005
:10337000043F3E604688FEF7E0FE10E7043F3E60F3
:1033800006889B011E43FEF7D8FE08E7052923D1D6
:10339000012B0FD1043F3E600026FEF735FB043FB2
:1033A0003E600600FEF7D3FC043F3E60344EFEF75D
:1033B000C4FEF4E6043F3E600026FEF725FB043F12
:1033C0003E600126FEF720FBFEF7D5FC043F3E6081
:1033D0000600FEF7BCFCE2E601308047DFE600B500
:1033E000002B0BD0013B043F3E609E00BE59FEF710
:1033F000CDFB002BF6D1043D2F0040CF00252560EA
:1034000000BDC04620340000810009686F6F6B2D3D
:1034100071756974043F3E601A4E70475434000061
:1034200098340000000004717569740016488546E0
:103430000E4F16480A2101600F48002101600D4817
:1034400001600948016012480160124941600D485D
:1034500000688746FEF7DCF8FFF7A0FEFEF782F96A
:1034600005206F6B2E0AF5E7E41F002030020020D4
:103470003001002008000020D81F0020003E00007E
:1034800040CF0000D41F002030030020FC1F00208C
:10349000DC1F002068000020A83400002000046524
:1034A000696E740062B67047B8340000200004648E
:1034B000696E740072B67047D03400002000046951
:1034C00070737200043F3E60EFF305867047C0469C
:1034D000DC3400000000036E6F7070472035000080
:1034E000000009756E68616E646C656400B5FEF776
:1034F00039F914556E68616E646C656420496E74A8
:103500006572727570742000043F3E60EFF30586AB
:10351000FEF7A0F9FEF726F902210A0000BDC04619
:103520004435000081000B6972712D7379737469E1
:10353000636B043F3E60AB4E7047EC340000A9481B
:1035400000688746683500008100096972712D6640
:1035500061756C74043F3E60A34E7047EC3400000C
:10356000A14800688746C0469035000081000E697A
:1035700072712D636F6C6C656374696F6E00043FCC
:103580003E609A4E7047EC340000984800688746C9
:10359000B435000081000B6972712D657874693053
:1035A0005F31043F3E60924E7047EC34000090481B
:1035B00000688746D835000081000B6972712D655F
:1035C000787469325F33043F3E608A4E7047EC3452
:1035D00000008848006887460036000081000C69BA
:1035E00072712D65787469345F313500043F3E6037
:1035F000814E7047EC3400007F4800688746C04623
:10360000203600008100076972712D616463043FF8
:103610003E607A4E7047EC34000078480068874678
:103620004436000081000B6972712D74696D315F41
:103630007570043F3E60724E7047EC340000704875
:10364000006887466836000081000B6972712D742E
:10365000696D315F6363043F3E606A4E7047EC34CE
:1036600000006848006887468C36000081000869C1
:1036700072712D74696D3200043F3E60624E704776
:10368000EC340000604800688746C046B036000051
:103690008100086972712D74696D3300043F3E60CA
:1036A0005A4E7047EC340000584800688746C046C0
:1036B00000400000FFFF182D2D2D20466C6173681F
:1036C0002044696374696F6E617279202D2D2D001D
:1036D000FDF7F3FD4E4885464E4F2A264E484C498D
:1036E00001604E484E490160043F3E604C4E4D4DD6
:1036F000B1884D4B994224D04C4B0B400AD0B01DA1
:10370000FEF7CCFFFEF737FB038840880004034335
:10371000ED1A16E080230B4013D00F2319408900C7
:103720006D1AB01DFEF7BAFFFEF725FB043F3E60A1
:103730000600043F3E602E00043F3E600E00FDF791
:103740004FFAFEF788FF300040CFD1D038480660EE
:1037500040CF3848056038483849334A884204D059
:10376000023803889342F9D0023035490860FDF7EA
:10377000F9FF444D6563726973702D5374656C6C09
:103780006172697320322E302E332077697468207D
:103790004D3020636F726520666F722053544D3335
:1037A0003246303531206279204D61747468696128
:1037B00073204B6F63680A00224800210160043FB8
:1037C0003E60214E043F3E600426FEF777FF40CF67
:1037D000002E02D0FEF755FB39E640CF26E6696E93
:1037E00069740000D01F0020CC1F0020C81F0020DB
:1037F000C41F0020C01F0020BC1F0020B81F0020D5
:10380000B41F0020B01F0020AC1F0020A81F002004
:1038100030030020300200200000002004000020BF
:10382000C400000000200020FFFF00000001000095
:103830001C000020240000200000010000400000C7
:0C3840001800002008000020DE37000007
:0400000508000000EF
:00000001FF
