:020000040800F2
:10000000380300205D380000CB360000CB360000FE
:10001000CB360000CB360000CB36000000000000DD
:10002000000000000000000000000000CB360000CF
:10003000CB36000000000000CB360000A3360000E5
:10004000CB360000CB360000CB360000CB360000AC
:10005000CB360000CB360000F33600001B37000023
:10006000433700006B37000093370000CB360000A9
:10007000CB360000CB360000CB360000CB3600007C
:10008000CB360000CB360000B9370000CB3600007D
:10009000CB360000CB360000CB360000CB3600005C
:1000A000CB360000CB360000CB360000CB3600004C
:1000B000E1370000093800003138000000B501F0D8
:1000C00020FC16556E68616E646C656420496E7420
:1000D00065727275707420210A0000BD0201000073
:1000E000FFFF1E2D2D2D204D6563726973702D53FA
:1000F00074656C6C6172697320436F7265202D2D7D
:100100002D001A0100004200043264757000386846
:1001100047F8046D043F386070472C01000062000E
:10012000053264726F70043740CF70474A01000097
:10013000440005327377617007CF043F386047F899
:10014000046D043F3A600E0070475E0100006200DB
:1001500004326E69700007CF043F38607047780141
:100160000000440005326F766572B86847F8046D88
:10017000043F3860FE6870479C010000440005326F
:100180007475636B07CF043F386047F8046D043F14
:100190003A60043F3960043F38607047BE01000098
:1001A00046000432726F74003868B9683A69B86002
:1001B00039613A6079687E60FE68F9607047E001F5
:1001C0000000460005322D726F743868B9683A69CC
:1001D00038613960BA60F968FE607E68796070479E
:1001E000F4010000200003323E7201CF01B440B49C
:1001F00040CF70470C02000020000332723E47F8E7
:10020000046D40BC01BC043F38607047240200000C
:1002100020000332724047F8046D019E47F8046DD8
:10022000009E704736020000200006327264726F32
:10023000700002B070474E02000042000364322F8B
:100240003868F1077610400808433860704762024A
:10025000000062000364322A386800187641386072
:1002600070477C02000042000464736872003868C2
:10027000F107760840080843386070479202000092
:100280006200046473686C00386800187641386056
:100290007047A40200004200046461627300002EF3
:1002A00014D47047BE0200004300083F646E6567C7
:1002B00061746500300040CF002807D47047DC022D
:1002C0000000420007646E6567617465386800214C
:1002D000C043F64301304E4138607047F4020000DD
:1002E000640002642D0007CF121AB1410E00043FD2
:1002F0003A6070470A030000640002642B0007CFD5
:1003000012184E41043F3A6070471C030000610020
:1003100003733E6447F8046DF6177047300300001E
:10032000620003756D2A3868A0FB060638607047C6
:10033000440300006200026D2A00386880FB060654
:10034000386070478203000044000375642A07CFB9
:10035000564341437618010C130C59437618010C8F
:1003600080B292B25143434350430022C9185241D4
:100370001204B6180A04090C80184E41043F386074
:1003800070471404000044000475646D2A0010B521
:10039000002447F8046D7E6847F8046D3E69FFF756
:1003A000C2FF310040CF300040CF47F8046D3E68B7
:1003B00047F8046DFE6803B4FFF7B5FF03BC3300D4
:1003C00040CF320040CF47F8046D3E6847F8046DD7
:1003D0003E690FB4FFF7A7FF0FBC9219634140CFEE
:1003E00089196241634140CF47F8046D7E6847F840
:1003F000046DFE680FB4FFF796FF0FBC92196341BE
:1004000040CF89196241634140CF1E003A60796054
:10041000B86010BD360400004300022A2F0000B56A
:1004200040B440CFFFF789FF47F8046D40BC00F0AF
:1004300062F8043700BD580400004300052A2F6D00
:100440006F6400B540B440CFFFF777FF47F8046D05
:1004500040BC00F050F800BD7A0400004300037572
:100460002A2F00B540B440CFFFF75DFF47F8046D79
:1004700040BC00F01BF8043700BD9E0400004300A0
:1004800006752A2F6D6F640000B540B440CFFFF7AA
:100490004AFF47F8046D40BC00F008F800BDEA04CC
:1004A0000000430006756D2F6D6F640010B478680E
:1004B0003968002200242023640000184941524179
:1004C000964201D8921B0134013BF5D120236400F0
:1004D00049185241964201D8921B0134013BF6D192
:1004E00004373A60260010BC70475E0500004300E8
:1004F000056D2F6D6F6400B5F01718D0764200F0CF
:1005000019FAF0170DD0FFF7E1FE00F007FAFFF738
:10051000CDFF39683E600E46764239683E600E4631
:1005200000BD00F0FBF9FFF7C1FF764200BD00F00F
:1005300001FAF0170ED0FFF7C9FE00F0EFF9FFF750
:10054000B5FF764239683E600E46764239683E60B5
:100550000E4600BD00F0E2F9FFF7A8FF00BDBA05A6
:10056000000044000675642F6D6F640030B43C6871
:10057000B86879680022002520236D0000184941E1
:100580005241944201D8121B0135013BF5D120B4F0
:10059000002520206D00491852415B419E4204D83D
:1005A000944202D8121BB34101350138F2D13D60AB
:1005B000BA607B6040BC30BC70473006000044002D
:1005C00005642F6D6F6400B5F01719D0FFF77EFE3C
:1005D000FFF7B2FDF0170CD0FFF778FEFFF7ACFD88
:1005E000FFF7C4FFFFF7A8FDFFF770FEFFF7A4FDBC
:1005F00000BDFFF7A1FDFFF7B9FFFFF767FE00BDE4
:10060000FFF79AFDF0170ED0FFF760FEFFF794FD9D
:10061000FFF7ACFFFFF75AFEFFF78EFDFFF756FE20
:10062000FFF78AFD00BDFFF787FDFFF79FFF00BDC5
:1006300046060000440002642F0000B5FFF7C3FF28
:10064000FFF789FD00BDDE060000440002662A00B7
:1006500000B5F0170DD0FFF739FEFFF76DFDF0176D
:100660000DD0FFF733FEFFF792FE40CF01CF386089
:1006700000BDFFF761FDF017F5D0FFF727FEFFF78C
:1006800086FE40CF01CF3860FFF720FE00BD30B4BA
:100690003C68B9687A680023002520206D0049185D
:1006A00052415B419E4204D8944202D8121BB3418E
:1006B00001350138F2D1290020206D0092185B41EC
:1006C0009E4204D8944202D8121BB341013501382E
:1006D000F3D13D60BA607B600E0030BC70472A07E2
:1006E0000000440002662F0000B5F0170ED0FFF79F
:1006F000EDFDFFF721FDF0170ED0FFF7E7FDFFF747
:100700001BFDFFF7C4FFFFF726FD00BDFFF714FD3B
:10071000F017F4D0FFF7DAFDFFF70EFDFFF7B7FF94
:10072000FFF7D4FDFFF717FD00BD3E0700002000D6
:100730000232210006CF3160726040CF704752070D
:100740000000200002324000043F706838603668C4
:1007500070477207000044000364753C07CF8E4267
:1007600004D801D1904201D8002670470026F643F4
:1007700070479207000044000364753E07CFB14202
:1007800004D801D1824201D8002670470026F643E2
:100790007047B2070000440002643C0007CF8E425D
:1007A00004DC01D1904201DC002670470026F643AC
:1007B0007047D2070000440002643E0007CFB142F8
:1007C00004DC01D1824201DC002670470026F6439A
:1007D0007047E207000062000364303C0437F617FC
:1007E0007047FC07000042000364303D01CF002841
:1007F00001D000267047013EB64170471608000040
:10080000440003643C3E07CF904201D1761A01D0E8
:100810000026F643704732080000440002643D00A1
:1008200007CF904201D000267047761A013EB641AC
:1008300070474408000020000373704047F8046DBF
:100840003E007047540800002000037370213700F9
:1008500040CF70476608000020000372704047F8E0
:10086000046D6E4670477608000020000372702108
:10087000B54640CF704790080000000005646570E1
:100880007468E549C91B890847F8046D0E00704774
:10089000A008000061000364757047F8046D70479C
:1008A000B008000061000464726F700040CF7047B0
:1008B000C60800006100043F64757000002E01D07E
:1008C00047F8046D7047DA0800006200047377612E
:1008D000700039683E600E007047E8080000620052
:1008E000036E697004377047FC0800006200046FF3
:1008F0007665720047F8046D7E6870471209000043
:100900006200047475636B0001CF083F7E6038603D
:10091000704728090000630003726F7403CF083F1B
:1009200078603E600E007047400900006300042DAF
:10093000726F740003CF083F7E6039600600704715
:10094000520900002000047069636B0057F82660AC
:100950007047620900002000023E720040B440CFA0
:10096000704774090000200002723E0047F8046DD1
:1009700040BC70478609000020000272400047F822
:10098000046D009E70479609000020000572647295
:100990006F7001B07047AC0900006000047472759C
:1009A000650047F8046D0026F6437047C009000053
:1009B00060000566616C736547F8046D002670473A
:1009C000D60900006E0003616E6401CF06407047D7
:1009D0000640000616F0EE0900006E00036269632F
:1009E00001CFB043060070478643000636F0040A84
:1009F00000006E00026F720001CF0643704706438D
:100A0000000656F01A0A00006E0003786F7201CFDC
:100A1000464070474640000696F0280A00006100F4
:100A2000036E6F74F6437047380A00006100036379
:100A30006C7AB6FA86F67047460A000061000373C6
:100A4000687276087047540A000061000373686C8E
:100A500076007047640A0000610003726F725FEAFB
:100A600076067047760A0000610003726F6CB61953
:100A700056F100067047900A00006C000672736819
:100A80006966740001CFF040060070473608002602
:100A9000AA0A00006C00076172736869667401CF6E
:100AA0003041060070473610F617C40A00006C008B
:100AB000066C73686966740001CFB0400600704729
:100AC00036000026D40A0000610002303D00013EDD
:100AD000B6417047E60A0000610003303C3E013E2B
:100AE000B641F6437047F40A0000610002303C0052
:100AF000F61770470C0B00004200023E3D0001CF8C
:100B0000B042B4BF00264FF0FF367047240B000000
:100B10004200023C3D0001CFB042CCBF00264FF066
:100B2000FF3670473A0B00004200013C01CFB04253
:100B3000B4BF4FF0FF3600267047500B0000420054
:100B4000013E01CFB042CCBF4FF0FF3600267047C8
:100B5000640B0000620003753E3D01CF861BB64169
:100B6000F6437047780B0000620003753C3D01CFEF
:100B7000361AB641F64370478A0B000062000275D0
:100B80003C0001CF861BB64170479C0B0000620001
:100B900002753E0001CF361AB6417047B20B000015
:100BA0006B00023C3E0001CF361A18BF4FF0FF36F3
:100BB0007047C40B00006B00013D01CF361A013EA7
:100BC000B6417047D80B00006200036D696E01CF1B
:100BD000B042B8BF06467047EC0B00006200036DE0
:100BE000617801CFB042C8BF06467047020C0000D2
:100BF000620004756D61780001CFB04288BF06467F
:100C000070471C0C0000620004756D696E0001CF16
:100C1000B04238BF06467047380200205A0C000028
:100C20000000046D6F76650007B5310040CF3200DB
:100C300040CF00290FD0B2420DD006D3013E013A79
:100C4000705C50540139FBD105E0307810700136EA
:100C500001320139F9D140CF07BD7C0C0000000002
:100C60000466696C6C00300040CF310040CF002931
:100C700002D001397054FCD140CF7047880C00007D
:100C800020000140366870479C0C00006D00012177
:100C900003CF30600E00704706600160B20C0000A8
:100CA0002000022B210003CF3268121832600E00A0
:100CB0007047C00C00002000026840003688704772
:100CC000D60C00006D000268210003CF30800E00BA
:100CD000704706800180EC0C0000200003682B2187
:100CE00003CF3288121832800E007047FA0C0000D1
:100CF00020000263400036787047100D00006D0040
:100D00000263210003CF30700E007047067001703F
:100D1000260D0000200003632B2103CF3278121828
:100D200032700E0070473E0D0000200004626973AF
:100D3000210003CF3268024332600E007047560D27
:100D40000000200004626963210003CF32688243FF
:100D500032600E0070476E0D0000200004786F7244
:100D6000210003CF3268424032600E007047880D88
:100D70000000200004626974400001CF366806401C
:100D800018BF4FF0FF367047A00D00002000056827
:100D90006269732103CF3288024332800E007047AC
:100DA000B80D0000200005686269632103CF328816
:100DB000824332800E007047D00D0000200005688D
:100DC000786F722103CF3288424032800E00704724
:100DD000EA0D0000200005686269744001CF368882
:100DE000064018BF4FF0FF367047020E000020008B
:100DF00005636269732103CF3278024332700E00BB
:100E000070471A0E0000200005636269632103CF5A
:100E10003278824332700E007047320E000020009C
:100E20000563786F722103CF3278424032700E0032
:100E300070474C0E0000200005636269744001CFCA
:100E40003678064018BF4FF0FF367047F60E0000A8
:100E500000000768666C61736821300040CF310084
:100E600040CFDFF85C3498422BD3DFF858349842F7
:100E700027D2DFF854341940994221D010F00102F2
:100E8000002A1ED102889A421BD110F10060DFF8BF
:100E90003C24DFF83C341360DFF838341360DFF8AB
:100EA0003824DFF8383413600180DFF83424136805
:100EB00013F48033FBD1DFF82024DFF828341360EB
:100EC000704700F01EFD2A57726F6E6720616464E0
:100ED00072657373206F72206461746120666F7233
:100EE0002077726974696E6720666C61736820216F
:100EF0000A0002F086BB4E0F000000000763666C1C
:100F000061736821300040CF310040CFEC4B9842F4
:100F1000D7D3EC4B9842D4D211F0FF01FF2915D062
:100F20000278FF2ACDD110F10060E84AE84B136047
:100F3000E84B1360E84AEC4B13600170E84A136811
:100F400013F48033FBD1E44AE64B13607047D40FAF
:100F500000000000106572617365666C61736873F0
:100F60006563746F720000B5012E31D31C2E2FD231
:100F70000C2E2DD00D2E2BD00E2E29D00F2E27D09B
:100F8000D24AD34B1360D34B136000F0BAFC0D452B
:100F90007261736520736563746F722047F8046D26
:100FA00002F0A3F9CC4AD14BF60033431360CC4A8C
:100FB000136813F48033FBD1C74ACA4B136000F0A7
:100FC000A0FC0C66726F6D20466C6173682E0A007F
:100FD00040CF00BDA813000000000A657261736570
:100FE000666C6173680072B600B5C148C149026899
:100FF000B2F1FF3F05D047F8046D0126FFF7B3FFBC
:1010000002E004308842F2D3BB48BC490268B2F126
:10101000FF3F05D047F8046D0226FFF7A4FF02E06A
:1010200004308842F2D3B648B6490268B2F1FF3FB5
:1010300005D047F8046D0326FFF795FF02E0043062
:101040008842F2D3B048B1490268B2F1FF3F05D0FF
:1010500047F8046D0426FFF786FF02E0043088425B
:10106000F2D3AB48AB490268B2F1FF3F05D047F875
:10107000046D0526FFF777FF02E004308842F2D3C3
:10108000A548A6490268B2F1FF3F05D047F8046DB4
:101090000626FFF768FF02E004308842F2D3A0483A
:1010A000A0490268B2F1FF3F05D047F8046D07265A
:1010B000FFF759FF02E004308842F2D39A489B4977
:1010C0000268B2F1FF3F05D047F8046D0826FFF72C
:1010D0004AFF02E004308842F2D3954895490268FD
:1010E000B2F1FF3F05D047F8046D0926FFF73BFF3B
:1010F00002E004308842F2D38F4890490268B2F18E
:10110000FF3F05D047F8046D0A26FFF72CFF02E0E9
:1011100004308842F2D38A488A490268B2F1FF3F1C
:1011200005D047F8046D0B26FFF71DFF02E00430E1
:101130008842F2D3844885490268B2F1FF3F05D066
:1011400047F8046D1026FFF70EFF02E004308842D6
:10115000F2D37F487F490268B2F1FF3F05D047F8DC
:10116000046D1126FFF7FFFE02E004308842F2D33F
:1011700079487A490268B2F1FF3F05D047F8046D1B
:101180001226FFF7F0FE02E004308842F2D37448E2
:1011900074490268B2F1FF3F05D047F8046D132689
:1011A000FFF7E1FE02E004308842F2D36E486F4957
:1011B0000268B2F1FF3F05D047F8046D1426FFF72F
:1011C000D2FE02E004308842F2D3694869490268DD
:1011D000B2F1FF3F05D047F8046D1526FFF7C3FEB7
:1011E00002E004308842F2D3634864490268B2F1F5
:1011F000FF3F05D047F8046D1626FFF7B4FE02E066
:1012000004308842F2D35E485E490268B2F1FF3F83
:1012100005D047F8046D1726FFF7A5FE02E004305D
:101220008842F2D3584859490268B2F1FF3F05D0CD
:1012300047F8046D1826FFF796FE02E00430884256
:10124000F2D3534853490268B2F1FF3F05D047F843
:10125000046D1926FFF787FE02E004308842F2D3BE
:101260004D484E490268B2F1FF3F05D047F8046D82
:101270001A26FFF778FE02E004308842F2D348488D
:1012800048490268B2F1FF3F05D047F8046D1B26BC
:10129000FFF769FE02E004308842F2D300F031FB30
:1012A0001246696E69736865642E205265736574B1
:1012B00020210A005DF804EB62B602F0D1BA00000A
:1012C0000040000000002000FFFF0000043C02403E
:1012D00023016745AB89EFCD103C024001010000BE
:1012E0000C3C0240000000800100000002000100F0
:1012F00000400008FF7F000800800008FFBF0008D2
:1013000000C00008FFFF000800000108FFFF0108FF
:1013100000000208FFFF030800000408FFFF0508A3
:1013200000000608FFFF070800000808FFFF090883
:1013300000000A08FFFF0B0800000C08FFFF0D0863
:1013400000000E08FFFF0F0800001008FF3F100804
:1013500000401008FF7F100800801008FFBF100831
:1013600000C01008FFFF100800001108FFFF11085F
:1013700000001208FFFF130800001408FFFF150803
:1013800000001608FFFF170800001808FFFF1908E3
:1013900000001A08FFFF1B0800001C08FFFF1D08C3
:1013A00000001E08FFFF1F08BE1300006900012B8C
:1013B00001CF3618704736180036000616F1D413E0
:1013C00000006900012D01CF861B7047361A003ED0
:1013D0000006B6F1E2130000610002312D00013E6B
:1013E0007047F0130000610002312B000136704796
:1013F000FE130000610002322D00023E70470C1403
:101400000000610002322B00023670471E140000FB
:101410006100066E6567617465007642704732143C
:101420000000610003616273002E48BFD6F1000620
:10143000704750140000420005752F6D6F6401CF96
:101440003100B0FBF6F67143401A043F3860704734
:101450006E1400004200042F6D6F640001CF310054
:1014600090FBF6F67143401A043F386070478214CF
:1014700000004200036D6F6400B5FFF7EFFF40CF3F
:1014800000BD921400006200012F01CF90FBF6F620
:101490007047A21400006A00012A01CF464370473A
:1014A0004643B0140000610002322A007600704703
:1014B000BE140000610002322F0076107047D21473
:1014C00000006100046576656E000120304036182A
:1014D0007047E6140000400004626173650047F83D
:1014E000046D104E7047FC14000000000662696E27
:1014F000617279000B4802210160704712150000EB
:10150000000007646563696D616C06480A2101602B
:101510007047281500000000036865780148102115
:101520000160704710000020441500008100096828
:101530006F6F6B2D656D697447F8046D7B4E704756
:101540003A16000060150000810008686F6F6B2D6F
:101550006B65790047F8046D754E704760160000A2
:101560007E15000081000A686F6F6B2D3F656D6905
:10157000740047F8046D6F4E70478A1600009A1584
:101580000000810009686F6F6B2D3F6B657947F82C
:10159000046D694E7047B6160000B8150000810052
:1015A0000A686F6F6B2D70617573650047F8046D85
:1015B000624E704782360000CE15000000000465C0
:1015C0006D6974000FB5594800F02CF80FBDE21595
:1015D00000000000036B65790FB5554800F022F854
:1015E0000FBDF81500000000053F656D697400B57A
:1015F000504800F017F800BD0E1600000000043F30
:101600006B65790000B54C4800F00CF800BD281659
:101610000000000005706175736500B5474800F073
:1016200001F800BD006887464E16000000000B73ED
:10163000657269616C2D656D697400B500F025F8FF
:10164000002E40CFFAD03E4A167040CF00BD76162D
:10165000000000000A73657269616C2D6B6579008A
:1016600000B500F028F8002E40CFFAD047F8046DFE
:10167000334A167800BDA416000000000C73657292
:1016800069616C2D3F656D69740000B5FFF7C5FF9A
:1016900047F8046D00262B4801688020014000D0E7
:1016A000F64300BD7817000000000B736572696196
:1016B0006C2D3F6B657900B5FFF7AFFF47F8046D00
:1016C0000026204801682020014000D0F64300BDDC
:1016D0001D494FF480300860086800F40030FBD0EA
:1016E0001A494FF0010008601749086820F001000E
:1016F000086070471649174808601749086840F4A1
:1017000020100860154916480860164916480860F8
:10171000164946200860164916480860704700B50B
:10172000FFF7D6FFFFF7E6FF00BD0000FCFF022039
:10173000F8FF0220F4FF0220F0FF0220ECFF02205D
:1017400004100140001001400038024008380240F7
:1017500030380240FF071000000002402400024021
:1017600070070000443802401000000008100140DB
:101770000C1001400C200000F4170000000005715F
:10178000756572790FB5EF4800210170EE490022AE
:10179000FFF722FF300040CF20281BD2092818D0A5
:1017A0000A2823D00D2821D00828F1D1002AEFD013
:1017B00000F0A7F803082008002AE9D00B009B18C6
:1017C0001878013A80230340E2D040230340F3D04D
:1017D000DEE72020C72ADBD247F8046D0600FFF7BA
:1017E000F1FE01320B009B181870D1E70A7000F06F
:1017F00041F80FBD42180000000007636F6D706173
:1018000072650FB5300040CF31780278914216D121
:1018100010E00136013032780378412A02D35B2A86
:1018200038BF2032412B02D35B2B38BF20339A4282
:1018300005D101390029ECD10026F64300E000264D
:101840000FBD5618000000000263720000B500F0E2
:1018500058F8010A00BD68180000000002626C0020
:1018600047F8046D202670477C18000000000573BF
:101870007061636547F8046D2026A3E68C180000AC
:101880005000065B636861725D0005E0A41800000B
:10189000000004636861720000B501F05DFB013671
:1018A000367800BDB41800005000012847F8046DD8
:1018B000292606E0CC1800005000015C47F8046DB2
:1018C000002600B501F053FB40CF00BDF418000026
:1018D0001000022E22009D4800B547F8046D060056
:1018E00000F05FFA47F8046D222601F040FB00F09B
:1018F000A2FD00BD3E1900001000027322009448B2
:10190000EAE70EB47246013A47F8046D1600137800
:10191000013313F001015B181EEB030E0EBC14E043
:101920000EB47246013A47F8046D1600137801337D
:1019300013F001015B181EEB030E0EBC7047681913
:101940000000000004747970650003B5310040CFD9
:101950000878002807D0013147F8046D0E78FFF7AA
:1019600031FE0138F7D103BDA01900000000046862
:1019700065782E0003B5310040CF2020043847F8A9
:10198000046D31FA00F616F00F06092E8CBF3736BB
:101990003036FFF717FE0028F0D1FFF76BFF03BDCD
:1019A000B0190000000003682E731FB5694C0EE0EB
:1019B000C0190000000003752E731FB5664C06E0C9
:1019C0003E1A00000000022E73001FB5634C6449EC
:1019D000C91B8908634A106803B40A201060FFF726
:1019E00090FF08537461636B3A205B0047F8046D05
:1019F0000E0001F082FCFFF784FF025D200003BCB3
:101A0000584A106000290AD0574A106806B447F8AF
:101A1000046D0600A04706BC043A0139F5D1FFF772
:101A200070FF0620544F533A200047F8046D3600EB
:101A3000A047FFF766FF04202A3E0A001FBD8C1A4C
:101A4000000000000464756D700000B5300040CFE8
:101A50002021FFF756FF072064756D703E0A47F896
:101A6000046D0600FFF786FFFFF74BFF023A2000E8
:101A7000028847F8046D1600FFF77CFFFFF741FF6F
:101A800003203E0A02300139E9D100BD6C1B000081
:101A9000000005776F72647300B5FFF732FF0677B9
:101AA0006F7264730A0000F0ECFE300040CF817961
:101AB000FF2945D0FFF725FF094164647265737300
:101AC0003A2047F8046D0600FFF754FFFFF719FFAF
:101AD000064C696E6B3A20000268043047F8046DCA
:101AE0001600FFF747FF01880230FFF70AFF07469D
:101AF0006C6167733A2047F8046D0E00FFF73AFFF8
:101B000047F8046D060000F0D9FEFFF7FAFE064321
:101B10006F64653A200047F8046D0600FFF72AFF5E
:101B2000FFF7EFFE064E616D653A2000FFF70DFFEF
:101B3000FFF7E7FE010AB2F1FF3F01D01000B6E760
:101B400000BD00000000002070000020021900000D
:101B50002019000075190000EB320000FB32000074
:101B6000380200201000002034020020D01C0000A9
:101B700000000D3132626974656E636F64696E676F
:101B80000FB5FF2E04D847F8046D5FF0FF360FBD88
:101B900016F0FF10B0420ED14FF6FF710840310C25
:101BA000814208D116F0FF0656F4805647F8046DBE
:101BB0005FF0FF360FBD16F0FF20B0420FD14FF699
:101BC000FF710840310C814209D1360A16F0FF0638
:101BD00056F4005647F8046D5FF0FF360FBDFF2244
:101BE00031001140300A1040884210D1300C1040B2
:101BF00088420CD1300E1040884208D116F0FF0602
:101C000056F4405647F8046D5FF0FF360FBD3000C4
:101C100000210131001850F100007FF07F020240E6
:101C2000802A05D01F29F4D347F8046D00260FBD84
:101C30000829F9D3060036F0800611F00100C00132
:101C4000064311F00E00C002064311F0100080059B
:101C5000064347F8046D5FF0FF360FBD47F8046D8B
:101C6000DFF8F0655FF4704110EA010212011643DB
:101C70005FF4006110EA0102D20316435FF4E061F1
:101C800010EA010212011643FF2110EA0102164375
:101C90001E43C0E347F8046DDFF8BC655FF0704198
:101CA00010EA0102120B16435FF0006110EA010214
:101CB000520816435FF0E06110EA0102120B16436E
:101CC0005FF47F0110EA0102120C16431E43A2E3E7
:101CD000361D000000001072656769737465726CD0
:101CE00069746572616C2C000FB5330040CF1B0224
:101CF000FF2E05D856F400561E4300F064FB0FBDBE
:101D0000FFF73EFF002E40CF06D0DFF85005064318
:101D10001E4300F080FB0FBDF643FFF731FF002E9E
:101D200040CF06D0DFF8380506431E4300F073FBB2
:101D30000FBDF6430BE0961D00000000096D6F76A5
:101D4000776D6F76742C0FB5330040CF1B023000D7
:101D500040CFFFF783FF4FF6FF7110EA014001D03B
:101D6000FFF798FF0FBD0FB50136300040CF0023BD
:101D7000FFF774FFFFF78EFF06E00FB5013647F857
:101D8000046D0026FFF7B0FF47F8046D44F280763B
:101D900000F019FB0FBDFC1D000000000563616C25
:101DA0006C2C0FB5330000F01EFE300040CF1B1A24
:101DB000043BDFF8B0141940002906D0DFF8A8244E
:101DC000914202D0BDE80F40D7E740CF5B08DFF873
:101DD0009C0440F2FF7119400843DB0A40F2FF31D6
:101DE0001940090408439B0A13F0010189060843BE
:101DF00047F8046D060000F00EFB0FBD321E000018
:101E00000000086C69746572616C2C0008B547F8B5
:101E1000046D4FF6470600F0D6FA47F8046D46F613
:101E2000045600F0D0FA47F8046D0626FFF75CFF71
:101E300008BD7C1E0000200005646F65733E41F6FE
:101E40004F60804747F8046DBEF10106704747F8C0
:101E5000046DBEF1010600F0DCF8DFF8142413680D
:101E6000310040CF0220084000D002310231116021
:101E7000FFF779FF136000F010FA00BDBE1E0000EE
:101E80000000073C6275696C647300B500F089FB63
:101E900000F0A9FD0220064040CF04D047F8046DB1
:101EA000362600F090FA47F8046D4BF2005600F029
:101EB0008AFA47F8046D0A2600F0DBFA00BDCA1E54
:101EC00000005000035B275D03E0301F00000000AE
:101ED000012700B501F040F8300040CF017800291B
:101EE0000CD1FFF70EFD102027206E65656473206E
:101EF0006E616D6520210A0001F083BB47F8046D17
:101F0000060000F0EAFC40CF002E10D1D94847F877
:101F1000046D0600FFF719FDFFF7F3FC0C206E6F50
:101F20007420666F756E642E0A0001F06ABB00BDF6
:101F30007E1F0000100008706F7374706F6E650074
:101F400000B501F009F800F0C8FC300040CF002EC9
:101F5000DCD01021014010290ED020210140202981
:101F600005D1FFF753FF47F8046DC34E04E0FFF7B8
:101F70004DFF47F8046DC14EFFF713FF00BDD41F9E
:101F80000000000007696E6C696E652C00B54BF2AD
:101F900000514BF6005244F270733088884208D0EA
:101FA000904208D0984206D047F8046D060000F031
:101FB0000AFA0236F1E740CF00BD0EB44BF60052EC
:101FC00044F2707301880230914201D09942F9D1F4
:101FD0000EBC7047EA1F00000000047265742C00FC
:101FE00047F8046D4BF60056EDE1F81F0000300095
:101FF000046578697400F3E72E2000003000077252
:1020000065637572736500B500F003F8FFF7C9FEEC
:1020100000BD0FB59A4800680630017801310122F1
:102020000A408918401847F8046D06000FBD422089
:102030000000400005737461746547F8046D914EAB
:102040007047542000000000015D8E480021C94304
:1020500001607047642000001000015B8948002186
:10206000016070478C2000000000013A00B58648EE
:10207000076000F096FA47F8046D4BF2005600F046
:10208000A2F980480021C943016000BDD4200000AE
:102090003000013B00B57C480168B9420ED0FFF723
:1020A00030FC1520537461636B206E6F7420626185
:1020B0006C616E6365642E0A01F0A3BA47F8046D83
:1020C0004BF6005600F07FF900F0E7F86D4800216C
:1020D000016000BDEA2000000000076578656375B7
:1020E0007465300040CF01308746022100001000A7
:1020F00009696D6D65646961746547F8046D102642
:10210000F7E018210000100006696E6C696E65002A
:1021100047F8046D2026ECE03221000010000B632C
:102120006F6D70696C656F6E6C7947F8046D302661
:10213000DFE04C21000010000A302D666F6C6461F6
:10214000626C650047F8046D4026D2E0662100000D
:1021500010000A312D666F6C6461626C650047F88F
:10216000046D4126C5E08021000010000A322D6672
:102170006F6C6461626C650047F8046D4226B8E0DC
:102180009A21000010000A332D666F6C6461626C46
:10219000650047F8046D4326ABE0B4210000100051
:1021A0000A342D666F6C6461626C650047F8046DDB
:1021B00044269EE0CE21000010000A352D666F6C8B
:1021C0006461626C650047F8046D452691E0E82182
:1021D000000010000A362D666F6C6461626C650049
:1021E00047F8046D462684E00222000010000A37FA
:1021F0002D666F6C6461626C650047F8046D47265C
:1022000077E032220000000008636F6E7374616E25
:10221000740000B500F0C5F9FFF7F8FD47F8046D4C
:1022200044F2707600F0CFF8FFF78CFF00F035F83D
:1022300000BD8C22000000000932636F6E73746170
:102240006E7400B500F0ADF939683E600E46FFF7D8
:10225000DDFDE1E7000040F20000C0F200005FF0A9
:1022600000007FF00100C0FF0000C0FF00F800F098
:1022700004000020380300208C1F0000A21D000075
:10228000080000200C0000201C000020E2220000BA
:10229000000006736D756467650023480168234A72
:1022A000914280F01A8000B502390A88204B9A4288
:1022B00004D147F8046D002600F085F81D48006839
:1022C00047F8046D06001C4909680431164A136872
:1022D000116000F078F8136000BD47F8046D002627
:1022E00007E03C230000000008736574666C6167BA
:1022F000730000B50C4801680C4A914280F00680DA
:102300000C4801683143016040CF00BD320040CF2E
:102310000948006804300188054B99420CBF1146FA
:102320001143018000BD00000400002000000020D7
:10233000FFFF000028000020080000205E230000AE
:10234000000006616C69676E2C008B4801680120F3
:10235000014003D047F8046D00261AE07047882337
:102360000000000007616C69676E342C00B5FFF750
:10237000ECFF814801680220014004D047F8046D59
:10238000002600F020F800BDBC230000000002631E
:102390002C0000B578480168784A914205D247F888
:1023A000046D0E00FEF7AEFD02E0320040CF0A7071
:1023B00047F8046D012600F05CF800BDF223000030
:1023C000000002682C000FB56B4801686B4A91420F
:1023D00080F0068047F8046D0E00FEF73EFD02E037
:1023E000320040CF0A8047F8046D022600F041F821
:1023F0000FBD0C2400000000012C00B547F8046D4F
:10240000FFF7E1FF360CFFF7DEFF00BD28240000D8
:102410000000033E3C2C00B547F8046D360CFFF776
:10242000D2FFFFF7D0FF00BD662400000000077355
:102430007472696E672C07B5300040CF01780131A6
:10244000022909D3028847F8046D1600FFF7BBFF85
:102450000230023906D0F3E7027847F8046D16001F
:10246000FFF7B1FF07BDC0240000000005616C6CE0
:102470006F7441480168414A91420FD2320040CF07
:1024800089183F4A914219D3FFF73BFA0B466C611A
:1024900073682066756C6C0A01F0B3B8320040CFE7
:1024A0008918384A1268914208D3FFF72AFA09526C
:1024B000616D2066756C6C0A01F0A3B8016070470D
:1024C000E824000000000D636F6D70696C65746F27
:1024D00072616D3F47F8046D002627480068274960
:1024E000884248D3F64370470825000000000C637B
:1024F0006F6D70696C65746F72616D001E48006865
:102500001E49884211D370479425000000000E63D5
:102510006F6D70696C65746F666C617368001648E6
:1025200000681649884200D2704717481749026868
:102530000B680A6003601048154902680B680A605E
:10254000036010480068834215D300B5FFF7D9F93E
:1025500023205661726961626C657320636F6C6CD5
:1025600069646520776974682064696374696F6E53
:102570006172790A00BD704704000020000000204D
:10258000000020002C000020080000202400002073
:10259000200000207C260000000006637265617444
:1025A000650000B500F0D8FC300040CF017800296C
:1025B0000ED1FFF7A6F91520437265617465206E90
:1025C00065656473206E616D6520210A01F019B89C
:1025D00047F8046D060047F8046D00F07EF940CF1F
:1025E000300040CF00280ED0FFF78BF90952656408
:1025F0006566696E652047F8046DFFF7A6F9FFF779
:1026000080F9022E0A00FFF7A0FE00F0ECF98F48D7
:1026100000688F49884280F01E808E48002101604A
:1026200047F8046D0626FFF724FF39683E600E4622
:10263000FFF701FF884801680A68B2F1FF3F07D140
:10264000824A1368116047F8046DFFF7D6FE1360E5
:10265000066040CF00BD804847F8046D0668FFF76C
:10266000CCFE47F8046D0026F643FFF7ACFE7A482F
:10267000310040CF0160FFF7DEFE00BD9426000070
:102680000000087661726961626C650047F8046D4C
:10269000012613E0AC260000000009327661726961
:1026A00061626C6547F8046D022607E08827000028
:1026B0000000096E7661726961626C6500B5FFF7B2
:1026C00070FF62480168624A914280F035800F20B5
:1026D0000640B20061480168891A614A91420BD2F2
:1026E000FFF70FF90F4E6F7420656E6F75676820E6
:1026F00052414D0A00F085BF016047F8046D0E009D
:10270000FFF784FB47F8046D44F27076FFF75BFE39
:10271000300040CF0200002805D00E600431FFF7E2
:102720006CFE0138F9D147F8046D80261643FFF797
:10273000E0FDFFF7B2FD00BD00F055F902200640B4
:1027400040CF04D147F8046D3626FFF73CFE47F82A
:10275000046D444EFFF75FFE47F8046D424EFFF7ED
:102760005AFE47F8046D44F27076FFF72CFE3000F5
:1027700040CF002803D0FFF740FE0138FBD1FFF720
:10278000E1FCFFF78AFD00BD6C2800000000076235
:1027900075666665723A00B5FFF703FF01203040A9
:1027A000361802203040361828480168284A9142DD
:1027B00080F0298029480168891B294A91420BD25F
:1027C000FFF79FF80F4E6F7420656E6F7567682076
:1027D00052414D0A00F015BF016047F8046D0E002C
:1027E000FFF714FB47F8046D44F27076FFF7EBFD3A
:1027F000FFF703FE47F8046D40F24016FFF779FD3E
:10280000FFF74BFD00BD00F0EEF80220064040CF80
:1028100004D147F8046D3626FFF7D5FD47F8046D5F
:10282000104EFFF7F8FD47F8046D0F4EFFF7F3FD6C
:1028300047F8046D44F27076FFF7C5FDFFF719FE07
:10284000FFF780FCFFF729FD00BD00000400002019
:102850000000002028000020080000202C0000209C
:10286000000400203E60043F02367E469C280000A3
:1028700000000F44696374696F6E617279737461EB
:1028800072742C4800682C4B1B682C4947F8046D67
:10289000884201D22A4E70471E007047CE280000A1
:1028A00000000A736B6970737472696E6700317827
:1028B000013101220A4089187618704706B4017860
:1028C000013101220A408918401806BC7047482986
:1028D000000000000466696E64001FB53400FFF755
:1028E000D0FF300040CF002600238179FF291CD083
:1028F0008188144A9142026812D0063047F8046D6C
:10290000060047F8046D2600FEF77BFF002E40CF3F
:1029100006D0FFF7D3FF06000B000848864204D21A
:10292000B2F1FF3F01D01000DFE747F8046D1E0051
:102930001FBD00000400002008000020000000204F
:10294000DC000000FFFF0000A22900000000066379
:102950006A756D702C00320040CF310040CF8B1B68
:10296000043B9C49194000290DD09B4881420AD064
:10297000FEF7C7FF0D4A756D7020746F6F2066619A
:10298000720A00F03EBE5B10FF210B401343300083
:102990001E0000B5914A13681060FFF714FD136024
:1029A00000BDDA2900000000056A756D702C310049
:1029B00040CF300040CF0B1A043B89491940002911
:1029C00002D0884A9142D3D15B10874A134053F416
:1029D000604347F8046D1E00DBE7CE2A00000000CC
:1029E00004686572650047F8046D7C4E3668704770
:1029F00000B547F8046D42F60066FFF7E4FC47F8BF
:102A0000046D4CF64076FFF7DEFC00BDEBE700B549
:102A100000F03AF839683E600E4647F8046D4DF212
:102A20000016FFF798FF00BD00B500F02DF83968DB
:102A30003E600E4647F8046D4DF20076FFF78BFFBF
:102A400000BD00B5FFF7D4FF00F01EF839683E6006
:102A50000E4647F8046D4DF20006FFF77CFF00BDFF
:102A600000B500F011F839683E600E46FFF79FFF91
:102A700000BD00B5FFF7BCFFFFF7B5FF47F8046DD9
:102A80000226FFF7F6FC00BD00B5FFF7ACFF47F8E4
:102A9000046D0226FFF7EDFC00BD00B5FFF7A3FFB4
:102AA000FFF785FF00BD00B5FFF79DFF47F8046DF8
:102AB0004DF20006FFF74FFF00BD00B5FFF793FF93
:102AC00047F8046D4DF20016FFF745FF00BD0A2BD5
:102AD00000003000047468656E00052E01D140CFFF
:102AE000DBE7022E01D140CFDDE7FEF70AFF1753E7
:102AF00074727563747572657320646F6E277420C9
:102B00006D617463680A00F07CBD362B00003000F4
:102B100004656C73650000B5022E7FF4E6AF40CF0C
:102B2000FFF7B2FF39683E600E46FFF7BCFF47F87B
:102B3000046D052600BD4E2B0000300002696600C2
:102B400000B5FFF796FF47F8046D022600BD742B11
:102B5000000030000672657065617400042EC4D1F7
:102B600040CF39683E600E4600B5FFF779FFFFF7AA
:102B70009AFF00BD902B00003000057768696C65F6
:102B8000012EB2D140CF00B5FFF7DAFF023600BD0B
:102B9000A42B0000300005756E74696C012EA4D161
:102BA00040CF4EE7B82B0000300005616761696EC9
:102BB000012E9AD140CF53E7EC2B00003000056284
:102BC0006567696E00B5FFF721FF47F8046D0126C0
:102BD00000BD000001FFFFFF00FFFFFF0400002019
:102BE00001F8FFFF00F8FFFFFF070000FC2B0000CB
:102BF0002000016B47F8046D029E70470C2C00000A
:102C00002000016A47F8046D009E70471C2C0000EC
:102C10002000016947F8046D260070475C2C000015
:102C20003000056C6561766500B5684801683B0059
:102C3000043F1A68043B1A60043304338B42F8D112
:102C400003B4FFF721FF03BC330040CF04390B600E
:102C5000016004390A6801320A6000BD6E2C000070
:102C6000200006756E6C6F6F700030BC7047A62C2C
:102C700000003000052B6C6F6F70032E00D034E71E
:102C800040CF00B547F8046D514EFFF77FF9FFF7CD
:102C9000CBFE1AE014F10044641BA41940CF2C446D
:102CA000A4F100447047E82C00003000046C6F6F02
:102CB0007000032E00D018E740CF00B547F8046D30
:102CC000444EFFF763F9FFF7A2FE00F023F93F48F7
:102CD000310040CF016047F8046D3F4EFFF756F9D1
:102CE00000BD0134AC427047302D00007800026412
:102CF0006F0000B547F8046D384EFFF747F93348C9
:102D0000016847F8046D0E0047F8046D002607605F
:102D1000FFF77CFE47F8046D032600BD00B500F008
:102D20002FF8ECE730B4340040CF350040CF704787
:102D3000E02D00007800033F646F00B547F8046D94
:102D4000264EFFF723F947F8046D44F2AC26FFF74F
:102D50003AFB1E48016847F8046D0E00FFF794FE29
:102D6000013647F8046D012618480760FFF74EFE4C
:102D700047F8046D032600BD00B500F001F8E2E756
:102D800000B547F8046D4BF23046FFF71CFB47F8DF
:102D9000046D0426FEF7A8FF013B08D047F8046D38
:102DA0000526FEF7A1FF013B00F004FC00BD47F83B
:102DB000046D3526FFF707FB47F8046D4CF64076A7
:102DC000FFF701FB00F0F6FB00BD0000180000203B
:102DD000942C0000E22C00006A2C0000242D00003E
:102DE000FA2D0000300004636173650047F8046D3C
:102DF000002647F8046D08267047102E00003000AA
:102E0000033F6F664D4809E0013EB64140CF704731
:102E1000B42E00007800026F66004948082E00D0EA
:102E200063E640CF00B547F8046D0600FFF7AEF843
:102E3000FFF72AFE39683E600E46013647F8046DFA
:102E4000092647F8046D4CF64076FFF7BCFA00BD42
:102E500000B5300040CF013B01B400F0ABFB01BC3A
:102E6000082E00D041E640CF47F8046D0600FF2150
:102E70003140B14204D133490E43FFF7A4FAD7E7FA
:102E8000FEF77EFE002E40CF04D02F480643FFF70A
:102E9000C2FACDE747F8046D0026FEF725FF47F894
:102EA000046D44F2B026FFF78EFAC1E7300040CF40
:102EB000B0427047EA2E0000300005656E646F6610
:102EC000092E00D011E640CF00B540B440CFFFF747
:102ED000DBFD39683E600E46FFF7EFFD47F8046DF5
:102EE00040BC47F8046D082600BD4C2F00003000A0
:102EF00007656E6463617365082E00D0F5E540CF09
:102F000000B547F8046D4CF64076FFF75CFA00F028
:102F100001F800BD00B5300040CF00280DD003B44B
:102F200001213140002903D0013EFFF7BCFD01E043
:102F3000FFF7B3FD03BC0138EFE700BD082E00002A
:102F4000AC2E0000002E0000000FB6F1622F000032
:102F5000000005746F6B656E202047F8046D060055
:102F600005E0C02F0000000005706172736530B588
:102F700010480178104A1278104B00248018202E37
:102F800007D1914210D0013001320578B542F8D016
:102F900006E0914208D0013001320578B54203D0F5
:102FA000013301341D70F4E703480270034E34709E
:102FB00030BD000070000020000000203803002019
:102FC000FE2F00000000056469676974CD4B1B6823
:102FD000303E0BD30A2E0BD3073E0A2E06D3242EE7
:102FE00006D3203E0A2E01D3242E01D3002670479B
:102FF0009E42FBD247F8046D0026F6437047063127
:1030000000000000066E756D626572003FB530000D
:1030100001780126012204B4BA4B1B680024002564
:1030200000293CD00130013902782D2A04D101B0A9
:103030000022D24304B4F3E7232A01D10A23EFE7A5
:10304000242A01D11023EBE7252A01D10223E7E747
:103050002E2A01D10226E3E72C2A36D047F8046D48
:103060001600FFF7B5FF002E40CF2BD047F8046DB8
:10307000260047F8046D2E0047F8046D1E0047F83F
:10308000046D00260FB4FDF762F90FBC350040CF88
:10309000340040CF0022A419554140CFC0E704BC02
:1030A000002A04D50022E443ED43013455413300A6
:1030B0002600012B02D047F8046D2E0047F8046D5E
:1030C0001E003FBD01B000263FBD250000240226A2
:1030D0000029E4D0425C01392E2AF9D047F8046D6A
:1030E0001600FFF775FF002E40CFEBD0043F3C6089
:1030F00047F8046D1E000FB4FDF7D8F90FBC34007B
:1031000040CF40CFE4E7263100000000062E64697E
:10311000676974000A2E3CBF303603E0242E34BFAA
:103120003736232670475C310000000004686F6C5E
:103130006400330040CF744801783F290DD201313B
:1031400001704018012907D001380278013002705F
:10315000013801390129F7D1037070477C31000033
:10316000000005686F6C643C330040CF664801780E
:103170003F2902D20131017043547047943100005D
:103180000000047369676E00002E01D440CF7047C1
:103190002D26CEE7A4310000000002233E000437B4
:1031A000594E7047BC31000000000366235310B530
:1031B000202400F008F8013CFBD110BDDE310000F6
:1031C00000000266230000B547F8046D4D4E3668D6
:1031D000FDF7A9F8FFF79EFFFFF7C6FF00BDFA3124
:1031E000000000000223530000B500F00AF8002E92
:1031F000FBD138680028F8D100BD2632000000005D
:10320000012300B547F8046D3E4E366847F8046D5B
:103210000026FDF7ABF9FCF78FFF40CFFFF77AFFF1
:10322000FFF787FF00BD383200000000023C23009A
:1032300035480021017070474A32000000000266E4
:103240002E0047F8046D202604E0983200000000AC
:1032500003662E6E00B510B4340040CFFDF754FB6A
:10326000FDF71DF847F8046D0026FFF7E1FFFFF7B3
:10327000BBFF40CF2C26FFF777FF002C03D0FFF7D2
:10328000A2FF013CFBD110BC40CFFFF77DFF47F808
:10329000046D47F8046D1CE0AE32000000000375B9
:1032A000642E00B5FFF7C4FFFFF79EFF11E0E03288
:1032B0000000000002642E0000B5FDF725FBFCF7BE
:1032C000EEFFFFF7B5FFFFF78FFFFDF727FBFFF7D7
:1032D0005BFFFFF764FFFEF738FBFEF7CBFA00BD9C
:1032E000F2320000000002752E0047F8046D00263F
:1032F000D7E70C3300000000012E47F8046DF617E5
:10330000DAE700001000002030000020DA3500006D
:10331000000009696E7465727072657430B5C548D5
:1033200087420BD9FEF7EDFA10537461636B207579
:103330006E646572666C6F770A0062E1BE48874210
:103340000AD2FEF7DEFA0F537461636B206F766565
:1033500072666C6F770A54E1FFF7FEFD300040CFD4
:103360000178002900D130BDB44C2568002D01D171
:103370003D00256047F8046D0600FFF7AEFA310006
:1033800040CF320040CF002A17D147F8046D060025
:10339000FFF73CFE320040CF002AC0D147F8046D51
:1033A0000600FEF7D2FAFEF7ACFA0C206E6F74201E
:1033B000666F756E642E0A0023E1A14B1B68002B1B
:1033C0001ED10025256030230B40302B11D147F84A
:1033D000046D0600FEF7B9FAFEF793FA122069733E
:1033E00020636F6D70696C652D6F6E6C792E0A00AD
:1033F00007E147F8046D1600FEF773FEFFF78FFF35
:1034000080200840802810D0EB1B9B0840200840FB
:10341000402810D108200840082802D1002B00D0F5
:103420001FE00F200840834205D347F8046D1600C3
:10343000FEF757FE73E700F0BDF847F8046D16007D
:1034400010220A40102A02D1FEF74BFE67E7202225
:103450000A40202A02D1FEF799FD60E7FEF7A1FCA1
:103460005DE7072001401000FEF7A7FD01291FD1ED
:10347000012BDAD1FF213140B14204D1408806430B
:10348000FEF7A1FF4BE7FEF77BFB002E40CF04D0F9
:1034900040680643FEF7BFFF41E747F8046D00268A
:1034A000FEF722FC47F8046D0688FEF78CFF36E72E
:1034B000022902D1012BB8D1EFE7032926D1012B34
:1034C000B3D1FF213140B1420AD15E490E43FEF72C
:1034D0007AFF043247F8046D1600FEF757FD1EE729
:1034E000FEF74EFB002E40CF04D057490E43FEF7A7
:1034F00092FFEEE747F8046D0026FEF7F5FB023277
:1035000047F8046D1600FEF741FD08E7042918D1BD
:10351000012B8AD1330040CF002B00D1FFE61F22C0
:103520001A409A4205D047F8046D4688FEF74BFFD3
:10353000F5E647F8046D06889B011E43FEF743FF3E
:10354000EDE6052922D1012B10D147F8046D0026A4
:10355000FEF7CAFB47F8046D0688FEF734FF47F80C
:10356000046D4CF64076FEF72EFFD8E647F8046D62
:103570000026FEF7B9FB47F8046D0126FEF7B4FB01
:1035800047F8046D4688FEF71EFFC8E606290ED1EF
:10359000012B7FF44AAFFEF7F3FA002E40CF3FF441
:1035A0007CAFD0F802000643FEF735FFB7E60130E6
:1035B0008047B4E600B5002B0CD0013B47F8046D02
:1035C0001E0057F82660FEF721FC002BF5D1043DC4
:1035D0002F0040CF0025256000BDF635000081009A
:1035E00009686F6F6B2D7175697447F8046D174E1C
:1035F00070472036000058360000000004717569DD
:103600007400DFF84CD00B4F12480A2101600C48BF
:10361000002101600948002101600C4800688746CC
:10362000FEF7B0F8FFF77AFEFEF76BF905206F6B37
:103630002E0AF5E73802002038010020140000208F
:103640000C000020003E00000006B6F1E8FF02205A
:1036500038030020100000206836000020000465B8
:10366000696E740062B6704778360000200004640A
:10367000696E740072B67047843600000000036EF5
:103680006F707047AE36000081000B6972712D7348
:1036900079737469636B47F8046DB54E7047823671
:1036A00000004FF6E470C2F2020000688746D6368A
:1036B00000008100096972712D6661756C7447F8AC
:1036C000046DAC4E7047BC0000004FF6E070C2F2D3
:1036D000020000688746FE360000810009697271A9
:1036E0002D657874693047F8046DA34E70478236B3
:1036F00000004FF6DC70C2F20200006887462637F1
:1037000000008100096972712D657874693147F88C
:10371000046D9A4E7047823600004FF6D870C2F2A0
:103720000200006887464E37000081000969727107
:103730002D657874693247F8046D914E7047823672
:1037400000004FF6D470C2F2020000688746763758
:1037500000008100096972712D657874693347F83A
:10376000046D884E7047823600004FF6D070C2F26A
:103770000200006887469E37000081000969727167
:103780002D657874693447F8046D7F4E7047823632
:1037900000004FF6CC70C2F2020000688746C437C2
:1037A00000008100076972712D61646347F8046D40
:1037B000764E7047823600004FF6C870C2F20200A3
:1037C00000688746EC3700008100086972712D742B
:1037D000696D320047F8046D6D4E70478236000007
:1037E0004FF6C470C2F20200006887461438000029
:1037F0008100086972712D74696D330047F8046D9A
:10380000644E7047823600004FF6C070C2F202006C
:10381000006887463C3800008100086972712D7489
:10382000696D340047F8046D5B4E704782360000C6
:103830004FF6BC70C2F202000068874600400000EC
:10384000FFFF182D2D2D20466C617368204469639D
:1038500074696F6E617279202D2D2D00FDF75FFF69
:103860004E4885464E4F2A264E484F4901604F48E4
:103870004F4901604E484F4D0400026804300188F2
:1038800002304FF6FF73994222D04B4B0B4009D0C8
:10389000FFF714F8FEF791FB038840880004034308
:1038A000ED1A15E080230B4012D00F231940890038
:1038B0006D1AFFF703F8FEF780FB47F8046D06006A
:1038C00047F8046D2E0047F8046D0E00FDF7ACF9C3
:1038D000B2F1FF3F05D0100006321278FF2A00D067
:1038E000CAE7364804603648056036483649374AE4
:1038F000884204D0023803889342F9D00230344918
:103900000860FDF7FEFF354D6563726973702D53D6
:1039100074656C6C6172697320312E3120666F7230
:103920002053544D333246343239206279204D6170
:10393000747468696173204B6F63680A25480A21B3
:1039400001602548002101602448002101602448CD
:1039500047F8046D0600FEF7C0FF40CF002E02D0EE
:10396000FEF7BFFB59E640CF4BE604696E69740071
:10397000E4FF0220E0FF0220DCFF0220D8FF02204B
:10398000D4FF0220D0FF0220CCFF0220C8FF02207B
:10399000C4FF0220C0FF0220BCFF02203803002029
:1039A000380200200400002000040020080000204D
:1039B000DC000000000003200001000024000020C3
:1039C0002C0000200000200000400000FFFF00004D
:1039D00020000020100000200C0000201400002017
:0439E0006A39000040
:0400000508000000EF
:00000001FF
