:020000040800F2
:1000000030030020873B0000C7390000C7390000DB
:10001000C7390000C7390000C739000000000000E0
:10002000000000000000000000000000F5390000A2
:10003000F539000000000000F53900009F3900008C
:10004000F5390000F5390000F5390000F5390000F8
:10005000F5390000F53900001D3A0000453A00006E
:100060006D3A0000953A0000BD3A0000F5390000F5
:10007000F5390000F5390000F5390000F5390000C8
:10008000F5390000F5390000E33A0000F5390000C9
:10009000F5390000F5390000F5390000F5390000A8
:1000A000F5390000F5390000F5390000F539000098
:1000B0000B3B0000333B00005B3B0000F5390000C8
:1000C000F5390000F5390000F5390000F539000078
:1000D000F5390000F5390000F5390000F539000068
:1000E000F5390000F5390000F5390000F539000058
:1000F000F5390000F5390000F5390000F539000048
:10010000F5390000F5390000F5390000F539000037
:10011000F5390000F5390000F5390000F539000027
:10012000F5390000F5390000F5390000F539000017
:10013000F5390000F5390000F5390000F539000007
:10014000F5390000F5390000F5390000F5390000F7
:10015000F5390000F5390000F5390000F5390000E7
:10016000F5390000F5390000F5390000F5390000D7
:10017000F5390000F5390000F5390000F5390000C7
:10018000F5390000F5390000F5390000F5390000B7
:10019000F5390000F5390000F5390000F5390000A7
:1001A000F5390000F5390000F5390000D2010000F2
:1001B000FFFF1E2D2D2D204D6563726973702D5329
:1001C00074656C6C6172697320436F7265202D2DAC
:1001D0002D00EA01000042000432647570003868A6
:1001E00047F8046D043F38607047FC01000062006E
:1001F000053264726F70043740CF70471A020000F6
:10020000440005327377617007CF043F386047F8C8
:10021000046D043F3A600E0070472E020000620039
:1002200004326E69700007CF043F3860704748029F
:100230000000440005326F766572B86847F8046DB7
:10024000043F3860FE6870476C02000044000532CD
:100250007475636B07CF043F386047F8046D043F43
:100260003A60043F3960043F386070478E020000F6
:1002700046000432726F74003868B9683A69B86031
:1002800039613A6079687E60FE68F9607047B00253
:100290000000460005322D726F743868B9683A69FB
:1002A00038613960BA60F968FE607E6879607047CD
:1002B000C4020000200003323E7201CF01B440B4FA
:1002C00040CF7047DC02000020000332723E47F846
:1002D000046D40BC01BC043F38607047F40200006C
:1002E00020000332724047F8046D019E47F8046D08
:1002F000009E704706030000200006327264726F91
:10030000700002B070471E03000042000364322FE9
:100310003868F107761040080843386070473203A8
:10032000000062000364322A3868001876413860A1
:1003300070474C0300004200046473687200386820
:10034000F1077608400808433860704762030000F0
:100350006200046473686C00386800187641386085
:100360007047740300004200046461627300002E51
:1003700014D470478E0300004300083F646E656725
:1003800061746500300040CF002807D47047AC038B
:100390000000420007646E6567617465386800217B
:1003A000C043F64301304E4138607047C40300003B
:1003B000640002642D0007CF121AB1410E00043F01
:1003C0003A607047DA030000640002642B0007CF34
:1003D00012184E41043F3A607047EC030000610080
:1003E00003733E6447F8046DF6177047000400007D
:1003F000620003756D2A3868A0FB060638607047F6
:10040000140400006200026D2A00386880FB0606B2
:10041000386070475204000044000375642A07CF17
:10042000564341437618010C130C59437618010CBE
:1004300080B292B25143434350430022C918524103
:100440001204B6180A04090C80184E41043F3860A3
:100450007047E404000044000475646D2A0010B580
:10046000002447F8046D7E6847F8046D3E69FFF785
:10047000C2FF310040CF300040CF47F8046D3E68E6
:1004800047F8046DFE6803B4FFF7B5FF03BC330003
:1004900040CF320040CF47F8046D3E6847F8046D06
:1004A0003E690FB4FFF7A7FF0FBC9219634140CF1D
:1004B00089196241634140CF47F8046D7E6847F86F
:1004C000046DFE680FB4FFF796FF0FBC92196341ED
:1004D00040CF89196241634140CF1E003A60796084
:1004E000B86010BD060500004300022A2F0000B5C9
:1004F00040B440CFFFF789FF47F8046D40BC00F0DF
:100500004CF8043700BD280500004300052A2F6D74
:100510006F6400B540B440CFFFF777FF47F8046D34
:1005200040BC00F03AF800BD4A05000043000375E6
:100530002A2F00B540B440CFFFF75DFF47F8046DA8
:1005400040BC00F01BF8043700BD6E0500004300FE
:1005500006752A2F6D6F640000B540B440CFFFF7D9
:100560004AFF47F8046D40BC00F008F800BD8E0556
:100570000000430006756D2F6D6F640000B547F8ED
:10058000046D002600F019F840CF043700BDAC051B
:1005900000004300056D2F6D6F6400B547F8046DD2
:1005A000F61700F032F840CF043700BDFE0500001A
:1005B00044000675642F6D6F640030B40023002280
:1005C0007968B86835003C6840264000494152418E
:1005D0005B41AB4202D804D3A24202D3121BAB410F
:1005E0000130013EF1D10E0038607B60BA6030BC52
:1005F000704730B400237A68B9680020E2E77406D7
:100600000000440005642F6D6F6400B5F01719D029
:10061000FFF7C4FEFFF7F8FDF0170CD0FFF7BEFEA2
:10062000FFF7F2FDFFF7C9FFFFF7EEFDFFF7B6FE9C
:10063000FFF7EAFD00BDFFF7E7FDFFF7BEFFFFF79D
:10064000ADFE00BDFFF7E0FDF0170ED0FFF7A6FEF0
:10065000FFF7DAFDFFF7B1FFFFF7A0FEFFF7D4FDCC
:10066000FFF79CFEFFF7D0FD00BDFFF7CDFDFFF7C4
:10067000A4FF00BD8A060000440002642F0000B5FC
:10068000FFF7C3FFFFF7CFFD00BDD2060000440017
:1006900002662A0000B5F0170DD0FFF77FFEFFF7C6
:1006A000B3FDF0170DD0FFF779FEFFF7D8FE40CF6E
:1006B00001CF386000BDFFF7A7FDF017F5D0FFF7B9
:1006C0006DFEFFF7CCFE40CF01CF3860FFF766FE2E
:1006D00000BD1E070000440002662F0000B5F017A1
:1006E0000ED0FFF75BFEFFF78FFDF0170ED0FFF780
:1006F00055FEFFF789FDFFF77CFFFFF794FD00BD76
:10070000FFF782FDF017F4D0FFF748FEFFF77CFDFE
:10071000FFF76FFFFFF742FEFFF785FD00BD3207D1
:10072000000020000232210006CF3160726040CF0D
:10073000704746070000200002324000043F706806
:100740003860366870476607000044000364753CF3
:1007500007CF8E4204D801D1904201D800267047BD
:100760000026F64370478607000044000364753E88
:1007700007CFB14204D801D1824201D80026704788
:100780000026F6437047A6070000440002643C00C0
:1007900007CF8E4204DC01D1904201DC0026704775
:1007A0000026F6437047C6070000440002643E007E
:1007B00007CFB14204DC01D1824201DC0026704740
:1007C0000026F6437047D607000062000364303C01
:1007D0000437F6177047F007000042000364303D0D
:1007E00001CF002801D000267047013EB641704776
:1007F0000A080000440003643C3E07CF904201D148
:10080000761A01D00026F6437047260800004400FF
:1008100002643D0007CF904201D000267047761A4F
:10082000013EB64170473808000020000373704055
:1008300047F8046D3E00704748080000200003732D
:100840007021370040CF70475A0800002000037223
:10085000704047F8046D6E4670476A08000020003B
:1008600003727021B54640CF704784080000000035
:10087000056465707468E549C91B890847F8046D0B
:100880000E0070479408000061000364757047F81B
:10089000046D7047A408000061000464726F70006A
:1008A00040CF7047BA0800006100043F64757000D3
:1008B000002E01D047F8046D7047CE08000062009A
:1008C00004737761700039683E600E007047DC0881
:1008D00000006200036E697004377047F008000082
:1008E0006200046F7665720047F8046D7E68704799
:1008F000060900006200047475636B0001CF083FB5
:100900007E60386070471C090000630003726F74DA
:1009100003CF083F78603E600E0070473409000046
:100920006300042D726F740003CF083F7E6039604E
:1009300006007047460900002000047069636B00E0
:1009400057F826607047560900002000023E7200EA
:1009500040B440CF704768090000200002723E009A
:1009600047F8046D40BC70477A090000200002720D
:10097000400047F8046D009E70478A09000020007F
:10098000057264726F7001B07047A00900006000CA
:1009900004747275650047F8046D0026F6437047CD
:1009A000B409000060000566616C736547F8046D6A
:1009B00000267047CA0900006E0003616E6401CF13
:1009C000064070470640000616F0E20900006E007F
:1009D0000362696301CFB043060070478643000697
:1009E00036F0F80900006E00026F720001CF064376
:1009F00070470643000656F00E0A00006E000378AA
:100A00006F7201CF464070474640000696F01C0AC0
:100A100000006100036E6F74F64370472C0A0000FB
:100A2000610003636C7AB6FA86F670473A0A0000F2
:100A300061000373687276087047480A000061001D
:100A40000373686C76007047580A000061000372F7
:100A50006F725FEA760670476A0A000061000372EF
:100A60006F6CB61956F100067047840A00006C00DE
:100A7000067273686966740001CFF0400600704723
:100A8000360800269E0A00006C00076172736869D0
:100A9000667401CF3041060070473610F617B80A69
:100AA00000006C00066C73686966740001CFB0408A
:100AB0000600704736000026C80A000061000230B8
:100AC0003D00013EB6417047DA0A00006100033084
:100AD0003C3E013EB641F6437047E80A0000610023
:100AE00002303C00F6177047000B00004200023E47
:100AF0003D0001CFB042B4BF00264FF0FF36704733
:100B0000180B00004200023C3D0001CFB042CCBFB8
:100B100000264FF0FF3670472E0B00004200013CCC
:100B200001CFB042B4BF4FF0FF3600267047440BF0
:100B300000004200013E01CFB042CCBF4FF0FF3673
:100B400000267047580B0000620003753E3D01CF40
:100B5000861BB641F64370476C0B000062000375BC
:100B60003C3D01CF361AB641F64370477E0B00007C
:100B7000620002753C0001CF861BB6417047900BA6
:100B80000000620002753E0001CF361AB641704780
:100B9000A60B00006B00023C3E0001CF361A18BFC6
:100BA0004FF0FF367047B80B00006B00013D01CFDE
:100BB000361A013EB6417047CC0B00006200036D4F
:100BC000696E01CFB042B8BF06467047E00B000027
:100BD0006200036D617801CFB042C8BF064670471E
:100BE000F60B0000620004756D61780001CFB04221
:100BF00088BF06467047100C0000620004756D69DE
:100C00006E0001CFB04238BF064670473002002068
:100C10004E0C00000000046D6F76650007B53100D2
:100C200040CF320040CF00290FD0B2420DD006D3C2
:100C3000013E013A705C50540139FBD105E0307837
:100C40001070013601320139F9D140CF07BD700C67
:100C5000000000000466696C6C00300040CF310079
:100C600040CF002902D001397054FCD140CF7047E9
:100C70007C0C00002000014036687047940C000096
:100C80006D00012103CF30600E0070470660704791
:100C900001607047BA0C00006D00022B210003CFE9
:100CA0003268121832600E007047026892190260B2
:100CB00070470268521802607047C80C000020009C
:100CC0000268400036887047E20C00006D00026840
:100CD000210003CF30800E007047068070470180EE
:100CE0007047080D00006D0003682B2103CF328888
:100CF000121832800E0070470288921902807047E5
:100D00000288521802807047160D0000200002630E
:100D1000400036787047300D00006D0002632100FE
:100D200003CF30700E007047067070470170704737
:100D3000560D00006D0003632B2103CF327812188B
:100D400032700E0070470278921902707047027874
:100D50005218027070477E0D00006D0004626973C6
:100D6000210003CF3268024332600E0070470268F0
:100D700032430260704702680A4302607047A60D62
:100D800000006D0004626963210003CF3268824372
:100D900032600E0070470268B2430260704702681A
:100DA0008A4302607047CE0D00006D0004786F72B8
:100DB000210003CF3268424032600E007047026863
:100DC00072400260704702684A4002607047E80D56
:100DD0000000200004626974400001CF36680640BC
:100DE00018BF4FF0FF367047100E00006D00056809
:100DF0006269732103CF3288024332800E0070474C
:100E0000028832430280704702880A43028070479A
:100E1000380E00006D0005686269632103CF3288D7
:100E2000824332800E0070470288B24302807047CE
:100E300002888A4302807047600E00006D000568DA
:100E4000786F722103CF3288424032800E007047A3
:100E5000028872400280704702884A4002807047D0
:100E60007A0E0000200005686269744001CF368860
:100E7000064018BF4FF0FF367047A20E00006D000D
:100E800005636269732103CF3278024332700E002A
:100E90007047027832430270704702780A4302704A
:100EA0007047CA0E00006D0005636269632103CFBD
:100EB0003278824332700E0070470278B24302707B
:100EC000704702788A4302707047F20E00006D008E
:100ED0000563786F722103CF3278424032700E0082
:100EE0007047027872400270704702784A40027080
:100EF00070470C0F0000200005636269744001CF49
:100F00003678064018BF4FF0FF3670471C0F0000C0
:100F100061000563656C6C2B043670472C0F000074
:100F200061000563656C6C73B6007047D60F0000F6
:100F300000000768666C61736821300040CF3100A3
:100F400040CFDFF85C3498422BD3DFF85834984216
:100F500027D2DFF854341940994221D010F0010211
:100F6000002A1ED102889A421BD110F10060DFF8DE
:100F70003C24DFF83C341360DFF838341360DFF8CA
:100F80003824DFF8383413600180DFF83424136824
:100F900013F48033FBD1DFF82024DFF8283413600A
:100FA000704700F092FD2A57726F6E67206164648B
:100FB00072657373206F72206461746120666F7252
:100FC0002077726974696E6720666C61736820218E
:100FD0000A0002F05DBC2E10000000000763666C82
:100FE00061736821300040CF310040CFEC4B984214
:100FF000D7D3EC4B9842D4D211F0FF01FF2915D082
:101000000278FF2ACDD110F10060E84AE84B136066
:10101000E84B1360E84AEC4B13600170E84A136830
:1010200013F48033FBD1E44AE64B13607047B410ED
:1010300000000000106572617365666C617368730F
:101040006563746F720000B5012E31D31C2E2FD250
:101050000C2E2DD00D2E2BD00E2E29D00F2E27D0BA
:10106000D24AD34B1360D34B136000F02EFD0D45D5
:101070007261736520736563746F722047F8046D45
:1010800002F05CFACC4AD14BF60033431360CC4AF1
:10109000136813F48033FBD1C74ACA4B136000F0C6
:1010A00014FD0C66726F6D20466C6173682E0A0029
:1010B00040CF00BD8814000000000A6572617365AE
:1010C000666C6173680072B600B5C148C1490268B8
:1010D000B2F1FF3F05D047F8046D0126FFF7B3FFDB
:1010E00002E004308842F2D3BB48BC490268B2F146
:1010F000FF3F05D047F8046D0226FFF7A4FF02E08A
:1011000004308842F2D3B648B6490268B2F1FF3FD4
:1011100005D047F8046D0326FFF795FF02E0043081
:101120008842F2D3B048B1490268B2F1FF3F05D01E
:1011300047F8046D0426FFF786FF02E0043088427A
:10114000F2D3AB48AB490268B2F1FF3F05D047F894
:10115000046D0526FFF777FF02E004308842F2D3E2
:10116000A548A6490268B2F1FF3F05D047F8046DD3
:101170000626FFF768FF02E004308842F2D3A04859
:10118000A0490268B2F1FF3F05D047F8046D072679
:10119000FFF759FF02E004308842F2D39A489B4996
:1011A0000268B2F1FF3F05D047F8046D0826FFF74B
:1011B0004AFF02E004308842F2D39548954902681C
:1011C000B2F1FF3F05D047F8046D0926FFF73BFF5A
:1011D00002E004308842F2D38F4890490268B2F1AD
:1011E000FF3F05D047F8046D0A26FFF72CFF02E009
:1011F00004308842F2D38A488A490268B2F1FF3F3C
:1012000005D047F8046D0B26FFF71DFF02E0043000
:101210008842F2D3844885490268B2F1FF3F05D085
:1012200047F8046D1026FFF70EFF02E004308842F5
:10123000F2D37F487F490268B2F1FF3F05D047F8FB
:10124000046D1126FFF7FFFE02E004308842F2D35E
:1012500079487A490268B2F1FF3F05D047F8046D3A
:101260001226FFF7F0FE02E004308842F2D3744801
:1012700074490268B2F1FF3F05D047F8046D1326A8
:10128000FFF7E1FE02E004308842F2D36E486F4976
:101290000268B2F1FF3F05D047F8046D1426FFF74E
:1012A000D2FE02E004308842F2D3694869490268FC
:1012B000B2F1FF3F05D047F8046D1526FFF7C3FED6
:1012C00002E004308842F2D3634864490268B2F114
:1012D000FF3F05D047F8046D1626FFF7B4FE02E085
:1012E00004308842F2D35E485E490268B2F1FF3FA3
:1012F00005D047F8046D1726FFF7A5FE02E004307D
:101300008842F2D3584859490268B2F1FF3F05D0EC
:1013100047F8046D1826FFF796FE02E00430884275
:10132000F2D3534853490268B2F1FF3F05D047F862
:10133000046D1926FFF787FE02E004308842F2D3DD
:101340004D484E490268B2F1FF3F05D047F8046DA1
:101350001A26FFF778FE02E004308842F2D34848AC
:1013600048490268B2F1FF3F05D047F8046D1B26DB
:10137000FFF769FE02E004308842F2D300F0A5FBDB
:101380001246696E69736865642E205265736574D0
:1013900020210A005DF804EB62B602F0F6BB000003
:1013A0000040000000002000FFFF0000043C02405D
:1013B00023016745AB89EFCD103C024001010000DD
:1013C0000C3C02400000008001000000020001000F
:1013D00000400008FF7F000800800008FFBF0008F1
:1013E00000C00008FFFF000800000108FFFF01081F
:1013F00000000208FFFF030800000408FFFF0508C3
:1014000000000608FFFF070800000808FFFF0908A2
:1014100000000A08FFFF0B0800000C08FFFF0D0882
:1014200000000E08FFFF0F0800001008FF3F100823
:1014300000401008FF7F100800801008FFBF100850
:1014400000C01008FFFF100800001108FFFF11087E
:1014500000001208FFFF130800001408FFFF150822
:1014600000001608FFFF170800001808FFFF190802
:1014700000001A08FFFF1B0800001C08FFFF1D08E2
:1014800000001E08FFFF1F089E1400006900012BCA
:1014900001CF3618704736180036000616F1B4141E
:1014A00000006900012D01CF861B7047361A003EEF
:1014B0000006B6F1C2140000610002312D00013EA9
:1014C0007047D0140000610002312B0001367047D4
:1014D000DE140000610002322D00023E7047EC1461
:1014E0000000610002322B0002367047FE1400003B
:1014F0006100066E6567617465007642704712157B
:101500000000610003616273002E48BFD6F100063F
:10151000704730150000420005752F6D6F6401CFD4
:101520003100B0FBF6F67143401A043F3860704753
:101530004E1500004200042F6D6F640001CF310092
:1015400090FBF6F67143401A043F3860704762150D
:1015500000004200036D6F6400B5FFF7EFFF40CF5E
:1015600000BD721500006200012F01CF90FBF6F65E
:101570007047821500006A00012A01CF4643704778
:10158000464390150000610002322A007600704741
:101590009E150000610002322F0076107047B215D0
:1015A00000006100046576656E0001203040361849
:1015B0007047CA150000810004626173650047F836
:1015C000046D8F4E70470A000000E0150000000017
:1015D0000662696E61727900894802210160704774
:1015E000F6150000000007646563696D616C84484E
:1015F0000A21016070470816000000000368657842
:101600007F4810210160704724160000810009689E
:101610006F6F6B2D656D697447F8046D794E704777
:101620000E17000040160000810008686F6F6B2DD8
:101630006B65790047F8046D734E704734170000EE
:101640005E16000081000A686F6F6B2D656D69740E
:101650003F0047F8046D6D4E70475E1700007A1624
:101660000000810009686F6F6B2D6B65793F47F84B
:10167000046D674E70478A170000981600008100BD
:101680000A686F6F6B2D70617573650047F8046DA4
:10169000604E70473C390000AE1600000000046543
:1016A0006D6974000FB5574800F026F80FBDC216DB
:1016B00000000000036B65790FB5534800F01CF87B
:1016C0000FBDD4160000000005656D69743F4F48DA
:1016D00000688746E61600000000046B65793F004D
:1016E0004B4800688746FC160000000005706175D5
:1016F00073654848006887460068874622170000DF
:1017000000000B73657269616C2D656D697400B5BD
:1017100000F025F8002E40CFFAD03F4A167040CF97
:1017200000BD4A17000000000A73657269616C2DE4
:101730006B65790000B500F028F8002E40CFFAD094
:1017400047F8046D344A167800BD78170000000091
:101750000C73657269616C2D656D69743F0000B52D
:10176000FFF7C7FF47F8046D00262C48016880206A
:10177000014000D0F64300BD5018000000000B737C
:10178000657269616C2D6B65793F00B5FFF7B1FF3C
:1017900047F8046D0026214801682020014000D050
:1017A000F64300BD1E494FF480300860086810F40D
:1017B0000030FBD01B494FF0010008601849086851
:1017C00020F0010008607047174918480860184960
:1017D000086840F420100860164917480860174947
:1017E00017480860174946200860174917480860DD
:1017F000704700B5FFF7D6FFFFF7E6FF00BD00001A
:10180000FCFF0220F8FF0220F4FF0220F0FF02207C
:10181000ECFF0220E8FF022004100140001001400C
:10182000003802400838024030380240FF071000FC
:1018300000000240240002407007000044380240CB
:1018400010000000081001400C1001400C200000A6
:10185000741800000000076365787065637400B554
:10186000386801B40130386000F00BF801BC067034
:1018700040CF00BDE618000000000661636365709C
:10188000740000B502CF01390022FFF715FF3000C8
:1018900040CF202819D2092816D00A281FD00D2899
:1018A0001DD00828F1D1002AEFD000F00EF903086E
:1018B0002008002AE9D0885C013A80230340E4D064
:1018C00040230340F5D0E0E72020B242DDD247F8C4
:1018D000046D0600FFF7E6FE01328854D5E71600D6
:1018E00000F0A2F800BDF81800004000037469621F
:1018F00047F8046D294E70470E1900008100033E21
:10190000696E47F8046D264E7047000000003419D8
:10191000000082000E63757272656E742D736F75B0
:101920007263650047F8046D1E4E704700000000AA
:101930006800002050190000000009736574736F7F
:1019400075726365174802CF0660416040CF7047EB
:101950006E190000000006736F757263650047F82A
:10196000046D104E043F7068386036687047A819DF
:10197000000000000571756572790FB508480021F7
:101980000160FFF7B5FF47F8046D47F8046DC826FE
:10199000FFF777FFFFF7D6FF0FBD000068000020BC
:1019A000E4FF0220DCFF0220F619000000000763BC
:1019B0006F6D706172650FB5310040CF01CF884205
:1019C00002D040CF00260FBD02CF002810D0013832
:1019D0000A5C335C412A02D35B2A38BF2032412B98
:1019E00002D35B2B38BF20339A42EED000260FBDC6
:1019F0000026F6430FBD0A1A0000000002637200C1
:101A000000B500F062F8010A00BD1C1A00000000D9
:101A100002626C0047F8046D20267047301A0000FF
:101A2000000005737061636547F8046D202639E690
:101A3000501A00000000067370616365730000B502
:101A4000002E03DDFFF7F0FF013EFBD140CF00BDCC
:101A5000601A00005000065B636861725D0005E07B
:101A6000781A0000000004636861720000B501F09C
:101A700089FB40CF367800BD881A0000500001284D
:101A800047F8046D292606E0A21A00005000015C08
:101A900047F8046D002600B501F07EFB043740CF07
:101AA00000BDE61A00001000022E22009C4800B57E
:101AB00047F8046D060000F060FA47F8046D22262E
:101AC00001F06AFB00F08EFD00BD0AB447F8046D1A
:101AD0007646013E33780121013319405B181EEB35
:101AE000030E0ABC39E00C1B000010000263220048
:101AF0008C48DCE747F8046D7646013E33780121D7
:101B0000013319405B181EEB030E7047361B0000B3
:101B10001000027322008448C9E747F8046D764636
:101B200047F8046D013E36780121731C19405B189B
:101B30001EEB030E70474E1B0000000005636F751F
:101B40006E74013647F8046D013E36787047761B97
:101B50000000000005637479706501B530780028D5
:101B600007D0013647F8046D3678FFF79BFD013842
:101B7000F7D140CF01BDA41B0000000004747970B0
:101B80006500310040CF300040CF00B5002908D0BB
:101B9000002247F8046D865CFFF784FD0132914214
:101BA000F7D100BDDC1B00000000046865782E0042
:101BB00003B5310040CF2020043847F8046D31FAD6
:101BC00000F616F00F06092E8CBF37363036FFF7B9
:101BD00069FD0028F0D1FFF727FF03BDEC1B0000D3
:101BE000000003682E731FB5504C0EE0FC1B000074
:101BF000000003752E731FB54D4C06E07A1C0000E3
:101C00000000022E73001FB54A4C4B49C91B8908BE
:101C10004A4A106803B40A201060FFF756FF0853C1
:101C20007461636B3A205B0047F8046D0E0001F0AD
:101C30008DFCFFF74AFF025D200003BC3F4A1060A5
:101C400000290AD03E4A106806B447F8046D060021
:101C5000A04706BC043A0139F5D1FFF736FF06204C
:101C6000544F533A200047F8046D3600A047FFF761
:101C70002CFF04202A3E0A001FBD441D0000000066
:101C800005776F72647300B5FFF71FFF06776F72F9
:101C900064730A0000F0E7FEFFF717FF0941646470
:101CA000726573733A2047F8046DFFF781FFFFF701
:101CB0000CFF064C696E6B3A200047F8046D3668DD
:101CC000FFF776FFFFF701FF07466C6167733A2065
:101CD00047F8046DB688FFF76BFFFFF7F6FE064383
:101CE0006F64653A2000B01D00F0F6FE47F8046D01
:101CF0000600FFF75DFFFFF7E8FE064E616D653AEF
:101D0000200047F8046D0636FFF727FFFFF7DDFEDA
:101D1000010A00F0BFFE300040CFBDD040CF00BD73
:101D2000CA1A0000F41A00001A1B0000B11B0000C0
:101D30003D3500004D35000030020020FCFF022040
:101D40002C020020A81E000000000D3132626974D0
:101D5000656E636F64696E670FB5FF2E04D847F830
:101D6000046D5FF0FF360FBD16F0FF10B0420ED1CC
:101D70004FF6FF710840310C814208D116F0FF0682
:101D800056F4805647F8046D5FF0FF360FBD16F02D
:101D9000FF20B0420FD14FF6FF710840310C814255
:101DA00009D1360A16F0FF0656F4005647F8046DBE
:101DB0005FF0FF360FBDFF2231001140300A1040A6
:101DC000884210D1300C104088420CD1300E1040A7
:101DD000884208D116F0FF0656F4405647F8046DC5
:101DE0005FF0FF360FBD300000210131001850F1C7
:101DF00000007FF07F020240802A05D01F29F4D323
:101E000047F8046D00260FBD0829F9D3060036F007
:101E1000800611F00100C001064311F00E00C0025F
:101E2000064311F010008005064347F8046D5FF08B
:101E3000FF360FBD47F8046DDFF840665FF4704170
:101E400010EA0102120116435FF4006110EA010278
:101E5000D20316435FF4E06110EA01021201164357
:101E6000FF2110EA010216431E43ABE347F8046D5D
:101E7000DFF80C665FF0704110EA0102120B1643A6
:101E80005FF0006110EA0102520816435FF0E06162
:101E900010EA0102120B16435FF47F0110EA0102FF
:101EA000120C16431E438DE30E1F0000000010723B
:101EB000656769737465726C69746572616C2C0016
:101EC0000FB5330040CF1B02FF2E05D856F4005645
:101ED0001E4300F04FFB0FBDFFF73EFF002E40CF2B
:101EE00006D0DFF8A00506431E4300F06BFB0FBDD4
:101EF000F643FFF731FF002E40CF06D0DFF888050C
:101F000006431E4300F05EFB0FBDF6430BE06E1F61
:101F100000000000096D6F76776D6F76742C0FB539
:101F2000330040CF1B02300040CFFFF783FF4FF656
:101F3000FF7110EA014001D0FFF798FF0FBD0FB508
:101F40000136300040CF0023FFF774FFFFF78EFF0C
:101F500006E00FB5013647F8046D0026FFF7B0FF25
:101F600047F8046D44F2807600F004FB0FBDD41FE7
:101F7000000000000563616C6C2C0FB5330000F0AD
:101F800043FE300040CF1B1A043BDFF80015194018
:101F9000002906D0DFF8F824914202D0BDE80F40B6
:101FA000D7E740CF5B08DFF8EC0440F2FF7119403F
:101FB0000843DB0A40F2FF311940090408439B0A39
:101FC00013F001018906084347F8046D060000F08C
:101FD000F9FA0FBD0A2000000000086C69746572F0
:101FE000616C2C0008B547F8046D4FF6470600F009
:101FF000C1FA47F8046D46F6045600F0BBFA47F8FC
:10200000046D0626FFF75CFF08BD2E2000000000CF
:10201000066372656174650000B500F033F842F242
:102020004B00804747F8046DBEF1010600BD7620E5
:102030000000200005646F65733E42F24B0080474C
:1020400047F8046DBEF10106704747F8046DBEF114
:102050000106DFF844241368DFF840140968022001
:10206000084000D0023102311160FFF768FF1360B1
:1020700000F0BAF900BDB82000000000073C62750E
:10208000696C647300B500F077FB00F0BDFD0220C1
:10209000064040CF04D047F8046D362600F06AFAB7
:1020A00047F8046D4BF2005600F064FA47F8046DEF
:1020B0000A2600F0CAFA00BDC42000005000035BED
:1020C000275D03E0DA2000000000012700B501F0E1
:1020D00059F800F03FFD40CF00BD20210000100066
:1020E00008706F7374706F6E650000B501F04AF888
:1020F00000F030FD300040CF102101400DD12021F3
:10210000014005D0FFF76EFF47F8046DE44E04E090
:10211000FFF768FF47F8046DE24EFFF72EFF00BDA2
:1021200076210000000007696E6C696E652C00B5B1
:102130004BF200514BF6005244F2707330888842E3
:1021400008D0904208D0984206D047F8046D0600A7
:1021500000F010FA0236F1E740CF00BD0EB44BF6A6
:10216000005244F2707301880230914201D09942CA
:10217000F9D10EBC70478C21000000000472657418
:102180002C0047F8046D4BF60056F3E19A2100004D
:102190003000046578697400F3E7B2210000300074
:1021A000077265637572736547F8046DBB4E3668D8
:1021B000E3E6CA210000810005737461746547F885
:1021C000046DB94E704700000000DC2100000000E3
:1021D000015DB5480021C94301607047EC21000052
:1021E0001000015BB048002101607047142200001C
:1021F0000000013A00B5AD48076000F0BDFA47F8AD
:10220000046D4BF2005600F0B5F9A7480021C94310
:10221000016000BD5C2200003000013B00B5A34816
:102220000168B9420ED0FFF750FC1520537461636A
:102230006B206E6F742062616C616E6365642E0A40
:1022400001F026BB47F8046D4BF6005600F092F9FA
:1022500000F0CAF894480021016000BD702200001F
:1022600000000765786563757465300040CF874668
:1022700088220000100009696D6D656469617465EC
:1022800047F8046D1026DFE09E220000100006696A
:102290006E6C696E650047F8046D2026D4E0B822A4
:1022A000000010000B636F6D70696C656F6E6C7968
:1022B00047F8046D3026C7E0D222000010000A3033
:1022C0002D666F6C6461626C650047F8046D402692
:1022D000BAE0EC22000010000A312D666F6C6461D8
:1022E000626C650047F8046D4126ADE006230000EE
:1022F00010000A322D666F6C6461626C650047F8ED
:10230000046D4226A0E02023000010000A332D6651
:102310006F6C6461626C650047F8046D432693E05E
:102320003A23000010000A342D666F6C6461626C01
:10233000650047F8046D442686E054230000100031
:102340000A352D666F6C6461626C650047F8046D38
:10235000452679E06E23000010000A362D666F6C6A
:102360006461626C650047F8046D46266CE0882362
:10237000000010000A372D666F6C6461626C6500A6
:1023800047F8046D47265FE0B823000000000863AB
:102390006F6E7374616E740000B500F0EDF9FFF7B5
:1023A00021FE47F8046D44F2707600F0E3F8FFF781
:1023B0008CFF00F019F800BDDA230000000009329C
:1023C000636F6E7374616E7400B500F0D5F939688F
:1023D0003E600E46FFF706FEE1E7382400000000ED
:1023E00006736D756467650000B52B4801682A4A5D
:1023F000914280F01B8002390A882D4B9A4204D109
:1024000047F8046D2B4E00F0B5F800F086F82A4826
:10241000006847F8046D06002849096804311E4A1F
:102420001368116000F0A6F8136000BD00F075F8A5
:1024300047F8046D002608E0C0240000000008737F
:102440006574666C6167730000B513480168124AD1
:10245000914280F00680184801683143016040CF06
:1024600000BD320040CF1548006804300188104B91
:1024700099420CBF11461143018000BD000040F29B
:102480000000C0F200005FF000007FF00100C0FF1C
:102490000000C0FF00F800F0000000201400002041
:1024A0002E2100007A1F0000D8FF0220100000201B
:1024B000FFFF0000000000002000002004000020BA
:1024C000CE240000000005616C69676E25E0EA24F7
:1024D0000000410007616C69676E6564012030404F
:1024E000361802203040361870470C2500000000D6
:1024F00006616C69676E2C009548016801200140F7
:1025000003D047F8046D00261AE070473625000016
:10251000000007616C69676E342C00B5FFF7ECFFB3
:102520008B4801680220014004D047F8046D002662
:1025300000F020F800BD6A250000000002632C00B6
:1025400000B583480168824A914205D247F8046D7C
:102550000E00FEF747FD02E0320040CF0A7047F858
:10256000046D012600F071F800BDA02500000000F8
:1025700002682C000FB576480168754A914280F0D8
:10258000068047F8046D0E00FEF7D7FC02E032002B
:1025900040CF0A8047F8046D022600F056F80FBDC0
:1025A000BA2500000000012C00B547F8046DFFF7C4
:1025B000E1FF360CFFF7DEFF00BDD625000000006E
:1025C000033E3C2C00B547F8046D360CFFF7D2FFF4
:1025D000FFF7D0FF00BD3E260000000007737472B5
:1025E000696E672C07B5FF21314040CF300040CFE6
:1025F000002905D147F8046D0026FFF7BBFF07BD92
:1026000047F8046D067836020E43FFF7B3FF01303A
:10261000013902290AD347F8046D46783602027858
:102620001643FFF7A7FF02300239F2E7002900D175
:1026300007BD47F8046D0678FFF79CFF07BD982695
:102640000000000005616C6C6F7441480168404AED
:1026500091420FD2320040CF89183E4A914219D39D
:10266000FFF733FA0B466C6173682066756C6C0A71
:1026700001F00EB9320040CF8918374A12689142F2
:1026800008D3FFF722FA0952616D2066756C6C0A57
:1026900001F0FEB801607047C026000000000D6325
:1026A0006F6D70696C65746F72616D3F47F8046D92
:1026B0000026274800682649884248D3F6437047D9
:1026C000E026000000000C636F6D70696C65746F2C
:1026D00072616D001E4800681D49884211D3704721
:1026E0006827000000000E636F6D70696C65746F81
:1026F000666C61736800164800681549884200D20C
:1027000070471648164902680B680A600360104853
:10271000144902680B680A6003600F48006883422E
:1027200015D300B5FFF7D1F92320566172696162B4
:102730006C657320636F6C6C69646520776974687D
:102740002064696374696F6E6172790A00BD7047B5
:1027500000000020000020002400002004000020D1
:102760001C00002018000020582800000000082845
:10277000637265617465290000B500F003FD002EE9
:102780000ED1FFF7A2F91520437265617465206EC2
:1027900065656473206E616D6520210A01F078B86B
:1027A000386847F8046D043F386000F0A4F940CF62
:1027B000002E40CF11D0386847F8046D043F3860D0
:1027C000FFF783F9095265646566696E6520FFF756
:1027D000D8F9FFF77AF9022E0A00FFF78DFEFFF70E
:1027E0009CFE00F011FA904800688F49884280F002
:1027F0001D808E480021016047F8046D0626FFF712
:1028000024FFFEF791F8FFF7EDFE894801680A689A
:10281000884B9A4207D1844A1368116047F8046DC7
:10282000FFF7C2FE1360066040CF10E0804847F813
:10283000046D0668FFF7B8FE47F8046D7E4EFFF79B
:1028400099FE7B48310040CF0160FFF7CBFE764810
:1028500001687A48016000BD702800000000087619
:1028600061726961626C650047F8046D012613E0CE
:1028700088280000000009327661726961626C6527
:1028800047F8046D022607E0642900000000096E85
:102890007661726961626C6500B5FFF76DFF624831
:1028A0000168614A914280F035800F200640B200F5
:1028B00063480168891A634A91420BD2FFF705F910
:1028C0000F4E6F7420656E6F7567682052414D0A18
:1028D00000F0DEBF016047F8046D0E00FFF782FBD9
:1028E00047F8046D44F27076FFF744FE300040CFA5
:1028F0000200002805D00E600431FFF755FE0138B4
:10290000F9D147F8046D80261643FFF79DFDFFF7C8
:102910006BFD00BD00F078F90220064040CF04D1E5
:1029200047F8046D3626FFF725FE47F8046D464E3E
:10293000FFF748FE47F8046D444EFFF743FE47F8A3
:10294000046D44F27076FFF715FE300040CF00288A
:1029500003D0FFF729FE0138FBD1FFF7B6FCFFF7E4
:1029600043FD00BD502A00000000076275666665E1
:10297000723A00B5FFF700FF012030403618022000
:102980003040361828480168274A914280F0298053
:102990002B480168891B2B4A91420BD2FFF795F80F
:1029A0000F4E6F7420656E6F7567682052414D0A37
:1029B00000F06EBF016047F8046D0E00FFF712FBD8
:1029C00047F8046D44F27076FFF7D4FDFFF7ECFD95
:1029D00047F8046D40F24016FFF736FDFFF704FD9F
:1029E00000BD00F011F90220064040CF04D147F8A5
:1029F000046D3626FFF7BEFD47F8046D124EFFF753
:102A0000E1FD47F8046D114EFFF7DCFD47F8046D5A
:102A100044F27076FFF7AEFDFFF717FEFFF755FCA7
:102A2000FFF7E2FC00BD00000000002020000020B5
:102A300004000020FFFFFFFFFFFF00001400002044
:102A400024000020300300203E60043F02367E4612
:102A50007E2A000000000F64696374696F6E617202
:102A6000797374617274EB480068EA4947F8046D41
:102A7000884201D2E84E7047E84E36687047B82A5F
:102A8000000000000E64696374696F6E6172796E94
:102A90006578740003B53168E148814207D08879D0
:102AA000FF2804D00E0047F8046D002603BD47F848
:102AB000046D0026F64303BDEA2A000000000A73F5
:102AC0006B6970737472696E67003178013101222D
:102AD0000A4089187618704706B40178013101223E
:102AE0000A408918401806BC70476A2B0000000095
:102AF0000466696E64003FB500220023350040CFB4
:102B0000340040CFFFF7AFFFC648B188884217D0E6
:102B100047F8046D0636FFF714F847F8046D2600F1
:102B200047F8046D2E00FEF746FF002E40CF07D079
:102B3000B01DFFF7D1FF02000B00B648824204D25D
:102B4000FFF7A8FF300040CFDED0160047F8046D35
:102B50001E003FBD00B531003868FFF7CCFF3A6872
:102B6000002A01D100F066FD00BDC42B000000006A
:102B700006636A756D702C00320040CF310040CF83
:102B80008B1B043BA849194000290DD0A74881425E
:102B90000AD0FEF79AFF0D4A756D7020746F6F2092
:102BA0006661720A00F074BE5B10FF210B40134394
:102BB00030001E0000B5974A13681060FFF7DAFC7A
:102BC000136000BDFC2B00000000056A756D702CC1
:102BD000310040CF300040CF0B1A043B94491940DC
:102BE000002902D0934A9142D3D15B10924A1340FC
:102BF00053F4604347F8046D1E00DBE7122C00001D
:102C0000000004686572650047F8046D814E3668FF
:102C100070470E2D000000000D666C6173687661D0
:102C2000722D6865726547F8046D844E366870478A
:102C300000B547F8046D42F60066FFF79BFC47F8C5
:102C4000046D4CF64076FFF795FC00BDDCE700B55F
:102C500000F03AF839683E600E4647F8046D4DF2D0
:102C60000016FFF789FF00BD00B500F02DF83968A8
:102C70003E600E4647F8046D4DF20076FFF77CFF8C
:102C800000BD00B5FFF7D4FF00F01EF839683E60C4
:102C90000E4647F8046D4DF20006FFF76DFF00BDCC
:102CA00000B500F011F839683E600E46FFF790FF5E
:102CB00000BD00B5FFF7BCFFFFF7A6FF47F8046DA6
:102CC0000226FFF7C2FC00BD00B5FFF79DFF47F8E5
:102CD000046D0226FFF7B9FC00BD00B5FFF794FFB5
:102CE000FFF776FF00BD00B5FFF78EFF47F8046DD4
:102CF0004DF20006FFF740FF00BD00B5FFF784FF6F
:102D000047F8046D4DF20016FFF736FF00BD4A2D5F
:102D100000003000047468656E00052E01D140CFBC
:102D2000DBE7022E01D140CFDDE7FEF7CEFE1753E1
:102D300074727563747572657320646F6E27742086
:102D40006D617463680A00F0A3BD762D0000300049
:102D500004656C73650000B5022E7FF4E6AF40CFCA
:102D6000FFF7B2FF39683E600E46FFF7BCFF47F839
:102D7000046D052600BD8E2D00003000026966003E
:102D800000B5FFF796FF47F8046D022600BDB42D8D
:102D9000000030000672657065617400042EC4D1B5
:102DA00040CF39683E600E4600B5FFF779FFFFF768
:102DB0009AFF00BDD02D00003000057768696C6572
:102DC000012EB2D140CF00B5FFF7DAFF023600BDC9
:102DD000E42D0000300005756E74696C012EA4D1DD
:102DE00040CF4EE7F82D0000300005616761696E45
:102DF000012E9AD140CF53E7402E000030000562EB
:102E00006567696E00B5FFF721FF47F8046D01267D
:102E100000BD000000000020AC0100000400002004
:102E2000FFFFFFFFFFFF000001FFFFFF00FFFFFFAD
:102E300001F8FFFF00F8FFFFFF070000240000205B
:102E4000502E00002000016B47F8046D029E704771
:102E5000602E00002000016A47F8046D009E704754
:102E6000702E00002000016947F8046D26007047AD
:102E7000AE2E00003000056C6561766500B5D9485E
:102E800001683B00043F1A68043B1A6008338B4218
:102E9000F9D103B4FFF718FF03BC330040CF043966
:102EA0000B60016004390A6801320A6000BDC02E5F
:102EB0000000200006756E6C6F6F700030BC7047AC
:102EC000F82E00003000052B6C6F6F70032E00D0C1
:102ED0002BE740CF00B547F8046DC34EFFF727F945
:102EE000FFF7C2FE1AE014F10044641BA41940CF9E
:102EF0002C44A4F1004470473A2F00003000046CC9
:102F00006F6F7000032E00D00FE740CF00B547F879
:102F1000046DB64EFFF70BF9FFF799FE00F018F9B4
:102F2000B048310040CF016047F8046DB04EFFF764
:102F3000FEF800BD0134AC427047822F00007800DB
:102F400002646F0000B547F8046DAA4EFFF7EFF872
:102F5000A448016847F8046D0E0047F8046D002688
:102F60000760FFF773FE47F8046D032600BD00B548
:102F700000F02FF8ECE730B4340040CF350040CFFC
:102F800070471C3000007800033F646F00B547F8BD
:102F9000046D984EFFF7CBF847F8046D44F2AC2669
:102FA000FFF7E8FA8F48016847F8046D0E00FFF755
:102FB0008BFE013647F8046D01268A480760FFF74B
:102FC00045FE47F8046D032600BD00B500F001F88A
:102FD000E2E700B547F8046D4BF23046FFF7CAFA56
:102FE00047F8046D0426FEF76BFF013B08D047F855
:102FF000046D0526FEF764FF013B00F022FC00BDD6
:1030000047F8046D3526FFF7B5FA47F8046D4CF61E
:103010004076FFF7AFFA00F014FC00BD3630000038
:10302000300004636173650047F8046D002647F8BB
:10303000046D082670474C3000003000033F6F6677
:103040006D4809E0013EB64140CF7047F0300000C6
:103050007800026F66006948082E00D065E640CF10
:1030600000B547F8046D0600FFF761F8FFF72CFE86
:1030700039683E600E46013647F8046D092647F868
:10308000046D4CF64076FFF775FA00BD00B53000D0
:1030900040CF013B01B400F0D4FB01BC082E00D0AE
:1030A00043E640CF47F8046D0600FF213140B142AE
:1030B00004D153490E43FFF75DFAD7E7FEF74CFE04
:1030C000002E40CF04D04F480643FFF77BFACDE7F0
:1030D00047F8046D0026FEF7F3FE47F8046D44F24E
:1030E000B026FFF747FAC1E7300040CFB042704743
:1030F00026310000300005656E646F66092E00D031
:1031000013E640CF00B540B440CFFFF7DDFD39688E
:103110003E600E46FFF7F1FD47F8046D40BC47F8EE
:10312000046D082600BD78310000300007656E642C
:1031300063617365082E00D0F7E540CF00B547F80E
:10314000046D4CF64076FFF715FA00F001F800BD6B
:1031500000B5300040CF00280DD003B4012131402C
:10316000002903D0013EFFF7BEFD01E0FFF7B5FDEA
:1031700003BC0138EFE700BD8C310000000005748E
:103180006F6B656E47F8046D202605E00C32000079
:10319000000005706172736510B5FEF7E0FB310049
:1031A00040CF300040CF184A12688418202E07D133
:1031B00091420FD0835CB34202D101328418F7E709
:1031C000914207D0835C0132B342F9D18618361B95
:1031D000013E01E08618361B043F3C600A4802604D
:1031E00010BD00000C000020E62E0000342F00006F
:1031F000BC2E0000762F000044300000E8300000B4
:10320000002E0000000FB6F1E4FF02204A32000059
:103210000000056469676974CE4B1B68303E0BD3B0
:103220000A2E0BD3073E0A2E06D3242E06D3203EA9
:103230000A2E01D3242E01D3002670479E42FBD2D2
:1032400047F8046D0026F643704754330000000031
:10325000066E756D626572003FB5310040CF701E1D
:103260000126012204B4BB4B1B6800240025002961
:103270003CD00130013902782D2A04D101B000225E
:10328000D24304B4F3E7232A01D10A23EFE7242A27
:1032900001D11023EBE7252A01D10223E7E72E2AEB
:1032A00001D10226E3E72C2A36D047F8046D160038
:1032B000FFF7B4FF002E40CF2BD047F8046D260057
:1032C00047F8046D2E0047F8046D1E0047F8046DA2
:1032D00000260FB4FDF7A3F80FBC350040CF340033
:1032E00040CF0022A419554140CFC0E704BC002ABA
:1032F00004D50022E443ED43013455413300260058
:10330000012B02D047F8046D2E0047F8046D1E0013
:103310003FBD01B000263FBD250000240226002944
:10332000E4D0425C01392E2AF9D047F8046D16002A
:10333000FFF774FF002E40CFEBD0043F3C6047F80E
:10334000046D1E000FB4FDF719F90FBC340040CF17
:1033500040CFE4E7743300000000062E646967691B
:1033600074000A2E3CBF303603E0242E34BF3736BB
:1033700023267047AA330000000004686F6C6400C5
:10338000330040CF744801783F290DD201310170DC
:103390004018012907D00138027801300270013845
:1033A00001390129F7D103707047CA3300000000CA
:1033B00005686F6C643C330040CF674801783F2953
:1033C00002D20131017043547047E2330000000023
:1033D000047369676E00002E01D440CF70472D261C
:1033E000CEE7F6330000000002233E005A4806787C
:1033F0000130386070470E3400000000036623532C
:1034000010B5202400F008F8013CFBD110BD303489
:10341000000000000266230000B547F8046D4D4E21
:103420003668FCF7E8FFFFF79CFFFFF7C4FF00BD1D
:103430004C34000000000223530000B500F00AF8ED
:10344000002EFBD138680028F8D100BD7834000088
:103450000000012300B547F8046D3E4E366847F87A
:10346000046D0026FDF7A9F8FCF7CEFE40CFFFF76C
:1034700078FFFFF785FF00BD8A3400000000023CA2
:10348000230035480021017070479C340000000083
:1034900002662E0047F8046D202604E0EA3400009E
:1034A000000003662E6E00B510B4340040CFFDF767
:1034B00025FAFCF75CFF47F8046D0026FFF7E1FFF3
:1034C000FFF7BBFF40CF2C26FFF775FF002C03D082
:1034D000FFF7A2FF013CFBD110BC40CFFFF77BFF01
:1034E00047F8046D47F8046D1CE00035000000004B
:1034F0000375642E00B5FFF7C4FFFFF79EFF11E0D0
:1035000032350000000002642E0000B5FDF7F6F928
:10351000FCF72DFFFFF7B5FFFFF78FFFFDF7F8F979
:10352000FFF759FFFFF762FFFEF72BFBFEF77CFA70
:1035300000BD44350000000002752E0047F8046D00
:103540000026D7E75C3500000000012E47F8046D27
:10355000F617DAE7FCFF022028000020A43500005F
:103560000000086576616C756174650000B5FEF752
:10357000F6F901CF01B440B440CFD448016802B499
:1035800000210160FEF7DEF900F014F8CF4802BC1C
:10359000016047F8046D40BC01BC043F3860FEF791
:1035A000D1F900BD68380000000009696E746572C9
:1035B0007072657430B5C64887420BD9FEF785FA3C
:1035C00010537461636B20756E646572666C6F77FF
:1035D0000A005DE1BF4887420AD2FEF776FA0F5330
:1035E0007461636B206F766572666C6F770A4FE16A
:1035F000B94C2568002D01D13D002560FFF7C2FDC3
:10360000002E02D1043740CF30BD386847F8046D32
:10361000043F3860FFF76FFA310040CF320040CFEF
:10362000002A13D138683100FFF716FE320040CF70
:10363000002AC0D1FEF7A9FAFEF747FA0C206E6FF8
:103640007420666F756E642E0A0021E1A34B1B681F
:10365000002B1DD10025256030230B40302B0ED1CF
:10366000FEF78FFAFEF731FA1220697320636F6D4F
:1036700070696C652D6F6E6C792E0A0008E1043755
:1036800040CF47F8046D1600FEF7EFFDFFF793FFFC
:10369000043740CF802008400ED1EB1B9B08402010
:1036A00008400FD00820084002D0002B00D01DE0B9
:1036B0000F200840834205D347F8046D1600FEF73B
:1036C000D4FD78E700F0BDF847F8046D160010222D
:1036D0000A4002D0FEF7C9FD6DE720220A4002D061
:1036E000FEF725FD67E7FEF748FC64E70720014089
:1036F0001000FEF733FD01291FD1012BDCD1FF2182
:103700003140B14204D140880643FEF733FF52E70F
:10371000FEF722FB002E40CF04D040680643FEF7A0
:1037200051FF48E747F8046D0026FEF7C9FB47F84C
:10373000046D0688FEF71EFF3DE7022902D1012B2A
:10374000BAD1EFE7032926D1012BB5D1FF213140B2
:10375000B1420AD162490E43FEF70CFF043247F82A
:10376000046D1600FEF7E3FC25E7FEF7F5FA002EE0
:1037700040CF04D05B490E43FEF724FFEEE747F845
:10378000046D0026FEF79CFB023247F8046D16001C
:10379000FEF7CDFC0FE7042918D1012B8CD13300A3
:1037A00040CF002B00D106E71F221A409A4205D0D5
:1037B00047F8046D4688FEF7DDFEFCE647F8046D29
:1037C00006889B011E43FEF7D5FEF4E6052924D1A9
:1037D000012B10D147F8046D0026FEF771FB47F866
:1037E000046D0600FEF7A3FC47F8046D4CF6407626
:1037F000FEF7C0FEDFE647F8046D0026FEF760FB2B
:1038000047F8046D0126FEF75BFBFEF7A7FC47F8BF
:10381000046D0600FEF78BFCCDE606290ED1012BC8
:103820007FF44AAFFEF798FA002E40CF3FF47AAF0C
:10383000D0F802000643FEF7C5FEBCE60130804723
:10384000B9E600B5002B0CD0013B47F8046D1E0013
:1038500057F82660FEF7C6FB002BF5D1043D2F007C
:1038600040CF0025256000BD843800008100096834
:103870006F6F6B2D7175697447F8046D1A4E704740
:10388000B8380000FC38000000000471756974004D
:10389000DFF858D00E4F16480A2101600F4800216A
:1038A00001600D4801600948016012480160124939
:1038B00041600D4800688746FEF75FF8FFF77AFE23
:1038C000FEF703F905206F6B2E0AF5E7E4FF0220EF
:1038D000300200203001002008000020D8FF022024
:1038E000003E00000006B6F1D4FF022030030020A5
:1038F000FCFF0220DCFF0220680000200C390000E1
:1039000020000465696E740062B670471C390000BF
:1039100020000464696E740072B67047323900008A
:10392000200004697073720047F8046DEFF3058698
:1039300070473E3900000000036E6F707047803999
:103940000000000009756E68616E646C656400B506
:10395000FEF7BBF814556E68616E646C65642049AF
:103960006E74657272757074200047F8046DEFF321
:103970000586FEF71DF9FEF7A8F802210A0000BD32
:10398000AA39000081000B6972712D737973746913
:10399000636B47F8046DBD4E70474E3900004FF61B
:1039A000D070C2F2020000688746D2390000810060
:1039B000096972712D6661756C7447F8046DB44EB7
:1039C00070474E3900004FF6CC70C2F2020000681A
:1039D0008746003A000081000E6972712D636F6C9A
:1039E0006C656374696F6E0047F8046DA94E70478B
:1039F0004E3900004FF6C870C2F2020000688746D8
:103A0000283A00008100096972712D657874693067
:103A100047F8046DA04E70474E3900004FF6C47051
:103A2000C2F2020000688746503A0000810009692E
:103A300072712D657874693147F8046D974E70473F
:103A40004E3900004FF6C070C2F20200006887468F
:103A5000783A00008100096972712D6578746932C5
:103A600047F8046D8E4E70474E3900004FF6BC701B
:103A7000C2F2020000688746A03A0000810009698E
:103A800072712D657874693347F8046D854E7047FF
:103A90004E3900004FF6B870C2F202000068874647
:103AA000C83A00008100096972712D657874693423
:103AB00047F8046D7C4E70474E3900004FF6B470E5
:103AC000C2F2020000688746EE3A000081000769F2
:103AD00072712D61646347F8046D744E70474E39FE
:103AE00000004FF6B070C2F2020000688746163B35
:103AF00000008100086972712D74696D320047F809
:103B0000046D6B4E70474E3900004FF6AC70C2F238
:103B10000200006887463E3B000081000869727120
:103B20002D74696D330047F8046D624E70474E394D
:103B300000004FF6A870C2F2020000688746663B9C
:103B400000008100086972712D74696D340047F8B6
:103B5000046D594E70474E3900004FF6A470C2F202
:103B600002000068874600400000FFFF182D2D2D41
:103B700020466C6173682044696374696F6E61727A
:103B800079202D2D2D00FDF734FE4C4885464C4FF5
:103B90002A264C48494901604B484C49016047F886
:103BA000046D4A4E4A4DB1884A4B994224D04A4B43
:103BB0000B400AD0B01DFEF78FFFFEF7CFFA038847
:103BC000408800040343ED1A16E080230B4013D015
:103BD0000F23194089006D1AB01DFEF77DFFFEF717
:103BE000BDFA47F8046D060047F8046D2E0047F84B
:103BF000046D0E00FDF712F8FEF74CFF300040CFC9
:103C0000D1D03648066040CF354805603548364942
:103C1000304A884204D0023803889342F9D00230F7
:103C200032490860FDF751FF374D65637269737063
:103C30002D5374656C6C6172697320322E302E3393
:103C400020666F722053544D33324634323920622D
:103C500079204D61747468696173204B6F63680AE1
:103C600023480021016047F8046D224E47F8046D97
:103C70000426FEF740FF40CF002E02D0FEF7F5FAF3
:103C800017E640CF04E6696E69740000D0FF022099
:103C9000CCFF0220C8FF0220C4FF0220C0FF022088
:103CA000BCFF0220B8FF0220B4FF0220B0FF0220B8
:103CB000ACFF0220A8FF0220A4FF02203003002056
:103CC000300200200000002004000020AC010000B1
:103CD00000000320FFFF0000000100001C00002086
:103CE00024000020000020000040000018000020F8
:083CF00008000020863C0000E2
:0400000508000000EF
:00000001FF
