:020000040800F2
:100000002C0300209B3C0000DB3A0000DB3A0000A0
:10001000DB3A0000DB3A0000DB3A000000000000A1
:10002000000000000000000000000000093B00008C
:10003000093B000000000000093B0000B33A00004B
:10004000093B0000093B0000093B0000093B0000A0
:10005000093B0000093B0000313B0000593B000018
:10006000813B0000A93B0000D13B0000093B0000A0
:10007000093B0000093B0000093B0000093B000070
:10008000093B0000093B0000F73B0000093B000072
:10009000093B0000093B0000093B0000093B000050
:1000A000093B0000093B0000093B0000093B000040
:1000B0001F3C0000473C00006F3C0000093B000073
:1000C000093B0000093B0000093B0000093B000020
:1000D000093B0000093B0000093B0000093B000010
:1000E000093B0000093B0000093B0000093B000000
:1000F000093B0000093B0000093B0000093B0000F0
:10010000093B0000093B0000093B0000093B0000DF
:10011000093B0000093B0000093B0000093B0000CF
:10012000093B0000093B0000093B0000093B0000BF
:10013000093B0000093B0000093B0000093B0000AF
:10014000093B0000093B0000093B0000093B00009F
:10015000093B0000093B0000093B0000093B00008F
:10016000093B0000093B0000093B0000093B00007F
:10017000093B0000093B0000093B0000093B00006F
:10018000093B0000093B0000093B0000093B00005F
:10019000093B0000093B0000093B0000093B00004F
:1001A000093B0000093B0000093B0000D2010000B0
:1001B000FFFF1E2D2D2D204D6563726973702D5329
:1001C00074656C6C6172697320436F7265202D2DAC
:1001D0002D00EA01000042000432647570003868A6
:1001E00047F8046D043F38607047FC01000062006E
:1001F000053264726F70043740CF70471A020000F6
:10020000440005327377617007CF043F386047F8C8
:10021000046D043F3A600E0070472E020000620039
:1002200004326E69700007CF043F3860704748029F
:100230000000440005326F766572B86847F8046DB7
:10024000043F3860FE6870476C02000044000532CD
:100250007475636B07CF043F386047F8046D043F43
:100260003A60043F3960043F386070478E020000F6
:1002700046000432726F74003868B9683A69B86031
:1002800039613A6079687E60FE68F9607047B00253
:100290000000460005322D726F743868B9683A69FB
:1002A00038613960BA60F968FE607E6879607047CD
:1002B000C4020000200003323E7201CF01B440B4FA
:1002C00040CF7047DC02000020000332723E47F846
:1002D000046D40BC01BC043F38607047F40200006C
:1002E00020000332724047F8046D019E47F8046D08
:1002F000009E704706030000200006327264726F91
:10030000700002B070471E03000042000364322FE9
:100310003868F107761040080843386070473203A8
:10032000000062000364322A3868001876413860A1
:1003300070474C0300004200046473687200386820
:10034000F1077608400808433860704762030000F0
:100350006200046473686C00386800187641386085
:100360007047740300004200046461627300002E51
:1003700014D470478E0300004300083F646E656725
:1003800061746500300040CF002807D47047AC038B
:100390000000420007646E6567617465386800217B
:1003A000C043F64301304E4138607047C40300003B
:1003B000640002642D0007CF121AB1410E00043F01
:1003C0003A607047DA030000640002642B0007CF34
:1003D00012184E41043F3A607047EC030000610080
:1003E00003733E6447F8046DF6177047000400007D
:1003F000620003756D2A3868A0FB060638607047F6
:10040000140400006200026D2A00386880FB0606B2
:10041000386070475204000044000375642A07CF17
:10042000564341437618010C130C59437618010CBE
:1004300080B292B25143434350430022C918524103
:100440001204B6180A04090C80184E41043F3860A3
:100450007047E404000044000475646D2A0010B580
:10046000002447F8046D7E6847F8046D3E69FFF785
:10047000C2FF310040CF300040CF47F8046D3E68E6
:1004800047F8046DFE6803B4FFF7B5FF03BC330003
:1004900040CF320040CF47F8046D3E6847F8046D06
:1004A0003E690FB4FFF7A7FF0FBC9219634140CF1D
:1004B00089196241634140CF47F8046D7E6847F86F
:1004C000046DFE680FB4FFF796FF0FBC92196341ED
:1004D00040CF89196241634140CF1E003A60796084
:1004E000B86010BD060500004300022A2F0000B5C9
:1004F00040B440CFFFF789FF47F8046D40BC00F0DF
:1005000062F8043700BD280500004300052A2F6D5E
:100510006F6400B540B440CFFFF777FF47F8046D34
:1005200040BC00F050F800BD4A05000043000375D0
:100530002A2F00B540B440CFFFF75DFF47F8046DA8
:1005400040BC00F01BF8043700BD6E0500004300FE
:1005500006752A2F6D6F640000B540B440CFFFF7D9
:100560004AFF47F8046D40BC00F008F800BDBA052A
:100570000000430006756D2F6D6F640010B478683D
:1005800039680022002420236400001849415241A8
:10059000964201D8921B0134013BF5D1202364001F
:1005A00049185241964201D8921B0134013BF6D1C1
:1005B00004373A60260010BC70472E060000430046
:1005C000056D2F6D6F6400B5F01718D0764200F0FE
:1005D00019FAF0170DD0FFF7E1FE00F007FAFFF768
:1005E000CDFF39683E600E46764239683E600E4661
:1005F00000BD00F0FBF9FFF7C1FF764200BD00F03F
:1006000001FAF0170ED0FFF7C9FE00F0EFF9FFF77F
:10061000B5FF764239683E600E46764239683E60E4
:100620000E4600BD00F0E2F9FFF7A8FF00BD8A0604
:10063000000044000675642F6D6F640030B43C68A0
:10064000B86879680022002520236D000018494110
:100650005241944201D8121B0135013BF5D120B41F
:10066000002520206D00491852415B419E4204D86C
:10067000944202D8121BB34101350138F2D13D60DA
:10068000BA607B6040BC30BC70470007000044008B
:1006900005642F6D6F6400B5F01719D0FFF77EFE6B
:1006A000FFF7B2FDF0170CD0FFF778FEFFF7ACFDB7
:1006B000FFF7C4FFFFF7A8FDFFF770FEFFF7A4FDEB
:1006C00000BDFFF7A1FDFFF7B9FFFFF767FE00BD13
:1006D000FFF79AFDF0170ED0FFF760FEFFF794FDCD
:1006E000FFF7ACFFFFF75AFEFFF78EFDFFF756FE50
:1006F000FFF78AFD00BDFFF787FDFFF79FFF00BDF5
:1007000016070000440002642F0000B5FFF7C3FF86
:10071000FFF789FD00BDAE070000440002662A0015
:1007200000B5F0170DD0FFF739FEFFF76DFDF0179C
:100730000DD0FFF733FEFFF792FE40CF01CF3860B8
:1007400000BDFFF761FDF017F5D0FFF727FEFFF7BB
:1007500086FE40CF01CF3860FFF720FE00BD30B4E9
:100760003C68B9687A680023002520206D0049188C
:1007700052415B419E4204D8944202D8121BB341BD
:1007800001350138F2D1290020206D0092185B411B
:100790009E4204D8944202D8121BB341013501385D
:1007A000F3D13D60BA607B600E0030BC7047FA0741
:1007B0000000440002662F0000B5F0170ED0FFF7CE
:1007C000EDFDFFF721FDF0170ED0FFF7E7FDFFF776
:1007D0001BFDFFF7C4FFFFF726FD00BDFFF714FD6B
:1007E000F017F4D0FFF7DAFDFFF70EFDFFF7B7FFC4
:1007F000FFF7D4FDFFF717FD00BD0E080000200035
:100800000232210006CF3160726040CF704722086B
:100810000000200002324000043F706838603668F3
:1008200070474208000044000364753C07CF8E42C5
:1008300004D801D1904201D8002670470026F64323
:1008400070476208000044000364753E07CFB14260
:1008500004D801D1824201D8002670470026F64311
:10086000704782080000440002643C0007CF8E42BB
:1008700004DC01D1904201DC002670470026F643DB
:100880007047A2080000440002643E0007CFB14256
:1008900004DC01D1824201DC002670470026F643C9
:1008A0007047B208000062000364303C0437F6175A
:1008B0007047CC08000042000364303D01CF00289F
:1008C00001D000267047013EB6417047E60800009F
:1008D000440003643C3E07CF904201D1761A01D018
:1008E0000026F643704702090000440002643D0000
:1008F00007CF904201D000267047761A013EB641DC
:1009000070471409000020000373704047F8046D1D
:100910003E00704724090000200003737021370057
:1009200040CF70473609000020000372704047F83E
:10093000046D6E4670474609000020000372702166
:10094000B54640CF7047600900000000056465703F
:100950007468E549C91B890847F8046D0E007047A3
:100960007009000061000364757047F8046D7047FA
:100970008009000061000464726F700040CF70470E
:10098000960900006100043F64757000002E01D0DC
:1009900047F8046D7047AA0900006200047377618C
:1009A000700039683E600E007047B80900006200B0
:1009B000036E697004377047CC0900006200046F51
:1009C0007665720047F8046D7E687047E2090000A2
:1009D0006200047475636B0001CF083F7E6038606D
:1009E0007047F8090000630003726F7403CF083F7B
:1009F00078603E600E007047100A00006300042D0E
:100A0000726F740003CF083F7E6039600600704744
:100A1000220A00002000047069636B0057F826600A
:100A20007047320A00002000023E720040B440CFFE
:100A30007047440A0000200002723E0047F8046D2F
:100A400040BC7047560A000020000272400047F880
:100A5000046D009E7047660A0000200005726472F3
:100A60006F7001B070477C0A0000600004747275FA
:100A7000650047F8046D0026F6437047900A0000B1
:100A800060000566616C736547F8046D0026704769
:100A9000A60A00006E0003616E6401CF0640704735
:100AA0000640000616F0BE0A00006E00036269638D
:100AB00001CFB043060070478643000636F0D40AE3
:100AC00000006E00026F720001CF064370470643BC
:100AD000000656F0EA0A00006E0003786F7201CF3C
:100AE000464070474640000696F0F80A0000610054
:100AF000036E6F74F6437047080B000061000363D8
:100B00006C7AB6FA86F67047160B00006100037324
:100B1000687276087047240B000061000373686CEC
:100B200076007047340B0000610003726F725FEA59
:100B300076067047460B0000610003726F6CB619B1
:100B400056F100067047600B00006C000672736877
:100B50006966740001CFF040060070473608002631
:100B60007A0B00006C00076172736869667401CFCC
:100B70003041060070473610F617940B00006C00E9
:100B8000066C73686966740001CFB0400600704758
:100B900036000026A40B0000610002303D00013E3B
:100BA000B6417047B60B0000610003303C3E013E89
:100BB000B641F6437047C40B0000610002303C00B0
:100BC000F6177047DC0B00004200023E3D0001CFEB
:100BD000B042B4BF00264FF0FF367047F40B000060
:100BE0004200023C3D0001CFB042CCBF00264FF096
:100BF000FF3670470A0C00004200013C01CFB042B2
:100C0000B4BF4FF0FF3600267047200C00004200B2
:100C1000013E01CFB042CCBF4FF0FF3600267047F7
:100C2000340C0000620003753E3D01CF861BB641C7
:100C3000F6437047480C0000620003753C3D01CF4D
:100C4000361AB641F64370475A0C0000620002752E
:100C50003C0001CF861BB64170476C0C000062005F
:100C600002753E0001CF361AB6417047820C000073
:100C70006B00023C3E0001CF361A18BF4FF0FF3622
:100C80007047940C00006B00013D01CF361A013E05
:100C9000B6417047A80C00006200036D696E01CF79
:100CA000B042B8BF06467047BC0C00006200036D3E
:100CB000617801CFB042C8BF06467047D20C000031
:100CC000620004756D61780001CFB04288BF0646AE
:100CD0007047EC0C0000620004756D696E0001CF76
:100CE000B04238BF064670472C0200202A0D000093
:100CF0000000046D6F76650007B5310040CF32000B
:100D000040CF00290FD0B2420DD006D3013E013AA8
:100D1000705C50540139FBD105E030781070013619
:100D200001320139F9D140CF07BD4C0D0000000060
:100D30000466696C6C00300040CF310040CF002960
:100D400002D001397054FCD140CF7047580D0000DB
:100D50002000014036687047700D00006D000121D1
:100D600003CF30600E007047066070470160704727
:100D7000960D00006D00022B210003CF326812187F
:100D800032600E0070470268921902607047026874
:100D9000521802607047A40D000020000268400055
:100DA00036887047BE0D00006D000268210003CF39
:100DB00030800E0070470680704701807047E40D58
:100DC00000006D0003682B2103CF32881218328097
:100DD0000E007047028892190280704702885218EC
:100DE00002807047F20D0000200002634000367858
:100DF00070470C0E00006D000263210003CF3070BD
:100E00000E0070470670704701707047320E000088
:100E10006D0003632B2103CF3278121832700E005D
:100E20007047027892190270704702785218027067
:100E300070475A0E00006D0004626973210003CFF1
:100E40003268024332600E0070470268324302602B
:100E5000704702680A4302607047820E00006D000E
:100E600004626963210003CF3268824332600E005E
:100E700070470268B2430260704702688A430260AA
:100E80007047AA0E00006D0004786F72210003CF36
:100E90003268424032600E00704702687240026061
:100EA000704702684A4002607047C40E000020008C
:100EB00004626974400001CF3668064018BF4FF0E5
:100EC000FF367047EC0E00006D0005686269732103
:100ED00003CF3288024332800E00704702883243CB
:100EE0000280704702880A4302807047140F000096
:100EF0006D0005686269632103CF328882433280C6
:100F00000E0070470288B2430280704702888A430D
:100F1000028070473C0F00006D000568786F7221F9
:100F200003CF3288424032800E0070470288724000
:100F30000280704702884A4002807047560F0000C6
:100F4000200005686269744001CF3688064018BFEA
:100F50004FF0FF3670477E0F00006D000563626939
:100F6000732103CF3278024332700E00704702784B
:100F700032430270704702780A4302707047A60F2E
:100F800000006D0005636269632103CF32788243FC
:100F900032700E0070470278B243027070470278D8
:100FA0008A4302707047CE0F00006D000563786FB2
:100FB000722103CF3278424032700E0070470278BF
:100FC00072400270704702784A4002707047E80F22
:100FD0000000200005636269744001CF3678064046
:100FE00018BF4FF0FF367047F80F0000610005632F
:100FF000656C6C2B043670470810000061000563B7
:10100000656C6C73B6007047B21000000000076892
:10101000666C61736821300040CF310040CFDFF84B
:101020005C3498422BD3DFF85834984227D2DFF84B
:1010300054341940994221D010F00102002A1ED1E7
:1010400002889A421BD110F10060DFF83C24DFF8DF
:101050003C341360DFF838341360DFF83824DFF8ED
:10106000383413600180DFF83424136813F48033BC
:10107000FBD1DFF82024DFF828341360704700F03C
:101080009BFD2A57726F6E6720616464726573738B
:10109000206F72206461746120666F7220777269BC
:1010A00074696E6720666C61736820210A0002F023
:1010B00079BC0A11000000000763666C6173682147
:1010C000300040CF310040CFEC4B9842D7D3EC4BAF
:1010D0009842D4D211F0FF01FF2915D00278FF2ADF
:1010E000CDD110F10060E84AE84B1360E84B136083
:1010F000E84AEC4B13600170E84A136813F480333C
:10110000FBD1E44AE64B13607047901100000000E9
:10111000106572617365666C617368736563746F83
:10112000720000B5012E31D31C2E2FD20C2E2DD0E3
:101130000D2E2BD00E2E29D00F2E27D0D24AD34BD6
:101140001360D34B136000F037FD0D45726173657A
:1011500020736563746F722047F8046D02F078FAAB
:10116000CC4AD14BF60033431360CC4A136813F4D6
:101170008033FBD1C74ACA4B136000F01DFD0C66DB
:10118000726F6D20466C6173682E0A0040CF00BDFF
:101190006415000000000A6572617365666C617316
:1011A000680072B600B5C148C1490268B2F1FF3F9C
:1011B00005D047F8046D0126FFF7B3FF02E00430C5
:1011C0008842F2D3BB48BC490268B2F1FF3F05D068
:1011D00047F8046D0226FFF7A4FF02E004308842BE
:1011E000F2D3B648B6490268B2F1FF3F05D047F8DE
:1011F000046D0326FFF795FF02E004308842F2D326
:10120000B048B1490268B2F1FF3F05D047F8046D1C
:101210000426FFF786FF02E004308842F2D3AB4891
:10122000AB490268B2F1FF3F05D047F8046D0526CF
:10123000FFF777FF02E004308842F2D3A548A649C1
:101240000268B2F1FF3F05D047F8046D0626FFF7AC
:1012500068FF02E004308842F2D3A048A049026847
:10126000B2F1FF3F05D047F8046D0726FFF759FF9D
:1012700002E004308842F2D39A489B490268B2F1F6
:10128000FF3F05D047F8046D0826FFF74AFF02E04C
:1012900004308842F2D3954895490268B2F1FF3F85
:1012A00005D047F8046D0926FFF73BFF02E0043044
:1012B0008842F2D38F4890490268B2F1FF3F05D0CF
:1012C00047F8046D0A26FFF72CFF02E0043088423D
:1012D000F2D38A488A490268B2F1FF3F05D047F845
:1012E000046D0B26FFF71DFF02E004308842F2D3A5
:1012F000844885490268B2F1FF3F05D047F8046D84
:101300001026FFF70EFF02E004308842F2D37F4838
:101310007F490268B2F1FF3F05D047F8046D1126FE
:10132000FFF7FFFE02E004308842F2D379487A49A1
:101330000268B2F1FF3F05D047F8046D1226FFF7AF
:10134000F0FE02E004308842F2D374487449026827
:10135000B2F1FF3F05D047F8046D1326FFF7E1FE19
:1013600002E004308842F2D36E486F490268B2F15D
:10137000FF3F05D047F8046D1426FFF7D2FE02E0C8
:1013800004308842F2D3694869490268B2F1FF3FEC
:1013900005D047F8046D1526FFF7C3FE02E00430C0
:1013A0008842F2D3634864490268B2F1FF3F05D036
:1013B00047F8046D1626FFF7B4FE02E004308842B9
:1013C000F2D35E485E490268B2F1FF3F05D047F8AC
:1013D000046D1726FFF7A5FE02E004308842F2D321
:1013E000584859490268B2F1FF3F05D047F8046DEB
:1013F0001826FFF796FE02E004308842F2D35348E5
:1014000053490268B2F1FF3F05D047F8046D192631
:10141000FFF787FE02E004308842F2D34D484E4980
:101420000268B2F1FF3F05D047F8046D1A26FFF7B6
:1014300078FE02E004308842F2D348484849026806
:10144000B2F1FF3F05D047F8046D1B26FFF769FE98
:1014500002E004308842F2D300F0AEFB1246696E1F
:1014600069736865642E20526573657420210A00D3
:101470005DF804EB62B602F012BC00000040000010
:1014800000002000FFFF0000043C024023016745EC
:10149000AB89EFCD103C0240010100000C3C024042
:1014A0000000008001000000020001000040000870
:1014B000FF7F000800800008FFBF000800C0000890
:1014C000FFFF000800000108FFFF010800000208FC
:1014D000FFFF030800000408FFFF050800000608DE
:1014E000FFFF070800000808FFFF090800000A08BE
:1014F000FFFF0B0800000C08FFFF0D0800000E089E
:10150000FFFF0F0800001008FF3F10080040100800
:10151000FF7F100800801008FFBF100800C01008EF
:10152000FFFF100800001108FFFF1108000012085B
:10153000FFFF130800001408FFFF1508000016083D
:10154000FFFF170800001808FFFF190800001A081D
:10155000FFFF1B0800001C08FFFF1D0800001E08FD
:10156000FFFF1F087A1500006900012B01CF361814
:10157000704736180036000616F190150000690015
:10158000012D01CF861B7047361A003E0006B6F1CA
:101590009E150000610002312D00013E7047AC1520
:1015A0000000610002312B0001367047BA150000BF
:1015B000610002322D00023E7047C8150000610034
:1015C00002322B0002367047DA1500006100066E09
:1015D00065676174650076427047EE150000610032
:1015E00003616273002E48BFD6F1000670470C16E7
:1015F0000000420005752F6D6F6401CF3100B0FB14
:10160000F6F67143401A043F386070472A1600000E
:101610004200042F6D6F640001CF310090FBF6F69D
:101620007143401A043F386070473E160000420084
:10163000036D6F6400B5FFF7EFFF40CF00BD4E169E
:1016400000006200012F01CF90FBF6F670475E1696
:1016500000006A00012A01CF4643704746436C16DA
:101660000000610002322A00760070477A160000FE
:10167000610002322F00761070478E160000610064
:10168000046576656E000120304036187047A61656
:101690000000810004626173650047F8046D114E1B
:1016A00070470A000000BC16000000000662696E68
:1016B000617279000B48022101607047D216000068
:1016C000000007646563696D616C06480A2101606A
:1016D0007047E81600000000036865780148102193
:1016E00001607047FCFF02200417000081000968B8
:1016F0006F6F6B2D656D697447F8046D7B4E704795
:10170000FA17000020170000810008686F6F6B2D2A
:101710006B65790047F8046D754E7047201800001E
:101720003E17000081000A686F6F6B2D656D69744C
:101730003F0047F8046D6F4E70474A1800005A1773
:101740000000810009686F6F6B2D6B65793F47F86A
:10175000046D694E7047761800007817000081000C
:101760000A686F6F6B2D70617573650047F8046DC3
:10177000624E7047503A00008E170000000004656A
:101780006D6974000FB5594800F02CF80FBDA21711
:1017900000000000036B65790FB5554800F022F892
:1017A0000FBDB8170000000005656D69743F00B5F6
:1017B000504800F017F800BDCE1700000000046B81
:1017C00065793F0000B54C4800F00CF800BDE81703
:1017D0000000000005706175736500B5474800F0B2
:1017E00001F800BD006887460E18000000000B736A
:1017F000657269616C2D656D697400B500F025F83E
:10180000002E40CFFAD03E4A167040CF00BD3618A9
:10181000000000000A73657269616C2D6B657900C8
:1018200000B500F028F8002E40CFFAD047F8046D3C
:10183000334A167800BD6418000000000C7365720E
:1018400069616C2D656D69743F0000B5FFF7C5FFD8
:1018500047F8046D00262B4801688020014000D025
:10186000F64300BD3819000000000B736572696112
:101870006C2D6B65793F00B5FFF7AFFF47F8046D3E
:101880000026204801682020014000D0F64300BD1A
:101890001D494FF480300860086810F40030FBD018
:1018A0001A494FF0010008601749086820F001004C
:1018B000086070471649174808601749086840F4DF
:1018C0002010086015491648086016491648086037
:1018D000164946200860164916480860704700B54A
:1018E000FFF7D6FFFFF7E6FF00BD0000F8FF02207C
:1018F000F4FF0220F0FF0220ECFF0220E8FF0220AC
:101900000410014000100140003802400838024035
:1019100030380240FF07100000000240240002405F
:101920007007000044380240100000000810014019
:101930000C1001400C2000005C190000000007633F
:1019400065787065637400B5386801B4013038603B
:1019500000F00BF801BC067040CF00BDCE190000AE
:101960000000066163636570740000B502CF013941
:101970000022FFF711FF300040CF202819D209289C
:1019800016D00A281FD00D281DD00828F1D1002A12
:10199000EFD000F011F903082008002AE9D0885C94
:1019A000013A80230340E4D040230340F5D0E0E730
:1019B0002020B242DDD247F8046D0600FFF7E2FEB8
:1019C00001328854D5E7160000F0A2F800BDE019F6
:1019D000000040000374696247F8046D294E7047A7
:1019E000F61900008100033E696E47F8046D264E2B
:1019F0007047000000001C1A000082000E63757220
:101A000072656E742D736F757263650047F8046DAF
:101A10001E4E70470000000064000020381A0000CD
:101A2000000009736574736F75726365174802CFA0
:101A30000660416040CF7047561A000000000673F0
:101A40006F757263650047F8046D104E043F70684F
:101A5000386036687047901A00000000057175659F
:101A600072790FB5084800210160FFF7B5FF47F80C
:101A7000046D47F8046DC826FFF777FFFFF7D6FF20
:101A80000FBD000064000020E4FF0220DCFF022004
:101A9000DE1A0000000007636F6D706172650FB59C
:101AA000310040CF01CF884202D040CF00260FBD89
:101AB00002CF002810D001380A5C335C412A02D3DF
:101AC0005B2A38BF2032412B02D35B2B38BF203337
:101AD0009A42EED000260FBD0026F6430FBDF21A43
:101AE000000000000263720000B500F065F8010A12
:101AF00000BD041B0000000002626C0047F8046D8A
:101B000020267047181B0000000005737061636594
:101B100047F8046D202635E63E1B000000000673E2
:101B200070616365730000B5002E06DD47F8046D33
:101B30002026FFF727FE013EF8D140CF00BD4E1B07
:101B400000005000065B636861725D0005E0661B83
:101B50000000000004636861720000B501F0AEFB94
:101B600040CF367800BD761B00005000012847F8B2
:101B7000046D292606E0901B00005000015C47F828
:101B8000046D002600B501F0A3FB043740CF00BD73
:101B9000D41B00001000022E22009D4800B547F81B
:101BA000046D060000F061FA47F8046D222601F08A
:101BB0008FFB00F0A3FD00BD0AB447F8046D764624
:101BC000013E33780121013319405B181EEB030EEF
:101BD0000ABC39E0FA1B00001000026322008D48A5
:101BE000DCE747F8046D7646013E33780121013386
:101BF00019405B181EEB030E7047241C00001000F8
:101C0000027322008448C9E747F8046D764647F816
:101C1000046D013E36780121731C19405B181EEBE0
:101C2000030E70473C1C0000000005636F756E7466
:101C3000013647F8046D013E36787047641C000099
:101C4000000005637479706501B53078002807D00D
:101C5000013647F8046D3678FFF794FD0138F7D167
:101C600040CF01BD921C0000000004747970650033
:101C7000310040CF300040CF00B5002908D000220D
:101C800047F8046D865CFFF77DFD01329142F7D184
:101C900000BDCA1C00000000046865782E0003B572
:101CA000310040CF2020043847F8046D31FA00F6A7
:101CB00016F00F06092E8CBF37363036FFF762FD5F
:101CC0000028F0D1FFF724FF03BDDA1C000000005C
:101CD00003682E731FB5514C0EE0EA1C0000000093
:101CE00003752E731FB54E4C06E0681D0000000002
:101CF000022E73001FB54B4C4B49C91B89084B4A38
:101D0000106803B40A201060FFF756FF085374618F
:101D1000636B3A205B0047F8046D0E0001F0A0FCF5
:101D2000FFF74AFF025D200003BC404A1060002913
:101D30000AD03F4A106806B447F8046D0600A04771
:101D400006BC043A0139F5D1FFF736FF0620544F9F
:101D5000533A200047F8046D3600A047FFF72CFFE8
:101D600004202A3E0A001FBD341E00000000057733
:101D70006F72647300B5FFF71FFF06776F726473AD
:101D80000A0000F0F6FEFFF717FF09416464726570
:101D900073733A2047F8046DFFF781FFFFF70CFFDC
:101DA000064C696E6B3A200047F8046D3668FFF701
:101DB00076FFFFF701FF07466C6167733A2047F82B
:101DC000046DB688FFF76BFFFFF7F6FE06436F64FE
:101DD000653A2000B01D00F005FF47F8046D0600CD
:101DE000FFF75DFFFFF7E8FE064E616D653A2000E4
:101DF00047F8046D0636FFF727FFFFF7DDFE010AFF
:101E000000F0CEFE300040CFBDD040CF00BD00007E
:101E1000B81B0000E21B0000081C00009F1C000013
:101E200051360000613600002C020020FCFF022029
:101E300028020020981F000000000D3132626974F2
:101E4000656E636F64696E670FB5FF2E04D847F83F
:101E5000046D5FF0FF360FBD16F0FF10B0420ED1DB
:101E60004FF6FF710840310C814208D116F0FF0691
:101E700056F4805647F8046D5FF0FF360FBD16F03C
:101E8000FF20B0420FD14FF6FF710840310C814264
:101E900009D1360A16F0FF0656F4005647F8046DCD
:101EA0005FF0FF360FBDFF2231001140300A1040B5
:101EB000884210D1300C104088420CD1300E1040B6
:101EC000884208D116F0FF0656F4405647F8046DD4
:101ED0005FF0FF360FBD300000210131001850F1D6
:101EE00000007FF07F020240802A05D01F29F4D332
:101EF00047F8046D00260FBD0829F9D3060036F017
:101F0000800611F00100C001064311F00E00C0026E
:101F1000064311F010008005064347F8046D5FF09A
:101F2000FF360FBD47F8046DDFF8C0655FF4704100
:101F300010EA0102120116435FF4006110EA010287
:101F4000D20316435FF4E06110EA01021201164366
:101F5000FF2110EA010216431E43BFE347F8046D58
:101F6000DFF88C655FF0704110EA0102120B164336
:101F70005FF0006110EA0102520816435FF0E06171
:101F800010EA0102120B16435FF47F0110EA01020E
:101F9000120C16431E43A1E3FE1F00000000107246
:101FA000656769737465726C69746572616C2C0025
:101FB0000FB5330040CF1B02FF2E05D856F4005654
:101FC0001E4300F063FB0FBDFFF73EFF002E40CF26
:101FD00006D0DFF8200506431E4300F07FFB0FBD4F
:101FE000F643FFF731FF002E40CF06D0DFF808059B
:101FF00006431E4300F072FB0FBDF6430BE05E206C
:1020000000000000096D6F76776D6F76742C0FB548
:10201000330040CF1B02300040CFFFF783FF4FF665
:10202000FF7110EA014001D0FFF798FF0FBD0FB517
:102030000136300040CF0023FFF774FFFFF78EFF1B
:1020400006E00FB5013647F8046D0026FFF7B0FF34
:1020500047F8046D44F2807600F018FB0FBDC420F1
:10206000000000000563616C6C2C0FB5330000F0BC
:102070005CFE300040CF1B1A043BDFF8801419408F
:10208000002906D0DFF87824914202D0BDE80F4045
:10209000D7E740CF5B08DFF86C0440F2FF711940CE
:1020A0000843DB0A40F2FF311940090408439B0A48
:1020B00013F001018906084347F8046D060000F09B
:1020C0000DFB0FBDFA2000000000086C69746572FA
:1020D000616C2C0008B547F8046D4FF6470600F018
:1020E000D5FA47F8046D46F6045600F0CFFA47F8E3
:1020F000046D0626FFF75CFF08BD1E2100000000EE
:10210000066372656174650000B500F033F842F251
:102110003B10804747F8046DBEF1010600BD662103
:102120000000200005646F65733E42F23B1080475B
:1021300047F8046DBEF10106704747F8046DBEF123
:10214000010600F0AFF8F04A1368310040CF0220DA
:10215000084000D0023102311160FFF768FF1360C0
:1021600000F0E5F900BDA82100000000073C627501
:10217000696C647300B500F08BFB00F0D6FD0220A3
:10218000064040CF04D047F8046D362600F07EFAB2
:1021900047F8046D4BF2005600F078FA47F8046DEA
:1021A0000A2600F0DEFA00BDB42100005000035BF7
:1021B000275D03E0CA2100000000012700B501F0FF
:1021C0007DF800F04DFD40CF00BD10220000100052
:1021D00008706F7374706F6E650000B501F06EF873
:1021E00000F03EFD300040CF102101400DD12021F4
:1021F000014005D0FFF76EFF47F8046DC34E04E0C1
:10220000FFF768FF47F8046DC14EFFF72EFF00BDD2
:1022100066220000000007696E6C696E652C00B5CF
:102220004BF200514BF6005244F2707330888842F2
:1022300008D0904208D0984206D047F8046D0600B6
:1022400000F024FA0236F1E740CF00BD0EB44BF6A1
:10225000005244F2707301880230914201D09942D9
:10226000F9D10EBC70477C22000000000472657436
:102270002C0047F8046D4BF6005607E28A22000056
:102280003000046578697400F3E7C0220000300074
:10229000077265637572736500B500F003F8FFF7A8
:1022A000E4FE00BD0FB59B4800680630017801319F
:1022B00001220A408918401847F8046D06000FBD36
:1022C000D8220000810005737461746547F8046DBD
:1022D000914E704700000000EA2200000000015DFE
:1022E0008D480021C94301607047FA2200001000A8
:1022F000015B894800210160704722230000000033
:10230000013A00B58548076000F0C2FA47F8046D4D
:102310004BF2005600F0BAF97F480021C943016032
:1023200000BD6A2300003000013B00B57B48016816
:10233000B9420ED0FFF740FC1520537461636B2047
:102340006E6F742062616C616E6365642E0A01F0C9
:1023500029BB47F8046D4BF6005600F097F900F0E2
:10236000E6F86D480021016000BD802300000000F8
:102370000765786563757465300040CF0130874626
:1023800098230000100009696D6D656469617465CA
:1023900047F8046D1026FAE0AE230000100006692D
:1023A0006E6C696E650047F8046D2026EFE0C82367
:1023B000000010000B636F6D70696C656F6E6C7957
:1023C00047F8046D3026E2E0E223000010000A30F6
:1023D0002D666F6C6461626C650047F8046D402681
:1023E000D5E0FC23000010000A312D666F6C64619B
:1023F000626C650047F8046D4126C8E016240000B1
:1024000010000A322D666F6C6461626C650047F8DB
:10241000046D4226BBE03024000010000A332D6614
:102420006F6C6461626C650047F8046D4326AEE032
:102430004A24000010000A342D666F6C6461626CDF
:10244000650047F8046D4426A1E0642400001000F4
:102450000A352D666F6C6461626C650047F8046D27
:10246000452694E07E24000010000A362D666F6C2D
:102470006461626C650047F8046D462687E0982425
:10248000000010000A372D666F6C6461626C650095
:1024900047F8046D47267AE0C8240000000008636E
:1024A0006F6E7374616E740000B500F0F1F9FFF7A0
:1024B00011FE47F8046D44F2707600F0E7F8FFF77C
:1024C0008CFF00F034F800BD202500000000093228
:1024D000636F6E7374616E7400B500F0D9F939687A
:1024E0003E600E46FFF7F6FDE1E70000000040F217
:1024F0000000C0F200005FF000007FF00100C0FFAC
:102500000000C0FF00F800F0000000201E220000C4
:102510006A20000004000020D8FF022010000020E4
:102520007E250000000006736D756467650000B5C8
:1025300024480168234A914280F01B8002390A88AE
:10254000214B9A4204D147F8046D204E00F09EF8CA
:1025500000F06FF81E48006847F8046D06001D493A
:1025600009680431174A1368116000F08FF813608E
:1025700000BD00F05EF847F8046D002608E0D8259D
:102580000000000008736574666C6167730000B535
:102590000C4801680B4A914280F006800C480168A3
:1025A0003143016040CF00BD320040CF0948006890
:1025B00004300188044B99420CBF1146114301803D
:1025C00000BD000000000020FFFF00000000000030
:1025D0001C00002004000020E6250000000005612A
:1025E0006C69676E25E002260000410007616C6996
:1025F000676E65640120304036180220304036187E
:10260000704724260000000006616C69676E2C008C
:10261000954801680120014003D047F8046D002669
:102620001AE070474E260000000007616C69676E73
:10263000342C00B5FFF7ECFF8B4801680220014005
:1026400004D047F8046D002600F020F800BD822673
:102650000000000002632C0000B583480168824A34
:10266000914205D247F8046D0E00FEF729FD02E005
:10267000320040CF0A7047F8046D012600F071F86F
:1026800000BDB8260000000002682C000FB5764897
:102690000168754A914280F0068047F8046D0E008B
:1026A000FEF7B9FC02E0320040CF0A8047F8046D23
:1026B000022600F056F80FBDD22600000000012CC3
:1026C00000B547F8046DFFF7E1FF360CFFF7DEFFBA
:1026D00000BDEE2600000000033E3C2C00B547F88C
:1026E000046D360CFFF7D2FFFFF7D0FF00BD562771
:1026F0000000000007737472696E672C07B5FF2134
:10270000314040CF300040CF002905D147F8046D5B
:102710000026FFF7BBFF07BD47F8046D06783602B9
:102720000E43FFF7B3FF0130013902290AD347F8FE
:10273000046D4678360202781643FFF7A7FF023091
:102740000239F2E7002900D107BD47F8046D067889
:10275000FFF79CFF07BDB0270000000005616C6C0F
:102760006F7441480168404A91420FD2320040CF15
:1027700089183E4A914219D3FFF71EFA0B466C6145
:1027800073682066756C6C0A01F00CB9320040CF9A
:102790008918374A1268914208D3FFF70DFA095297
:1027A000616D2066756C6C0A01F0FCB801607047C1
:1027B000D827000000000D636F6D70696C65746F41
:1027C00072616D3F47F8046D00262748006826496E
:1027D000884248D3F6437047F827000000000C6396
:1027E0006F6D70696C65746F72616D001E48006872
:1027F0001D49884211D370478028000000000E63F5
:102800006F6D70696C65746F666C617368001648F3
:1028100000681549884200D2704716481649026878
:102820000B680A6003601048144902680B680A606C
:1028300003600F480068834215D300B5FFF7BCF969
:1028400023205661726961626C657320636F6C6CE2
:1028500069646520776974682064696374696F6E60
:102860006172790A00BD704700000020000020005E
:102870002000002004000020180000201400002088
:1028800068290000000008286372656174652900EA
:1028900000B500F013FD002E0ED1FFF78DF91520C5
:1028A000437265617465206E65656473206E616D49
:1028B0006520210A01F076B8386847F8046D043FB6
:1028C000386000F09EF940CF002E40CF11D038681C
:1028D00047F8046D043F3860FFF76EF909526564EC
:1028E0006566696E6520FFF7C3F9FFF765F9022E8B
:1028F0000A00FFF78DFEFFF79CFE00F016FA8E48E7
:1029000000688D49884280F01D808C48002101605C
:1029100047F8046D0626FFF724FFFEF773F8FFF76C
:10292000EDFE874801680A68864B9A4207D1824AC1
:102930001368116047F8046DFFF7C2FE136006606C
:1029400040CF00BD7E4847F8046D0668FFF7B8FE2B
:1029500047F8046D7C4EFFF799FE7948310040CF6F
:102960000160FFF7CBFE00BD802900000000087663
:1029700061726961626C650047F8046D012613E0BD
:1029800098290000000009327661726961626C6505
:1029900047F8046D022607E0742A00000000096E63
:1029A0007661726961626C6500B5FFF771FF62481C
:1029B0000168614A914280F035800F200640B200E4
:1029C00062480168891A624A91420BD2FFF7F4F813
:1029D0000F4E6F7420656E6F7567682052414D0A07
:1029E00000F0E0BF016047F8046D0E00FFF772FBD6
:1029F00047F8046D44F27076FFF748FE300040CF90
:102A00000200002805D00E600431FFF759FE01389E
:102A1000F9D147F8046D80261643FFF7B8FDFFF79C
:102A200086FD00BD00F081F90220064040CF04D1B0
:102A300047F8046D3626FFF729FE47F8046D454E2A
:102A4000FFF74CFE47F8046D434EFFF747FE47F88B
:102A5000046D44F27076FFF719FE300040CF002875
:102A600003D0FFF72DFE0138FBD1FFF7B6FCFFF7CF
:102A70005EFD00BD5C2B00000000076275666665A8
:102A8000723A00B5FFF704FF0120304036180220EB
:102A90003040361828480168274A914280F0298042
:102AA0002A480168891B2A4A91420BD2FFF784F811
:102AB0000F4E6F7420656E6F7567682052414D0A26
:102AC00000F070BF016047F8046D0E00FFF702FBD5
:102AD00047F8046D44F27076FFF7D8FDFFF7F0FD7C
:102AE00047F8046D40F24016FFF751FDFFF71FFD58
:102AF00000BD00F01AF90220064040CF04D147F88B
:102B0000046D3626FFF7C2FD47F8046D114EFFF73E
:102B1000E5FD47F8046D104EFFF7E0FD47F8046D42
:102B200044F27076FFF7B2FDFFF71BFEFFF755FC8E
:102B3000FFF7FDFC00BD0000000000201C0000208D
:102B400004000020FFFFFFFFFFFF00002000002027
:102B50002C0300203E60043F02367E468A2B000094
:102B600000000F64696374696F6E617279737461D8
:102B7000727441480068404947F8046D884201D2A8
:102B80003E4E70473E4E36687047C42B0000000032
:102B90000E64696374696F6E6172796E6578740032
:102BA00003B531683748814207D08879FF2804D0BF
:102BB0000E0047F8046D002603BD47F8046D00269B
:102BC000F64303BDF62B000000000A736B697073B7
:102BD0007472696E67003178013101220A408918E8
:102BE0007618704706B40178013101220A4089182D
:102BF000401806BC70478C2C000000000466696E0B
:102C000064003FB500220023350040CF340040CFA0
:102C1000FFF7AFFF1C48B188884217D047F8046D12
:102C20000636FFF705F847F8046D260047F8046DEF
:102C30002E00FEF734FF002E40CF07D0B01DFFF767
:102C4000D1FF02000B000C48824204D2FFF7A8FF1C
:102C5000300040CFDED0160047F8046D1E003FBDA7
:102C600000B531003868FFF7CCFF3A68002A01D17F
:102C700000F06AFD00BD000000000020AC01000073
:102C800004000020FFFFFFFFFFFF0000E62C000014
:102C9000000006636A756D702C00320040CF310071
:102CA00040CF8B1B043BA349194000290DD0A248FB
:102CB00081420AD0FEF780FF0D4A756D7020746F57
:102CC0006F206661720A00F06DBE5B10FF210B4041
:102CD000134330001E0000B5984A13681060FFF7D8
:102CE000D5FC136000BD1E2D00000000056A756D47
:102CF000702C310040CF300040CF0B1A043B90497C
:102D00001940002902D08F4A9142D3D15B108E4ADC
:102D1000134053F4604347F8046D1E00DBE7342D85
:102D20000000000004686572650047F8046D834E7A
:102D300036687047302E000000000D666C617368C5
:102D40007661722D6865726547F8046D7F4E36684E
:102D5000704700B547F8046D42F60066FFF796FC31
:102D600047F8046D4CF64076FFF790FC00BDDCE7B9
:102D700000B500F03AF839683E600E4647F8046D39
:102D80004DF20016FFF789FF00BD00B500F02DF8E9
:102D900039683E600E4647F8046D4DF20076FFF745
:102DA0007CFF00BD00B5FFF7D4FF00F01EF83968C6
:102DB0003E600E4647F8046D4DF20006FFF76DFFCA
:102DC00000BD00B500F011F839683E600E46FFF70F
:102DD00090FF00BD00B5FFF7BCFFFFF7A6FF47F867
:102DE000046D0226FFF7BDFC00BD00B5FFF79DFF97
:102DF00047F8046D0226FFF7B4FC00BD00B5FFF7ED
:102E000094FFFFF776FF00BD00B5FFF78EFF47F890
:102E1000046D4DF20006FFF740FF00BD00B5FFF75F
:102E200084FF47F8046D4DF20016FFF736FF00BD32
:102E30006C2E00003000047468656E00052E01D110
:102E400040CFDBE7022E01D140CFDDE7FEF7B4FE35
:102E5000175374727563747572657320646F6E278F
:102E600074206D617463680A00F09CBD982E0000A8
:102E7000300004656C73650000B5022E7FF4E6AF88
:102E800040CFFFF7B2FF39683E600E46FFF7BCFF48
:102E900047F8046D052600BDB02E00003000026921
:102EA000660000B5FFF796FF47F8046D022600BDE7
:102EB000D62E000030000672657065617400042E25
:102EC000C4D140CF39683E600E4600B5FFF779FFA8
:102ED000FFF79AFF00BDF22E000030000577686909
:102EE0006C65012EB2D140CF00B5FFF7DAFF023694
:102EF00000BD062F0000300005756E74696C012E50
:102F0000A4D140CF4EE71A2F000030000561676161
:102F1000696E012E9AD140CF53E7502F0000300048
:102F200005626567696E00B5FFF721FF47F8046D1C
:102F3000012600BD01FFFFFF00FFFFFF0000002092
:102F400001F8FFFF00F8FFFFFF070000200000204E
:102F5000602F00002000016B47F8046D029E70474F
:102F6000702F00002000016A47F8046D009E704732
:102F7000802F00002000016947F8046D260070478B
:102F8000C02F00003000056C6561766500B56848AB
:102F900001683B00043F1A68043B1A6004330433A1
:102FA0008B42F8D103B4FFF720FF03BC330040CFBE
:102FB00004390B60016004390A6801320A6000BDFF
:102FC000D22F0000200006756E6C6F6F700030BC51
:102FD00070470A3000003000052B6C6F6F70032EB5
:102FE00000D033E740CF00B547F8046D514EFFF7EE
:102FF00016F9FFF7CAFE1AE014F10044641BA41985
:1030000040CF2C44A4F1004470474C300000300005
:10301000046C6F6F7000032E00D017E740CF00B52F
:1030200047F8046D444EFFF7FAF8FFF7A1FE00F0F1
:1030300023F93F48310040CF016047F8046D3F4E0F
:10304000FFF7EDF800BD0134AC427047943000004A
:10305000780002646F0000B547F8046D384EFFF742
:10306000DEF83348016847F8046D0E0047F8046D38
:1030700000260760FFF77BFE47F8046D032600BDBE
:1030800000B500F02FF8ECE730B4340040CF350045
:1030900040CF7047443100007800033F646F00B5B3
:1030A00047F8046D264EFFF7BAF847F8046D44F26E
:1030B000AC26FFF7EBFA1E48016847F8046D0E00D6
:1030C000FFF793FE013647F8046D012618480760A4
:1030D000FFF74DFE47F8046D032600BD00B500F074
:1030E00001F8E2E700B547F8046D4BF23046FFF710
:1030F000CDFA47F8046D0426FEF75AFF013B08D0CD
:1031000047F8046D0526FEF753FF013B00F023FC52
:1031100000BD47F8046D3526FFF7B8FA47F8046D8F
:103120004CF64076FFF7B2FA00F015FC00BD000047
:103130000C000020F82F000046300000CE2F0000C9
:10314000883000005E310000300004636173650068
:1031500047F8046D002647F8046D0826704774315F
:1031600000003000033F6F664D4809E0013EB64164
:1031700040CF7047183200007800026F660049485F
:10318000082E00D062E640CF00B547F8046D060077
:10319000FFF745F8FFF729FE39683E600E46013615
:1031A00047F8046D092647F8046D4CF64076FFF7A2
:1031B0006DFA00BD00B5300040CF013B01B400F016
:1031C000CAFB01BC082E00D040E640CF47F8046D92
:1031D0000600FF213140B14204D133490E43FFF7CD
:1031E00055FAD7E7FEF730FE002E40CF04D02F4827
:1031F0000643FFF773FACDE747F8046D0026FEF7A4
:10320000D7FE47F8046D44F2B026FFF73FFAC1E756
:10321000300040CFB04270474E32000030000565AC
:103220006E646F66092E00D010E640CF00B540B442
:1032300040CFFFF7DAFD39683E600E46FFF7EEFD3E
:1032400047F8046D40BC47F8046D082600BDB03255
:103250000000300007656E6463617365082E00D05E
:10326000F4E540CF00B547F8046D4CF64076FFF723
:103270000DFA00F001F800BD00B5300040CF002885
:103280000DD003B401213140002903D0013EFFF7E6
:10329000BBFD01E0FFF7B2FD03BC0138EFE700BD65
:1032A0006C31000010320000002E0000000FB6F15B
:1032B000C4320000000005746F6B656E47F8046D42
:1032C000202605E020330000000005706172736560
:1032D00010B5FEF7B8FB310040CF300040CF0F4AA9
:1032E00012688418202E07D191420FD0835CB3421C
:1032F00002D101328418F7E7914207D0835C013292
:10330000B342F9D18618361B013E01E08618361B00
:10331000043F3C600148026010BD0000E4FF022051
:103320005E3300000000056469676974CE4B1B685A
:10333000303E0BD30A2E0BD3073E0A2E06D3242E83
:1033400006D3203E0A2E01D3242E01D30026704737
:103350009E42FBD247F8046D0026F643704768345E
:1033600000000000066E756D626572003FB53100A9
:1033700040CF701E0126012204B4BB4B1B68002401
:10338000002500293CD00130013902782D2A04D1D2
:1033900001B00022D24304B4F3E7232A01D10A2367
:1033A000EFE7242A01D11023EBE7252A01D10223DC
:1033B000E7E72E2A01D10226E3E72C2A36D047F888
:1033C000046D1600FFF7B4FF002E40CF2BD047F856
:1033D000046D260047F8046D2E0047F8046D1E00AA
:1033E00047F8046D00260FB4FDF719F80FBC35003F
:1033F00040CF340040CF0022A419554140CFC0E750
:1034000004BC002A04D50022E443ED4301345541B5
:1034100033002600012B02D047F8046D2E0047F838
:10342000046D1E003FBD01B000263FBD25000024F5
:1034300002260029E4D0425C01392E2AF9D047F84F
:10344000046D1600FFF774FF002E40CFEBD0043F51
:103450003C6047F8046D1E000FB4FDF78FF80FBCF9
:10346000340040CF40CFE4E7883400000000062E4F
:103470006469676974000A2E3CBF303603E0242E6D
:1034800034BF373623267047BE340000000004687E
:103490006F6C6400330040CF744801783F290DD22F
:1034A000013101704018012907D00138027801303C
:1034B0000270013801390129F7D103707047DE34F9
:1034C0000000000005686F6C643C330040CF674823
:1034D00001783F2902D20131017043547047F6341C
:1034E00000000000047369676E00002E01D440CF15
:1034F00070472D26CEE70A350000000002233E006B
:103500005A480678013038607047223500000000C4
:103510000366235310B5202400F008F8013CFBD1CA
:1035200010BD4435000000000266230000B547F8D6
:10353000046D4D4E3668FCF75EFFFFF79CFFFFF70A
:10354000C4FF00BD6035000000000223530000B539
:1035500000F00AF8002EFBD138680028F8D100BD31
:103560008C3500000000012300B547F8046D3E4E85
:10357000366847F8046D0026FDF760F8FCF744FE56
:1035800040CFFFF778FFFFF785FF00BD9E350000B5
:103590000000023C23003548002101707047B0351F
:1035A0000000000002662E0047F8046D202604E0AB
:1035B000FE350000000003662E6E00B510B4340026
:1035C00040CFFDF709FAFCF7D2FE47F8046D00265C
:1035D000FFF7E1FFFFF7BBFF40CF2C26FFF775FF9A
:1035E000002C03D0FFF7A2FF013CFBD110BC40CF61
:1035F000FFF77BFF47F8046D47F8046D1CE01436B5
:10360000000000000375642E00B5FFF7C4FFFFF74C
:103610009EFF11E046360000000002642E0000B557
:10362000FDF7DAF9FCF7A3FEFFF7B5FFFFF78FFF11
:10363000FDF7DCF9FFF759FFFFF762FFFEF718FB14
:10364000FEF766FA00BD58360000000002752E0035
:1036500047F8046D0026D7E7703600000000012E01
:1036600047F8046DF617DAE7FCFF0220240000207B
:10367000B83600000000086576616C7561746500FD
:1036800000B5FEF7E0F901CF01B440B440CFD44813
:10369000016802B400210160FEF7C8F900F014F8D7
:1036A000CF4802BC016047F8046D40BC01BC043F38
:1036B0003860FEF7BBF900BD7C39000000000969E5
:1036C0006E7465727072657430B5C64887420BD9E6
:1036D000FEF772FA10537461636B20756E64657245
:1036E000666C6F770A005DE1BF4887420AD2FEF739
:1036F00063FA0F537461636B206F766572666C6F4B
:10370000770A4FE1B94C2568002D01D13D002560B5
:10371000FFF7D4FD002E02D1043740CF30BD38680A
:1037200047F8046D043F3860FFF76BFA310040CF73
:10373000320040CF002A13D138683100FFF716FE5F
:10374000320040CF002AC0D1FEF796FAFEF734FAD5
:103750000C206E6F7420666F756E642E0A0021E176
:10376000A34B1B68002B1DD10025256030230B4087
:10377000302B0ED1FEF77CFAFEF71EFA1220697389
:1037800020636F6D70696C652D6F6E6C792E0A0009
:1037900008E1043740CF47F8046D1600FEF7ECFD52
:1037A000FFF793FF043740CF802008400ED1EB1B7A
:1037B0009B08402008400FD00820084002D0002B72
:1037C00000D01DE00F200840834205D347F8046D68
:1037D0001600FEF7D1FD78E700F0BDF847F8046D5C
:1037E000160010220A4002D0FEF7C6FD6DE7202227
:1037F0000A4002D0FEF713FD67E7FEF736FC64E7E8
:10380000072001401000FEF721FD01291FD1012BE7
:10381000DCD1FF213140B14204D140880643FEF79C
:1038200035FF52E7FEF710FB002E40CF04D0406872
:103830000643FEF753FF48E747F8046D0026FEF7FE
:10384000B7FB47F8046D0688FEF720FF3DE7022925
:1038500002D1012BBAD1EFE7032926D1012BB5D133
:10386000FF213140B1420AD162490E43FEF70EFFFB
:10387000043247F8046D1600FEF7D1FC25E7FEF789
:10388000E3FA002E40CF04D05B490E43FEF726FF3B
:10389000EEE747F8046D0026FEF78AFB023247F890
:1038A000046D1600FEF7BBFC0FE7042918D1012BAD
:1038B0008CD1330040CF002B00D106E71F221A40E5
:1038C0009A4205D047F8046D4688FEF7DFFEFCE615
:1038D00047F8046D06889B011E43FEF7D7FEF4E609
:1038E000052924D1012B10D147F8046D0026FEF7DD
:1038F0005FFB47F8046D0600FEF791FC47F8046D86
:103900004CF64076FEF7C2FEDFE647F8046D00266F
:10391000FEF74EFB47F8046D0126FEF749FBFEF764
:1039200095FC47F8046D0600FEF779FCCDE6062904
:103930000ED1012B7FF44AAFFEF786FA002E40CF5E
:103940003FF47AAFD0F802000643FEF7C7FEBCE6AC
:1039500001308047B9E600B5002B0CD0013B47F899
:10396000046D1E0057F82660FEF7B4FB002BF5D15E
:10397000043D2F0040CF0025256000BD9839000090
:10398000810009686F6F6B2D7175697447F8046D5C
:103990001A4E7047CC390000103A00000000047144
:1039A00075697400DFF858D00E4F16480A2101607F
:1039B0000F48002101600D4801600948016012486C
:1039C0000160124941600D4800688746FEF749F8DA
:1039D000FFF77AFEFEF7F0F805206F6B2E0AF5E789
:1039E000E4FF02202C0200202C010020080000200F
:1039F000D8FF0220003E00000006B6F1D4FF0220EE
:103A00002C030020FCFF0220DCFF022064000020C9
:103A1000203A000020000465696E740062B67047A9
:103A2000303A000020000464696E740072B670477A
:103A3000463A0000200004697073720047F8046D74
:103A4000EFF305867047523A00000000036E6F7076
:103A50007047943A0000000009756E68616E646CEE
:103A6000656400B5FEF7A8F814556E68616E646C65
:103A7000656420496E74657272757074200047F831
:103A8000046DEFF30586FEF70AF9FEF795F80221BB
:103A90000A0000BDBE3A000081000B6972712D73EF
:103AA00079737469636B47F8046DBD4E7047623A71
:103AB00000004FF6D070C2F2020000688746E63A76
:103AC00000008100096972712D6661756C7447F898
:103AD000046DB44E7047623A00004FF6CC70C2F2EB
:103AE000020000688746143B000081000E69727175
:103AF0002D636F6C6C656374696F6E0047F8046DBD
:103B0000A94E7047623A00004FF6C870C2F2020038
:103B1000006887463C3B00008100096972712D6591
:103B20007874693047F8046DA04E7047623A00001F
:103B30004FF6C470C2F2020000688746643B000082
:103B40008100096972712D657874693147F8046DD7
:103B5000974E7047623A00004FF6C070C2F2020002
:103B6000006887468C3B00008100096972712D65F1
:103B70007874693247F8046D8E4E7047623A0000DF
:103B80004FF6BC70C2F2020000688746B43B0000EA
:103B90008100096972712D657874693347F8046D85
:103BA000854E7047623A00004FF6B870C2F20200CC
:103BB00000688746DC3B00008100096972712D6551
:103BC0007874693447F8046D7C4E7047623A00009F
:103BD0004FF6B470C2F2020000688746023C000053
:103BE0008100076972712D61646347F8046D744E3A
:103BF0007047623A00004FF6B070C2F202000068EF
:103C000087462A3C00008100086972712D74696D35
:103C1000320047F8046D6B4E7047623A00004FF671
:103C2000AC70C2F2020000688746523C000081007E
:103C3000086972712D74696D330047F8046D624E26
:103C40007047623A00004FF6A870C2F202000068A6
:103C500087467A3C00008100086972712D74696D95
:103C6000340047F8046D594E7047623A00004FF631
:103C7000A470C2F202000068874600400000FFFF07
:103C8000182D2D2D20466C6173682044696374697A
:103C90006F6E617279202D2D2D00FDF720FE4C48AE
:103CA00085464C4F2A264C48494901604B484C49AF
:103CB000016047F8046D4A4E4A4DB1884A4B99421B
:103CC00024D04A4B0B400AD0B01DFEF78BFFFEF705
:103CD000BDFA0388408800040343ED1A16E08023F0
:103CE0000B4013D00F23194089006D1AB01DFEF749
:103CF00079FFFEF7ABFA47F8046D060047F8046D4C
:103D00002E0047F8046D0E00FCF7F6FFFEF748FFA3
:103D1000300040CFD1D03648066040CF35480560EE
:103D200035483649304A884204D0023803889342E5
:103D3000F9D0023032490860FDF73EFF374D656328
:103D4000726973702D5374656C6C61726973203283
:103D50002E302E3220666F722053544D333246344B
:103D60003239206279204D61747468696173204B27
:103D70006F63680A23480021016047F8046D224EF2
:103D800047F8046D0426FEF73CFF40CF002E02D01A
:103D9000FEF7F2FA17E640CF04E6696E6974000098
:103DA000D0FF0220CCFF0220C8FF0220C4FF022067
:103DB000C0FF0220BCFF0220B8FF0220B4FF022097
:103DC000B0FF0220ACFF0220A8FF0220A4FF0220C7
:103DD0002C0300202C020020000000200400002002
:103DE000AC01000000000320FFFF00000001000004
:103DF00018000020200000200000200000400000EB
:0C3E000014000020080000209A3D000083
:0400000508000000EF
:00000001FF
