S02200006D6563726973702D7374656C6C617269732D6B6C32357A3132382E737265638F
S113000030F3FF1F613C0000693B0000693B0000C6
S113001000000000000000000000000000000000DC
S1130020000000000000000000000000933B0000FE
S11300300000000000000000933B0000473B00006C
S1130040933B0000933B0000933B0000933B000074
S1130050933B0000933B0000933B0000933B000064
S1130060933B0000933B0000933B0000933B000054
S1130070933B0000933B0000933B0000B33B000024
S1130080D33B0000933B0000933B0000933B0000F4
S1130090933B0000933B0000933B0000933B000024
S11300A0933B0000F33B0000933B0000933B0000B4
S11300B0933B0000933B0000153C0000393C0000DA
S11300C0FFFFFFFFFFFFFFFFFFFFFFFFFFFFFFFF3C
S11300D0FFFFFFFFFFFFFFFFFFFFFFFFFFFFFFFF2C
S11300E0FFFFFFFFFFFFFFFFFFFFFFFFFFFFFFFF1C
S11300F0FFFFFFFFFFFFFFFFFFFFFFFFFFFFFFFF0C
S113041038040000FFFF1E2D2D2D204D65637269E9
S113042073702D5374656C6C6172697320436F72C1
S113043065202D2D2D00C0465004000042000432DA
S1130440647570003868043F3E60043F386070474C
S1130450640400006200053264726F70043740CF98
S11304607047C0468404000044000532737761700D
S113047007CF043F3860043F3E60043F3A600E00FB
S11304807047C04698040000620004326E69700030
S113049007CF043F38607047B404000044000532BD
S11304A06F766572B868043F3E60043F3860FE684A
S11304B07047C046D8040000440005327475636B6D
S11304C007CF043F3860043F3E60043F3A60043F76
S11304D03960043F38607047FC0400004600043271
S11304E0726F74003868B9683A69B86039613A6003
S11304F079687E60FE68F9607047C0462005000098
S1130500460005322D726F743868B9683A693861EB
S11305103960BA60F968FE607E6879607047C046E9
S113052034050000200003323E7201CF01B440B410
S113053040CF70474C05000020000332723E043F58
S11305403E6040BC01BC043F386070476405000055
S1130550200003327240043F3E60019E043F3E602F
S1130560009E704778050000200006327264726FA6
S1130570700002B07047C04690050000420003645A
S1130580322F3868F1077610400808433860704706
S1130590A405000062000364322A3868001876411A
S11305A038607047C005000042000464736872003C
S11305B03868F10776084008084338607047C04639
S11305C0D80500006200046473686C003868001881
S11305D0764138607047C046EC0500004200046470
S11305E061627300002E16D47047C04608060000EE
S11305F04300083F646E656761746500300040CF56
S1130600002808D47047C04628060000420007644A
S11306106E656761746538680021C043F643013034
S11306204E4138607047C0464006000064000264D2
S11306302D0007CF121AB1410E00043F3A607047F3
S113064058060000640002642B0007CF12184E41C4
S1130650043F3A607047C0466C06000061000373B3
S11306603E64043F3E60F6177047C046980600009B
S1130670420003756D2A3868030073433B60010C24
S1130680320C0B005343B6B280B24E43504336187B
S1130690360CF6187047C046C80600004200026DCA
S11306A02A003868C11705D040423860F01704D0DA
S11306B07642E0E7F017DED0764200B5FFF7DBFFC5
S11306C0FFF7A9FF00BDC0460807000044000375FA
S11306D0642A07CF564341437618010C130C59433F
S11306E07618010C80B292B2514343435043002226
S11306F0C91852411204B6180A04090C80184E4154
S1130700043F38607047C0469C07000044000475ED
S1130710646D2A0010B50024043F3E607E68043FE7
S11307203E603E69FFF7A7FF310040CF300040CF65
S1130730043F3E603E68043F3E60FE6803B4FFF73A
S11307409AFF03BC330040CF320040CF043F3E60E9
S11307503E68043F3E603E690FB4FFF78CFF0FBC58
S11307609219634140CF89196241634140CF043FEC
S11307703E607E68043F3E60FE680FB4FFF77BFF77
S11307800FBC9219634140CF89196241634140CF44
S11307901E003A607960B86010BDC046C007000012
S11307A04300022A2F0000B540B440CFFFF779FF81
S11307B0043F3E6040BC00F04FF8043700BDC04623
S11307C0E40700004300052A2F6D6F6400B540B4B0
S11307D040CFFFF766FF043F3E6040BC00F03CF8AA
S11307E000BDC04608080000430003752A2F00B569
S11307F040B440CFFFF73FFF043F3E6040BC00F0F1
S11308001CF8043700BDC0462C08000043000675E0
S11308102A2F6D6F640000B540B440CFFFF72BFF63
S1130820043F3E6040BC00F008F800BD4C080000E6
S1130830430006756D2F6D6F640000B5043F3E6084
S1130840002600F01AF840CF043700BD6C08000001
S11308504300056D2F6D6F6400B5043F3E60F617CD
S113086000F034F840CF043700BDC046C008000093
S113087044000675642F6D6F640030B400230022B9
S11308807968B86835003C684026400049415241C7
S11308905B41AB4202D804D3A24202D3121BAB4148
S11308A00130013EF1D10E0038607B60BA6030BC8B
S11308B0704730B400237A68B9680020E2E7C04684
S11308C038090000440005642F6D6F6400B5F0170B
S11308D019D0FFF7A0FEFFF7CBFDF0170CD0FFF700
S11308E09AFEFFF7C5FDFFF7C8FFFFF7C1FDFFF74D
S11308F092FEFFF7BDFD00BDFFF7BAFDFFF7BDFF98
S1130900FFF789FE00BDFFF7B3FDF0170ED0FFF728
S113091082FEFFF7ADFDFFF7B0FFFFF77CFEFFF7A8
S1130920A7FDFFF778FEFFF7A3FD00BDFFF7A0FDCD
S1130930FFF7A3FF00BDC046500900004400026455
S11309402F0000B5FFF7C2FFFFF7A2FD00BDC046B0
S113095098090000440002662A0000B5F0170DD083
S1130960FFF759FEFFF784FDF0170DD0FFF753FE94
S1130970FFF7D0FE40CF01CF386000BDFFF778FD10
S1130980F017F5D0FFF747FEFFF7C4FE40CF01CFC5
S11309903860FFF740FE00BDE40900004400026631
S11309A02F0000B5F0170ED0FFF735FEFFF760FDFE
S11309B0F0170ED0FFF72FFEFFF75AFDFFF779FF70
S11309C0FFF766FD00BDFFF753FDF017F4D0FFF706
S11309D022FEFFF74DFDFFF76CFFFFF71CFEFFF74C
S11309E057FD00BDF809000020000232210006CFA7
S11309F03160726040CF70470C0A00002000023260
S1130A004000043F70683860366870472C0A000064
S1130A1044000364753C07CF8E4204D801D1904250
S1130A2001D8002670470026F64370474C0A0000A0
S1130A3044000364753E07CFB14204D801D1824219
S1130A4001D8002670470026F64370476C0A000060
S1130A50440002643C0007CF8E4204DC01D1904282
S1130A6001DC002670470026F64370478C0A00001C
S1130A70440002643E0007CFB14204DC01D182424B
S1130A8001DC002670470026F64370479C0A0000EC
S1130A9062000364303C0437F6177047B80A00005C
S1130AA042000364303D01CF002801D00026704786
S1130AB0013EB6417047C046D40A000044000364B6
S1130AC03C3E07CF904201D1761A01D00026F6436E
S1130AD07047C046F00A0000440002643D0007CF9E
S1130AE0904201D000267047761A013EB641704705
S1130AF0040B0000200003737040043F3E603E007E
S1130B007047C046140B00002000037370213700A7
S1130B1040CF7047280B0000200003727040043F50
S1130B203E606E467047C046380B000020000372DA
S1130B307021B54640CF7047480B00006100036444
S1130B407570043F3E607047580B000061000464F8
S1130B50726F700040CF7047700B00006100043F5B
S1130B6064757000002E01D0043F3E607047C0469B
S1130B70840B0000620004737761700039683E6082
S1130B800E007047940B00006200036E6970043716
S1130B907047C046A80B00006200046F76657200BF
S1130BA0043F3E607E687047C00B0000620004741E
S1130BB075636B0001CF083F7E6038607047C046A4
S1130BC0D80B0000630003726F7403CF083F786092
S1130BD03E600E007047C046F00B00006300042D19
S1130BE0726F740003CF083F7E603960060070475F
S1130BF0040C00002000047069636B00B0003E58D0
S1130C007047C0461C0C00000000056465707468E1
S1130C10CD49C91B043F3E608E087047380C000064
S1130C2000000672646570746800043F3E606E469E
S1130C30C649891B8E087047480C00002000023EFC
S1130C40720040B440CF70475C0C00002000027278
S1130C503E00043F3E6040BC7047C046700C00003C
S1130C60200002724000043F3E60009E7047C04670
S1130C70800C00002000057264726F7001B0704730
S1130C80940C0000200005727069636BB6006E441A
S1130C9036687047AC0C000060000474727565001F
S1130CA0043F3E600026F6437047C046C00C000077
S1130CB060000566616C7365043F3E600026704702
S1130CC0D40C00006A0003616E6401CF06407047D3
S1130CD00640C046E80C00006A000362696301CF65
S1130CE0B043060070478643FC0C00006A00026FA4
S1130CF0720001CF064370470643C046100D000042
S1130D006A0003786F7201CF464070474640C04680
S1130D10200D00006100036E6F74F6437047C046F7
S1130D20400D0000410003636C7A300006D00026B9
S1130D30400002D001D20136FAE7704720267047FE
S1130D40500D000061000373687276087047C04656
S1130D50600D000061000373686C76007047C04644
S1130D60700D0000610003726F720120C64170476C
S1130D70840D0000610003726F6C0020B6194641B7
S1130D807047C046A00D00006C0006727368696667
S1130D90740001CFF0400600704736080026C046B4
S1130DA0BC0D00006C00076172736869667401CF42
S1130DB03041060070473610F617C046D80D0000C3
S1130DC06C00066C73686966740001CFB04006005D
S1130DD0704736000026C046E80D0000610002306E
S1130DE03D00013EB6417047FC0D00006100033038
S1130DF03C3E013EB641F6437047C0460C0E00002F
S1130E00610002303C00F6177047C046280E00000F
S1130E104200023E3D0001CFB04201DA0026704795
S1130E200026F6437047C046440E00004200023CD0
S1130E303D0001CFB04201DD002670470026F64395
S1130E407047C0465C0E00004200013C01CFB04236
S1130E5002DA0026F643704700267047740E00003D
S1130E604200013E01CFB04202DD0026F643704746
S1130E7000267047880E0000620003753E3D01CFD6
S1130E80861BB641F64370479C0E00006200037552
S1130E903C3D01CF361AB641F6437047B00E000010
S1130EA0620002753C0001CF861BB6417047C04604
S1130EB0C40E0000620002753E0001CF361AB6412E
S1130EC07047C046DC0E00006B00023C3E0001CFC0
S1130ED0361A01D00026F6437047C046F00E0000D3
S1130EE06B00013D01CF361A013EB6417047C04642
S1130EF0040F00006200036D696E01CFB04200DA96
S1130F0006007047180F00006200036D617801CF7E
S1130F10B04200DB06007047300F00006200047529
S1130F206D61780001CFB04200D306007047C0461F
S1130F30500F0000620004756D696E0001CFB0426D
S1130F4000D806007047000030F2FF1F30F3FF1F87
S1130F50900F00000000046D6F76650007B5310046
S1130F6040CF320040CF00290FD0B2420DD006D37B
S1130F70013E013A705C50540139FBD105E03078F0
S1130F801070013601320139F9D140CF07BDC04696
S1130F90B40F000000000466696C6C00300040CFA0
S1130FA0310040CF002902D001397054FCD140CF28
S1130FB07047C046C00F00002000014036687047EB
S1130FC0D80F00006D00012103CF30600E00704780
S1130FD00660704701607047001000006D00022B2E
S1130FE0210003CF3268121832600E007047026885
S1130FF09219026070470268521802607047C04636
S11310001010000020000268400036887047C04677
S11310102C1000006D000268210003CF30800E0008
S113102070470680704701807047C0465410000026
S11310306D0003682B2103CF3288121832800E0012
S11310407047028892190280704702885218028001
S11310507047C046641000002000026340003678E8
S11310607047C046801000006D000263210003CF6A
S113107030700E0070470670704701707047C046AC
S1131080A81000006D0003632B2103CF32781218DF
S113109032700E007047027892190270704702781D
S11310A0521802707047C046D01000006D000462F0
S11310B06973210003CF3268024332600E00704727
S11310C0026832430260704702680A430260704754
S11310D0F81000006D0004626963210003CF3268D8
S11310E0824332600E0070470268B2430260704768
S11310F002688A4302607047201100006D00047882
S11311006F72210003CF3268424032600E00704794
S1131110026872400260704702684A400260704789
S113112088110000680004626974400001CF3668C9
S11311300640013EB641F6437047F24A00B5012B22
S11311400AD1043F3E60002600F05EFF043F3E608B
S1131150160001F0F4FA11E002CF013B02F041FC69
S1131160043F3E603626164301F0E9FA043F3E6030
S11311700E00043F3E60002600F046FF043F3E6040
S1131180E14E01F0E4F800BDB01100006D00056807
S11311906269732103CF3288024332800E007047A4
S11311A0028832430280704702880A4302807047F3
S11311B0D81100006D0005686269632103CF32888D
S11311C0824332800E0070470288B2430280704727
S11311D002888A4302807047001200006D0005688F
S11311E0786F722103CF3288424032800E007047FC
S11311F0028872400280704702884A400280704729
S113120020120000680005686269744001CF3688C6
S11312100640013EB641F6437047BC4A8EE7C046DD
S1131220481200006D0005636269732103CF3278B0
S1131230024332700E0070470278324302707047E6
S113124002780A4302707047701200006D00056353
S11312506269632103CF3278824332700E00704793
S11312600278B2430270704702788A430270704772
S1131270981200006D000563786F722103CF3278F5
S1131280424032700E00704702787240027070471C
S113129002784A4002707047B81200006800056383
S11312A06269744001CF36780640013EB641F64388
S11312B07047974A42E7C046C812000061000563C0
S11312C0656C6C2B04367047D8120000610005630E
S11312D0656C6C73B6007047E81300000000066686
S11312E06C6173682100300040CF310040CF894BDE
S11312F0984268D3884B99422ED0032202402CD1C5
S113130002689A4246D1854A137880221A40FAD05C
S113131030221A4002D0814A30231370804A0623B7
S11313201370804A1070000A7F4A1070000A7F4AC6
S113133010707F4A1170090A7E4A1170090A7E4AA8
S11313401170090A7D4A1170744A80231370734A1C
S1131350137880221A40FAD0704700F003FD304120
S11313606464726573732068617320746F206265AE
S113137020342D616C69676E656420666F72207716
S1131380726974696E6720666C61736820210A0053
S113139002F04EFB00F0E6FC29466C617368206C99
S11313A06F636174696F6E2063616E6E6F74206227
S11313B065207772697474656E207477696365203B
S11313C0210A02F035FB00F0CDFC1943616E6E6F0B
S11313D07420777269746520696E746F20636F720C
S11313E06520210A02F024FB6C14000000000E6644
S11313F06C617368706167656572617365000FB5D0
S1131400300040CF434B984220D303239843434AB0
S1131410137880221A40FAD030221A4002D03F4A70
S1131420302313703E4A092313703E4A1070000A99
S11314303D4A1070000A3D4A1070384A80231370E8
S1131440364A137880221A40FAD00FBD00F08AFC85
S11314501443616E6E6F7420657261736520636FEF
S1131460726520210A0002F0E3FAC046E814000085
S113147000000A6572617365666C617368002548D3
S113148072B62F492F4A036893421CD0043F3E6032
S11314900600043F3E6000F065FC10457261736510
S11314A020626C6F636B20617420200000F0D2FC1A
S11314B000F058FC0C2066726F6D20466C617368F6
S11314C00A00FFF79CFF04308842DCD100F04AFC9C
S11314D01246696E69736865642E2052657365747B
S11314E020210A0002F0C1FB9015000000000E65E7
S11314F072617365666C61736866726F6D0030004B
S113150040CFBDE7006800003011000000880000F3
S11315100078000000400000FFFFFFFF00000240D1
S11315200700024004000240050002400600024099
S113153008000240090002400A0002400B00024079
S113154000000200FFFFFFFF4648602100220280E6
S113155002300139FBD17047424860210288002AD9
S113156012D000F0FFFB1D556E7061697265642036
S113157031362D62697420466C6173682077726914
S113158074652E0A02F054FA02300139E6D170472C
S11315906816000000000768666C6173682130B546
S11315A0320040CF500813D300F0DCFB1E68666C99
S11315B061736821206E65656473206576656E20AD
S11315C06164647265737365732E0A0002F030FA05
S11315D00223534023482021048845882D042C43AA
S11315E09C422AD006300139F6D11E4820210488B5
S11315F045882D042C431AD006300139F7D100F068
S1131600B1FB27546F6F206D616E7920756E706128
S1131610697265642031362D62697420466C617389
S113162068207772697465732E0A02F001FA0280E9
S1131630120C4280868040CF30BD0221114003D07D
S1131640023A8188360401E0818809040E43043F8C
S11316503E6016000021018041808180FFF743FE37
S113166030BD000030F3FF1F7C1600006900012B21
S113167001CF3618704736180036C0469016000061
S11316806900012D01CF861B7047361A003EC04603
S1131690A0160000610002312D00013E7047C046D3
S11316A0B0160000610002312B0001367047C046BD
S11316B0C0160000610002322D00023E7047C04691
S11316C0D0160000610002322B0002367047C0467B
S11316D0E41600006100066E656761746500764279
S11316E07047C046F8160000610003616273002E63
S11316F000D576427047C046401700004200057589
S11317002F6D6F64310040CF002903D1043F3E6048
S113171000267047012200238E4206D9003104D4EA
S11317205200490001D48E42FAD88E4201D3761A6F
S1131730134349085208F8D1043F3E601E00704725
S1131740B01700004200042F6D6F640000B5300034
S113175040CF002E1CDA764200280CDA4042043FC7
S11317603E600600FFF7CEFF300040CF7642043FD4
S11317703E60060000BD043F3E600600FFF7C2FF66
S1131780300040CF40427642043F3E60060000BD38
S1131790002807DA4042043F3E600600FFF7B2FF2C
S11317A0764200BD043F3E600600FFF7ABFF00BD7C
S11317B0C41700004200036D6F6400B5FFF7C6FF55
S11317C040CF00BDD81700004200012F00B5FFF73D
S11317D0BDFF043700BDC046E81700006A00012AB7
S11317E001CF464370474643F817000061000232B8
S11317F02A0076007047C0460818000061000232D3
S11318002F0076107047C0461C1800006100046564
S113181076656E0001203040361870473418000099
S11318208100046261736500043F3E60934E70471B
S11318300A0000004C18000000000662696E617224
S113184079008E48022101607047C0466418000088
S1131850000007646563696D616C88480A21016052
S11318607047C046C01800000000036865788348CC
S1131870102101607047824982480160824983488F
S11318800160834983480160834984480160844836
S1131890016000218348017083480170834801700E
S11318A08348017006218348017000218248017039
S11318B01A21824801700C217A4801707047C04691
S11318C0DC180000810009686F6F6B2D656D697409
S11318D0043F3E607A4E7047D2190000F8180000A9
S11318E0810008686F6F6B2D6B657900043F3E6063
S11318F0744E7047FA1900001819000081000A6834
S11319006F6F6B2D656D69743F00043F3E606E4ED2
S11319107047281A0000C046341900008100096885
S11319206F6F6B2D6B65793F043F3E60674E704768
S11319305A1A00005419000081000A686F6F6B2D59
S1131940706175736500043F3E60614E7047E23A12
S11319500000C0466C190000000004656D69740045
S11319600FB5574800F029F80FBDC0468019000094
S11319700000036B65790FB5524800F01EF80FBDE7
S113198094190000000005656D69743F4E480068B5
S11319908746C046A81900000000046B65793F0023
S11319A04A4800688746C046C01900000000057018
S11319B06175736546480068874600688746C04677
S11319C0E819000000000B73657269616C2D656D88
S11319D0697400B500F028F8002E40CFFAD03D48D5
S11319E0067040CF00BDC046141A000000000A7300
S11319F0657269616C2D6B65790000B500F02DF896
S1131A00002E40CFFAD03348043F3E600678F6B249
S1131A1000BDC046481A000000000C73657269617D
S1131A206C2D656D69743F0000B5FFF7C3FF2A484C
S1131A3008210170043F3E60002627488022017877
S1131A40114000D0F64300BDDC1A000000000B7307
S1131A50657269616C2D6B65793F00B5FFF7AAFF6C
S1131A601D4808210170043F3E6000261A482022C8
S1131A700178114000D0F64300BD0000FC2F002087
S1131A80803F000038800440300400F0348004407B
S1131A90000000040480044000020000049004409C
S1131AA00890044003A0064002A0064006A0064099
S1131AB005A006400AA0064000A0064001A006407A
S1131AC0F82F0020F42F0020F02F0020EC2F00200E
S1131AD0E82F002007A0064004A00640001B0000D9
S1131AE00000076365787065637400B5386801B4F5
S1131AF00130386000F00BF801BC067040CF00BD27
S1131B00741B00000000066163636570740000B517
S1131B1002CF01390022FFF72EFF300040CF2028EA
S1131B2019D2092816D00A281FD00D281DD008283C
S1131B30F1D1002AEFD000F015F903082008002A9B
S1131B40E9D0885C013A80230340E4D04023034079
S1131B50F5D0E0E72020B242DDD2043F3E6006002B
S1131B60FFF7FEFE01328854D5E7160000F0A8F80E
S1131B7000BDC046881B0000400003746962043F36
S1131B803E602B4E7047C046A01B00008100033E00
S1131B90696E043F3E60274E704700000000C04657
S1131BA0C81B000082000E63757272656E742D731B
S1131BB06F7572636500043F3E601F4E70470000FE
S1131BC0000068F0FF1FC046E41B0000000009731A
S1131BD06574736F75726365174802CF0660416060
S1131BE040CF7047041C0000000006736F757263D9
S1131BF06500043F3E60104E043F706838603668EC
S1131C007047C0463C1C0000000005717565727980
S1131C100FB5084800210160FFF7B1FF043F3E60A3
S1131C20043F3E60C826FFF772FFFFF7D5FF0FBDE4
S1131C3068F0FF1FE42F0020DC2F00208C1C000024
S1131C40000007636F6D706172650FB5310040CF9E
S1131C5001CF884202D040CF00260FBD02CF00281A
S1131C6010D001380A5C335C412A02D35B2A00D2CB
S1131C702032412B02D35B2B00D220339A42EED088
S1131C8000260FBD0026F6430FBDC046A01C000071
S1131C9000000263720000B500F064F8010A00BDA0
S1131CA0B41C0000000002626C00043F3E60202669
S1131CB07047C046C81C000000000573706163656E
S1131CC0043F3E6020264BE6E81C0000000006733B
S1131CD070616365730000B5002E03DDFFF7F0FF4C
S1131CE0013EFBD140CF00BDF81C00005000065B54
S1131CF0636861725D0005E0101D0000000004636C
S1131D006861720000B501F021FB40CF367800BD58
S1131D10201D000050000128043F3E60292606E0F3
S1131D203C1D00005000015C043F3E60002600B5ED
S1131D3001F016FB043740CF00BDC046841D0000EF
S1131D401000022E2200A14800B5043F3E600600A8
S1131D5000F0E2F9043F3E60222601F001FB00F0AE
S1131D6026FD00BD0AB4043F3E607646013E33784A
S1131D700121013319405B187146C9188E460ABC0B
S1131D803CE0C046AC1D00001000026322009048F5
S1131D90DAE7043F3E607646013E337801210133A1
S1131DA019405B187146C9188E467047D81D00004B
S1131DB01000027322008748C6E7043F3E6076465F
S1131DC0043F3E60013E36780121731C19405B18C4
S1131DD07146C9188E467047F01D00000000056367
S1131DE06F756E740136043F3E60013E367870476D
S1131DF0181E0000000005637479706501B5307821
S1131E00002807D00136043F3E603678FFF7A8FD6E
S1131E100138F7D140CF01BD481E00000000047412
S1131E2079706500310040CF300040CF00B5002903
S1131E3008D00022043F3E60865CFFF791FD01322A
S1131E409142F7D100BDC046841E00000000046822
S1131E5065782E0007B5310040CF20200F220438CA
S1131E60043F3E600E00C6401640092E01D93736A5
S1131E7000E03036FFF774FD0028F0D1FFF720FFB3
S1131E8007BDC046941E0000000003682E731FB5F2
S1131E90514C0EE0A41E0000000003752E731FB504
S1131EA04E4C06E0241F00000000022E73001FB5F4
S1131EB04B4C4C49C91B89084B4A106803B40A208F
S1131EC01060FFF74FFF08537461636B3A205B00A7
S1131ED0043F3E600E0001F02FFCFFF743FF025D5C
S1131EE0200003BC404A106000290AD03F4A106811
S1131EF006B4043F3E600600A04706BC043A01391C
S1131F00F5D1FFF72FFF0620544F533A2000043F2A
S1131F103E603600A047FFF725FF04202A3E0A0052
S1131F201FBDC046F01F0000000005776F72647388
S1131F3000B5FFF717FF06776F7264730A0000F0AD
S1131F4074FEFFF70FFF09416464726573733A20EE
S1131F50043F3E60FFF77EFFFFF704FF064C696E07
S1131F606B3A2000043F3E603668FFF773FFFFF7CB
S1131F70F9FE07466C6167733A20043F3E60B688F9
S1131F80FFF768FFFFF7EEFE06436F64653A200033
S1131F90B01D00F085FE043F3E600600FFF75AFFC7
S1131FA0FFF7E0FE064E616D653A2000043F3E6097
S1131FB00636FFF723FFFFF7D5FE010A00F04DFEBA
S1131FC0300040CFBDD040CF00BD0000641D0000F4
S1131FD0921D0000BA1D0000551E000027370000A6
S1131FE03937000030F2FF1FFC2F00202CF2FF1FB6
S1131FF00C21000000001072656769737465726CCF
S113200069746572616C2C003FB5350040CF2900BE
S1132010C90029432D029E480543FF2300223000B6
S1132020D040984301D00132F9E73000D040184045
S11320302843043F3E60060000F081FB95480543B9
S113204018009040864310D000243000E0409843AC
S113205001D00134F9E7101B043F3E600E008001FB
S1132060064300F06CFB2200DFE7002A06D0043FA1
S11320703E600E009201164300F061FB40CF3FBD6D
S11320801FB5310040CF844C0C43C9000C434901B7
S1132090300040CF020EFF231A407D4B0B43134305
S11320A0043F3E601E0000F04AFB043F3E602600F1
S11320B000F045FB020CFF231A40784B0B431343FB
S11320C0043F3E601E0000F03AFB043F3E602600E1
S11320D000F035FB020AFF231A40704B0B431343F5
S11320E0043F3E601E0000F02AFB043F3E602600D1
S11320F000F025FB0200FF231A40684B0B431343F7
S1132100043F3E601E0000F01AFB1FBD7C2100004E
S113211000000563616C6C2C0FB5330000F05AFEAF
S1132120300040CF1B1A043B5D49194000290ED0F2
S11321305C4A91420BD00136043F3E600026FFF713
S113214063FF043F3E60584E00F0F9FA0FBD40CFE4
S11321505B085648564919400843DB0A554919405B
S1132160090408439B0A0121194089060843043FD6
S11321703E60060000F00BFB0FBDC046D0210000FE
S11321800000086C69746572616C2C0008B5043F2A
S11321903E60494E00F0D3FA043F3E60474E00F0E3
S11321A0CEFA474B3000184098420BD1F643043F17
S11321B03E600626FFF728FF043F3E60414E00F0D4
S11321C0BEFA08BD043F3E600626FFF71DFF08BDAA
S11321D0F82100000000066372656174650000B5B3
S11321E000F03DF82220000217308047043F3E6093
S11321F07646013E00BDC046502200002000056422
S11322006F65733E2220000217308047043F3E6012
S11322107646013E7047043F3E607646013E2A4AB8
S113222013682A4909680220084000D102310231AA
S113223011600136043F3E600026FFF721FF043F92
S11322403E60194E00F07BFA136000F0E4F900BD23
S1132250D42200000000073C6275696C647300B509
S113226000F070FB00F0B6FD0220064040CF04D120
S1132270043F3E60362600F062FA043F3E60144E8E
S113228000F05DFA043F3E60102600F0C3FA00BD82
S113229000200000001000000002000000300000D8
S11322A00100C0FF0000C0FF8047000000F800F0FC
S11322B0FF070000FF030000043F00003E60000031
S11322C00000FFFFF643000000F0FF1F14F0FF1FA3
S11322D000B50000E02200005000035B275D03E02E
S11322E0F82200000000012700B501F02FF800F0EB
S11322F016FD40CF00BDC04640230000100008700A
S11323006F7374706F6E650000B501F01FF800F014
S113231006FD300040CF102101400DD120210140A5
S113232005D0FFF733FF043F3E60E04E04E0FFF7C3
S11323302DFF043F3E60DE4EFFF7EEFE00BDC046BB
S11323408C230000000007696E6C696E652C00B573
S1132350D849D94AD94B3088884208D0904208D00D
S1132360984206D0043F3E60060000F0E8F90236C9
S1132370F1E740CF00BD0EB4CF4AD04B0188023004
S1132380914201D09942F9D10EBC7047A0230000BC
S11323900000047265742C00043F3E60C64ECEE11A
S11323A0B02300003000046578697400F4E7C04687
S11323B0C823000030000772656375727365043FBB
S11323C03E60BF4E3668A7E6E02300008100057337
S11323D074617465043F3E60BA4E704700000000AB
S11323E0F42300000000015DB6480021C9430160E8
S11323F07047C046042400001000015BB14800216E
S1132400016070472C2400000000013A00B5AE487A
S1132410076000F097FA043F3E60A64E00F08FF983
S1132420A8480021C943016000BDC04674240000CF
S11324303000013B00B5A4480168B9420ED0FFF753
S113244091FC1520537461636B206E6F742062617C
S11324506C616E6365642E0A01F0EAFA043F3E6023
S1132460954E00F06CF900F0D6F896480021016012
S113247000BDC046882400000000076578656375C8
S11324807465300040CF8746A0240000100009691D
S11324906D6D656469617465043F3E601026EBE010
S11324A0B8240000100006696E6C696E6500043F74
S11324B03E602026E0E0C046D424000010000B63F8
S11324C06F6D70696C656F6E6C79043F3E60302689
S11324D0D2E0C046F024000010000A302D666F6C74
S11324E06461626C6500043F3E604026C4E0C046FF
S11324F00C25000010000A312D666F6C6461626C5B
S11325006500043F3E604126B6E0C0462825000031
S113251010000A322D666F6C6461626C6500043FC2
S11325203E604226A8E0C0464425000010000A335D
S11325302D666F6C6461626C6500043F3E604326E7
S11325409AE0C0466025000010000A342D666F6CC6
S11325506461626C6500043F3E6044268CE0C046C2
S11325607C25000010000A352D666F6C6461626C76
S11325706500043F3E6045267EE0C0469825000085
S113258010000A362D666F6C6461626C6500043F4E
S11325903E60462670E0C046B425000010000A37AD
S11325A02D666F6C6461626C6500043F3E60472673
S11325B062E0C046E4250000000008636F6E737497
S11325C0616E740000B500F0BDF9FFF7DFFD043F54
S11325D03E603A4E00F0B3F8FFF785FF00F01BF8B9
S11325E000BDC0460826000000000932636F6E7308
S11325F074616E7400B500F0A5F939683E600E464A
S1132600FFF7C4FDE1E7C04668260000000006733A
S11326106D756467650000B52C4801682B4A9142CA
S11326201CD202390A882A4B9A4204D1043F3E60E4
S1132630284E00F084F800F070F827480068043F42
S11326403E600600254909680431204A1368116078
S113265000F075F81360FEF77FFF00BD00F05DF831
S1132660043F3E60002608E0E026000000000873F6
S11326706574666C6167730000B514480168134A99
S1132680914205D2144801683143016040CF00BD36
S1132690320040CF11480068043001880C4B994245
S11326A001D1110000E01143018000BD4E23000060
S11326B01821000000B5000000BD000070470000B4
S11326C014F0FF1FD82F002010F0FF1F00F0FF1F91
S11326D0FFFF00000000000020F0FF1F04F0FF1FB8
S11326E0F0260000000005616C69676E15E0C046C5
S11326F00C270000410007616C69676E6564012066
S11327003040361802203040361870473427000015
S1132710000007616C69676E342C00B57F4801685E
S11327200220014004D0043F3E60002600F007F878
S113273000BDC04668270000000002682C000FB5E9
S113274076480168754A914205D2043F3E600E0006
S1132750FEF725FF02E0320040CF0A80043F3E60CE
S1132760022600F057F80FBD842700000000012C5A
S113277000B5043F3E60FFF7E2FF360CFFF7DFFFD2
S113278000BDC046A02700000000033E3C2C00B55D
S1132790043F3E60360CFFF7D2FFFFF7D0FF00BDC9
S11327A008280000000007737472696E672C07B56F
S11327B0FF21314040CF300040CF002905D1043FF4
S11327C03E600026FFF7BBFF07BD043F3E6006786E
S11327D036020E43FFF7B3FF0130013902290AD351
S11327E0043F3E604678360202781643FFF7A7FF9F
S11327F002300239F2E7002900D107BD043F3E60F0
S11328000678FFF79CFF07BD6428000000000561FF
S11328106C6C6F7441480168404A91420FD2320097
S113282040CF89183E4A914219D3FFF79BFA0B46D1
S11328306C6173682066756C6C0A01F0F9F83200FB
S113284040CF8918374A1268914208D3FFF78AFAB1
S11328500952616D2066756C6C0A01F0E9F801603B
S11328607047C0468C28000000000D636F6D7069CE
S11328706C65746F72616D3F043F3E6000262748AB
S113288000682649884248D3F6437047AC280000C4
S113289000000C636F6D70696C65746F72616D001C
S11328A01E4800681D49884211D37047342900002E
S11328B000000E636F6D70696C65746F666C617394
S11328C06800164800681549884200D270471648C7
S11328D0164902680B680A600360104814490268CC
S11328E00B680A6003600F480068834215D300B583
S11328F0FFF738FA23205661726961626C657320B0
S1132900636F6C6C696465207769746820646963BB
S113291074696F6E6172790A00BD704700F0FF1F21
S11329200000020024F0FF1F04F0FF1F1CF0FF1F33
S113293018F0FF1F202A0000000008286372656158
S11329407465290000B500F001FD002E0ED1FFF7DB
S113295009FA1520437265617465206E65656473B8
S1132960206E616D6520210A01F062F83868043F29
S11329703E60043F386000F0A3F940CF002E40CF02
S113298011D03868043F3E60043F3860FFF7EAF92D
S1132990095265646566696E6520FFF743FAFFF7BF
S11329A0E1F9022E0A00FFF7B8FE00F013FA8D4891
S11329B000688C4988421CD28B4800210160043F86
S11329C03E600626FFF726FFFEF70CF9FFF7EFFE41
S11329D0864801680A68864B9A4207D1814A13687F
S11329E01160043F3E60FFF7C3FE1360066040CFF2
S11329F010E07E48043F3E600668FFF7B9FE043FDE
S1132A003E607C4EFFF79BFE7848310040CF01606A
S1132A10FFF7CDFE734801687748016000BDC046EA
S1132A20382A00000000087661726961626C6500F2
S1132A30043F3E60012613E0502A000000000932E2
S1132A407661726961626C65043F3E60022607E04C
S1132A50282B00000000096E7661726961626C6562
S1132A6000B5FFF76FFF5F4801685E4A914233D2B9
S1132A700F200640B20061480168891A604A9142F9
S1132A800BD2FFF76FF90F4E6F7420656E6F756789
S1132A90682052414D0A00F0CBFF0160043F3E60C4
S1132AA00E00FFF773FB043F3E60564EFFF747FEF0
S1132AB0300040CF0200002805D00E600431FFF73B
S1132AC057FE0138F9D1043F3E6080261643FFF7D4
S1132AD0D3FDFFF7A0FD00BD00F07CF90220064005
S1132AE040CF04D1043F3E603626FFF728FE043F62
S1132AF03E60454EFFF74BFE043F3E60434EFFF7FA
S1132B0046FE043F3E603F4EFFF719FE300040CFC3
S1132B10002803D0FFF72CFE0138FBD1FFF7E3FCBC
S1132B20FFF779FD00BDC046142C000000000762C9
S1132B3075666665723A00B5FFF704FF0120304000
S1132B40361802203040361826480168254A91423A
S1132B5026D22A480168891B294A91420BD2FFF7E1
S1132B6001F90F4E6F7420656E6F756768205241CE
S1132B704D0A00F05DFF0160043F3E600E00FFF768
S1132B8005FB043F3E601F4EFFF7D9FDFFF7F0FD44
S1132B90043F3E601E4EFFF76FFDFFF73CFD00BD96
S1132BA000F018F90220064040CF04D1043F3E60F3
S1132BB03626FFF7C4FD043F3E60134EFFF7E7FDE2
S1132BC0043F3E60114EFFF7E2FD043F3E600D4EB0
S1132BD0FFF7B5FDFFF71EFEFFF785FCFFF71BFDB2
S1132BE000BD000000F0FF1F20F0FF1F04F0FF1FD6
S1132BF0FFFFFFFFFFFF000014F0FF1F24F0FF1F83
S1132C00F0F3FF1F704700003E60043F02367E462B
S1132C1040010000442C000000000F6469637469E3
S1132C206F6E6172797374617274EB480068EA497B
S1132C30043F3E60884201D2E84E7047E84E366851
S1132C407047C046802C000000000E6469637469FC
S1132C506F6E6172796E6578740003B53168E1480E
S1132C60814207D08879FF2804D00E00043F3E60DB
S1132C70002603BD043F3E600026F64303BDC04664
S1132C80B42C000000000A736B6970737472696E6F
S1132C9067003178013101220A408918761870479B
S1132CA006B40178013101220A408918401806BC93
S1132CB07047C046342D000000000466696E64004D
S1132CC03FB500220023350040CF340040CFFFF74A
S1132CD0ACFFC548B188884217D0043F3E60063631
S1132CE0FFF780F8043F3E602600043F3E602E005C
S1132CF0FEF7ABFF002E40CF07D0B01DFFF7D0FF8B
S1132D0002000B00B448824204D2FFF7A6FF300051
S1132D1040CFDED01600043F3E601E003FBD00B52C
S1132D2031003868FFF7CCFF3A68002A01D100F07F
S1132D3077FD00BD902D0000000006636A756D707C
S1132D402C00320040CF310040CF8B1B043BA749FD
S1132D50194000290DD0A64881420AD0FFF702F895
S1132D600D4A756D7020746F6F206661720A00F0F1
S1132D705FFE5B10FF210B40134330001E0000B5C3
S1132D80954A13681060FFF7DAFC136000BDC04673
S1132D90C82D00000000056A756D702C310040CF0D
S1132DA0300040CF0B1A043B92491940002902D04D
S1132DB0914A9142D2D15B10904A1340904A1343F6
S1132DC0043F3E601E00DAE7E02D000000000468C6
S1132DD065726500043F3E607F4E36687047C046AA
S1132DE0D02E000000000D666C6173687661722D50
S1132DF068657265043F3E60824E3668704700B570
S1132E00043F3E60804EFFF79AFC043F3E607F4ED5
S1132E10FFF795FC00BDDDE700B500F037F8396831
S1132E203E600E46043F3E60794EFFF78AFF00BDC8
S1132E3000B500F02BF839683E600E46043F3E6052
S1132E40744EFFF77EFF00BD00B5FFF7D8FF00F01A
S1132E501DF839683E600E46043F3E606E4EFFF733
S1132E6070FF00BD00B500F011F839683E600E46F1
S1132E70FFF794FF00BD00B5FFF7C1FFFFF7AAFFFE
S1132E80043F3E600226FFF7C5FC00BD00B5FFF716
S1132E90A1FF043F3E600226FFF7BCFC00BD00B565
S1132EA0FFF798FFFFF77AFF00BD00B5FFF792FF29
S1132EB0043F3E60584EFFF744FF00BD00B5FFF7E6
S1132EC089FF043F3E60524EFFF73BFF00BDC04602
S1132ED00C2F00003000047468656E00052E01D1CB
S1132EE040CFDCE7022E01D140CFDEE7FEF73AFF08
S1132EF0175374727563747572657320646F6E27EB
S1132F0074206D617463680A00F092FD382F00002C
S1132F10300004656C73650000B5022EE6D140CF25
S1132F20FFF7B4FF39683E600E46FFF7BEFF043F6B
S1132F303E60052600BDC046502F000030000269E7
S1132F40660000B5FFF797FF043F3E60022600BD10
S1132F50782F000030000672657065617400042EDD
S1132F60C4D140CF39683E600E4600B5FFF77AFF02
S1132F70FFF79BFF00BDC046942F0000300005778B
S1132F8068696C65012EB1D140CF00B5FFF7D9FF58
S1132F90023600BDA82F0000300005756E74696C00
S1132FA0012EA3D140CF4FE7BC2F000030000561B4
S1132FB06761696E012E99D140CF53E71C30000040
S1132FC0300005626567696E00B5FFF724FF043FB2
S1132FD03E60012600BD000000F0FF1F1004000049
S1132FE004F0FF1FFFFFFFFFFFFF000001FFFFFFD3
S1132FF000FFFFFF01F8FFFF00F8FFFFFF070000DD
S113300000E0000024F0FF1F002E000040CF00006D
S113301000D1000000D7000000D000002C300000D8
S11330202000016B043F3E60029E70473C3000006C
S11330302000016A043F3E60009E70474C3000004F
S113304020000169043F3E60260070478C30000078
S11330503000056C6561766500B5D44801683B00B5
S1133060043F1A68043B1A6008338B42F9D103B455
S1133070FFF70CFF03BC330040CF04390B60016041
S113308004390A6801320A6000BDC046A03000005D
S1133090200006756E6C6F6F700030BC7047C046C0
S11330A0D83000003000052B6C6F6F70032E00D0F9
S11330B01CE740CF00B5043F3E60BD4EFFF747F923
S11330C0FFF7B6FE1AE0802000060019A419401B81
S11330D0801940CF7047C0461C3100003000046C9A
S11330E06F6F7000032E00D000E740CF00B5043F9F
S11330F03E60B04EFFF72BF9FFF78EFE00F00CF99F
S1133100AA48310040CF0160043F3E60AA4EFFF759
S11331101EF900BD0134AC427047C0466431000062
S1133120780002646F0000B5043F3E60A34EFFF7D1
S11331300EF99E480168043F3E600E00043F3E6065
S113314000260760FFF767FE043F3E60032600BDCC
S113315000B500F02EF8ECE730B4340040CF350071
S113316040CF7047F83100007800033F646F00B52A
S1133170043F3E60914EFFF7EAF8043F3E60904EF4
S1133180FFF7DDFA89480168043F3E600E00FFF74F
S11331907DFE0136043F3E60012684480760FFF748
S11331A03AFE043F3E60032600BD00B500F001F87E
S11331B0E3E700B5043F3E60824EFFF7C0FA043FE8
S11331C03E600426FEF720FF013B08D0043F3E602A
S11331D00526FEF719FF013B00F003FC00BD043F88
S11331E03E603526FFF7ABFA043F3E60764EFFF7AC
S11331F0A6FA00F0F6FB00BD1432000030000463B0
S113320061736500043F3E600026043F3E6008266B
S11332107047C0462C3200003000033F6F666B4895
S11332200AE0013EB64140CF7047C046B8320000C4
S11332307800026F66006648082E00D056E640CF3C
S113324000B5043F3E600600FFF781F8FFF71EFE5D
S113325039683E600E460136043F3E600926043F4D
S11332603E60594EFFF76BFA00BD00B5300040CF09
S1133270013B01B400F0B5FB01BC082E00D035E6DB
S113328040CF043F3E600600FF213140B14204D1EB
S113329050490E43FFF753FAD8E7043F3E60002637
S11332A0FEF7B2FE043F3E604B4EFFF748FACDE70F
S11332B0300040CFB0427047F03200003000056566
S11332C06E646F66092E00D010E640CF00B540B49E
S11332D040CFFFF7DBFD39683E600E46FFF7EEFD99
S11332E0043F3E6040BC043F3E60082600BDC0462B
S11332F040330000300007656E6463617365082E17
S113330000D0F3E540CF00B5043F3E602E4EFFF7FA
S113331016FA00F001F800BD00B5300040CF0028D7
S11333200DD003B401213140002903D0013EFFF741
S1133330BCFD01E0FFF7B3FD03BC0138EFE700BDBE
S113334054330000000005746F6B656E043F3E60EB
S1133350202605E0E033000000000570617273650B
S113336010B5FEF746FC310040CF300040CF1B4A79
S113337012688418202E07D191420FD0835CB34287
S113338002D101328418F7E7914207D0835C0132FD
S1133390B342F9D18618361B013E01E08618361B6C
S11333A0043F3C600D48026010BD00000CF0FF1F9C
S11333B0C6300000143100009A300000583100007B
S11333C0AC42000030B4000040CF000022320000C4
S11333D0B0320000002E0000B0420000E42F0020B4
S11333E0203400000000056469676974D44B1B68CD
S11333F0303E0BD30A2E0BD3073E0A2E06D3242EBF
S113340006D3203E0A2E01D3242E01D30026704772
S11334109E42FBD2043F3E600026F6437047C046FE
S11334202C3500000000066E756D626572003FB5B4
S1133430310040CF701E0126012204B4C04B1B682A
S11334400024002500293CD00130013902782D2ABE
S113345004D101B00022D24304B4F3E7232A01D1FA
S11334600A23EFE7242A01D11023EBE7252A01D10F
S11334700223E7E72E2A01D10226E3E72C2A36D0DD
S1133480043F3E601600FFF7B3FF002E40CF2BD061
S1133490043F3E602600043F3E602E00043F3E6031
S11334A01E00043F3E6000260FB4FDF712F90FBC66
S11334B0350040CF340040CF0022A419554140CFFD
S11334C0C0E704BC002A04D50022E443ED430134E0
S11334D0554133002600012B02D0043F3E602E00EC
S11334E0043F3E601E003FBD01B000263FBD2500E5
S11334F0002402260029E4D0425C01392E2AF9D0A6
S1133500043F3E601600FFF773FF002E40CFEBD060
S1133510043F3C60043F3E601E000FB4FDF78DF98C
S11335200FBC340040CF40CFE4E7C0465035000024
S11335300000062E6469676974000A2E01D23036D1
S113354004E0242E01D2373600E023267047C0461B
S113355088350000000004686F6C6400330040CFBD
S1133560784801783F290DD20131017040180129B2
S113357007D001380278013002700138013901297D
S1133580F7D103707047C046A835000000000568F5
S11335906F6C643C330040CF6A4801783F2902D203
S11335A00131017043547047C035000000000473BA
S11335B069676E00002E01D440CF70472D26CDE7F9
S11335C0D4350000000002233E005E480678013036
S11335D038607047EC35000000000366235310B5D3
S11335E0202400F008F8013CFBD110BD1036000087
S11335F000000266230000B5043F3E60504E36686A
S1133600FDF739F8FFF799FFFFF7C4FF00BDC04687
S11336102C36000000000223530000B500F00AF825
S1133620002EFBD138680028F8D100BD58360000C0
S11336300000012300B5043F3E60414E3668043F5C
S11336403E600026FDF719F9FCF712FF40CFFFF7A3
S113365074FFFFF783FF00BD6C3600000000023CDE
S113366023003848002101707047C04680360000AE
S1133670000002662E00043F3E60202605E0C0469E
S1133680D0360000000003662E6E00B510B434007E
S113369040CFFDF78FFAFCF7A5FF043F3E600026FC
S11336A0FFF7DFFFFFF7B9FF40CF2C26FFF772FFCC
S11336B0002C03D0FFF79FFF013CFBD110BC40CF8F
S11336C0FFF778FF043F3E60043F3E601EE0C046C3
S11336D0E836000000000375642E00B5FFF7C1FF53
S11336E0FFF79BFF12E0C0461C3700000000026495
S11336F02E0000B5FDF75EFAFCF774FFFFF7B1FF8B
S1133700FFF78BFFFDF761FAFFF754FFFFF75DFF4B
S1133710FEF788FBFEF7D4FA00BDC0463037000040
S1133720000002752E00043F3E600026D5E7C04627
S1133730483700000000012E043F3E60F617D8E72A
S1133740FC2F002028F0FF1F9037000000000865C0
S113375076616C756174650000B5FEF74AFA01CFB5
S113376001B440B440CFC248016802B400210160F2
S1133770FEF732FA00F014F8BD4802BC0160043FC1
S11337803E6040BC01BC043F3860FEF725FA00BD32
S1133790083A0000000009696E74657270726574FD
S11337A030B5B44887420BD9FEF7DCFA1053746184
S11337B0636B20756E646572666C6F770A0037E11F
S11337C0AD4887420AD2FEF7CDFA0F537461636B9A
S11337D0206F766572666C6F770A29E1A74C2568BD
S11337E0002D01D13D002560FFF7B0FD002E02D170
S11337F0043740CF30BD3868043F3E60043F386032
S1133800FFF75EFA310040CF320040CF002A13D1D7
S113381038683100FFF70BFE320040CF002AC0D1D8
S1133820FEF704FBFEF79EFA0C206E6F7420666FA1
S1133830756E642E0A00FBE0914B1B68002B1DD1B2
S11338400025256030230B40302B0ED1FEF7EAFA19
S1133850FEF788FA1220697320636F6D70696C65D6
S11338602D6F6E6C792E0A00E2E0043740CF043FDE
S11338703E601600FEF705FEFFF793FF043740CFC6
S1133880802008400ED1EB1B9B08402008400FD03D
S11338900820084002D0002B00D01DE00F20084073
S11338A0834205D3043F3E601600FEF7EAFD78E745
S11338B000F097F8043F3E60160010220A4002D040
S11338C0FEF7DFFD6DE720220A4002D0FEF73FFD40
S11338D067E7FEF721FC64E7072001401000FEF7CC
S11338E04AFD012915D1012BDCD1FF213140B14220
S11338F004D140880643FEF722FF52E7043F3E60AE
S11339000026FEF781FB043F3E600688FEF717FFA2
S113391047E7022902D1012BC4D1EFE703291CD1C7
S1133920012BBFD1FF213140B1420AD155490E4389
S1133930FEF705FF0432043F3E601600FEF707FD64
S11339402FE7043F3E600026FEF75EFB0232043F91
S11339503E601600FEF7FBFC23E7042918D1012B77
S1133960A0D1330040CF002B00D11AE71F221A4008
S11339709A4205D0043F3E604688FEF7E0FE10E719
S1133980043F3E6006889B011E43FEF7D8FE08E70D
S1133990052923D1012B0FD1043F3E600026FEF7F9
S11339A033FB043F3E600600FEF7D1FC043F3E605B
S11339B0354EFEF7C4FEF4E6043F3E600026FEF7F3
S11339C023FB043F3E600126FEF71EFBFEF7D3FCFB
S11339D0043F3E600600FEF7BAFCE2E60130804791
S11339E0DFE600B5002B0BD0013B043F3E609E0098
S11339F0BE59FEF7CBFB002BF6D1043D2F0040CF80
S1133A000025256000BDC046243A000081000968F5
S1133A106F6F6B2D71756974043F3E601B4E704768
S1133A205C3A0000A03A000000000471756974005B
S1133A30174885460F4FFDF787FD16480A21016098
S1133A400F48002101600D480160094801601248D7
S1133A500160124941600D4800688746FEF7D8F8B6
S1133A60FFF79EFEFEF77EF905206F6B2E0AF5E741
S1133A70E42F002030F2FF1F30F1FF1F08F0FF1F7A
S1133A80D82F0020003E000040CF0000D42F00209B
S1133A9030F3FF1FFC2F0020DC2F002068F0FF1FF5
S1133AA0B03A000020000465696E740062B6704785
S1133AB0C03A000020000464696E740072B6704756
S1133AC0D83A00002000046970737200043F3E601D
S1133AD0EFF305867047C046E43A00000000036E29
S1133AE06F707047283B0000000009756E68616EB6
S1133AF0646C656400B5FEF735F914556E68616E43
S1133B00646C656420496E7465727275707420000B
S1133B10043F3E60EFF30586FEF79CF9FEF722F9B9
S1133B2002210A0000BDC0464C3B000081000B6925
S1133B3072712D7379737469636B043F3E608F4EA9
S1133B407047F43A00008D4800688746703B0000D7
S1133B508100096972712D6661756C74043F3E6061
S1133B60874E7047F43A0000854800688746C0468F
S1133B70983B000081000E6972712D636F6C6C6557
S1133B806374696F6E00043F3E607E4E7047F43A82
S1133B9000007C4800688746B83B00008100076944
S1133BA072712D616463043F3E60774E7047F43A4E
S1133BB00000754800688746D83B0000810007690B
S1133BC072712D636D70043F3E60704E7047F43A1D
S1133BD000006E4800688746F83B000081000769D2
S1133BE072712D646163043F3E60694E7047F43A1C
S1133BF000006748006887461C3C00008100096992
S1133C0072712D706F727461043F3E60614E704733
S1133C10F43A00005F4800688746C046403C000014
S1133C208100096972712D706F727464043F3E6083
S1133C30594E7047F43A0000574800688746C0461A
S1133C4000400000FFFF182D2D2D20466C61736885
S1133C502044696374696F6E617279202D2D2D0083
S1133C6000214E480160FDF706FE4D4885464D4F44
S1133C702A264D484D4901604D484E490160043F94
S1133C803E604C4E4C4DB1884C4B994224D04C4B29
S1133C900B400AD0B01DFFF703F8FEF76CFB038856
S1133CA0408800040343ED1A16E080230B4013D030
S1133CB00F23194089006D1AB01DFEF7F1FFFEF7BE
S1133CC05AFB043F3E600600043F3E602E00043F62
S1133CD03E600E00FDF742F9FEF7BFFF300040CF13
S1133CE0D1D03848066040CF374805603748384956
S1133CF0324A884204D0023803889342F9D0023011
S1133D0034490860FDF720FCFEF72CF8434D656349
S1133D10726973702D5374656C6C617269732032AF
S1133D202E302E342077697468204D3020636F72F2
S1133D306520666F72204B4C32355A31323820621E
S1133D4079204D61747468696173204B6F63680AEC
S1133D50214800210160043F3E60204E043F3E6044
S1133D600426FEF7ADFF40CF002E02D0FEF789FBFC
S1133D7071E640CF5CE6696E69740000D02F0020C4
S1133D80CC2F0020C82F0020C42F0020C02F0020DB
S1133D90BC2F0020B82F0020B42F00200081044045
S1133DA030F3FF1F30F2FF1F00F0FF1FF0F3FF1F7F
S1133DB004F0FF1F1004000000300020FFFF00008B
S1133DC0000100001CF0FF1F24F0FF1F0000020090
S1133DD00040000018F0FF1F08F0FF1F763D0000B0
S9030000FC
