S02200006D6563726973702D7374656C6C617269732D6B6C32357A3132382E737265638F
S113000038F3FF1F4D3B00007D3A00007D3A0000AD
S113001000000000000000000000000000000000DC
S11300200000000000000000000000007D3A000015
S113003000000000000000007D3A00005B3A000070
S11300407D3A00007D3A00007D3A00007D3A0000D0
S11300507D3A00007D3A00007D3A00007D3A0000C0
S11300607D3A00007D3A00007D3A00007D3A0000B0
S11300707D3A00007D3A00007D3A00009F3A00007E
S1130080BF3A00007D3A00007D3A00007D3A00004E
S11300907D3A00007D3A00007D3A00007D3A000080
S11300A07D3A0000DF3A00007D3A00007D3A00000E
S11300B07D3A00007D3A0000013B0000253B000032
S11300C0FFFFFFFFFFFFFFFFFFFFFFFFFFFFFFFF3C
S11300D0FFFFFFFFFFFFFFFFFFFFFFFFFFFFFFFF2C
S11300E0FFFFFFFFFFFFFFFFFFFFFFFFFFFFFFFF1C
S11300F0FFFFFFFFFFFFFFFFFFFFFFFFFFFFFFFF0C
S113041000B501F0AEFC16556E68616E646C6564DF
S113042020496E7465727275707420210A0000BDD3
S113043058040000FFFF1E2D2D2D204D65637269A9
S113044073702D5374656C6C6172697320436F72A1
S113045065202D2D2D00C04670040000420004329A
S1130460647570003868043F3E60043F386070472C
S1130470840400006200053264726F70043740CF58
S11304807047C046A40400004400053273776170CD
S113049007CF043F3860043F3E60043F3A600E00DB
S11304A07047C046B8040000620004326E697000F0
S11304B007CF043F38607047D4040000440005327D
S11304C06F766572B868043F3E60043F3860FE682A
S11304D07047C046F8040000440005327475636B2D
S11304E007CF043F3860043F3E60043F3A60043F56
S11304F03960043F386070471C0500004600043230
S1130500726F74003868B9683A69B86039613A60E2
S113051079687E60FE68F9607047C0464005000057
S1130520460005322D726F743868B9683A693861CB
S11305303960BA60F968FE607E6879607047C046C9
S113054054050000200003323E7201CF01B440B4D0
S113055040CF70476C05000020000332723E043F18
S11305603E6040BC01BC043F386070478405000015
S1130570200003327240043F3E60019E043F3E600F
S1130580009E704798050000200006327264726F66
S1130590700002B07047C046B0050000420003641A
S11305A0322F3868F10776104008084338607047E6
S11305B0C405000062000364322A386800187641DA
S11305C038607047E00500004200046473687200FC
S11305D03868F10776084008084338607047C04619
S11305E0F80500006200046473686C003868001841
S11305F0764138607047C0460C060000420004642F
S113060061627300002E16D47047C04628060000AD
S11306104300083F646E656761746500300040CF35
S1130620002808D47047C04648060000420007640A
S11306306E656761746538680021C043F643013014
S11306404E4138607047C046600600006400026492
S11306502D0007CF121AB1410E00043F3A607047D3
S113066078060000640002642B0007CF12184E4184
S1130670043F3A607047C0468C0600006100037373
S11306803E64043F3E60F6177047C046B80600005B
S1130690420003756D2A3868030073433B60010C04
S11306A0320C0B005343B6B280B24E43504336185B
S11306B0360CF6187047C046E80600004200026D8A
S11306C02A003868C11705D040423860F01704D0BA
S11306D07642E0E7F017DED0764200B5FFF7DBFFA5
S11306E0FFF7A9FF00BDC0462807000044000375BA
S11306F0642A07CF564341437618010C130C59431F
S11307007618010C80B292B2514343435043002205
S1130710C91852411204B6180A04090C80184E4133
S1130720043F38607047C046BC07000044000475AD
S1130730646D2A0010B50024043F3E607E68043FC7
S11307403E603E69FFF7A7FF310040CF300040CF45
S1130750043F3E603E68043F3E60FE6803B4FFF71A
S11307609AFF03BC330040CF320040CF043F3E60C9
S11307703E68043F3E603E690FB4FFF78CFF0FBC38
S11307809219634140CF89196241634140CF043FCC
S11307903E607E68043F3E60FE680FB4FFF77BFF57
S11307A00FBC9219634140CF89196241634140CF24
S11307B01E003A607960B86010BDC046E0070000D2
S11307C04300022A2F0000B540B440CFFFF779FF61
S11307D0043F3E6040BC00F065F8043700BDC046ED
S11307E0040800004300052A2F6D6F6400B540B46F
S11307F040CFFFF766FF043F3E6040BC00F052F874
S113080000BDC04628080000430003752A2F00B528
S113081040B440CFFFF73FFF043F3E6040BC00F0D0
S11308201CF8043700BDC0464C08000043000675A0
S11308302A2F6D6F640000B540B440CFFFF72BFF43
S1130840043F3E6040BC00F008F800BD980800007A
S1130850430006756D2F6D6F640010B478683968B5
S1130860002200242023640000184941524196428A
S113087001D8921B0134013BF5D1202364004918AF
S11308805241964201D8921B0134013BF6D1043700
S11308903A60260010BC70470C0900004300056D47
S11308A02F6D6F6400B5F01718D0764200F024FA6B
S11308B0F0170DD0FFF7BFFE00F011FAFFF7CDFFE0
S11308C039683E600E46764239683E600E4600BD89
S11308D000F005FAFFF7C1FF764200BD00F00CFA04
S11308E0F0170ED0FFF7A7FE00F0F9F9FFF7B5FFF8
S11308F0764239683E600E46764239683E600E465E
S113090000BD00F0ECF9FFF7A8FF00BD6809000086
S113091044000675642F6D6F640030B43C68B86899
S113092079680022002520236D00001849415241B6
S1130930944201D8121B0135013BF5D120B40025A6
S113094020206D00491852415B419E4204D89442D4
S113095002D8121BB34101350138F2D13D60BA60AF
S11309607B6040BC30BC7047E00900004400056473
S11309702F6D6F6400B5F01719D0FFF75CFEFFF719
S113098087FDF0170CD0FFF756FEFFF781FDFFF748
S1130990C4FFFFF77DFDFFF74EFEFFF779FD00BDB5
S11309A0FFF776FDFFF7B9FFFFF745FE00BDFFF740
S11309B06FFDF0170ED0FFF73EFEFFF769FDFFF75E
S11309C0ACFFFFF738FEFFF763FDFFF734FEFFF7D8
S11309D05FFD00BDFFF75CFDFFF79FFF00BDC04654
S11309E0F8090000440002642F0000B5FFF7C2FFBD
S11309F0FFF75EFD00BDC046900A00004400026699
S1130A002A0000B5F0170DD0FFF715FEFFF740FDE3
S1130A10F0170DD0FFF70FFEFFF78CFE40CF01CF8C
S1130A20386000BDFFF734FDF017F5D0FFF703FE83
S1130A30FFF780FE40CF01CF3860FFF7FCFD00BD1B
S1130A4030B43C68B9687A680023002520206D0022
S1130A50491852415B419E4204D8944202D8121B69
S1130A60B34101350138F2D1290020206D009218DC
S1130A705B419E4204D8944202D8121BB341013513
S1130A800138F3D13D60BA607B600E0030BC704722
S1130A90DC0A0000440002662F0000B5F0170ED0F7
S1130AA0FFF7C9FDFFF7F4FCF0170ED0FFF7C3FD05
S1130AB0FFF7EEFCFFF7C4FFFFF7FAFC00BDFFF7FA
S1130AC0E7FCF017F4D0FFF7B6FDFFF7E1FCFFF702
S1130AD0B7FFFFF7B0FDFFF7EBFC00BDF00A000025
S1130AE020000232210006CF3160726040CF70478F
S1130AF0040B0000200002324000043F706838609C
S1130B0036687047240B000044000364753C07CF2B
S1130B108E4204D801D1904201D8002670470026A5
S1130B20F6437047440B000044000364753E07CF4E
S1130B30B14204D801D1824201D800267047002670
S1130B40F6437047640B0000440002643C0007CF86
S1130B508E4204DC01D1904201DC0026704700265D
S1130B60F6437047840B0000440002643E0007CF44
S1130B70B14204DC01D1824201DC00267047002628
S1130B80F6437047940B000062000364303C043762
S1130B90F6177047B00B000042000364303D01CFEC
S1130BA0002801D000267047013EB6417047C04678
S1130BB0CC0B0000440003643C3E07CF904201D1BB
S1130BC0761A01D00026F6437047C046E80B0000B1
S1130BD0440002643D0007CF904201D000267047D4
S1130BE0761A013EB6417047FC0B000020000373E7
S1130BF07040043F3E603E007047C0460C0C00004D
S1130C00200003737021370040CF7047200C000090
S1130C10200003727040043F3E606E467047C04639
S1130C20300C0000200003727021B54640CF70479D
S1130C304C0C00000000056465707468F549C91B1C
S1130C408908043F3E600E007047C0465C0C0000FB
S1130C50610003647570043F3E6070476C0C0000D3
S1130C6061000464726F700040CF7047840C000010
S1130C706100043F64757000002E01D0043F3E60A3
S1130C807047C046980C00006200047377617000DE
S1130C9039683E600E007047A80C00006200036EC5
S1130CA0697004377047C046BC0C00006200046FD2
S1130CB076657200043F3E607E687047D40C000085
S1130CC06200047475636B0001CF083F7E60386076
S1130CD07047C046EC0C0000630003726F7403CFCE
S1130CE0083F78603E600E007047C046040D000067
S1130CF06300042D726F740003CF083F7E60396077
S1130D0006007047180D00002000047069636B0032
S1130D10B0003E587047C046280D00002000023E37
S1130D20720040B440CF70473C0D000020000272B6
S1130D303E00043F3E6040BC7047C046500D00007A
S1130D40200002724000043F3E60009E7047C0468F
S1130D50600D00002000057264726F7001B070476E
S1130D60780D00006000047472756500043F3E60F5
S1130D700026F6437047C0468C0D000060000566EF
S1130D80616C7365043F3E6000267047A00D00004F
S1130D906A0003616E6401CF064070470640C04696
S1130DA0B40D00006A000362696301CFB04306001A
S1130DB070478643C80D00006A00026F720001CFBD
S1130DC0064370470643C046DC0D00006A00037802
S1130DD06F7201CF464070474640C046EC0D00009C
S1130DE06100036E6F74F6437047C0460C0E00003A
S1130DF0410003636C7A300006D00026400002D024
S1130E0001D20136FAE77047202670471C0E000015
S1130E1061000373687276087047C0462C0E0000A8
S1130E2061000373686C76007047C0463C0E000096
S1130E30610003726F720120C6417047500E0000BA
S1130E40610003726F6C0020B61946417047C046BA
S1130E506C0E00006C00067273686966740001CF42
S1130E60F0400600704736080026C046880E000091
S1130E706C00076172736869667401CF30410600C3
S1130E8070473610F617C046A40E00006C00066CBE
S1130E9073686966740001CFB0400600704736007D
S1130EA00026C046B40E0000610002303D00013E41
S1130EB0B6417047C80E0000610003303C3E013E5D
S1130EC0B641F6437047C046D80E000061000230B8
S1130ED03C00F6177047C046F40E00004200023E84
S1130EE03D0001CFB04201DA002670470026F643E8
S1130EF07047C046100F00004200023C3D0001CF85
S1130F00B04201DD002670470026F6437047C04614
S1130F10280F00004200013C01CFB04202DA002653
S1130F20F643704700267047400F00004200013E20
S1130F3001CFB04202DD0026F64370470026704719
S1130F40540F0000620003753E3D01CF861BB6417D
S1130F50F6437047680F0000620003753C3D01CF03
S1130F60361AB641F64370477C0F000062000275E2
S1130F703C0001CF861BB6417047C046900F00006D
S1130F80620002753E0001CF361AB6417047C04672
S1130F90A80F00006B00023C3E0001CF361A01D0BE
S1130FA00026F6437047C046BC0F00006B00013DAD
S1130FB001CF361A013EB6417047C046D00F00003B
S1130FC06200036D696E01CFB04200DA060070471B
S1130FD0E40F00006200036D617801CFB04200DBD2
S1130FE006007047FC0F0000620004756D61780014
S1130FF001CFB04200D306007047C046181000006D
S1131000620004756D696E0001CFB04200D806001D
S11310107047000038F2FF1F581000000000046DF4
S11310206F76650007B5310040CF320040CF00290C
S11310300FD0B2420DD006D3013E013A705C505439
S11310400139FBD105E030781070013601320139E5
S1131050F9D140CF07BDC0467C10000000000466F3
S1131060696C6C00300040CF310040CF002902D0C1
S113107001397054FCD140CF7047C046881000003D
S11310802000014036687047A01000006D00012167
S113109003CF30600E0070470660704701607047F0
S11310A0C81000006D00022B210003CF3268121813
S11310B032600E007047026892190260704702683D
S11310C0521802607047C046D81000002000026821
S11310D0400036887047C046F41000006D00026876
S11310E0210003CF30800E007047068070470180D6
S11310F07047C0461C1100006D0003682B2103CF0C
S11311003288121832800E007047028892190280C9
S113111070470288521802807047C0462C110000A4
S113112020000263400036787047C0464811000032
S11311306D000263210003CF30700E00704706700B
S1131140704701707047C046701100006D00036362
S11311502B2103CF3278121832700E0070470278B8
S11311609219027070470278521802707047C04694
S1131170981100006D0004626973210003CF326886
S1131180024332600E0070470268324302607047C7
S113119002680A4302607047C01100006D000462D7
S11311A06963210003CF3268824332600E007047C6
S11311B00268B2430260704702688A430260704763
S11311C0E81100006D0004786F72210003CF3268CB
S11311D0424032600E0070470268724002607047FD
S11311E002684A4002607047041200002000046252
S11311F06974400001CF3668064001D00026F643EA
S11312007047C0462C1200006D00056862697321A6
S113121003CF3288024332800E0070470288324383
S11312200280704702880A4302807047541200000B
S11312306D0005686269632103CF3288824332807E
S11312400E0070470288B2430280704702888A43C6
S1131250028070477C1200006D000568786F72216F
S113126003CF3288424032800E00704702887240B9
S11312700280704702884A4002807047981200003A
S1131280200005686269744001CF3688064001D0A9
S11312900026F6437047C046C01200006D00056387
S11312A06269732103CF3278024332700E007047B3
S11312B0027832430270704702780A430270704722
S11312C0E81200006D0005636269632103CF327880
S11312D0824332700E0070470278B2430270704746
S11312E002788A4302707047101300006D00056392
S11312F0786F722103CF3278424032700E0070470B
S1131300027872400270704702784A400270704757
S11313102C130000200005636269744001CF367805
S1131320064001D00026F6437047C0463C14000036
S1131330000006666C6173682100300040CF310004
S113134040CF854B984268D3844B99422ED00322D8
S113135002402CD102689A4246D1814A13788022F5
S11313601A40FAD030221A4002D07D4A302313703A
S11313707C4A062313707C4A1070000A7B4A107062
S1131380000A7B4A10707B4A1170090A7A4A11706C
S1131390090A7A4A1170090A794A1170704A80233D
S11313A013706F4A137880221A40FAD0704700F005
S11313B0E0FC304164647265737320686173207467
S11313C06F20626520342D616C69676E65642066E8
S11313D06F722077726974696E6720666C617368D6
S11313E020210A0002F0E6FA00F0C3FC29466C61F1
S11313F07368206C6F636174696F6E2063616E6ED5
S11314006F74206265207772697474656E207477D6
S113141069636520210A02F0CDFA00F0AAFC1943A1
S1131420616E6E6F7420777269746520696E746F73
S113143020636F726520210A02F0BCFAC014000018
S113144000000E666C617368706167656572617334
S113145065000FB5300040CF3F4B984220D30323A3
S113146098433F4A137880221A40FAD030221A4017
S113147002D03B4A302313703A4A092313703A4A84
S11314801070000A394A1070000A394A1070344A40
S113149080231370324A137880221A40FAD00FBD89
S11314A000F067FC1443616E6E6F742065726173A3
S11314B06520636F726520210A0002F07BFAC04642
S11314C03C15000000000A6572617365666C617307
S11314D06800214872B62B492B4A036893421CD0FA
S11314E0043F3E600600043F3E6000F042FC1045AD
S11314F07261736520626C6F636B206174202000DD
S113150000F074FC00F035FC0C2066726F6D204610
S11315106C6173680A00FFF79CFF04308842DCD1D9
S113152000F027FC1246696E69736865642E2052C8
S11315306573657420210A0002F00DFB401600005B
S113154000000E6572617365666C61736866726F24
S11315506D00300040CFBDE700400000FFFFFFFFFB
S1131560000002400700024004000240050002405F
S11315700600024008000240090002400A0002403E
S11315800B00024000000200FFFFFFFF62486021E1
S11315900022028002300139FBD170475E4860218D
S11315A00288002A18D000F0E4FB28556E706169A7
S11315B07265642031362D62697420466C617368EB
S11315C0207772697465206C65667420616C6F6E37
S11315D0652E0A0002F0EEF902300139E0D17047BD
S11315E04D482021028843881B041A43B24225D067
S11315F006300139F6D100F0BCFB3C4465736972D6
S11316006564206C6F636174696F6E206E6F742003
S1131610666F756E6420696E20466C61736820770E
S11316207269746520636F6C6C656374696F6E2096
S11316307461626C652E0A0002F0BCF986887047FA
S11316401C17000000000768666C6173682130B5E0
S1131650320040CF0120104013D000F08AFB1E68F6
S1131660666C61736821206E6565647320657665B8
S11316706E206164647265737365732E0A0002F0F0
S113168099F90223534024482021048845882D04D5
S11316902C439C422BD006300139F6D11E48202120
S11316A0048845882D042C43002C1AD006300139B7
S11316B0F6D100F05EFB27546F6F206D616E7920C8
S11316C0756E7061697265642031362D62697420AB
S11316D0466C617368207772697465732E0A02F030
S11316E069F90280120C4280868040CF30BD02210D
S11316F0114003D0023A8188360401E0818809044C
S11317000E43043F3E601600002101804180818029
S1131710FFF713FE30BD000000F4FF1F3017000078
S11317206900012B01CF3618704736180036C046C1
S1131730441700006900012D01CF861B7047361A3B
S1131740003EC04654170000610002312D00013EE6
S11317507047C04664170000610002312B00013657
S11317607047C04674170000610002322D00023E2B
S11317707047C04684170000610002322B00023615
S11317807047C046981700006100066E6567617473
S1131790650076427047C046AC17000061000361E3
S11317A06273002E00D576427047C046F4170000DD
S11317B0420005752F6D6F64310040CF002903D1BD
S11317C0043F3E6000267047012200238E4206D962
S11317D0003104D45200490001D48E42FAD88E421A
S11317E001D3761A134349085208F8D1043F3E60E6
S11317F01E007047641800004200042F6D6F6400DF
S113180000B5300040CF002E1CDA764200280CDAF6
S11318104042043F3E600600FFF7CEFF300040CF59
S11318207642043F3E60060000BD043F3E60060071
S1131830FFF7C2FF300040CF40427642043F3E6093
S1131840060000BD002807DA4042043F3E6006005F
S1131850FFF7B2FF764200BD043F3E600600FFF78B
S1131860ABFF00BD781800004200036D6F6400B543
S1131870FFF7C6FF40CF00BD8C1800004200012FC7
S113188000B5FFF7BDFF043700BDC0469C1800003B
S11318906A00012A01CF464370474643AC18000052
S11318A0610002322A0076007047C046BC1800006E
S11318B0610002322F0076107047C046D018000035
S11318C06100046576656E0001203040361870476B
S11318D0E41800004000046261736500043F3E6048
S11318E0114E7047FC18000000000662696E6172B8
S11318F079000D48022101607047C04614190000A8
S1131900000007646563696D616C07480A21016022
S11319107047C046741900000000036865780248E7
S1131920102101607047000010F0FF1F83498448B4
S1131930016084498448016084498548016085497F
S1131940854801608548016000218548017085480B
S11319500170854801708548017006218448017032
S11319600021844801701A21834801700C217C48AD
S11319700170704790190000810009686F6F6B2D2A
S1131980656D6974043F3E607C4E7047921A000096
S1131990AC190000810008686F6F6B2D6B657900CE
S11319A0043F3E60764E7047BA1A0000CC1900001E
S11319B081000A686F6F6B2D3F656D697400043F89
S11319C03E60704E7047E81A0000C046E8190000F7
S11319D0810009686F6F6B2D3F6B6579043F3E6032
S11319E0694E70471A1B0000081A000081000A683B
S11319F06F6F6B2D706175736500043F3E60634EBD
S1131A0070473A3A0000C046201A000000000465FE
S1131A106D6974000FB5594800F02FF80FBDC0462A
S1131A20341A00000000036B65790FB5544800F0C8
S1131A3024F80FBD4C1A00000000053F656D697461
S1131A4000B5504800F019F800BDC046641A000003
S1131A500000043F6B65790000B54B4800F00DF8B9
S1131A6000BDC046801A00000000057061757365F2
S1131A7000B5464800F001F800BD00688746C0463E
S1131A80A81A000000000B73657269616C2D656D06
S1131A90697400B500F028F8002E40CFFAD03C4815
S1131AA0067040CF00BDC046D41A000000000A737F
S1131AB0657269616C2D6B65790000B500F02DF8D5
S1131AC0002E40CFFAD03248043F3E600678F6B28A
S1131AD000BDC046081B000000000C7365726961FC
S1131AE06C2D3F656D69740000B5FFF7C1FF29488F
S1131AF008210170043F3E600026264880220178B8
S1131B00114000D0F64300BD981B000000000B7389
S1131B10657269616C2D3F6B657900B5FFF7A8FFAD
S1131B201C4808210170043F3E6000261948202209
S1131B300178114000D0F64300BD0000803F000052
S1131B4038800440300400F0348004400000000475
S1131B500480044000020000049004400890044003
S1131B6003A0064002A0064006A0064005A00640C9
S1131B700AA0064000A0064001A00640FC2F002059
S1131B80F82F0020F42F0020F02F0020EC2F00204D
S1131B9007A0064004A00640141C000000000665CF
S1131BA078706563740000B502CF0022FFF73DFF33
S1131BB0300040CF20281BD2092818D00A2823D06F
S1131BC00D2821D00828F1D1002AEFD000F0D1F857
S1131BD003082008002AE9D00B009B181878013A62
S1131BE080230340E2D040230340F3D0DEE72020EB
S1131BF0B242DBD2043F3E600600FFF70BFF013226
S1131C000B009B181870D1E70A7000F06BF840CFF6
S1131C1000BDC046281C0000400003746962043FF4
S1131C203E60E84E7047C0463C1C00004000033E46
S1131C30696E043F3E60E44E7047C046601C00007D
S1131C4000000571756572790FB5DF4800210170D8
S1131C50FFF7E5FF043F3E60C726FFF7A4FF0FBD73
S1131C60B01C0000000007636F6D706172650FB5F2
S1131C70300040CF31780278914216D110E001361D
S1131C80013032780378412A02D35B2A00D2203211
S1131C90412B02D35B2B00D220339A4205D1013968
S1131CA00029ECD10026F64300E000260FBDC04613
S1131CB0C41C000000000263720000B500F059F873
S1131CC0010A00BDD81C0000000002626C00043F41
S1131CD03E6020267047C046EC1C000000000573DF
S1131CE070616365043F3E60202693E6FC1C00009F
S1131CF05000065B636861725D0005E0141D00001E
S1131D00000004636861720000B501F019FB01363C
S1131D10367800BD241D000050000128043F3E60B9
S1131D20292606E03C1D00005000015C043F3E6093
S1131D30002600B501F010FB40CF00BD641D00007B
S1131D401000022E2200A14800B5043F3E600600A8
S1131D5000F0E2F9043F3E60222601F0FDFA00F0B3
S1131D6044FD00BDB41D0000100002732200984819
S1131D70EAE70EB47246013A043F3E601600137857
S1131D800121013319405B187146C9188E460EBCF7
S1131D9016E00EB47246013A043F3E601600137812
S1131DA00121013319405B187146C9188E460EBCD7
S1131DB07047C046E01D000000000474797065009F
S1131DC003B5310040CF0878002807D00131043F23
S1131DD03E600E78FFF71EFE0138F7D103BDC04602
S1131DE01C1E00000000046865782E0007B5310051
S1131DF040CF20200F220438043F3E600E00C6402E
S1131E001640092E01D9373600E03036FFF702FEBE
S1131E100028F0D1FFF766FF07BDC0462C1E000066
S1131E20000003682E731FB56A4C0EE03C1E0000D0
S1131E30000003752E731FB5674C06E0BC1E00003E
S1131E400000022E73001FB5644C6549C91B890844
S1131E50644A106803B40A201060FFF78AFF08532D
S1131E607461636B3A205B00043F3E600E0001F036
S1131E7043FCFFF77EFF025D200003BC594A10605B
S1131E8000290AD0584A106806B4043F3E60060090
S1131E90A04706BC043A0139F5D1FFF76AFF0620D2
S1131EA0544F533A2000043F3E603600A047FFF7EA
S1131EB060FF04202A3E0A001FBDC0460C1F00001C
S1131EC000000464756D700000B5300040CF20211F
S1131ED0FFF74FFF072064756D703E0A043F3E60B4
S1131EE00600FFF783FFFFF744FF023A2000028851
S1131EF0043F3E601600FFF779FFFFF73AFF032027
S1131F003E0A02300139E9D100BDC046F01F00008D
S1131F10000005776F72647300B5FFF72AFF067738
S1131F206F7264730A0000F088FE300040CF81793C
S1131F30FF2945D0FFF71DFF09416464726573737F
S1131F403A20043F3E600600FFF750FFFFF711FF01
S1131F50064C696E6B3A200002680430043F3E6010
S1131F601600FFF743FF01880230FFF702FF074620
S1131F706C6167733A20043F3E600E00FFF736FF42
S1131F80043F3E60060000F075FEFFF7F2FE0643D4
S1131F906F64653A2000043F3E600600FFF726FFA9
S1131FA0FFF7E7FE064E616D653A2000FFF708FF74
S1131FB0FFF7DFFE010A0D48824201D01000B6E7A8
S1131FC000BD000070F0FF1F00F0FF1F721D000035
S1131FD0921D0000ED1D0000E7360000F9360000F8
S1131FE038F2FF1F10F0FF1F34F2FF1FFFFFFFFF47
S1131FF00C21000000001072656769737465726CCF
S113200069746572616C2C003FB5350040CF2900BE
S1132010C90029432D0295480543FF2300223000BF
S1132020D040984301D00132F9E73000D040184045
S11320302843043F3E60060000F09FFB8C480543A4
S113204018009040864310D000243000E0409843AC
S113205001D00134F9E7101B043F3E600E008001FB
S1132060064300F08AFB2200DFE7002A06D0043F83
S11320703E600E009201164300F07FFB40CF3FBD4F
S11320801FB5310040CF7B4C0C43C9000C434901C0
S1132090300040CF020EFF231A40744B0B4313430E
S11320A0043F3E601E0000F068FB043F3E602600D3
S11320B000F063FB020CFF231A406F4B0B431343E6
S11320C0043F3E601E0000F058FB043F3E602600C3
S11320D000F053FB020AFF231A40674B0B431343E0
S11320E0043F3E601E0000F048FB043F3E602600B3
S11320F000F043FB0200FF231A405F4B0B431343E2
S1132100043F3E601E0000F038FB1FBD7C21000030
S113211000000563616C6C2C0FB5330000F042FEC7
S1132120300040CF1B1A043B5449194000290ED0FB
S1132130534A91420BD00136043F3E600026FFF71C
S113214063FF043F3E604F4E00F017FB0FBD40CFCE
S11321505B084D484D4919400843DB0A4C49194076
S1132160090408439B0A0121194089060843043FD6
S11321703E60060000F029FB0FBDC046D0210000E0
S11321800000086C69746572616C2C0008B5043F2A
S11321903E60404E00F0F1FA043F3E603E4E00F0D7
S11321A0ECFA3E4B3000184098420BD1F643043F02
S11321B03E600626FFF728FF043F3E60384E00F0DD
S11321C0DCFA08BD043F3E600626FFF71DFF08BD8C
S11321D02C220000200005646F65733E212000025C
S11321E0EF308047043F3E607646013E7047043F2F
S11321F03E607646013E00F000F92A4A1368310039
S113220040CF0220084000D1023102311160013672
S1132210043F3E600026FFF733FF043F3E60194E43
S113222000F0ABFA136000F03CFA00BDAC220000F1
S11322300000073C6275696C647300B500F08DFBA7
S113224000F0B0FD0220064040CF04D1043F3E60C0
S1132250362600F092FA043F3E60134E00F08DFAE9
S1132260043F3E60102600F0DFFA00BD00200000AD
S11322700010000000020000003000000100C0FF58
S11322800000C0FF8047000000F800F0FF070000D6
S1132290FF030000043F00003E6000000000FFFF59
S11322A0F643000004F0FF1F00B50000B822000050
S11322B05000035B275D03E020230000000001279A
S11322C000B501F03DF8300040CF017800290CD171
S11322D0FFF74FFD102027206E65656473206E6143
S11322E06D6520210A0001F065FB043F3E60060095
S11322F000F0D0FC40CF002E10D1DD48043F3E60FA
S11323000600FFF75DFDFFF734FD0C206E6F7420AF
S1132310666F756E642E0A0001F04CFB00BDC0466A
S113232070230000100008706F7374706F6E650086
S113233000B501F005F800F0ADFC300040CF002EF0
S1132340DBD01021014010290ED02021014020298A
S113235005D1FFF71BFF043F3E60C64E04E0FFF7C4
S113236015FF043F3E60C44EFFF7D6FE00BDC046D5
S1132370BC230000000007696E6C696E652C00B513
S1132380BE49BF4ABF4B3088884208D0904208D02B
S1132390984206D0043F3E60060000F0EEF9023693
S11323A0F1E740CF00BD0EB4B54AB64B0188023008
S11323B0914201D09942F9D10EBC7047D02300005C
S11323C00000047265742C00043F3E60AC4ED4E1FE
S11323D0E02300003000046578697400F4E7C04627
S11323E0302400003000077265637572736500B5B0
S11323F000F003F8FFF790FE00BD0FB5A248006897
S113240006300178FF2909D1043F3E60060001B47B
S1132410FFF7E6F801BCFF21314040CF0131012232
S11324200A4089184018043F3E6006000FBDC046AC
S1132430442400004000057374617465043F3E60E9
S1132440924E7047582400000000015D8F4800211F
S1132450C94301607047C046682400001000015B56
S11324608A48002101607047902400000000013A6E
S113247000B58748076000F070FA043F3E607F4E65
S113248000F07BF981480021C943016000BDC046CA
S1132490D82400003000013B00B57D480168B942F2
S11324A00ED0FFF766FC1520537461636B206E6FCA
S11324B0742062616C616E6365642E0A01F07AFABD
S11324C0043F3E606E4E00F058F900F0EAF86F48A1
S11324D00021016000BDC046F02400000000076533
S11324E0786563757465300040CF01308746C04617
S11324F008250000100009696D6D656469617465E3
S1132500043F3E601026FBE0202500001000066911
S11325106E6C696E6500043F3E602026F0E0C046A4
S11325203C25000010000B636F6D70696C656F6E65
S11325306C79043F3E603026E2E0C0465825000036
S113254010000A302D666F6C6461626C6500043F94
S11325503E604026D4E0C0467425000010000A31D5
S11325602D666F6C6461626C6500043F3E604126B9
S1132570C6E0C0469025000010000A322D666F6C3C
S11325806461626C6500043F3E604226B8E0C04668
S1132590AC25000010000A332D666F6C6461626C18
S11325A06500043F3E604326AAE0C046C8250000FB
S11325B010000A342D666F6C6461626C6500043F20
S11325C03E6044269CE0C046E425000010000A3525
S11325D02D666F6C6461626C6500043F3E60452645
S11325E08EE0C0460026000010000A362D666F6C8F
S11325F06461626C6500043F3E60462680E0C0462C
S11326001C26000010000A372D666F6C6461626C32
S11326106500043F3E60472672E0C0464C26000039
S1132620000008636F6E7374616E740000B500F08F
S113263094F9FFF7ABFD043F3E60124E00F09DF8A5
S1132640FFF785FF00F02DF800BDC046942600007A
S113265000000932636F6E7374616E7400B500F02C
S11326607CF939683E600E46FFF790FDE1E7000013
S113267038F3FF1F7E2300001821000000B500007E
S113268000BD00007047000008F0FF1F0CF0FF1FA2
S11326901CF0FF1FF0260000000006736D756467D0
S11326A0650024480168244A91421DD200B50239CC
S11326B00A88224B9A4204D1043F3E60002600F06F
S11326C05CF800F048F81E480068043F3E600600CD
S11326D01C4909680431174A1368116000F04DF869
S11326E01360FEF75BFF00BD043F3E60002607E079
S11326F048270000000008736574666C6167730006
S113270000B50C4801680C4A914205D20C48016896
S11327103143016040CF00BD320040CF094800681A
S113272004300188054B994201D1110000E01143A6
S1132730018000BD04F0FF1F00F0FF1FFFFF000039
S113274028F0FF1F08F0FF1F70270000000007613A
S11327506C69676E342C00B575480168022001402D
S113276004D0043F3E60002600F007F800BDC046D8
S1132770A4270000000002682C000FB56C48016813
S11327806C4A914205D2043F3E600E00FEF75FFFA3
S113279002E0320040CF0A80043F3E60022600F08F
S11327A043F80FBDC02700000000012C00B5043F12
S11327B03E60FFF7E2FF360CFFF7DFFF00BDC046C7
S11327C0DC2700000000033E3C2C00B5043F3E60C3
S11327D0360CFFF7D2FFFFF7D0FF00BD1C28000026
S11327E0000007737472696E672C07B5300040CF20
S11327F001780131022909D30288043F3E601600A2
S1132800FFF7BBFF0230023906D0F3E70278043F3A
S11328103E601600FFF7B1FF07BDC04678280000F0
S1132820000005616C6C6F7441480168414A914233
S11328300FD2320040CF89183F4A914219D3FFF793
S113284098FA0B466C6173682066756C6C0A01F02B
S1132850B1F8320040CF8918384A1268914208D33F
S1132860FFF787FA0952616D2066756C6C0A01F0F6
S1132870A1F801607047C046A028000000000D6365
S11328806F6D70696C65746F72616D3F043F3E607B
S11328900026274800682749884248D3F6437047F2
S11328A0C028000000000C636F6D70696C65746F64
S11328B072616D001E4800681E49884211D370473A
S11328C04C29000000000E636F6D70696C65746FB5
S11328D0666C61736800164800681649884200D225
S11328E070471748174902680B680A60036010486C
S11328F0154902680B680A60036010480068834247
S113290015D300B5FFF735FA232056617269616269
S11329106C657320636F6C6C696465207769746897
S11329202064696374696F6E6172790A00BD7047CF
S113293004F0FF1F00F0FF1F000002002CF0FF1F37
S113294008F0FF1F24F0FF1F20F0FF1F342A0000AF
S11329500000066372656174650000B500F0F0FC68
S1132960300040CF017800290ED1FFF702FA15207C
S1132970437265617465206E65656473206E616D74
S11329806520210A01F016F8043F3E600600043F6A
S11329903E6000F07FF940CF300040CF00280ED0D9
S11329A0FFF7E7F9095265646566696E6520043FBF
S11329B03E60FFF705FAFFF7DCF9022E0A00FFF785
S11329C0CAFE00F0EFF98C4800688C4988421DD299
S11329D08B4800210160043F3E600626FFF724FF78
S11329E039683E600E46FFF700FF864801680A68B2
S11329F0854B9A4207D1804A13681160043F3E60B8
S1132A00FFF7D4FE1360066040CF00BD7D48043F4D
S1132A103E600668FFF7CAFE043F3E600026F643A8
S1132A20FFF7ABFE7748310040CF0160FFF7DDFED2
S1132A3000BDC0464C2A000000000876617269613E
S1132A40626C6500043F3E60012613E0642A0000C6
S1132A50000009327661726961626C65043F3E6010
S1132A60022607E03C2B00000000096E76617269C3
S1132A7061626C6500B5FFF770FF5F4801685F4AEB
S1132A80914233D20F200640B20060480168891A8F
S1132A905F4A91420BD2FFF76CF90F4E6F742065B9
S1132AA06E6F7567682052414D0A00F083FF016024
S1132AB0043F3E600E00FFF769FB043F3E60554E45
S1132AC0FFF75BFE300040CF0200002805D00E6007
S1132AD00431FFF76BFE0138F9D1043F3E608026D4
S1132AE01643FFF70DFEFFF7DCFD00BD00F05AF9B9
S1132AF00220064040CF04D1043F3E603626FFF753
S1132B003CFE043F3E60444EFFF75FFE043F3E60E0
S1132B10424EFFF75AFE043F3E603E4EFFF72DFE45
S1132B20300040CF002803D0FFF740FE0138FBD12E
S1132B30FFF70DFDFFF7B5FD00BDC046242C0000D6
S1132B400000076275666665723A00B5FFF705FF17
S1132B5001203040361802203040361826480168DB
S1132B60264A914226D229480168891B284A914263
S1132B700BD2FFF7FEF80F4E6F7420656E6F75670A
S1132B80682052414D0A00F015FF0160043F3E6089
S1132B900E00FFF7FBFA043F3E601E4EFFF7EDFD0B
S1132BA0FFF704FE043F3E601D4EFFF7A9FDFFF74B
S1132BB078FD00BD00F0F6F80220064040CF04D1B5
S1132BC0043F3E603626FFF7D8FD043F3E60124EB8
S1132BD0FFF7FBFD043F3E60104EFFF7F6FD043F98
S1132BE03E600C4EFFF7C9FDFFF71EFEFFF7AFFC7A
S1132BF0FFF757FD00BD000004F0FF1F00F0FF1FAA
S1132C0028F0FF1F08F0FF1FFFFFFFFF2CF0FF1F3E
S1132C1000F4FF1F704700003E60043F02367E460A
S1132C2040010000542C000000000F4469637469E3
S1132C306F6E61727973746172742C4800682C4BE6
S1132C401B682C49043F3E60884201D22A4E7047DB
S1132C501E007047882C000000000A736B697073B3
S1132C607472696E67003178013101220A40891853
S1132C707618704706B40178013101220A40891898
S1132C80401806BC7047C046042D000000000466CE
S1132C90696E64001FB53400FFF7CFFF300040CFEA
S1132CA0002600238179FF291CD08188134A914290
S1132CB0026812D00630043F3E600600043F3E60C6
S1132CC02600FEF7D4FF002E40CF06D0FFF7D2FF38
S1132CD006000B000748864204D20948824201D00C
S1132CE01000DFE7043F3E601E001FBD04F0FF1F1D
S1132CF008F0FF1F00F0FF1F30040000FFFF00007A
S1132D00FFFFFFFF602D0000000006636A756D7011
S1132D102C00320040CF310040CF8B1B043BA24932
S1132D20194000290DD0A14881420AD0FFF721F8AB
S1132D300D4A756D7020746F6F206661720A00F021
S1132D4039FE5B10FF210B40134330001E0000B519
S1132D50974A13681060FFF710FD136000BDC0466A
S1132D60982D00000000056A756D702C310040CF6D
S1132D70300040CF0B1A043B8E491940002902D081
S1132D808D4A9142D2D15B108C4A13408C4A134332
S1132D90043F3E601E00DAE7B02D00000000046826
S1132DA065726500043F3E60814E36687047C046D8
S1132DB0A02E000000000D666C6173687661722DB0
S1132DC068657265043F3E607E4E3668704700B5A4
S1132DD0043F3E607C4EFFF7D0FC043F3E607B4ED8
S1132DE0FFF7CBFC00BDDDE700B500F037F839682C
S1132DF03E600E46043F3E60754EFFF78AFF00BDFD
S1132E0000B500F02BF839683E600E46043F3E6082
S1132E10704EFFF77EFF00BD00B5FFF7D8FF00F04E
S1132E201DF839683E600E46043F3E606A4EFFF767
S1132E3070FF00BD00B500F011F839683E600E4621
S1132E40FFF794FF00BD00B5FFF7C1FFFFF7AAFF2E
S1132E50043F3E600226FFF7E7FC00BD00B5FFF724
S1132E60A1FF043F3E600226FFF7DEFC00BD00B573
S1132E70FFF798FFFFF77AFF00BD00B5FFF792FF59
S1132E80043F3E60544EFFF744FF00BD00B5FFF71A
S1132E9089FF043F3E604E4EFFF73BFF00BDC04636
S1132EA0DC2E00003000047468656E00052E01D12C
S1132EB040CFDCE7022E01D140CFDEE7FEF759FF19
S1132EC0175374727563747572657320646F6E271B
S1132ED074206D617463680A00F06CFD082F0000B3
S1132EE0300004656C73650000B5022EE6D140CF56
S1132EF0FFF7B4FF39683E600E46FFF7BEFF043F9C
S1132F003E60052600BDC046202F00003000026947
S1132F10660000B5FFF797FF043F3E60022600BD40
S1132F20482F000030000672657065617400042E3D
S1132F30C4D140CF39683E600E4600B5FFF77AFF32
S1132F40FFF79BFF00BDC046642F000030000577EB
S1132F5068696C65012EB1D140CF00B5FFF7D9FF88
S1132F60023600BD782F0000300005756E74696C60
S1132F70012EA3D140CF4FE78C2F00003000056114
S1132F806761696E012E99D140CF53E7DC2F0000B1
S1132F90300005626567696E00B5FFF724FF043FE2
S1132FA03E60012600BD000001FFFFFF00FFFFFFA0
S1132FB004F0FF1F01F8FFFF00F8FFFFFF07000008
S1132FC000E000002CF0FF1F002E000040CF0000A6
S1132FD000D1000000D7000000D00000EC2F00005A
S1132FE02000016B043F3E60029E7047FC2F0000EE
S1132FF02000016A043F3E60009E70470C300000D0
S113300020000169043F3E60260070474C300000F8
S11330103000056C6561766500B5674801683B0062
S1133020043F1A68043B1A60043304338B42F8D11A
S113303003B4FFF713FF03BC330040CF04390B6024
S1133040016004390A6801320A6000BD6030000082
S1133050200006756E6C6F6F700030BC7047C04600
S1133060983000003000052B6C6F6F70032E00D079
S113307024E740CF00B5043F3E60504EFFF77FF990
S1133080FFF7BEFE1AE0802000060019A419401BB9
S1133090801940CF7047C046DC3000003000046C1B
S11330A06F6F7000032E00D008E740CF00B5043FD7
S11330B03E60434EFFF763F9FFF796FE00F01CF9FC
S11330C03D48310040CF0160043F3E603D4EFFF774
S11330D056F900BD0134AC427047C04624310000AB
S11330E0780002646F0000B5043F3E60364EFFF77F
S11330F046F931480168043F3E600E00043F3E60DB
S113310000260760FFF76FFE043F3E60032600BD04
S113311000B500F02EF8ECE730B4340040CF3500B1
S113312040CF7047D83100007800033F646F00B58A
S1133130043F3E60244EFFF722F9043F3E60234ED5
S1133140FFF71BFB1C480168043F3E600E00FFF7BD
S113315085FE0136043F3E60012617480760FFF7ED
S113316042FE043F3E60032600BD00B500F001F8B6
S1133170E3E700B5043F3E60154EFFF7FEFA043F57
S11331803E600426FEF740FF013B08D0043F3E604A
S11331900526FEF739FF013B00F0E6FB00BD043FC6
S11331A03E603526FFF7E9FA043F3E60094EFFF71B
S11331B0E4FA00F0D9FB00BD18F0FF1F86300000D0
S11331C0D43000005A30000018310000AC42000036
S11331D030B4000040CF0000F4310000300004633C
S11331E061736500043F3E600026043F3E6008268C
S11331F07047C0460C3200003000033F6F664848F9
S11332000AE0013EB64140CF7047C0469832000004
S11332107800026F66004348082E00D04EE640CF87
S113322000B5043F3E600600FFF7A9F8FFF716FE5D
S113323039683E600E460136043F3E600926043F6D
S11332403E60394EFFF799FA00BD00B5300040CF1B
S1133250013B01B400F088FB01BC082E00D02DE630
S113326040CF043F3E600600FF213140B14204D10B
S11332702E490E43FFF781FAD8E7043F3E6000264B
S1133280FEF7C2FE043F3E60294EFFF776FACDE713
S1133290300040CFB0427047D032000030000565A6
S11332A06E646F66092E00D008E640CF00B540B4C6
S11332B040CFFFF7D3FD39683E600E46FFF7E6FDC9
S11332C0043F3E6040BC043F3E60082600BDC0464B
S11332D034330000300007656E6463617365082E43
S11332E000D0EBE540CF00B5043F3E600E4EFFF743
S11332F044FA00F001F800BD00B5300040CF0028CA
S11333000DD003B401213140002903D0013EFFF761
S1133310B4FD01E0FFF7ABFD03BC0138EFE700BDEE
S1133320023200009032000040CF0000002E000066
S1133330B04200004C330000000005746F6B656EF2
S11333402020043F3E60060006E0C046A83300008B
S1133350000005706172736530B510480178104A39
S11333601278104B00248018202E07D1914210D0DF
S1133370013001320578B542F8D006E0914208D018
S1133380013001320578B54203D0013301341D7098
S1133390F4E703480270034E347030BD70F0FF1F31
S11333A000F0FF1F38F3FF1FE8330000000005643E
S11333B069676974D24B1B68303E0BD30A2E0BD35A
S11333C0073E0A2E06D3242E06D3203E0A2E01D30E
S11333D0242E01D3002670479E42FBD2043F3E6058
S11333E00026F6437047C046F03400000000066E25
S11333F0756D626572003FB53000017801260122C7
S113340004B4BF4B1B680024002500293CD00130C4
S1133410013902782D2A04D101B00022D24304B428
S1133420F3E7232A01D10A23EFE7242A01D1102349
S1133430EBE7252A01D10223E7E72E2A01D1022650
S1133440E3E72C2A36D0043F3E601600FFF7B4FFB2
S1133450002E40CF2BD0043F3E602600043F3E6048
S11334602E00043F3E601E00043F3E6000260FB461
S1133470FDF73FF90FBC350040CF340040CF0022A8
S1133480A419554140CFC0E704BC002A04D500224A
S1133490E443ED430134554133002600012B02D0AF
S11334A0043F3E602E00043F3E601E003FBD01B05D
S11334B000263FBD2500002402260029E4D0425CFA
S11334C001392E2AF9D0043F3E601600FFF774FF3D
S11334D0002E40CFEBD0043F3C60043F3E601E0012
S11334E00FB4FDF7BAF90FBC340040CF40CFE4E786
S11334F0143500000000062E6469676974000A2E02
S113350001D2303604E0242E01D2373600E02326DF
S11335107047C0464C350000000004686F6C6400BE
S1133520330040CF774801783F290DD20131017033
S11335304018012907D0013802780130027001389F
S113354001390129F7D103707047C0466C3500007A
S1133550000005686F6C643C330040CF6948017813
S11335603F2902D201310170435470478435000071
S11335700000047369676E00002E01D440CF7047C9
S11335802D26CDE794350000000002233E000437C9
S11335905C4E7047AC35000000000366235310B541
S11335A0202400F008F8013CFBD110BDD035000008
S11335B000000266230000B5043F3E60504E3668AA
S11335C0FDF769F8FFF79BFFFFF7C6FF00BDC04694
S11335D0EC35000000000223530000B500F00AF8A7
S11335E0002EFBD138680028F8D100BD1836000041
S11335F00000012300B5043F3E60414E3668043F9D
S11336003E600026FDF789F9FCF742FF40CFFFF743
S113361076FFFFF785FF00BD2C3600000000023C5A
S113362023003848002101707047C046403600002E
S1133630000002662E00043F3E60202605E0C046DE
S113364090360000000003662E6E00B510B43400FE
S113365040CFFDF739FBFCF7D5FF043F3E60002661
S1133660FFF7DFFFFFF7B9FF40CF2C26FFF774FF0A
S1133670002C03D0FFF79FFF013CFBD110BC40CFCF
S1133680FFF77AFF043F3E60043F3E601EE0C04601
S1133690A836000000000375642E00B5FFF7C1FFD3
S11336A0FFF79BFF12E0C046DC3600000000026416
S11336B02E0000B5FDF708FBFCF7A4FFFFF7B1FFF0
S11336C0FFF78BFFFDF70BFBFFF756FFFFF75FFFDD
S11336D0FEF776FBFEF706FB00BDC046F0360000A1
S11336E0000002752E00043F3E600026D5E7C04668
S11336F0083700000000012E043F3E60F617D8E7AB
S113370010F0FF1F30F0FF1F8C3900000000096922
S11337106E7465727072657430B5B44887420BD9A3
S1133720FEF727FB10537461636B20756E6465723A
S1133730666C6F770A003DE1AD4887420AD2FEF716
S113374018FB0F537461636B206F766572666C6F40
S1133750770A2FE1FFF7F4FD300040CF017800290C
S113376000D130BDA34C2568002D01D13D0025605A
S1133770043F3E600600FFF78DFA310040CF32006F
S113378040CF002A17D1043F3E600600FFF733FE06
S1133790320040CF002AC0D1043F3E600600FEF74D
S11337A00FFBFEF7E6FA0C206E6F7420666F756EE1
S11337B0642E0A00FEE0904B1B68002B1ED10025EE
S11337C0256030230B40302B11D1043F3E600600AE
S11337D0FEF7F6FAFEF7CDFA1220697320636F6DD7
S11337E070696C652D6F6E6C792E0A00E2E0043FFF
S11337F03E601600FEF777FEFFF78FFF802008403B
S1133800802810D0EB1B9B0840200840402810D192
S113381008200840082802D1002B00D01FE00F2008
S11338200840834205D3043F3E601600FEF75BFE6A
S113383073E700F099F8043F3E60160010220A4036
S1133840102A02D1FEF74FFE67E720220A40202A01
S113385002D1FEF794FD60E7FEF75EFC5DE707200A
S113386001401000FEF79FFD012915D1012BDAD18B
S1133870FF213140B14204D140880643FEF77DFF69
S11338804BE7043F3E600026FEF7BEFB043F3E606C
S11338900688FEF772FF40E7022902D1012BC2D14C
S11338A0EFE703291CD1012BBDD1FF213140B142E7
S11338B00AD152490E43FEF760FF0432043F3E60D2
S11338C01600FEF75CFD28E7043F3E600026FEF785
S11338D09BFB0232043F3E601600FEF750FD1CE7DE
S11338E0042918D1012B9ED1330040CF002B00D1E5
S11338F013E71F221A409A4205D0043F3E604688CF
S1133900FEF73BFF09E7043F3E6006889B011E4328
S1133910FEF733FF01E7052923D1012B0FD1043F23
S11339203E600026FEF770FB043F3E600600FEF793
S113393026FD043F3E60324EFEF71FFFEDE6043FD6
S11339403E600026FEF760FB043F3E600126FEF762
S11339505BFBFEF728FD043F3E600600FEF70FFD0B
S1133960DBE601308047D8E600B5002B0BD0013BE5
S1133970043F3E609E00BE59FEF708FC002BF6D1C2
S1133980043D2F0040CF0025256000BDA83900006C
S1133990810009686F6F6B2D71756974043F3E6017
S11339A0184E7047D6390000103A00000000047128
S11339B075697400144885460C4FFDF7E7FD1348FC
S11339C00A2101600C48002101600A4800210160BD
S11339D00C4800688746FEF737F9FFF79DFEFEF7AF
S11339E0C8F905206F6B2E0AF5E7000038F2FF1FB7
S11339F038F1FF1F14F0FF1F0CF0FF1F003E000002
S1133A0040CF0000E82F002038F3FF1F10F0FF1F05
S1133A10203A000020000465696E740062B67047A5
S1133A20303A000020000464696E740072B6704776
S1133A303C3A00000000036E6F707047603A00006B
S1133A4081000B6972712D7379737469636B043F20
S1133A503E60884E70473A3A0000864800688746C0
S1133A60843A00008100096972712D6661756C7475
S1133A70043F3E60804E7047100400007E4800689A
S1133A808746C046A43A00008100076972712D611F
S1133A906463043F3E60794E70473A3A00007748C9
S1133AA000688746C43A00008100076972712D637B
S1133AB06D70043F3E60724E70473A3A00007048A1
S1133AC000688746E43A00008100076972712D643A
S1133AD06163043F3E606B4E70473A3A00006948A8
S1133AE000688746083B00008100096972712D70E7
S1133AF06F727461043F3E60634E70473A3A00004F
S1133B00614800688746C0462C3B00008100096973
S1133B1072712D706F727464043F3E605B4E704727
S1133B203A3A0000594800688746C0460040000001
S1133B30FFFF182D2D2D20466C61736820446963A6
S1133B4074696F6E617279202D2D2D00002150480B
S1133B500160FDF7EBFE4F4885464F4F2A264F483C
S1133B604F4901604F48504901604F484F4D040090
S1133B7002680430018802304D4B994222D04D4BEB
S1133B800B4009D0FFF776F8FEF70DFC0388408858
S1133B9000040343ED1A15E080230B4012D00F23D9
S1133BA0194089006D1AFFF765F8FEF7FCFB043F26
S1133BB03E600600043F3E602E00043F3E600E005F
S1133BC0FDF730FA3C48824205D0100006321278E4
S1133BD0FF2A00D0CBE739480460394805603948EA
S1133BE03949334A884204D0023803889342F9D0D1
S1133BF0023036490860FDF7C9FCFEF7BAF8414DBA
S1133C006563726973702D5374656C6C617269734A
S1133C1020312E312077697468204D3020636F7213
S1133C206520666F72204B4C32355A31323820622F
S1133C3079204D61747468696173204B6F63680AFD
S1133C4023480A2101602348002101602248002101
S1133C5001602248043F3E600600FFF71BF840CF96
S1133C60002E02D0FEF73FFCB2E640CFA2E6046984
S1133C706E697400E42F0020E02F0020DC2F002068
S1133C80D82F0020D42F0020D02F0020CC2F0020AC
S1133C900081044038F3FF1F38F2FF1F04F0FF1FB8
S1133CA000F4FF1F08F0FF1F300400000030002064
S1133CB0FFFF000000010000FFFFFFFF24F0FF1FD3
S1133CC02CF0FF1F000002000040000020F0FF1F46
S1133CD010F0FF1F0CF0FF1F14F0FF1F6E3C0000DC
S9030000FC
