:020000040800F2
:100000003803002039330000BD000000BD000000AF
:10001000BD000000BD000000BD00000000000000A9
:10002000000000000000000000000000BD00000013
:10003000BD00000000000000BD000000A73100006E
:10004000BD000000BD000000BD000000BD000000BC
:10005000BD000000BD000000CF310000F7310000FE
:100060001F320000473200006F320000BD00000068
:10007000BD000000BD000000BD000000BD0000008C
:10008000BD000000BD00000095320000BD00000072
:10009000BD000000BD000000BD000000BD0000006C
:1000A000BD000000BD000000BD000000BD0000005C
:1000B000BD320000E53200000D33000000B501F054
:1000C0005FFA16556E68616E646C656420496E74E3
:1000D00065727275707420210A0000BD0201000073
:1000E000FFFF1E2D2D2D204D6563726973702D53FA
:1000F00074656C6C6172697320436F7265202D2D7D
:100100002D001A0100004200043264757000386846
:1001100047F8046D043F386070472C01000062000E
:10012000053264726F70043740CF70474A01000097
:10013000440005327377617007CF043F386047F899
:10014000046D043F3A600E0070475E0100006200DB
:1001500004326E69700007CF043F38607047780141
:100160000000440005326F766572B86847F8046D88
:10017000043F3860FE6870479C010000440005326F
:100180007475636B07CF043F386047F8046D043F14
:100190003A60043F3960043F38607047BE01000098
:1001A00046000432726F74003868B9683A69B86002
:1001B00039613A6079687E60FE68F9607047E001F5
:1001C0000000460005322D726F743868B9683A69CC
:1001D00038613960BA60F968FE607E68796070479E
:1001E000F4010000200003323E7201CF01B440B49C
:1001F00040CF70470C02000020000332723E47F8E7
:10020000046D40BC01BC043F38607047240200000C
:1002100020000332724047F8046D019E47F8046DD8
:10022000009E704736020000200006327264726F32
:10023000700002B070474E02000042000364322F8B
:100240003868F1077610400808433860704762024A
:10025000000062000364322A386800187641386072
:1002600070477C02000042000464736872003868C2
:10027000F107760840080843386070479202000092
:100280006200046473686C00386800187641386056
:100290007047A40200004200046461627300002EF3
:1002A00014D47047BE0200004300083F646E6567C7
:1002B00061746500300040CF002807D47047DC022D
:1002C0000000420007646E6567617465386800214C
:1002D000C043F64301304E4138607047F4020000DD
:1002E000640002642D0007CF121AB1410E00043FD2
:1002F0003A6070470A030000640002642B0007CFD5
:1003000012184E41043F3A6070471C030000610020
:1003100003733E6447F8046DF6177047300300001E
:10032000620003756D2A3868A0FB060638607047C6
:10033000440300006200026D2A00386880FB060654
:10034000386070478203000044000375642A07CFB9
:10035000564341437618010C130C59437618010C8F
:1003600080B292B25143434350430022C9185241D4
:100370001204B6180A04090C80184E41043F386074
:1003800070471404000044000475646D2A0010B521
:10039000002447F8046D7E6847F8046D3E69FFF756
:1003A000C2FF310040CF300040CF47F8046D3E68B7
:1003B00047F8046DFE6803B4FFF7B5FF03BC3300D4
:1003C00040CF320040CF47F8046D3E6847F8046DD7
:1003D0003E690FB4FFF7A7FF0FBC9219634140CFEE
:1003E00089196241634140CF47F8046D7E6847F840
:1003F000046DFE680FB4FFF796FF0FBC92196341BE
:1004000040CF89196241634140CF1E003A60796054
:10041000B86010BD360400004300022A2F0000B56A
:1004200040B440CFFFF789FF47F8046D40BC00F0AF
:1004300062F8043700BD580400004300052A2F6D00
:100440006F6400B540B440CFFFF777FF47F8046D05
:1004500040BC00F050F800BD7A0400004300037572
:100460002A2F00B540B440CFFFF75DFF47F8046D79
:1004700040BC00F01BF8043700BD9E0400004300A0
:1004800006752A2F6D6F640000B540B440CFFFF7AA
:100490004AFF47F8046D40BC00F008F800BDEA04CC
:1004A0000000430006756D2F6D6F640010B478680E
:1004B0003968002200242023640000184941524179
:1004C000964201D8921B0134013BF5D120236400F0
:1004D00049185241964201D8921B0134013BF6D192
:1004E00004373A60260010BC70475E0500004300E8
:1004F000056D2F6D6F6400B5F01718D0764200F0CF
:10050000F7F9F0170DD0FFF7E1FE00F0E5F9FFF77E
:10051000CDFF39683E600E46764239683E600E4631
:1005200000BD00F0D9F9FFF7C1FF764200BD00F031
:10053000DFF9F0170ED0FFF7C9FE00F0CDF9FFF795
:10054000B5FF764239683E600E46764239683E60B5
:100550000E4600BD00F0C0F9FFF7A8FF00BDBA05C8
:10056000000044000675642F6D6F640030B43C6871
:10057000B86879680022002520236D0000184941E1
:100580005241944201D8121B0135013BF5D120B4F0
:10059000002520206D00491852415B419E4204D83D
:1005A000944202D8121BB34101350138F2D13D60AB
:1005B000BA607B6040BC30BC70473006000044002D
:1005C00005642F6D6F6400B5F01719D0FFF77EFE3C
:1005D000FFF7B2FDF0170CD0FFF778FEFFF7ACFD88
:1005E000FFF7C4FFFFF7A8FDFFF770FEFFF7A4FDBC
:1005F00000BDFFF7A1FDFFF7B9FFFFF767FE00BDE4
:10060000FFF79AFDF0170ED0FFF760FEFFF794FD9D
:10061000FFF7ACFFFFF75AFEFFF78EFDFFF756FE20
:10062000FFF78AFD00BDFFF787FDFFF79FFF00BDC5
:1006300046060000440002642F0000B5FFF7C3FF28
:10064000FFF789FD00BDDE060000440002662A00B7
:1006500000B5F0170DD0FFF739FEFFF76DFDF0176D
:100660000DD0FFF733FEFFF792FE40CF01CF386089
:1006700000BDFFF761FDF017F5D0FFF727FEFFF78C
:1006800086FE40CF01CF3860FFF720FE00BD30B4BA
:100690003C68B9687A680023002520206D0049185D
:1006A00052415B419E4204D8944202D8121BB3418E
:1006B00001350138F2D1290020206D0092185B41EC
:1006C0009E4204D8944202D8121BB341013501382E
:1006D000F3D13D60BA607B600E0030BC70472A07E2
:1006E0000000440002662F0000B5F0170ED0FFF79F
:1006F000EDFDFFF721FDF0170ED0FFF7E7FDFFF747
:100700001BFDFFF7C4FFFFF726FD00BDFFF714FD3B
:10071000F017F4D0FFF7DAFDFFF70EFDFFF7B7FF94
:10072000FFF7D4FDFFF717FD00BD3E0700002000D6
:100730000232210006CF3160726040CF704752070D
:100740000000200002324000043F706838603668C4
:1007500070477207000044000364753C07CF8E4267
:1007600004D801D1904201D8002670470026F643F4
:1007700070479207000044000364753E07CFB14202
:1007800004D801D1824201D8002670470026F643E2
:100790007047B2070000440002643C0007CF8E425D
:1007A00004DC01D1904201DC002670470026F643AC
:1007B0007047D2070000440002643E0007CFB142F8
:1007C00004DC01D1824201DC002670470026F6439A
:1007D0007047E207000062000364303C0437F617FC
:1007E0007047FC07000042000364303D01CF002841
:1007F00001D000267047013EB64170471608000040
:10080000440003643C3E07CF904201D1761A01D0E8
:100810000026F643704732080000440002643D00A1
:1008200007CF904201D000267047761A013EB641AC
:1008300070474C0800000000056465707468E54965
:10084000C91B890847F8046D0E0070475C0800005A
:1008500061000364757047F8046D70476C08000010
:1008600061000464726F700040CF7047820800001E
:100870006100043F64757000002E01D047F8046DDC
:100880007047960800006200047377617000396851
:100890003E600E007047A40800006200036E69709D
:1008A00004377047B80800006200046F7665720074
:1008B00047F8046D7E687047CE080000620004743B
:1008C00075636B0001CF083F7E6038607047E408B5
:1008D0000000630003726F7403CF083F78603E60CE
:1008E0000E007047FC0800006300042D726F740056
:1008F00003CF083F7E603960060070470E09000094
:100900002000047069636B0057F8266070471E0969
:1009100000002000023E720040B440CF7047300912
:100920000000200002723E0047F8046D40BC704792
:100930004209000020000272400047F8046D009E4A
:100940007047520900002000057264726F7001B098
:10095000704768090000600004747275650047F80C
:10096000046D0026F64370477C09000060000566B0
:10097000616C736547F8046D0026704792090000AA
:100980006E0003616E6401CF0640704706400006AA
:1009900016F0AA0900006E000362696301CFB0433C
:1009A000060070478643000636F0C00900006E005E
:1009B000026F720001CF064370470643000656F0EF
:1009C000D60900006E0003786F7201CF4640704771
:1009D0004640000696F0E40900006100036E6F7463
:1009E000F6437047F4090000610003636C7AB6FABD
:1009F00086F67047020A0000610003736872760889
:100A00007047100A000061000373686C760070473D
:100A1000200A0000610003726F725FEA7606704779
:100A2000320A0000610003726F6CB61956F10006BD
:100A300070474C0A00006C000672736869667400A7
:100A400001CFF0400600704736080026660A000015
:100A50006C00076172736869667401CF30410600EB
:100A600070473610F617800A00006C00066C736839
:100A70006966740001CFB04006007047360000265A
:100A8000900A0000610002303D00013EB64170470F
:100A9000A20A0000610003303C3E013EB641F6432D
:100AA0007047B00A0000610002303C00F617704742
:100AB000C80A00004200023E3D0001CFB042B4BF70
:100AC00000264FF0FF367047E00A00004200023C6B
:100AD0003D0001CFB042CCBF00264FF0FF3670473B
:100AE000F60A00004200013C01CFB042B4BF4FF013
:100AF000FF36002670470C0B00004200013E01CF7C
:100B0000B042CCBF4FF0FF3600267047200B0000EC
:100B1000620003753E3D01CF861BB641F643704728
:100B2000340B0000620003753C3D01CF361AB6411C
:100B3000F6437047460B0000620002753C0001CF8F
:100B4000861BB6417047580B0000620002753E00DC
:100B500001CF361AB64170476E0B00006B00023CA5
:100B60003E0001CF361A18BF4FF0FF367047800B9A
:100B700000006B00013D01CF361A013EB6417047BF
:100B8000940B00006200036D696E01CFB042B8BFE4
:100B900006467047A80B00006200036D617801CF24
:100BA000B042C8BF06467047BE0B00006200047525
:100BB0006D61780001CFB04288BF06467047D80B00
:100BC0000000620004756D696E0001CFB04238BF4D
:100BD0000646704738020020160C00000000046D25
:100BE0006F76650007B5310040CF320040CF002955
:100BF0000FD0B2420DD006D3013E013A705C505482
:100C00000139FBD105E0307810700136013201392D
:100C1000F9D140CF07BD380C000000000466696CB4
:100C20006C00300040CF310040CF002902D00139A4
:100C30007054FCD140CF7047440C000020000140AC
:100C400036687047580C00006D00012103CF3060FA
:100C50000E007047066001606E0C00002000022B41
:100C6000210003CF3268121832600E0070477C0CEE
:100C7000000020000268400036887047920C000097
:100C80006D000268210003CF30800E00704706809F
:100C90000180A80C0000200003682B2103CF3288BC
:100CA000121832800E007047B60C0000200002635C
:100CB000400036787047CC0C00006D0002632100C4
:100CC00003CF30700E00704706700170E20C000018
:100CD000200003632B2103CF3278121832700E00EC
:100CE0007047FA0C0000200004626973210003CFF2
:100CF0003268024332600E007047120D000020007F
:100D000004626963210003CF3268824332600E00BF
:100D100070472A0D0000200004786F72210003CF75
:100D20003268424032600E007047440D00002000DF
:100D300004626974400001CF3668064018BF4FF066
:100D4000FF3670475C0D0000200005686269732162
:100D500003CF3288024332800E007047740D0000CA
:100D6000200005686269632103CF328882433280A4
:100D70000E0070478C0D000020000568786F72210E
:100D800003CF3288424032800E007047A60D00002B
:100D9000200005686269744001CF3688064018BF9C
:100DA0004FF0FF367047BE0D0000200005636269FA
:100DB000732103CF3278024332700E007047D60D94
:100DC0000000200005636269632103CF327882430B
:100DD00032700E007047EE0D000020000563786F42
:100DE000722103CF3278424032700E007047080EF5
:100DF0000000200005636269744001CF3678064028
:100E000018BF4FF0FF3670479C0E000000000768C7
:100E1000666C61736821300040CF310040CFB34B26
:100E2000984221D3B24B98421ED2B24B19409942FC
:100E300019D010F00102002A16D102889A4213D16B
:100E400010F10060AC4AAD4B1360AD4B1360AD4A7E
:100E5000AD4B13600180AD4A136813F48033FBD1AE
:100E6000A84AAB4B1360704700F08AFB2A57726F99
:100E70006E672061646472657373206F72206461B1
:100E8000746120666F722077726974696E6720667C
:100E90006C61736820210A0002F039B9F40E000079
:100EA00000000763666C61736821300040CF310039
:100EB00040CF8E4B9842D7D38D4B9842D4D211F06D
:100EC000FF01FF2915D00278FF2ACDD110F1006073
:100ED000894A8A4B13608A4B13608A4A8D4B136090
:100EE00001708A4A136813F48033FBD1854A884B1A
:100EF000136070476A0F000000001065726173652F
:100F0000666C617368736563746F720000B5012E5F
:100F100029D30C2E27D2784A784B1360784B136074
:100F200000F02EFB0D457261736520736563746F6D
:100F3000722047F8046D01F06CFF724A764BF600A0
:100F400033431360714A136813F48033FBD16D4A45
:100F50006F4B136000F014FB0C66726F6D20466CD3
:100F60006173682E0A0040CF00BD741100000000BC
:100F70000A6572617365666C6173680072B600B56C
:100F8000664867490268B2F1FF3F05D047F8046D33
:100F90000126FFF7BBFF02E004308842F2D361482C
:100FA00061490268B2F1FF3F05D047F8046D02269F
:100FB000FFF7ACFF02E004308842F2D35B485C49A3
:100FC0000268B2F1FF3F05D047F8046D0326FFF732
:100FD0009DFF02E004308842F2D356485649026829
:100FE000B2F1FF3F05D047F8046D0426FFF78EFFEE
:100FF00002E004308842F2D3504851490268B2F10D
:10100000FF3F05D047F8046D0526FFF77FFF02E09C
:1010100004308842F2D34B484B490268B2F1FF3F9B
:1010200005D047F8046D0626FFF770FF02E0043094
:101030008842F2D3454846490268B2F1FF3F05D0E5
:1010400047F8046D0726FFF761FF02E0043088428D
:10105000F2D3404840490268B2F1FF3F05D047F85B
:10106000046D0826FFF752FF02E004308842F2D3F5
:101070003A483B490268B2F1FF3F05D047F8046D9A
:101080000926FFF743FF02E004308842F2D33548D7
:1010900035490268B2F1FF3F05D047F8046D0A26D2
:1010A000FFF734FF02E004308842F2D32F48304982
:1010B0000268B2F1FF3F05D047F8046D0B26FFF739
:1010C00025FF02E004308842F2D300F059FA1246BC
:1010D000696E69736865642E20526573657420219A
:1010E0000A005DF804EB62B602F028B90040000087
:1010F00000001000FFFF0000043C02402301674590
:10110000AB89EFCD103C0240010100000C3C0240D5
:101110000000008001000000020001000040000803
:10112000FF7F000800800008FFBF000800C0000823
:10113000FFFF000800000108FFFF0108000002088F
:10114000FFFF030800000408FFFF05080000060871
:10115000FFFF070800000808FFFF090800000A0851
:10116000FFFF0B0800000C08FFFF0D0800000E0831
:10117000FFFF0F088A1100006900012B01CF36180C
:10118000704736180036000616F1A01100006900FD
:10119000012D01CF861B7047361A003E0006B6F1BE
:1011A000AE110000610002312D00013E7047BC11FC
:1011B0000000610002312B0001367047CA110000A7
:1011C000610002322D00023E7047D811000061001C
:1011D00002322B0002367047EA1100006100066EF1
:1011E00065676174650076427047FE11000061001A
:1011F00003616273002E48BFD6F1000670471C12CF
:101200000000420005752F6D6F6401CF3100B0FB07
:10121000F6F67143401A043F386070473A120000F6
:101220004200042F6D6F640001CF310090FBF6F691
:101230007143401A043F386070474E12000042006C
:10124000036D6F6400B5FFF7EFFF40CF00BD5E1286
:1012500000006200012F01CF90FBF6F670476E127E
:1012600000006A00012A01CF4643704746437C12C2
:101270000000610002322A00760070478A120000E6
:10128000610002322F00761070479E12000061004C
:10129000046576656E000120304036187047B21242
:1012A0000000400004626173650047F8046D104E51
:1012B0007047C812000000000662696E6172790012
:1012C0000B48022101607047DE1200000000076435
:1012D0006563696D616C06480A21016070475013AF
:1012E0000000000003686578014810210160704724
:1012F0001000002032494FF480300860086800F484
:1013000000303FF4FBAF2F494FF0010008602C493B
:10131000086820F00100086070472B492B480860DE
:101320002B49086850F0A00008602A492A48086044
:101330002A492B4808602B492B4808602B492C4828
:101340000860704700B5FFF7D5FFFFF7E6FF00BD67
:1013500074130000000004656D69740007B4300068
:1013600040CF244A116811F08001FBD0224A10704E
:1013700007BC7047981300000000036B657907B441
:101380001C4A116811F02001FBD01B4A107847F865
:10139000046D060007BC7047FC1300000000043F0A
:1013A0006B6579001348016811F0200104D047F8FB
:1013B000046D5FF0FF36704747F8046D00267047F4
:1013C000003802400838024030380240FF01100067
:1013D0000000024020000240007700004038024038
:1013E0000000020008440040460000000C44004099
:1013F0000C2000000044004004440040721400002F
:1014000000000571756572790FB5ED480021017016
:10141000EC490022FFF7B3FF300040CF202818D25C
:101420000A2822D00D2820D00828F3D1002AF1D094
:1014300000F0A6F803082008002AEBD00B009B1848
:101440001878013A80230340E4D040230340F3D0CE
:10145000E0E7C72ADED247F8046D0600FFF77EFFFB
:1014600001320B009B181870D4E70A7000F041F8A5
:101470000FBDC0140000000007636F6D70617265DE
:101480000FB5300040CF31780278914216D110E08C
:101490000136013032780378412A02D35B2A38BF03
:1014A0002032412B02D35B2B38BF20339A4205D127
:1014B00001390029ECD10026F64300E000260FBDDB
:1014C000D414000000000263720000B500F058F868
:1014D000010A00BDE6140000000002626C0047F83B
:1014E000046D20267047FA14000000000573706137
:1014F000636547F8046D202630E70A1500005000A8
:10150000065B636861725D0005E022150000000063
:1015100004636861720000B501F0B2FA01363678F2
:1015200000BD321500005000012847F8046D29263F
:1015300006E04A1500005000015C47F8046D0026E3
:1015400000B501F0A8FA40CF00BD721500001000F0
:10155000022E22009C4800B547F8046D060000F0FA
:101560005EFA47F8046D222601F095FA00F07CFD42
:1015700000BDBC1500001000027322009348EAE78A
:101580000EB47246013A47F8046D16001378013321
:1015900013F001015B181EEB030E0EBC14E00EB439
:1015A0007246013A47F8046D16001378013313F0C0
:1015B00001015B181EEB030E0EBC7047E615000020
:1015C000000004747970650003B5310040CF0878DD
:1015D000002807D0013147F8046D0E78FFF7BEFEF2
:1015E0000138F7D103BD1E160000000004686578BD
:1015F0002E0003B5310040CF2020043847F8046D99
:1016000031FA00F616F00F06092E8CBF3736303649
:10161000FFF7A4FE0028F0D1FFF76BFF03BD2E16E5
:101620000000000003682E731FB5694C0EE03E16E3
:101630000000000003752E731FB5664C06E0BC1653
:1016400000000000022E73001FB5634C6349C91BE4
:101650008908634A106803B40A201060FFF790FFFE
:1016600008537461636B3A205B0047F8046D0E0009
:1016700001F0D7FBFFF784FF025D200003BC584A4E
:10168000106000290AD0574A106806B447F8046D64
:101690000600A04706BC043A0139F5D1FFF770FFF8
:1016A0000620544F533A200047F8046D3600A047F7
:1016B000FFF766FF04202A3E0A001FBD0A1700003C
:1016C00000000464756D700000B5300040CF20212B
:1016D000FFF756FF072064756D703E0A47F8046DEA
:1016E0000600FFF786FFFFF74BFF023A2000028853
:1016F00047F8046D1600FFF77CFFFFF741FF03205A
:101700003E0A02300139E9D100BDE81700000000AF
:1017100005776F72647300B5FFF732FF06776F725B
:1017200064730A0000F041FE300040CF8179FF2948
:1017300045D0FFF725FF09416464726573733A2051
:1017400047F8046D0600FFF754FFFFF719FF064C3A
:10175000696E6B3A20000268043047F8046D160089
:10176000FFF747FF01880230FFF70AFF07466C6169
:1017700067733A2047F8046D0E00FFF73AFF47F809
:10178000046D060000F02EFEFFF7FAFE06436F64BC
:10179000653A200047F8046D0600FFF72AFFFFF7BF
:1017A000EFFE064E616D653A2000FFF70DFFFFF773
:1017B000E7FE010AB2F1FF3F01D01000B6E700BD1D
:1017C0000000002070000020801500009E15000021
:1017D000F3150000132E0000232E00003802002015
:1017E00010000020340200204C19000000000D31D0
:1017F00032626974656E636F64696E670FB5FF2E40
:1018000004D847F8046D5FF0FF360FBD16F0FF10E7
:10181000B0420ED14FF6FF710840310C814208D121
:1018200016F0FF0656F4805647F8046D5FF0FF3659
:101830000FBD16F0FF20B0420FD14FF6FF710840E8
:10184000310C814209D1360A16F0FF0656F40056D3
:1018500047F8046D5FF0FF360FBDFF2231001140E5
:10186000300A1040884210D1300C104088420CD110
:10187000300E1040884208D116F0FF0656F440564C
:1018800047F8046D5FF0FF360FBD300000210131D5
:10189000001850F100007FF07F020240802A05D03E
:1018A0001F29F4D347F8046D00260FBD0829F9D38A
:1018B000060036F0800611F00100C001064311F069
:1018C0000E00C002064311F010008005064347F8E1
:1018D000046D5FF0FF360FBD47F8046DDFF8D0658B
:1018E0005FF4704110EA0102120116435FF40061D7
:1018F00010EA0102D20316435FF4E06110EA01022C
:1019000012011643FF2110EA010216431E439BE316
:1019100047F8046DDFF89C655FF0704110EA010242
:10192000120B16435FF0006110EA010252081643E1
:101930005FF0E06110EA0102120B16435FF47F01D1
:1019400010EA0102120C16431E437DE3B219000097
:1019500000001072656769737465726C69746572F2
:10196000616C2C000FB5330040CF1B02FF2E05D851
:1019700056F400561E4300F03FFB0FBDFFF73EFF3D
:10198000002E40CF06D0DFF8300506431E4300F09E
:101990005BFB0FBDF643FFF731FF002E40CF06D0B3
:1019A000DFF8180506431E4300F04EFB0FBDF6435B
:1019B0000BE0121A00000000096D6F76776D6F76EC
:1019C000742C0FB5330040CF1B02300040CFFFF71F
:1019D00083FF4FF6FF7110EA014001D0FFF798FF37
:1019E0000FBD0FB50136300040CF0023FFF774FF65
:1019F000FFF78EFF06E00FB5013647F8046D0026AD
:101A0000FFF7B0FF47F8046D44F2807600F0F4FA77
:101A10000FBD781A000000000563616C6C2C0FB5D7
:101A2000330000F074FD300040CF1B1A043BDFF898
:101A300090141940002906D0DFF88824914202D082
:101A4000BDE80F40D7E740CF5B08DFF87C0440F2E9
:101A5000FF7119400843DB0A40F2FF3119400904C5
:101A600008439B0A13F001018906084347F8046DF7
:101A7000060000F0E9FA0FBDAE1A00000000086C85
:101A800069746572616C2C0008B547F8046D4FF6F7
:101A9000470600F0B1FA47F8046D46F6045600F028
:101AA000ABFA47F8046D0626FFF75CFF08BDEE1A97
:101AB0000000200005646F65733E41F6CB2080472F
:101AC00047F8046DBEF10106704747F8046DBEF19A
:101AD000010600F0CCF8FD4A1368310040CF023116
:101AE0001160FFF77EFF136000F005FA00BD1A1BBE
:101AF00000000000073C6275696C647300B500F07B
:101B00005BFB47F8046D4BF2005600F075FA47F89E
:101B1000046D0A2600F0C6FA00BD261B0000500026
:101B2000035B275D03E08C1B00000000012700B56C
:101B300000F0A6FF300040CF017800290CD1FFF75C
:101B40001FFD102027206E65656473206E616D6532
:101B500020210A0001F0DBBA47F8046D060000F00E
:101B600050FC40CF002E10D1D94847F8046D060034
:101B7000FFF72AFDFFF704FD0C206E6F7420666FDF
:101B8000756E642E0A0001F0C2BA00BDDA1B0000B7
:101B9000100008706F7374706F6E650000B500F010
:101BA0006FFF00F02EFC300040CF002EDCD0102163
:101BB000014010290ED020210140202905D1FFF736
:101BC00063FF47F8046DC34E04E0FFF75DFF47F87D
:101BD000046DC14EFFF723FF00BD301C0000000064
:101BE00007696E6C696E652C00B54BF200514BF6BF
:101BF000005244F270733088884208D0904208D076
:101C0000984206D047F8046D060000F0F5F9023658
:101C1000F1E740CF00BD0EB44BF6005244F27073B2
:101C200001880230914201D09942F9D10EBC70472F
:101C3000461C00000000047265742C0047F8046D17
:101C40004BF60056D8E1541C00003000046578695A
:101C50007400F3E78A1C0000300007726563757238
:101C6000736500B500F003F8FFF7D9FE00BD0FB5AE
:101C70009A48006806300178013101220A4089182B
:101C8000401847F8046D06000FBD9E1C0000400080
:101C900005737461746547F8046D914E7047B01C0C
:101CA00000000000015D8E480021C94301607047BB
:101CB000C01C00001000015B8948002101607047D2
:101CC000E81C00000000013A00B58648076000F0FB
:101CD00073FA47F8046D4BF2005600F08DF9804816
:101CE0000021C943016000BD301D00003000013BF0
:101CF00000B57C480168B9420ED0FFF741FC1520C1
:101D0000537461636B206E6F742062616C616E63EB
:101D100065642E0A01F0FBB947F8046D4BF60056D6
:101D200000F06AF900F0E7F86D480021016000BD9D
:101D3000461D000000000765786563757465300016
:101D400040CF013087465E1D0000100009696D6DAF
:101D500065646961746547F8046D1026F7E0741DC9
:101D60000000100006696E6C696E650047F8046D2E
:101D70002026ECE08E1D000010000B636F6D706973
:101D80006C656F6E6C7947F8046D3026DFE0A81D36
:101D9000000010000A302D666F6C6461626C650093
:101DA00047F8046D4026D2E0C21D000010000A3141
:101DB0002D666F6C6461626C650047F8046D4126A6
:101DC000C5E0DC1D000010000A322D666F6C6461F6
:101DD000626C650047F8046D4226B8E0F61D00000D
:101DE00010000A332D666F6C6461626C650047F801
:101DF000046D4326ABE0101E000010000A342D666F
:101E00006F6C6461626C650047F8046D44269EE067
:101E10002A1E000010000A352D666F6C6461626C2A
:101E2000650047F8046D452691E0441E000010004F
:101E30000A362D666F6C6461626C650047F8046D4C
:101E4000462684E05E1E000010000A372D666F6C87
:101E50006461626C650047F8046D472677E08E1E6A
:101E60000000000008636F6E7374616E740000B54B
:101E700000F0A2F9FFF708FE47F8046D44F270760F
:101E800000F0BAF8FFF78CFF00F035F800BDE81E4F
:101E9000000000000932636F6E7374616E7400B5E8
:101EA00000F08AF939683E600E46FFF7EDFDE1E784
:101EB000000040F20000C0F200005FF000007FF080
:101EC0000100C0FF0000C0FF00F800F00400002087
:101ED00038030020E81B00001E1A00000800002044
:101EE0000C0000201C0000203E1F000000000673B4
:101EF0006D756467650023480168234A914280F04C
:101F00001A8000B502390A88204B9A4204D147F85A
:101F1000046D002600F070F81D48006847F8046D55
:101F200006001C4909680431164A1368116000F064
:101F300063F8136000BD47F8046D002607E0981FA2
:101F40000000000008736574666C6167730000B57B
:101F50000C4801680C4A914280F006800C480168E8
:101F60003143016040CF00BD320040CF09480068D6
:101F700004300188054B99420CBF11461143018082
:101F800000BD00000400002000000020FFFF000052
:101F90002800002008000020BA1F00000000066191
:101FA0006C69676E2C00F14801680120014003D084
:101FB00047F8046D002605E07047EE1F00000000A2
:101FC00002632C0000B5E9480168E94A914205D254
:101FD00047F8046D0E00FEF768FF02E0320040CFC4
:101FE0000A7047F8046D012600F05CF800BD24205B
:101FF0000000000002682C000FB5DC480168DC4AD4
:10200000914280F0068047F8046D0E00FEF703FF52
:1020100002E0320040CF0A8047F8046D022600F04B
:1020200041F80FBD3E2000000000012C00B547F82C
:10203000046DFFF7E1FF360CFFF7DEFF00BD5A200D
:1020400000000000033E3C2C00B547F8046D360C40
:10205000FFF7D2FFFFF7D0FF00BD9820000000007F
:1020600007737472696E672C07B5300040CF017832
:102070000131022909D3028847F8046D1600FFF7E1
:10208000BBFF0230023906D0F3E7027847F8046D4F
:102090001600FFF7B1FF07BDF22000000000056148
:1020A0006C6C6F74B1480168B14A91420FD2320032
:1020B00040CF8918AF4A914219D3FFF761FA0B4616
:1020C0006C6173682066756C6C0A01F020B8320090
:1020D00040CF8918A84A1268914208D3FFF750FAF6
:1020E0000952616D2066756C6C0A01F010B80160D0
:1020F00070471A21000000000D636F6D70696C65F8
:10210000746F72616D3F47F8046D00269748006850
:102110009749884248D3F64370473A2100000000AF
:102120000C636F6D70696C65746F72616D008F48C0
:1021300000688F49884211D37047AA21000000002F
:102140000E636F6D70696C65746F666C61736800A7
:10215000864800688649884200D270478748884987
:1021600002680B680A6003608048864902680B6851
:102170000A60036080480068834215D300B5FFF70A
:10218000FFF923205661726961626C657320636F89
:102190006C6C69646520776974682064696374692C
:1021A0006F6E6172790A00BD7047922200000000D4
:1021B000066372656174650000B500F061FC300073
:1021C00040CF017800290ED1FFF7DAF915204372CC
:1021D00065617465206E65656473206E616D652050
:1021E000210A00F094BF47F8046D060047F8046D1B
:1021F00000F007F940CF300040CF00280ED0FFF7A5
:10220000BFF9095265646566696E652047F8046D1B
:10221000FFF7DAF9FFF7B4F9022E0A00FFF7C3FE61
:1022200000F075F9514800685149884280F01E80DD
:1022300055480021016047F8046D0626FFF732FF7C
:1022400039683E600E46FFF70FFF4C4801680A6888
:10225000B2F1FF3F07D1454A1368116047F8046D9A
:10226000FFF7E4FE1360066040CF00BD434847F827
:10227000046D0668FFF7DAFE47F8046D0026F643A2
:10228000FFF7BAFE3D48310040CF0160FFF7ECFE9A
:1022900000BDAA2200000000087661726961626CCC
:1022A000650047F8046D012613E0C222000000001B
:1022B00009327661726961626C6547F8046D0226C5
:1022C00007E0942300000000096E76617269616284
:1022D0006C6500B5FFF770FF24480168244A9142FD
:1022E00080F026800F200640B20023480168891A3A
:1022F000016047F8046D0E00FFF7C6FB47F8046D58
:1023000044F27076FFF778FE300040CF02000028DC
:1023100005D00E600431FFF789FE0138F9D147F886
:10232000046D80261643FFF712FEFFF7E4FD00BDA3
:1023300047F8046D154EFFF787FE47F8046D144EFD
:10234000FFF782FE47F8046D44F27076FFF754FE03
:10235000300040CF002803D0FFF768FE0138FBD1E2
:10236000FFF71EFDFFF7C7FD00BD000004000020C1
:1023700000000020000010002C00002008000020B9
:102380002400002020000020280000203E60043FA0
:1023900002367E46C423000000000F44696374695E
:1023A0006F6E61727973746172742C4800682C4B83
:1023B0001B682C4947F8046D884201D22A4E7047A9
:1023C0001E007047F623000000000A736B697073EB
:1023D0007472696E67003178013101220A408918F0
:1023E0007618704706B40178013101220A40891835
:1023F000401806BC70477024000000000466696E37
:1024000064001FB53400FFF7D0FF300040CF002636
:1024100000238179FF291CD08188144A91420268E7
:1024200012D0063047F8046D060047F8046D260008
:10243000FFF726F8002E40CF06D0FFF7D3FF0600A7
:102440000B000848864204D2B2F1FF3F01D01000D1
:10245000DFE747F8046D1E001FBD000004000020E8
:102460000800002000000020DC000000FFFF00004A
:10247000CA240000000006636A756D702C003200EB
:1024800040CF310040CF8B1B043B9C4919400029B1
:102490000DD09B4881420AD0FFF772F80D4A756D46
:1024A0007020746F6F206661720A00F030BE5B109E
:1024B000FF210B40134330001E0000B5914A136802
:1024C0001060FFF799FD136000BD022500000000B9
:1024D000056A756D702C310040CF300040CF0B1A6B
:1024E000043B89491940002902D0884A9142D3D13E
:1024F0005B10874A134053F4604347F8046D1E0095
:10250000DBE7F6250000000004686572650047F807
:10251000046D7C4E3668704700B547F8046D42F68E
:102520000066FFF769FD47F8046D4CF64076FFF74B
:1025300063FD00BDEBE700B500F03AF839683E6096
:102540000E4647F8046D4DF20016FFF798FF00BDE8
:1025500000B500F02DF839683E600E4647F8046D6E
:102560004DF20076FFF78BFF00BD00B5FFF7D4FFFB
:1025700000F01EF839683E600E4647F8046D4DF2D3
:102580000006FFF77CFF00BD00B500F011F83968C8
:102590003E600E46FFF79FFF00BD00B5FFF7BCFF92
:1025A000FFF7B5FF47F8046D0226FFF77BFD00BD7E
:1025B00000B5FFF7ACFF47F8046D0226FFF772FD88
:1025C00000BD00B5FFF7A3FFFFF785FF00BD00B515
:1025D000FFF79DFF47F8046D4DF20006FFF74FFF30
:1025E00000BD00B5FFF793FF47F8046D4DF20016EC
:1025F000FFF745FF00BD3226000030000474686517
:102600006E00052E01D140CFDBE7022E01D140CF75
:10261000DDE7FEF7B5FF1753747275637475726565
:102620007320646F6E2774206D617463680A00F014
:102630006EBD5E260000300004656C73650000B559
:10264000022E7FF4E6AF40CFFFF7B2FF39683E605D
:102650000E46FFF7BCFF47F8046D052600BD762641
:10266000000030000269660000B5FFF796FF47F8EA
:10267000046D022600BD9C260000300006726570C5
:1026800065617400042EC4D140CF39683E600E46A7
:1026900000B5FFF779FFFFF79AFF00BDB8260000ED
:1026A0003000057768696C65012EB2D140CF00B566
:1026B000FFF7DAFF023600BDCC26000030000575BA
:1026C0006E74696C012EA4D140CF4EE7E026000065
:1026D000300005616761696E012E9AD140CF53E7E2
:1026E00014270000300005626567696E00B5FFF7CA
:1026F00021FF47F8046D012600BD000001FFFFFF28
:1027000000FFFFFF0400002001F8FFFF00F8FFFFBB
:10271000FF070000242700002000016B47F8046D2C
:10272000029E7047342700002000016A47F8046DBC
:10273000009E7047442700002000016947F8046D9F
:1027400026007047842700003000056C65617665BF
:1027500000B5684801683B00043F1A68043B1A60F2
:10276000043304338B42F8D103B4FFF721FF03BCD9
:10277000330040CF04390B60016004390A6801322C
:102780000A6000BD96270000200006756E6C6F6F12
:10279000700030BC7047CE2700003000052B6C6FF6
:1027A0006F70032E00D034E740CF00B547F8046DBA
:1027B000514EFFF719FAFFF7CBFE1AE014F100446F
:1027C000641BA41940CF2C44A4F100447047102886
:1027D00000003000046C6F6F7000032E00D018E70B
:1027E00040CF00B547F8046D444EFFF7FDF9FFF701
:1027F000A2FE00F023F93F48310040CF016047F8C6
:10280000046D3F4EFFF7F0F900BD0134AC42704754
:1028100058280000780002646F0000B547F8046D86
:10282000384EFFF7E1F93348016847F8046D0E00B0
:1028300047F8046D00260760FFF77CFE47F8046D3B
:10284000032600BD00B500F02FF8ECE730B43400EB
:1028500040CF350040CF7047082900007800033F83
:10286000646F00B547F8046D264EFFF7BDF947F8D1
:10287000046D44F2AC26FFF7BFFB1E48016847F821
:10288000046D0E00FFF794FE013647F8046D012633
:1028900018480760FFF74EFE47F8046D032600BD99
:1028A00000B500F001F8E2E700B547F8046D4BF21F
:1028B0003046FFF7A1FB47F8046D0426FFF752F8F6
:1028C000013B08D047F8046D0526FFF74BF8013BA4
:1028D00000F004FC00BD47F8046D3526FFF78CFBC3
:1028E00047F8046D4CF64076FFF786FB00F0F6FBE8
:1028F00000BD000018000020BC2700000A280000CE
:10290000922700004C2800002229000030000463B8
:102910006173650047F8046D002647F8046D0826CA
:102920007047382900003000033F6F664D4809E0CA
:10293000013EB64140CF7047DC2900007800026FAD
:1029400066004948082E00D063E640CF00B547F83E
:10295000046D0600FFF748F9FFF72AFE39683E606C
:102960000E46013647F8046D092647F8046D4CF60B
:102970004076FFF741FB00BD00B5300040CF013B82
:1029800001B400F0ABFB01BC082E00D041E640CF03
:1029900047F8046D0600FF213140B14204D13349AC
:1029A0000E43FFF729FBD7E7FEF728FF002E40CFA5
:1029B00004D02F480643FFF747FBCDE747F8046DE7
:1029C0000026FEF7CFFF47F8046D44F2B026FFF76C
:1029D00013FBC1E7300040CFB0427047122A00001D
:1029E000300005656E646F66092E00D011E640CF99
:1029F00000B540B440CFFFF7DBFD39683E600E46BE
:102A0000FFF7EFFD47F8046D40BC47F8046D08265A
:102A100000BD742A0000300007656E646361736551
:102A2000082E00D0F5E540CF00B547F8046D4CF610
:102A30004076FFF7E1FA00F001F800BD00B5300084
:102A400040CF00280DD003B401213140002903D02C
:102A5000013EFFF7BCFD01E0FFF7B3FD03BC013809
:102A6000EFE700BD30290000D4290000002E00004F
:102A7000000FB6F18A2A0000000005746F6B656EC6
:102A8000202047F8046D060005E0E82A0000000059
:102A900005706172736530B510480178104A12787C
:102AA000104B00248018202E07D1914210D0013005
:102AB00001320578B542F8D006E0914208D00130E5
:102AC00001320578B54203D0013301341D70F4E7BB
:102AD00003480270034E347030BD000070000020C7
:102AE0000000002038030020262B000000000564B1
:102AF00069676974CD4B1B68303E0BD30A2E0BD32C
:102B0000073E0A2E06D3242E06D3203E0A2E01D3DA
:102B1000242E01D3002670479E42FBD247F8046D55
:102B20000026F64370472E2C00000000066E756DDF
:102B3000626572003FB5300001780126012204B4BD
:102B4000BA4B1B680024002500293CD00130013914
:102B500002782D2A04D101B00022D24304B4F3E755
:102B6000232A01D10A23EFE7242A01D11023EBE71E
:102B7000252A01D10223E7E72E2A01D10226E3E725
:102B80002C2A36D047F8046D1600FFF7B5FF002E4B
:102B900040CF2BD047F8046D260047F8046D2E0077
:102BA00047F8046D1E0047F8046D00260FB4FDF7CA
:102BB000CEFB0FBC350040CF340040CF0022A4191B
:102BC000554140CFC0E704BC002A04D50022E443AD
:102BD000ED430134554133002600012B02D047F864
:102BE000046D2E0047F8046D1E003FBD01B00026A5
:102BF0003FBD2500002402260029E4D0425C0139B3
:102C00002E2AF9D047F8046D1600FFF775FF002E45
:102C100040CFEBD0043F3C6047F8046D1E000FB47A
:102C2000FDF744FC0FBC340040CF40CFE4E74E2C0E
:102C300000000000062E6469676974000A2E3CBF1C
:102C4000303603E0242E34BF373623267047842CD9
:102C50000000000004686F6C6400330040CF7448CB
:102C600001783F290DD2013101704018012907D0A8
:102C70000138027801300270013801390129F7D199
:102C800003707047A42C0000000005686F6C643C62
:102C9000330040CF664801783F2902D201310170EC
:102CA00043547047BC2C00000000047369676E0039
:102CB000002E01D440CF70472D26CEE7CC2C00004B
:102CC000000002233E000437594E7047E42C0000F8
:102CD00000000366235310B5202400F008F8013CDF
:102CE000FBD110BD062D000000000266230000B5D8
:102CF00047F8046D4D4E3668FDF715FBFFF79EFF54
:102D0000FFF7C6FF00BD222D000000000223530084
:102D100000B500F00AF8002EFBD138680028F8D181
:102D200000BD4E2D00000000012300B547F8046DE2
:102D30003E4E366847F8046D0026FDF717FCFDF798
:102D4000FBF940CFFFF77AFFFFF787FF00BD602D4B
:102D500000000000023C230035480021017070474C
:102D6000722D0000000002662E0047F8046D202638
:102D700004E0C02D0000000003662E6E00B510B404
:102D8000340040CFFDF79EFDFDF789FA47F8046D4A
:102D90000026FFF7E1FFFFF7BBFF40CF2C26FFF730
:102DA00077FF002C03D0FFF7A2FF013CFBD110BC42
:102DB00040CFFFF77DFF47F8046D47F8046D1CE036
:102DC000D62D000000000375642E00B5FFF7C4FF88
:102DD000FFF79EFF11E0082E0000000002642E00A5
:102DE00000B5FDF76FFDFDF75AFAFFF7B5FFFFF7E6
:102DF0008FFFFDF771FDFFF75BFFFFF764FFFEF745
:102E0000E3FBFEF776FB00BD1A2E00000000027502
:102E10002E0047F8046D0026D7E7342E000000008E
:102E2000012E47F8046DF617DAE7000010000020C5
:102E30003000002002310000000009696E746572E4
:102E40007072657430B5BD4887420BD9FEF798FBA8
:102E500010537461636B20756E646572666C6F7776
:102E60000A0054E1B64887420AD2FEF789FB0F53A5
:102E70007461636B206F766572666C6F770A46E1EA
:102E8000FFF7FEFD300040CF0178002900D130BDB2
:102E9000AC4C2568002D01D13D00256047F8046D3C
:102EA0000600FFF7AEFA310040CF320040CF002AD3
:102EB00017D147F8046D0600FFF73CFE320040CF03
:102EC000002AC0D147F8046D0600FEF77DFBFEF72F
:102ED00057FB0C206E6F7420666F756E642E0A00AF
:102EE00015E1994B1B68002B1ED10025256030236E
:102EF0000B40302B11D147F8046D0600FEF764FB40
:102F0000FEF73EFB1220697320636F6D70696C657C
:102F10002D6F6E6C792E0A00F9E047F8046D1600EB
:102F2000FEF70DFFFFF78FFF80200840802810D0AC
:102F3000EB1B9B0840200840402810D10820084087
:102F4000082802D1002B00D01FE00F200840834248
:102F500005D347F8046D1600FEF7F1FE73E700F0A5
:102F6000BDF847F8046D160010220A40102A02D15D
:102F7000FEF7E5FE67E720220A40202A02D1FEF78D
:102F800033FE60E7FEF74BFD5DE7072001401000D0
:102F9000FEF741FE01291FD1012BDAD1FF2131407B
:102FA000B14204D140880643FFF726F84BE7FEF70D
:102FB00025FC002E40CF04D040680643FFF744F8BC
:102FC00041E747F8046D0026FEF7CCFC47F8046D96
:102FD0000688FFF711F836E7022902D1012BB8D194
:102FE000EFE7032926D1012BB3D1FF213140B142B4
:102FF0000AD156490E43FEF7FFFF043247F8046D2D
:103000001600FEF7F1FD1EE7FEF7F8FB002E40CF9D
:1030100004D04F490E43FFF717F8EEE747F8046D69
:103020000026FEF79FFC023247F8046D1600FEF7FB
:10303000DBFD08E7042918D1012B8AD1330040CFEA
:10304000002B00D1FFE61F221A409A4205D047F814
:10305000046D4688FEF7D0FFF5E647F8046D068854
:103060009B011E43FEF7C8FFEDE6052922D1012B87
:1030700010D147F8046D0026FEF774FC47F8046D84
:103080000688FEF7B9FF47F8046D4CF64076FEF768
:10309000B3FFD8E647F8046D0026FEF763FC47F857
:1030A000046D0126FEF75EFC47F8046D4688FEF7C6
:1030B000A3FFC8E606290ED1012B7FF44AAFFEF725
:1030C0009DFB002E40CF3FF47CAFD0F802000643BA
:1030D000FEF7BAFFB7E601308047B4E600B5002B33
:1030E0000CD0013B47F8046D1E0057F82660FEF730
:1030F000CBFC002BF5D1043D2F0040CF00252560EF
:1031000000BD5C3100000000047175697400DFF8D7
:1031100044D00A4F10480A2101600B480021016089
:10312000084800210160FEF76FF9FFF78BFEFEF7FC
:1031300027FA05206F6B2E0AF5E700003802002001
:1031400038010020140000200C000020003E000088
:103150000006B6F138030020100000206C3100009A
:1031600020000465696E740062B670477C3100000F
:1031700020000464696E740072B6704788310000E4
:103180000000036E6F707047B231000081000B6960
:1031900072712D7379737469636B47F8046DA44E73
:1031A0007047863100004FF6FC70C2F201000068E3
:1031B0008746DA3100008100096972712D657874E3
:1031C000693047F8046D9B4E7047863100004FF61A
:1031D000F870C2F2010000688746023200008100E8
:1031E000096972712D657874693147F8046D924EE2
:1031F0007047863100004FF6F470C2F2010000689B
:1032000087462A3200008100096972712D65787441
:10321000693247F8046D894E7047863100004FF6D9
:10322000F070C2F20100006887465232000081004F
:10323000096972712D657874693347F8046D804EA1
:103240007047863100004FF6EC70C2F20100006852
:1032500087467A3200008100096972712D657874A1
:10326000693447F8046D774E7047863100004FF699
:10327000E870C2F2010000688746A03200008100B9
:10328000076972712D61646347F8046D6E4E704773
:10329000863100004FF6E470C2F2010000688746F4
:1032A000C83200008100086972712D74696D3200A6
:1032B00047F8046D654E7047863100004FF6E070A8
:1032C000C2F2010000688746F03200008100086900
:1032D00072712D74696D330047F8046D5C4E704750
:1032E000863100004FF6DC70C2F2010000688746AC
:1032F000183300008100086972712D74696D340003
:1033000047F8046D534E7047863100004FF6D87071
:10331000C2F201000068874600400000FFFF182D40
:103320002D2D20466C6173682044696374696F6E4B
:10333000617279202D2D2D00FEF704F8464F2A26C4
:103340004648474901604748474901604648474D5C
:10335000040002680430018802304FF6FF7399427E
:1033600015D080230B4012D00F23194089006D1A0D
:10337000FFF738F8FEF74FFC47F8046D060047F8F2
:10338000046D2E0047F8046D0E00FDF72BFCB2F122
:10339000FF3F05D0100006321278FF2A00D0D7E791
:1033A000334804603348056033483449344A88421E
:1033B00004D0023803889342F9D0023031490860C2
:1033C000FEF7DEF8354D6563726973702D537465D1
:1033D0006C6C6172697320312E3120666F722053DC
:1033E000544D333246343037206279204D61747445
:1033F00068696173204B6F63680A23480A21016082
:10340000224800210160224800210160214847F83C
:10341000046D0600FEF7F5FF40CF002E02D0FEF748
:103420008EFC80E640CF72E604696E69740000008D
:10343000FCFF0120F8FF0120F4FF0120F0FF012034
:10344000ECFF0120E8FF0120E4FF0120E0FF012064
:10345000DCFF0120D8FF01203802002004000020FA
:103460000004002008000020DC0000000000022012
:10347000240000202C00002000001000004000006C
:10348000FFFF000020000020100000200C000020A2
:083490001400002028340000A4
:0400000508000000EF
:00000001FF
