:020000040800F2
:1000000030030020133A000053380000533800003A
:10001000533800005338000053380000000000003F
:100020000000000000000000000000008138000017
:100030008138000000000000813800002B380000EB
:1000400081380000813800008138000081380000CC
:100050008138000081380000A9380000D138000044
:10006000F9380000213900004939000081380000CA
:10007000813800008138000081380000813800009C
:1000800081380000813800006F390000813800009D
:10009000813800008138000081380000813800007C
:1000A000813800008138000081380000813800006C
:1000B00097390000BF390000E7390000813800009F
:1000C000813800008138000081380000813800004C
:1000D000813800008138000081380000813800003C
:1000E000813800008138000081380000813800002C
:1000F000813800008138000081380000813800001C
:10010000813800008138000081380000813800000B
:1001100081380000813800008138000081380000FB
:1001200081380000813800008138000081380000EB
:1001300081380000813800008138000081380000DB
:1001400081380000813800008138000081380000CB
:1001500081380000813800008138000081380000BB
:1001600081380000813800008138000081380000AB
:10017000813800008138000081380000813800009B
:100180008138000081380000AE010000FFFF1E2D05
:100190002D2D204D6563726973702D5374656C6CE1
:1001A0006172697320436F7265202D2D2D00C60189
:1001B00000004200043264757000386847F8046D2E
:1001C000043F38607047D801000062000532647255
:1001D0006F70043740CF7047F601000044000532CD
:1001E0007377617007CF043F386047F8046D043FB0
:1001F0003A600E0070470A020000620004326E6925
:10020000700007CF043F38607047240200004400AC
:1002100005326F766572B86847F8046D043F386040
:10022000FE68704748020000440005327475636B35
:1002300007CF043F386047F8046D043F3A60043F3D
:100240003960043F386070476A020000460004329B
:10025000726F74003868B9683A69B86039613A6099
:1002600079687E60FE68F96070478C020000460085
:1002700005322D726F743868B9683A69386139602F
:10028000BA60F968FE607E6879607047A00200007D
:10029000200003323E7201CF01B440B440CF70471A
:1002A000B802000020000332723E47F8046D40BCE3
:1002B00001BC043F38607047D002000020000332C8
:1002C000724047F8046D019E47F8046D009E704728
:1002D000E2020000200006327264726F700002B009
:1002E0007047FA02000042000364322F3868F107B9
:1002F000761040080843386070470E030000620023
:100300000364322A38680018764138607047280341
:10031000000042000464736872003868F1077608D0
:1003200040080843386070473E03000062000464E0
:1003300073686C0038680018764138607047500365
:1003400000004200046461627300002E14D4704700
:100350006A0300004300083F646E656761746500CE
:10036000300040CF002807D47047880300004200C7
:1003700007646E656761746538680021C043F643A1
:1003800001304E4138607047A003000064000264F1
:100390002D0007CF121AB1410E00043F3A6070479A
:1003A000B6030000640002642B0007CF12184E4110
:1003B000043F3A607047C8030000610003733E6465
:1003C00047F8046DF6177047DC0300006200037500
:1003D0006D2A3868A0FB060638607047F0030000FD
:1003E0006200026D2A00386880FB0606386070479C
:1003F0002E04000044000375642A07CF564341438E
:100400007618010C130C59437618010C80B292B285
:100410005143434350430022C91852411204B618B5
:100420000A04090C80184E41043F38607047C0042C
:10043000000044000475646D2A0010B5002447F8DC
:10044000046D7E6847F8046D3E69FFF7C2FF310016
:1004500040CF300040CF47F8046D3E6847F8046D48
:10046000FE6803B4FFF7B5FF03BC330040CF320092
:1004700040CF47F8046D3E6847F8046D3E690FB4FD
:10048000FFF7A7FF0FBC9219634140CF8919624162
:10049000634140CF47F8046D7E6847F8046DFE68FD
:1004A0000FB4FFF796FF0FBC9219634140CF891933
:1004B0006241634140CF1E003A607960B86010BD70
:1004C000E20400004300022A2F0000B540B440CFF0
:1004D000FFF789FF47F8046D40BC00F04CF8043783
:1004E00000BD040500004300052A2F6D6F6400B5B0
:1004F00040B440CFFFF777FF47F8046D40BC00F0F1
:100500003AF800BD26050000430003752A2F00B508
:1005100040B440CFFFF75DFF47F8046D40BC00F0EA
:100520001BF8043700BD4A050000430006752A2F5A
:100530006D6F640000B540B440CFFFF74AFF47F845
:10054000046D40BC00F008F800BD6A0500004300DF
:1005500006756D2F6D6F640000B547F8046D0026B9
:1005600000F019F840CF043700BD880500004300B3
:10057000056D2F6D6F6400B547F8046DF61700F038
:1005800032F840CF043700BDDA050000440006759C
:10059000642F6D6F640030B4002300227968B8685E
:1005A00035003C6840264000494152415B41AB4226
:1005B00002D804D3A24202D3121BAB410130013E48
:1005C000F1D10E0038607B60BA6030BC704730B447
:1005D00000237A68B9680020E2E750060000440072
:1005E00005642F6D6F6400B5F01719D0FFF7C4FED6
:1005F000FFF7F8FDF0170CD0FFF7BEFEFFF7F2FD96
:10060000FFF7C9FFFFF7EEFDFFF7B6FEFFF7EAFDC4
:1006100000BDFFF7E7FDFFF7BEFFFFF7ADFE00BD32
:10062000FFF7E0FDF0170ED0FFF7A6FEFFF7DAFDAB
:10063000FFF7B1FFFFF7A0FEFFF7D4FDFFF79CFE29
:10064000FFF7D0FD00BDFFF7CDFDFFF7A4FF00BD14
:1006500066060000440002642F0000B5FFF7C3FFE8
:10066000FFF7CFFD00BDAE060000440002662A0081
:1006700000B5F0170DD0FFF77FFEFFF7B3FDF017C1
:100680000DD0FFF779FEFFF7D8FE40CF01CF3860DD
:1006900000BDFFF7A7FDF017F5D0FFF76DFEFFF7E0
:1006A000CCFE40CF01CF3860FFF766FE00BDFA06F2
:1006B0000000440002662F0000B5F0170ED0FFF7CF
:1006C0005BFEFFF78FFDF0170ED0FFF755FEFFF72B
:1006D00089FDFFF77CFFFFF794FD00BDFFF782FD6A
:1006E000F017F4D0FFF748FEFFF77CFDFFF76FFF30
:1006F000FFF742FEFFF785FD00BD0E07000020005A
:100700000232210006CF3160726040CF704722076D
:100710000000200002324000043F706838603668F4
:1007200070474207000044000364753C07CF8E42C7
:1007300004D801D1904201D8002670470026F64324
:1007400070476207000044000364753E07CFB14262
:1007500004D801D1824201D8002670470026F64312
:10076000704782070000440002643C0007CF8E42BD
:1007700004DC01D1904201DC002670470026F643DC
:100780007047A2070000440002643E0007CFB14258
:1007900004DC01D1824201DC002670470026F643CA
:1007A0007047B207000062000364303C0437F6175C
:1007B0007047CC07000042000364303D01CF0028A1
:1007C00001D000267047013EB6417047E6070000A1
:1007D000440003643C3E07CF904201D1761A01D019
:1007E0000026F643704702080000440002643D0002
:1007F00007CF904201D000267047761A013EB641DD
:1008000070471408000020000373704047F8046D1F
:100810003E00704724080000200003737021370059
:1008200040CF70473608000020000372704047F840
:10083000046D6E4670474608000020000372702168
:10084000B54640CF704756080000610003647570DC
:1008500047F8046D70476608000061000464726F19
:10086000700040CF70477C0800006100043F647551
:100870007000002E01D047F8046D7047900800000A
:10088000620004737761700039683E600E00704743
:100890009E0800006200036E697004377047B2085A
:1008A00000006200046F7665720047F8046D7E6890
:1008B0007047C80800006200047475636B0001CFC4
:1008C000083F7E6038607047DE08000063000372F6
:1008D0006F7403CF083F78603E600E007047F608E3
:1008E00000006300042D726F740003CF083F7E6028
:1008F0003960060070470809000020000470696331
:100900006B0057F82660704720090000000005645E
:1009100065707468C049C91B47F8046D8E0870473C
:100920003C0900000000067264657074680047F8B6
:10093000046D6E46B949891B8E0870474C0900004A
:100940002000023E720040B440CF70475E090000B4
:10095000200002723E0047F8046D40BC70477009E9
:10096000000020000272400047F8046D009E7047AE
:10097000800900002000057264726F7001B070473A
:1009800094090000200005727069636BB6006E4424
:1009900036687047AA09000060000474727565002B
:1009A00047F8046D0026F6437047BE09000060005A
:1009B0000566616C736547F8046D00267047D409BD
:1009C00000006E0003616E6401CF06407047064070
:1009D000000616F0EC0900006E000362696301CFA7
:1009E000B043060070478643000636F0020A000056
:1009F0006E00026F720001CF064370470643000687
:100A000056F0180A00006E0003786F7201CF46405E
:100A100070474640000696F0260A00006100036E0B
:100A20006F74F6437047360A0000610003636C7A06
:100A3000B6FA86F67047440A0000610003736872D4
:100A400076087047520A000061000373686C7600F4
:100A50007047620A0000610003726F725FEA7606F7
:100A60007047740A0000610003726F6CB61956F18A
:100A7000000670478E0A00006C0006727368696693
:100A8000740001CFF0400600704736080026A80A1F
:100A900000006C00076172736869667401CF3041B1
:100AA000060070473610F617C20A00006C00066C8C
:100AB00073686966740001CFB04006007047360065
:100AC0000026D20A0000610002303D00013EB6411E
:100AD0007047E40A0000610003303C3E013EB6412D
:100AE000F6437047F20A0000610002303C00F6173E
:100AF00070470A0B00004200023E3D0001CFB042A9
:100B0000B4BF00264FF0FF367047220B00004200B2
:100B1000023C3D0001CFB042CCBF00264FF0FF3673
:100B20007047380B00004200013C01CFB042B4BF17
:100B30004FF0FF36002670474E0B00004200013E8A
:100B400001CFB042CCBF4FF0FF3600267047620B9A
:100B50000000620003753E3D01CF861BB641F6439F
:100B60007047760B0000620003753C3D01CF361ADA
:100B7000B641F6437047880B0000620002753C00E6
:100B800001CF861BB64170479A0B000062000275C8
:100B90003E0001CF361AB6417047B00B00006B0023
:100BA000023C3E0001CF361A18BF4FF0FF367047A7
:100BB000C20B00006B00013D01CF361A013EB64169
:100BC0007047D60B00006200036D696E01CFB04222
:100BD000B8BF06467047EA0B00006200036D6178FB
:100BE00001CFB042C8BF06467047000C000062004B
:100BF00004756D61780001CFB04288BF064670472A
:100C0000200C0000620004756D696E0001CFB042D7
:100C100038BF064670470000300200203003002035
:100C20005E0C00000000046D6F76650007B53100B2
:100C300040CF320040CF00290FD0B2420DD006D3B2
:100C4000013E013A705C50540139FBD105E0307827
:100C50001070013601320139F9D140CF07BD800C47
:100C6000000000000466696C6C00300040CF310069
:100C700040CF002902D001397054FCD140CF7047D9
:100C80008C0C00002000014036687047A40C000066
:100C90006D00012103CF30600E0070470660704781
:100CA00001607047CA0C00006D00022B210003CFC9
:100CB0003268121832600E007047026892190260A2
:100CC00070470268521802607047D80C000020007C
:100CD0000268400036887047F20C00006D00026820
:100CE000210003CF30800E007047068070470180DE
:100CF0007047180D00006D0003682B2103CF328868
:100D0000121832800E0070470288921902807047D4
:100D10000288521802807047260D000020000263EE
:100D2000400036787047400D00006D0002632100DE
:100D300003CF30700E007047067070470170704727
:100D4000660D00006D0003632B2103CF327812186B
:100D500032700E0070470278921902707047027864
:100D60005218027070478E0D00006D0004626973A6
:100D7000210003CF3268024332600E0070470268E0
:100D800032430260704702680A4302607047B60D42
:100D900000006D0004626963210003CF3268824362
:100DA00032600E0070470268B2430260704702680A
:100DB0008A4302607047DE0D00006D0004786F7298
:100DC000210003CF3268424032600E007047026853
:100DD00072400260704702684A40026070474A0EE3
:100DE0000000680004626974400001CF3668064064
:100DF00018BF4FF0FF367047DFF8802400B5012B95
:100E00000AD147F8046D002600F0A0FF47F8046DF2
:100E1000160001F0F5FA11E002CF013B02F057FC99
:100E200047F8046D3626164301F0EAFA47F8046DD8
:100E30000E0047F8046D002600F088FF47F8046DA7
:100E4000DFF83C6401F0B9F800BD720E00006D00DF
:100E500005686269732103CF3288024332800E0035
:100E60007047028832430280704702880A4302803A
:100E700070479A0E00006D0005686269632103CF18
:100E80003288824332800E0070470288B24302806B
:100E9000704702888A4302807047C20E00006D00CE
:100EA0000568786F722103CF3288424032800E008D
:100EB0007047028872400280704702884A40028070
:100EC0007047E00E0000680005686269744001CF59
:100ED0003688064018BF4FF0FF367047E94A8DE765
:100EE000080F00006D0005636269732103CF32783B
:100EF000024332700E00704702783243027070472E
:100F000002780A4302707047300F00006D000563DD
:100F10006269632103CF3278824332700E007047DA
:100F20000278B2430270704702788A4302707047B9
:100F3000580F00006D000563786F722103CF32787F
:100F4000424032700E007047027872400270704763
:100F500002784A4002707047760F0000680005630F
:100F60006269744001CF3678064018BF4FF0FF36F3
:100F70007047C54A42E7860F000061000563656C53
:100F80006C2B04367047960F000061000563656C9A
:100F90006C73B60070472A10000000000768666C8A
:100FA00061736821300040CF310040CFB74B984289
:100FB00021D3B74B98421ED2B64B1940994219D053
:100FC00010F00102002A16D102889A4213D110F1C2
:100FD0000060B14AB14B1360B14B1360B14AB24BE0
:100FE00013600180B14A136813F48033FBD1AD4A1A
:100FF000AF4B1360704700F0AEFC2A57726F6E67FC
:101000002061646472657373206F7220646174611F
:1010100020666F722077726974696E6720666C61F2
:10102000736820210A0002F079BB821000000000E2
:101030000763666C61736821300040CF310040CF98
:10104000924B9842D7D3924B9842D4D211F0FF01E1
:10105000FF2915D00278FF2ACDD110F100608E4A09
:101060008E4B13608E4B13608E4A924B136001704F
:101070008E4A136813F48033FBD18A4A8C4B136079
:101080007047F81000000000106572617365666CAF
:10109000617368736563746F720000B5012E29D3A4
:1010A0000C2E27D27C4A7D4B13607D4B136000F0E1
:1010B00052FC0D457261736520736563746F722015
:1010C00047F8046D02F080F9764A7B4BF600334313
:1010D0001360764A136813F48033FBD1714A744B62
:1010E000136000F038FC0C66726F6D20466C617303
:1010F000682E0A0040CF00BD1413000000000A65EE
:1011000072617365666C6173680072B600B56B4896
:101110006B490268B2F1FF3F05D047F8046D012624
:10112000FFF7BBFF02E004308842F2D3654866490E
:101130000268B2F1FF3F05D047F8046D0226FFF7C1
:10114000ACFF02E004308842F2D360486049026894
:10115000B2F1FF3F05D047F8046D0326FFF79DFF6E
:1011600002E004308842F2D35A485B490268B2F187
:10117000FF3F05D047F8046D0426FFF78EFF02E01D
:1011800004308842F2D3554855490268B2F1FF3F16
:1011900005D047F8046D0526FFF77FFF02E0043015
:1011A0008842F2D34F4850490268B2F1FF3F05D060
:1011B00047F8046D0626FFF770FF02E0043088420E
:1011C000F2D34A484A490268B2F1FF3F05D047F8D6
:1011D000046D0726FFF761FF02E004308842F2D376
:1011E000444845490268B2F1FF3F05D047F8046D15
:1011F0000826FFF752FF02E004308842F2D33F484E
:101200003F490268B2F1FF3F05D047F8046D092657
:10121000FFF743FF02E004308842F2D339483A49ED
:101220000268B2F1FF3F05D047F8046D0A26FFF7C8
:1012300034FF02E004308842F2D334483449026873
:10124000B2F1FF3F05D047F8046D0B26FFF725FFED
:1012500002E004308842F2D300F07DFB1246696E52
:1012600069736865642E20526573657420210A00D5
:101270005DF804EB62B602F0CEBB0000006800002F
:10128000EE0D000000880000007800000040000023
:1012900000001000FFFF0000043C024023016745EE
:1012A000AB89EFCD103C0240010100000C3C024034
:1012B0000000008001000000020001000040000862
:1012C000FF7F000800800008FFBF000800C0000882
:1012D000FFFF000800000108FFFF010800000208EE
:1012E000FFFF030800000408FFFF050800000608D0
:1012F000FFFF070800000808FFFF090800000A08B0
:10130000FFFF0B0800000C08FFFF0D0800000E088F
:10131000FFFF0F082A1300006900012B01CF3618C8
:10132000704736180036000616F1401300006900B9
:10133000012D01CF861B7047361A003E0006B6F11C
:101340004E130000610002312D00013E70475C1316
:101350000000610002312B00013670476A13000063
:10136000610002322D00023E7047781300006100D8
:1013700002322B00023670478A1300006100066EAD
:10138000656761746500764270479E1300006100D6
:1013900003616273002E48BFD6F100067047BC138C
:1013A0000000420005752F6D6F6401CF3100B0FB66
:1013B000F6F67143401A043F38607047DA130000B4
:1013C0004200042F6D6F640001CF310090FBF6F6F0
:1013D0007143401A043F38607047EE13000042002A
:1013E000036D6F6400B5FFF7EFFF40CF00BDFE1344
:1013F00000006200012F01CF90FBF6F670470E143B
:1014000000006A00012A01CF4643704746431C147E
:101410000000610002322A00760070472A140000A2
:10142000610002322F00761070473E140000610008
:10143000046576656E0001203040361870475614FA
:101440000000810004626173650047F8046D8F4EEF
:1014500070470A0000006C14000000000662696E0C
:10146000617279008948022101607047821400008E
:10147000000007646563696D616C84480A2101603E
:101480007047941400000000036865787F481021BD
:1014900001607047B0140000810009686F6F6B2D08
:1014A000656D697447F8046D794E70479A150000B0
:1014B000CC140000810008686F6F6B2D6B6579009C
:1014C00047F8046D734E7047C0150000EA14000021
:1014D00081000A686F6F6B2D656D69743F0047F876
:1014E000046D6D4E7047EA1500000615000081007E
:1014F00009686F6F6B2D6B65793F47F8046D674E18
:101500007047161600002415000081000A686F6FEE
:101510006B2D70617573650047F8046D604E704700
:10152000C83700003A150000000004656D697400BA
:101530000FB5574800F026F80FBD4E15000000000B
:10154000036B65790FB5534800F01CF80FBD6015AB
:101550000000000005656D69743F4F4800688746CC
:10156000721500000000046B65793F004B4800686D
:10157000874688150000000005706175736548484E
:101580000068874600688746AE15000000000B73B0
:10159000657269616C2D656D697400B500F025F8A0
:1015A000002E40CFFAD03F4A167040CF00BDD6156E
:1015B000000000000A73657269616C2D6B6579002B
:1015C00000B500F028F8002E40CFFAD047F8046D9F
:1015D000344A167800BD0416000000000C736572D2
:1015E00069616C2D656D69743F0000B5FFF7C7FF39
:1015F00047F8046D00262C4801688020014000D087
:10160000F64300BDDC16000000000B7365726961D3
:101610006C2D6B65793F00B5FFF7B1FF47F8046D9E
:101620000026214801682020014000D0F64300BD7B
:101630001E494FF480300860086810F40030FBD079
:101640001B494FF0010008601849086820F00100AC
:10165000086070471749184808601849086850F032
:10166000A000086016491748086017491748086025
:10167000174946200860174917480860704700B5A9
:10168000FFF7D6FFFFF7E6FF00BD0000FCFF0120DB
:10169000F8FF0120F4FF0120F0FF0120ECFF012002
:1016A000E8FF0120044400400044004000380240AC
:1016B0000838024030380240FF01100000000240AC
:1016C0002000024000770000403802400000020085
:1016D000084400400C4400400C20000000170000AB
:1016E0000000076365787065637400B5386801B4FD
:1016F0000130386000F00BF801BC067040CF00BD2F
:10170000721700000000066163636570740000B525
:1017100002CF01390022FFF715FF300040CF20280B
:1017200019D2092816D00A281FD00D281DD0082844
:10173000F1D1002AEFD000F00EF903082008002AAA
:10174000E9D0885C013A80230340E4D04023034081
:10175000F5D0E0E72020B242DDD247F8046D060064
:10176000FFF7E6FE01328854D5E7160000F0A2F834
:1017700000BD8417000040000374696247F8046DDF
:10178000294E70479A1700008100033E696E47F8A2
:10179000046D264E704700000000C0170000820054
:1017A0000E63757272656E742D736F75726365006A
:1017B00047F8046D1E4E70470000000068000020CE
:1017C000DC170000000009736574736F7572636540
:1017D000174802CF0660416040CF7047FA170000FB
:1017E000000006736F757263650047F8046D104E54
:1017F000043F706838603668704734180000000095
:101800000571756572790FB5084800210160FFF711
:10181000B5FF47F8046D47F8046DC826FFF777FF5A
:10182000FFF7D6FF0FBD000068000020E4FF012095
:10183000DCFF012082180000000007636F6D7061FB
:1018400072650FB5310040CF01CF884202D040CF42
:1018500000260FBD02CF002810D001380A5C335C8F
:10186000412A02D35B2A38BF2032412B02D35B2BA3
:1018700038BF20339A42EED000260FBD0026F64333
:101880000FBD9618000000000263720000B500F062
:1018900062F8010A00BDA8180000000002626C0096
:1018A00047F8046D20267047BC180000000005733F
:1018B0007061636547F8046D202639E6DC18000086
:1018C0000000067370616365730000B5002E03DDD0
:1018D000FFF7F0FF013EFBD140CF00BDEC18000048
:1018E0005000065B636861725D0005E0041900004A
:1018F000000004636861720000B501F089FB40CF0D
:10190000367800BD141900005000012847F8046D16
:10191000292606E02E1900005000015C47F8046DEE
:10192000002600B501F07EFB043740CF00BD7219E0
:1019300000001000022E22009C4800B547F8046DFC
:10194000060000F060FA47F8046D222601F06AFBF9
:1019500000F08EFD00BD0AB447F8046D7646013EE6
:1019600033780121013319405B181EEB030E0ABCCA
:1019700039E0981900001000026322008C48DCE76F
:1019800047F8046D7646013E337801210133194052
:101990005B181EEB030E7047C219000010000273A3
:1019A00022008448C9E747F8046D764647F8046D7D
:1019B000013E36780121731C19405B181EEB030EA3
:1019C0007047DA190000000005636F756E74013608
:1019D00047F8046D013E36787047021A0000000097
:1019E00005637479706501B53078002807D0013639
:1019F00047F8046D3678FFF79BFD0138F7D140CFEB
:101A000001BD301A000000000474797065003100D7
:101A100040CF300040CF00B5002908D0002247F861
:101A2000046D865CFFF784FD01329142F7D100BD61
:101A3000681A00000000046865782E0003B53100C4
:101A400040CF2020043847F8046D31FA00F616F034
:101A50000F06092E8CBF37363036FFF769FD002898
:101A6000F0D1FFF727FF03BD781A000000000368DC
:101A70002E731FB5504C0EE0881A0000000003754D
:101A80002E731FB54D4C06E0061B00000000022E11
:101A900073001FB54A4C4B49C91B89084A4A106854
:101AA00003B40A201060FFF756FF08537461636B9C
:101AB0003A205B0047F8046D0E0001F08DFCFFF743
:101AC0004AFF025D200003BC3F4A106000290AD093
:101AD0003E4A106806B447F8046D0600A04706BCED
:101AE000043A0139F5D1FFF736FF0620544F533A37
:101AF000200047F8046D3600A047FFF72CFF0420B4
:101B00002A3E0A001FBDD01B0000000005776F723F
:101B1000647300B5FFF71FFF06776F7264730A00E6
:101B200000F0E7FEFFF717FF094164647265737305
:101B30003A2047F8046DFFF781FFFFF70CFF064CD2
:101B4000696E6B3A200047F8046D3668FFF776FF40
:101B5000FFF701FF07466C6167733A2047F8046D91
:101B6000B688FFF76BFFFFF7F6FE06436F64653A32
:101B70002000B01D00F0F6FE47F8046D0600FFF7E8
:101B80005DFFFFF7E8FE064E616D653A200047F8FD
:101B9000046D0636FFF727FFFFF7DDFE010A00F0B0
:101BA000BFFE300040CFBDD040CF00BD5619000071
:101BB00080190000A61900003D1A0000C93300007A
:101BC000D933000030020020FCFF01202C0200204D
:101BD000341D000000000D3132626974656E636F60
:101BE00064696E670FB5FF2E04D847F8046D5FF087
:101BF000FF360FBD16F0FF10B0420ED14FF6FF7149
:101C00000840310C814208D116F0FF0656F4805688
:101C100047F8046D5FF0FF360FBD16F0FF20B042AD
:101C20000FD14FF6FF710840310C814209D1360ABD
:101C300016F0FF0656F4005647F8046D5FF0FF36C5
:101C40000FBDFF2231001140300A1040884210D1F0
:101C5000300C104088420CD1300E1040884208D120
:101C600016F0FF0656F4405647F8046D5FF0FF3655
:101C70000FBD300000210131001850F100007FF04D
:101C80007F020240802A05D01F29F4D347F8046D53
:101C900000260FBD0829F9D3060036F0800611F0A2
:101CA0000100C001064311F00E00C002064311F00E
:101CB00010008005064347F8046D5FF0FF360FBD46
:101CC00047F8046DDFF840665FF4704110EA0102E6
:101CD000120116435FF4006110EA0102D2031643B9
:101CE0005FF4E06110EA010212011643FF2110EADD
:101CF000010216431E43ABE347F8046DDFF80C66A0
:101D00005FF0704110EA0102120B16435FF00061B0
:101D100010EA0102520816435FF0E06110EA010286
:101D2000120B16435FF47F0110EA0102120C1643F6
:101D30001E438DE39A1D00000000107265676973F1
:101D40007465726C69746572616C2C000FB5330038
:101D500040CF1B02FF2E05D856F400561E4300F05C
:101D60004FFB0FBDFFF73EFF002E40CF06D0DFF840
:101D7000A00506431E4300F06BFB0FBDF643FFF7C3
:101D800031FF002E40CF06D0DFF8880506431E4302
:101D900000F05EFB0FBDF6430BE0FA1D00000000F3
:101DA000096D6F76776D6F76742C0FB5330040CF69
:101DB0001B02300040CFFFF783FF4FF6FF7110EAA0
:101DC000014001D0FFF798FF0FBD0FB5013630007D
:101DD00040CF0023FFF774FFFFF78EFF06E00FB53B
:101DE000013647F8046D0026FFF7B0FF47F8046D91
:101DF00044F2807600F004FB0FBD601E000000007E
:101E00000563616C6C2C0FB5330000F043FE3000AD
:101E100040CF1B1A043BDFF800151940002906D0FB
:101E2000DFF8F824914202D0BDE80F40D7E740CF59
:101E30005B08DFF8EC0440F2FF7119400843DB0A4D
:101E400040F2FF311940090408439B0A13F00101D5
:101E50008906084347F8046D060000F0F9FA0FBD43
:101E6000961E00000000086C69746572616C2C009D
:101E700008B547F8046D4FF6470600F0C1FA47F879
:101E8000046D46F6045600F0BBFA47F8046D0626CA
:101E9000FFF75CFF08BDBA1E000000000663726514
:101EA0006174650000B500F033F841F6D7608047F3
:101EB00047F8046DBEF1010600BD021F00002000BE
:101EC00005646F65733E41F6D760804747F8046D3F
:101ED000BEF10106704747F8046DBEF10106DFF858
:101EE00044241368DFF8401409680220084000D039
:101EF000023102311160FFF768FF136000F0BAF998
:101F000000BD441F00000000073C6275696C6473EB
:101F100000B500F077FB00F0BDFD0220064040CF89
:101F200004D047F8046D362600F06AFA47F8046DCD
:101F30004BF2005600F064FA47F8046D0A2600F0F0
:101F4000CAFA00BD501F00005000035B275D03E08C
:101F5000661F00000000012700B501F059F800F0ED
:101F60003FFD40CF00BDAC1F0000100008706F7334
:101F700074706F6E650000B501F04AF800F030FD36
:101F8000300040CF102101400DD12021014005D06B
:101F9000FFF76EFF47F8046DE44E04E0FFF768FFBB
:101FA00047F8046DE24EFFF72EFF00BD022000004F
:101FB000000007696E6C696E652C00B54BF200512C
:101FC0004BF6005244F270733088884208D0904239
:101FD00008D0984206D047F8046D060000F010FAC9
:101FE0000236F1E740CF00BD0EB44BF6005244F28A
:101FF000707301880230914201D09942F9D10EBC30
:102000007047182000000000047265742C0047F827
:10201000046D4BF60056F3E1262000003000046505
:1020200078697400F3E73E200000300007726563B2
:102030007572736547F8046DBB4E3668E3E656204B
:102040000000810005737461746547F8046DB94E32
:10205000704700000000682000000000015DB548E6
:102060000021C94301607047782000001000015B27
:10207000B048002101607047A02000000000013A34
:1020800000B5AD48076000F0BDFA47F8046D4BF2AB
:10209000005600F0B5F9A7480021C943016000BD12
:1020A000E82000003000013B00B5A3480168B942B8
:1020B0000ED0FFF750FC1520537461636B206E6FD8
:1020C000742062616C616E6365642E0A01F026BB48
:1020D00047F8046D4BF6005600F092F900F0CAF88C
:1020E00094480021016000BDFC200000000007654D
:1020F000786563757465300040CF87461421000011
:10210000100009696D6D65646961746547F8046D57
:102110001026DFE02A210000100006696E6C696E4F
:10212000650047F8046D2026D4E04421000010002B
:102130000B636F6D70696C656F6E6C7947F8046D39
:102140003026C7E05E21000010000A302D666F6C5B
:102150006461626C650047F8046D4026BAE078213E
:10216000000010000A312D666F6C6461626C6500BE
:1021700047F8046D4126ADE09221000010000A32BC
:102180002D666F6C6461626C650047F8046D4226D1
:10219000A0E0AC21000010000A332D666F6C646172
:1021A000626C650047F8046D432693E0C621000089
:1021B00010000A342D666F6C6461626C650047F82C
:1021C000046D442686E0E021000010000A352D66EB
:1021D0006F6C6461626C650047F8046D452679E0B8
:1021E000FA21000010000A362D666F6C6461626C83
:1021F000650047F8046D46266CE0142200001000CC
:102200000A372D666F6C6461626C650047F8046D77
:1022100047265FE044220000000008636F6E73747D
:10222000616E740000B500F0EDF9FFF721FE47F88C
:10223000046D44F2707600F0E3F8FFF78CFF00F0D5
:1022400019F800BD6622000000000932636F6E734A
:1022500074616E7400B500F0D5F939683E600E46C1
:10226000FFF706FEE1E7C4220000000006736D756B
:102270006467650000B52B4801682A4A914280F0E6
:102280001B8002390A882D4B9A4204D147F8046D0D
:102290002B4E00F0B5F800F086F82A48006847F8A1
:1022A000046D06002849096804311E4A136811604C
:1022B00000F0A6F8136000BD00F075F847F8046D53
:1022C000002608E04C230000000008736574666C6B
:1022D0006167730000B513480168124A914280F0AB
:1022E0000680184801683143016040CF00BD3200CC
:1022F00040CF1548006804300188104B99420CBF4C
:1023000011461143018000BD000040F20000C0F200
:1023100000005FF000007FF00100C0FF0000C0FF80
:1023200000F800F00000002014000020BA1F000098
:10233000061E0000D8FF012010000020FFFF000053
:102340000000000020000020040000205A230000AC
:10235000000005616C69676E25E07623000041008E
:1023600007616C69676E6564012030403618022091
:1023700030403618704798230000000006616C69F1
:10238000676E2C00954801680120014003D047F892
:10239000046D00261AE07047C223000000000761A8
:1023A0006C69676E342C00B5FFF7ECFF8B48016851
:1023B0000220014004D047F8046D002600F020F808
:1023C00000BDF6230000000002632C0000B5834826
:1023D0000168824A914205D247F8046D0E00FEF76B
:1023E0002BFE02E0320040CF0A7047F8046D012650
:1023F00000F071F800BD2C240000000002682C00E1
:102400000FB576480168754A914280F0068047F81A
:10241000046D0E00FEF7C6FD02E0320040CF0A80D8
:1024200047F8046D022600F056F80FBD4624000060
:102430000000012C00B547F8046DFFF7E1FF360CF2
:10244000FFF7DEFF00BD622400000000033E3C2CCD
:1024500000B547F8046D360CFFF7D2FFFFF7D0FF49
:1024600000BDCA240000000007737472696E672CF7
:1024700007B5FF21314040CF300040CF002905D1C2
:1024800047F8046D0026FFF7BBFF07BD47F8046D52
:10249000067836020E43FFF7B3FF013001390229F7
:1024A0000AD347F8046D4678360202781643FFF7E0
:1024B000A7FF02300239F2E7002900D107BD47F833
:1024C000046D0678FFF79CFF07BD2425000000007F
:1024D00005616C6C6F7441480168404A91420FD2AB
:1024E000320040CF89183E4A914219D3FFF733FAA0
:1024F0000B466C6173682066756C6C0A01F00EB94E
:10250000320040CF8918374A1268914208D3FFF74A
:1025100022FA0952616D2066756C6C0A01F0FEB8F2
:10252000016070474C25000000000D636F6D7069FD
:102530006C65746F72616D3F47F8046D0026274823
:1025400000682649884248D3F64370476C2500004E
:1025500000000C636F6D70696C65746F72616D0063
:102560001E4800681D49884211D37047F4250000B9
:1025700000000E636F6D70696C65746F666C6173DB
:102580006800164800681549884200D2704716480E
:10259000164902680B680A60036010481449026813
:1025A0000B680A6003600F480068834215D300B5CA
:1025B000FFF7D1F923205661726961626C6573205F
:1025C000636F6C6C69646520776974682064696303
:1025D00074696F6E6172790A00BD70470000002057
:1025E0000000100024000020040000201C00002037
:1025F00018000020E42600000000082863726561CE
:102600007465290000B500F003FD002E0ED1FFF720
:10261000A2F91520437265617465206E6565647367
:10262000206E616D6520210A01F078B8386847F89E
:10263000046D043F386000F0A4F940CF002E40CF75
:1026400011D0386847F8046D043F3860FFF783F90C
:10265000095265646566696E6520FFF7D8F9FFF772
:102660007AF9022E0A00FFF78DFEFFF79CFE00F0BC
:1026700011FA904800688F49884280F01D808E488A
:102680000021016047F8046D0626FFF724FFFEF7DE
:102690002CF9FFF7EDFE894801680A68884B9A42D9
:1026A00007D1844A1368116047F8046DFFF7C2FE32
:1026B0001360066040CF10E0804847F8046D06685C
:1026C000FFF7B8FE47F8046D7E4EFFF799FE7B4892
:1026D000310040CF0160FFF7CBFE764801687A48B1
:1026E000016000BDFC26000000000876617269618F
:1026F000626C650047F8046D012613E014270000A2
:10270000000009327661726961626C6547F8046D98
:10271000022607E0F02700000000096E766172696A
:1027200061626C6500B5FFF76DFF62480168614A40
:10273000914280F035800F200640B2006348016866
:10274000891A634A91420BD2FFF705F90F4E6F7455
:1027500020656E6F7567682052414D0A00F0DEBF3C
:10276000016047F8046D0E00FFF782FB47F8046D27
:1027700044F27076FFF744FE300040CF020000289C
:1027800005D00E600431FFF755FE0138F9D147F846
:10279000046D80261643FFF79DFDFFF76BFD00BD1E
:1027A00000F078F90220064040CF04D147F8046DCC
:1027B0003626FFF725FE47F8046D464EFFF748FE24
:1027C00047F8046D444EFFF743FE47F8046D44F2AA
:1027D0007076FFF715FE300040CF002803D0FFF7DA
:1027E00029FE0138FBD1FFF7B6FCFFF743FD00BD22
:1027F000DC2800000000076275666665723A00B565
:10280000FFF700FF01203040361802203040361814
:1028100028480168274A914280F029802B480168A6
:10282000891B2B4A91420BD2FFF795F80F4E6F741C
:1028300020656E6F7567682052414D0A00F06EBFCB
:10284000016047F8046D0E00FFF712FB47F8046DB6
:1028500044F27076FFF7D4FDFFF7ECFD47F8046D06
:1028600040F24016FFF736FDFFF704FD00BD00F013
:1028700011F90220064040CF04D147F8046D3626F6
:10288000FFF7BEFD47F8046D124EFFF7E1FD47F874
:10289000046D114EFFF7DCFD47F8046D44F27076CD
:1028A000FFF7AEFDFFF717FEFFF755FCFFF7E2FC61
:1028B00000BD0000000000202000002004000020D7
:1028C000FFFFFFFFFFFF0000140000202400002096
:1028D000300300203E60043F02367E460A29000095
:1028E00000000F64696374696F6E6172797374615B
:1028F0007274EB480068EA4947F8046D884201D2D7
:10290000E84E7047E84E36687047442900000000E2
:102910000E64696374696F6E6172796E65787400B4
:1029200003B53168E148814207D08879FF2804D097
:102930000E0047F8046D002603BD47F8046D00261D
:10294000F64303BD7629000000000A736B697073BB
:102950007472696E67003178013101220A4089186A
:102960007618704706B40178013101220A408918AF
:10297000401806BC7047F629000000000466696E26
:1029800064003FB500220023350040CF340040CF23
:10299000FFF7AFFFC648B188884217D047F8046DEB
:1029A0000636FFF714F847F8046D260047F8046D63
:1029B0002E00FEF746FF002E40CF07D0B01DFFF7D8
:1029C000D1FF02000B00B648824204D2FFF7A8FFF5
:1029D000300040CFDED0160047F8046D1E003FBD2A
:1029E00000B531003868FFF7CCFF3A68002A01D102
:1029F00000F066FD00BD502A0000000006636A7505
:102A00006D702C00320040CF310040CF8B1B043B57
:102A1000A849194000290DD0A74881420AD0FEF7E5
:102A20009AFF0D4A756D7020746F6F206661720A8F
:102A300000F074BE5B10FF210B40134330001E00FA
:102A400000B5974A13681060FFF7DAFC136000BD09
:102A5000882A00000000056A756D702C310040CF97
:102A6000300040CF0B1A043B94491940002902D092
:102A7000934A9142D3D15B10924A134053F460437E
:102A800047F8046D1E00DBE79E2A00000000046882
:102A90006572650047F8046D814E366870479A2B61
:102AA000000000000D666C6173687661722D6865C8
:102AB000726547F8046D844E3668704700B547F874
:102AC000046D42F60066FFF79BFC47F8046D4CF678
:102AD0004076FFF795FC00BDDCE700B500F03AF862
:102AE00039683E600E4647F8046D4DF20016FFF758
:102AF00089FF00BD00B500F02DF839683E600E4634
:102B000047F8046D4DF20076FFF77CFF00BD00B57D
:102B1000FFF7D4FF00F01EF839683E600E4647F814
:102B2000046D4DF20006FFF76DFF00BD00B500F02B
:102B300011F839683E600E46FFF790FF00BD00B502
:102B4000FFF7BCFFFFF7A6FF47F8046D0226FFF76B
:102B5000C2FC00BD00B5FFF79DFF47F8046D0226DB
:102B6000FFF7B9FC00BD00B5FFF794FFFFF776FF54
:102B700000BD00B5FFF78EFF47F8046D4DF200066B
:102B8000FFF740FF00BD00B5FFF784FF47F8046D75
:102B90004DF20016FFF736FF00BDD62B00003000C7
:102BA000047468656E00052E01D140CFDBE7022E6C
:102BB00001D140CFDDE7FEF7CEFE17537472756387
:102BC000747572657320646F6E2774206D61746311
:102BD000680A00F0A3BD022C0000300004656C738D
:102BE000650000B5022E7FF4E6AF40CFFFF7B2FFDD
:102BF00039683E600E46FFF7BCFF47F8046D0526B6
:102C000000BD1A2C000030000269660000B5FFF715
:102C100096FF47F8046D022600BD402C00003000EE
:102C20000672657065617400042EC4D140CF3968A6
:102C30003E600E4600B5FFF779FFFFF79AFF00BD33
:102C40005C2C00003000057768696C65012EB2D1FC
:102C500040CF00B5FFF7DAFF023600BD702C000050
:102C6000300005756E74696C012EA4D140CF4EE71B
:102C7000842C0000300005616761696E012E9AD1D5
:102C800040CF53E7CC2C0000300005626567696EC9
:102C900000B5FFF721FF47F8046D012600BD0000D5
:102CA000000000208801000004000020FFFFFFFF5B
:102CB000FFFF000001FFFFFF00FFFFFF01F8FFFF24
:102CC00000F8FFFFFF07000024000020DC2C0000BC
:102CD0002000016B47F8046D029E7047EC2C000049
:102CE0002000016A47F8046D009E7047FC2C00002C
:102CF0002000016947F8046D260070473A2D000056
:102D00003000056C6561766500B5D94801683B0007
:102D1000043F1A68043B1A6008338B42F9D103B4AC
:102D2000FFF718FF03BC330040CF04390B6001608C
:102D300004390A6801320A6000BD4C2D00002000F1
:102D400006756E6C6F6F700030BC7047842D00008C
:102D50003000052B6C6F6F70032E00D02BE740CF37
:102D600000B547F8046DC34EFFF727F9FFF7C2FE21
:102D70001AE014F10044641BA41940CF2C44A4F1C0
:102D800000447047C62D00003000046C6F6F700067
:102D9000032E00D00FE740CF00B547F8046DB64EC4
:102DA000FFF70BF9FFF799FE00F018F9B048310072
:102DB00040CF016047F8046DB04EFFF7FEF800BD4C
:102DC0000134AC4270470E2E0000780002646F00A0
:102DD00000B547F8046DAA4EFFF7EFF8A448016864
:102DE00047F8046D0E0047F8046D00260760FFF7F2
:102DF00073FE47F8046D032600BD00B500F02FF800
:102E0000ECE730B4340040CF350040CF7047A82EF7
:102E100000007800033F646F00B547F8046D984EDA
:102E2000FFF7CBF847F8046D44F2AC26FFF7E8FA59
:102E30008F48016847F8046D0E00FFF78BFE0136DE
:102E400047F8046D01268A480760FFF745FE47F8FA
:102E5000046D032600BD00B500F001F8E2E700B5FF
:102E600047F8046D4BF23046FFF7CAFA47F8046D95
:102E70000426FEF76BFF013B08D047F8046D0526DA
:102E8000FEF764FF013B00F022FC00BD47F8046D33
:102E90003526FFF7B5FA47F8046D4CF64076FFF794
:102EA000AFFA00F014FC00BDC22E00003000046335
:102EB0006173650047F8046D002647F8046D082625
:102EC0007047D82E00003000033F6F666D4809E060
:102ED000013EB64140CF70477C2F00007800026F62
:102EE00066006948082E00D065E640CF00B547F877
:102EF000046D0600FFF761F8FFF72CFE39683E60AD
:102F00000E46013647F8046D092647F8046D4CF665
:102F10004076FFF775FA00BD00B5300040CF013BA9
:102F200001B400F0D4FB01BC082E00D043E640CF32
:102F300047F8046D0600FF213140B14204D15349E6
:102F40000E43FFF75DFAD7E7FEF74CFE002E40CFA9
:102F500004D04F480643FFF77BFACDE747F8046DEE
:102F60000026FEF7F3FE47F8046D44F2B026FFF7A3
:102F700047FAC1E7300040CFB0427047B22F00009F
:102F8000300005656E646F66092E00D013E640CFF1
:102F900000B540B440CFFFF7DDFD39683E600E4616
:102FA000FFF7F1FD47F8046D40BC47F8046D0826B3
:102FB00000BD04300000300007656E646361736516
:102FC000082E00D0F7E540CF00B547F8046D4CF669
:102FD0004076FFF715FA00F001F800BD00B53000AB
:102FE00040CF00280DD003B401213140002903D087
:102FF000013EFFF7BEFD01E0FFF7B5FD03BC013860
:10300000EFE700BD18300000000005746F6B656EBF
:1030100047F8046D202605E0983000000000057098
:103020006172736510B5FEF7E0FB310040CF3000F0
:1030300040CF184A12688418202E07D191420FD031
:10304000835CB34202D101328418F7E7914207D082
:10305000835C0132B342F9D18618361B013E01E090
:103060008618361B043F3C600A48026010BD000011
:103070000C000020722D0000C02D0000482D000023
:10308000022E0000D02E0000742F0000002E000041
:10309000000FB6F1E4FF0120D63000000000056407
:1030A00069676974CE4B1B68303E0BD30A2E0BD375
:1030B000073E0A2E06D3242E06D3203E0A2E01D325
:1030C000242E01D3002670479E42FBD247F8046DA0
:1030D0000026F6437047E03100000000066E756D73
:1030E000626572003FB5310040CF701E012601229B
:1030F00004B4BB4B1B680024002500293CD00130E0
:10310000013902782D2A04D101B00022D24304B43F
:10311000F3E7232A01D10A23EFE7242A01D1102360
:10312000EBE7252A01D10223E7E72E2A01D1022667
:10313000E3E72C2A36D047F8046D1600FFF7B4FFFA
:10314000002E40CF2BD047F8046D260047F8046DC1
:103150002E0047F8046D1E0047F8046D00260FB4DA
:10316000FDF74BF90FBC350040CF340040CF0022B3
:10317000A419554140CFC0E704BC002A04D5002261
:10318000E443ED430134554133002600012B02D0C6
:1031900047F8046D2E0047F8046D1E003FBD01B0D6
:1031A00000263FBD2500002402260029E4D0425C11
:1031B00001392E2AF9D047F8046D1600FFF774FF85
:1031C000002E40CFEBD0043F3C6047F8046D1E005A
:1031D0000FB4FDF7C1F90FBC340040CF40CFE4E796
:1031E000003200000000062E6469676974000A2E30
:1031F0003CBF303603E0242E34BF373623267047D9
:1032000036320000000004686F6C6400330040CF69
:10321000744801783F290DD201310170401801290D
:1032200007D00138027801300270013801390129D4
:10323000F7D10370704756320000000005686F6CCC
:10324000643C330040CF674801783F2902D2013106
:103250000170435470476E320000000004736967C8
:103260006E00002E01D440CF70472D26CEE782326B
:103270000000000002233E005A4806780130386002
:1032800070479A32000000000366235310B52024D3
:1032900000F008F8013CFBD110BDBC32000000007A
:1032A0000266230000B547F8046D4D4E3668FDF701
:1032B00090F8FFF79CFFFFF7C4FF00BDD832000075
:1032C00000000223530000B500F00AF8002EFBD1E5
:1032D00038680028F8D100BD043300000000012345
:1032E00000B547F8046D3E4E366847F8046D002679
:1032F000FDF751F9FCF776FF40CFFFF778FFFFF7B6
:1033000085FF00BD163300000000023C2300354855
:1033100000210170704728330000000002662E0073
:1033200047F8046D202604E07633000000000366B1
:103330002E6E00B510B4340040CFFDF7C0FAFDF793
:1033400004F847F8046D0026FFF7E1FFFFF7BBFF25
:1033500040CF2C26FFF775FF002C03D0FFF7A2FF0C
:10336000013CFBD110BC40CFFFF77BFF47F8046D59
:1033700047F8046D1CE08C33000000000375642ED8
:1033800000B5FFF7C4FFFFF79EFF11E0BE3300005A
:10339000000002642E0000B5FDF791FAFCF7D5FF9E
:1033A000FFF7B5FFFFF78FFFFDF793FAFFF759FF20
:1033B000FFF762FFFEF72BFBFEF77CFA00BDD03370
:1033C0000000000002752E0047F8046D0026D7E7C4
:1033D000E83300000000012E47F8046DF617DAE725
:1033E000FCFF0120280000203034000000000865A8
:1033F00076616C756174650000B5FEF7F6F901CF72
:1034000001B440B440CFD448016802B40021016047
:10341000FEF7DEF900F014F8CF4802BC016047F86F
:10342000046D40BC01BC043F3860FEF7D1F900BD1B
:10343000F4360000000009696E746572707265747C
:1034400030B5C64887420BD9FEF785FA1053746130
:10345000636B20756E646572666C6F770A005DE160
:10346000BF4887420AD2FEF776FA0F537461636B46
:10347000206F766572666C6F770A4FE1B94C2568EC
:10348000002D01D13D002560FFF7C2FD002E02D1C5
:10349000043740CF30BD386847F8046D043F3860CA
:1034A000FFF76FFA310040CF320040CF002A13D12E
:1034B00038683100FFF716FE320040CF002AC0D135
:1034C000FEF7A9FAFEF747FA0C206E6F7420666FBC
:1034D000756E642E0A0021E1A34B1B68002B1DD1E1
:1034E0000025256030230B40302B0ED1FEF78FFADC
:1034F000FEF731FA1220697320636F6D70696C6595
:103500002D6F6E6C792E0A0008E1043740CF47F822
:10351000046D1600FEF7EFFDFFF793FF043740CF71
:10352000802008400ED1EB1B9B08402008400FD0A4
:103530000820084002D0002B00D01DE00F200840DA
:10354000834205D347F8046D1600FEF7D4FD78E7F3
:1035500000F0BDF847F8046D160010220A4002D0B2
:10356000FEF7C9FD6DE720220A4002D0FEF725FDD7
:1035700067E7FEF748FC64E7072001401000FEF70C
:1035800033FD01291FD1012BDCD1FF213140B14294
:1035900004D140880643FEF733FF52E7FEF722FBD3
:1035A000002E40CF04D040680643FEF751FF48E7A5
:1035B00047F8046D0026FEF7C9FB47F8046D06883E
:1035C000FEF71EFF3DE7022902D1012BBAD1EFE73A
:1035D000032926D1012BB5D1FF213140B1420AD1B7
:1035E00062490E43FEF70CFF043247F8046D1600E3
:1035F000FEF7E3FC25E7FEF7F5FA002E40CF04D0F6
:103600005B490E43FEF724FFEEE747F8046D002602
:10361000FEF79CFB023247F8046D1600FEF7CDFC66
:103620000FE7042918D1012B8CD1330040CF002B98
:1036300000D106E71F221A409A4205D047F8046DD0
:103640004688FEF7DDFEFCE647F8046D06889B0120
:103650001E43FEF7D5FEF4E6052924D1012B10D137
:1036600047F8046D0026FEF771FB47F8046D06006D
:10367000FEF7A3FC47F8046D4CF64076FEF7C0FE5B
:10368000DFE647F8046D0026FEF760FB47F8046D9F
:103690000126FEF75BFBFEF7A7FC47F8046D06006A
:1036A000FEF78BFCCDE606290ED1012B7FF44AAF45
:1036B000FEF798FA002E40CF3FF47AAFD0F8020020
:1036C0000643FEF7C5FEBCE601308047B9E600B50B
:1036D000002B0CD0013B47F8046D1E0057F8266004
:1036E000FEF7C6FB002BF5D1043D2F0040CF00258F
:1036F000256000BD10370000810009686F6F6B2DD9
:103700007175697447F8046D1A4E704744370000AC
:10371000883700000000047175697400DFF858D024
:103720000E4F16480A2101600F48002101600D4824
:1037300001600948016012480160124941600D486A
:1037400000688746FEF75FF8FFF77AFEFEF703F999
:1037500005206F6B2E0AF5E7E4FF01203002002000
:103760003001002008000020D8FF0120003E0000AA
:103770000006B6F1D4FF012030030020FCFF012039
:10378000DCFF01206800002098370000200004655D
:10379000696E740062B67047A837000020000464A8
:1037A000696E740072B67047BE370000200004696D
:1037B0007073720047F8046DEFF305867047CA37DF
:1037C00000000000036E6F7070470C3800000000AE
:1037D00009756E68616E646C656400B5FEF7BBF8D0
:1037E00014556E68616E646C656420496E74657210
:1037F00072757074200047F8046DEFF30586FEF7CC
:103800001DF9FEF7A8F802210A0000BD36380000B5
:1038100081000B6972712D7379737469636B47F85A
:10382000046DBD4E7047DA3700004FF6D070C2F21B
:103830000100006887465E380000810009697271E6
:103840002D6661756C7447F8046DB44E7047DA37B5
:1038500000004FF6CC70C2F20100006887468C3839
:10386000000081000E6972712D636F6C6C6563746A
:10387000696F6E0047F8046DA94E7047DA37000093
:103880004FF6C870C2F2010000688746B4380000E5
:103890008100096972712D657874693047F8046D8B
:1038A000A04E7047DA3700004FF6C470C2F2010034
:1038B00000688746DC3800008100096972712D6557
:1038C0007874693147F8046D974E7047DA37000015
:1038D0004FF6C070C2F2010000688746043900004C
:1038E0008100096972712D657874693247F8046D39
:1038F0008E4E7047DA3700004FF6BC70C2F20100FE
:10390000006887462C3900008100096972712D65B5
:103910007874693347F8046D854E7047DA370000D4
:103920004FF6B870C2F201000068874654390000B3
:103930008100096972712D657874693447F8046DE6
:103940007C4E7047DA3700004FF6B470C2F20100C7
:10395000006887467A3900008100076972712D611D
:10396000646347F8046D744E7047DA3700004FF611
:10397000B070C2F2010000688746A23900008100E1
:10398000086972712D74696D320047F8046D6B4ED1
:103990007047DA3700004FF6AC70C2F201000068E1
:1039A0008746CA3900008100086972712D74696DFB
:1039B000330047F8046D624E7047DA3700004FF667
:1039C000A870C2F2010000688746F2390000810049
:1039D000086972712D74696D340047F8046D594E91
:1039E0007047DA3700004FF6A470C2F20100006899
:1039F000874600400000FFFF182D2D2D20466C61EA
:103A000073682044696374696F6E617279202D2D2B
:103A10002D00FDF734FE4C4885464C4F2A264C4875
:103A2000494901604B484C49016047F8046D4A4ED2
:103A30004A4DB1884A4B994224D04A4B0B400AD098
:103A4000B01DFEF78FFFFEF7CFFA03884088000411
:103A50000343ED1A16E080230B4013D00F231940C7
:103A600089006D1AB01DFEF77DFFFEF7BDFA47F81D
:103A7000046D060047F8046D2E0047F8046D0E0033
:103A8000FDF7D4F8FEF74CFF300040CFD1D03648D8
:103A9000066040CF3548056035483649304A88428F
:103AA00004D0023803889342F9D0023032490860CA
:103AB000FDF751FF374D6563726973702D5374655F
:103AC0006C6C6172697320322E302E3420666F72F6
:103AD0002053544D333246343037206279204D61C3
:103AE000747468696173204B6F63680A234800210E
:103AF000016047F8046D224E47F8046D0426FEF776
:103B000040FF40CF002E02D0FEF7F5FA17E640CF77
:103B100004E6696E69740000D0FF0120CCFF01202B
:103B2000C8FF0120C4FF0120C0FF0120BCFF01200D
:103B3000B8FF0120B4FF0120B0FF0120ACFF01203D
:103B4000A8FF0120A4FF0120300300203002002044
:103B50000000002004000020880100000000022076
:103B6000FFFF0000000100001C00002024000020D6
:103B70000000100000400000180000200800002095
:043B8000123B0000F4
:0400000508000000EF
:00000001FF
