:020000040800F2
:100000003803002019340000FF320000FF320000E6
:10001000FF320000FF320000FF320000000000004D
:10002000000000000000000000000000FF3200009F
:10003000FF32000000000000FF320000D732000055
:10004000FF320000FF320000FF320000FF320000EC
:10005000FF320000FF320000273300004F33000062
:10006000773300009F330000C7330000FF320000E9
:10007000FF320000FF320000FF320000FF320000BC
:10008000FF320000FF320000ED33000000B501F048
:100090007EFA16556E68616E646C656420496E74F4
:1000A00065727275707420210A0000BDD2000000D4
:1000B000FFFF1E2D2D2D204D6563726973702D532A
:1000C00074656C6C6172697320436F7265202D2DAD
:1000D0002D00EA00000042000432647570003868A8
:1000E00047F8046D043F38607047FC000000620070
:1000F000053264726F70043740CF70471A010000F8
:10010000440005327377617007CF043F386047F8C9
:10011000046D043F3A600E0070472E01000062003B
:1001200004326E69700007CF043F386070474801A1
:100130000000440005326F766572B86847F8046DB8
:10014000043F3860FE6870476C01000044000532CF
:100150007475636B07CF043F386047F8046D043F44
:100160003A60043F3960043F386070478E010000F8
:1001700046000432726F74003868B9683A69B86032
:1001800039613A6079687E60FE68F9607047B00155
:100190000000460005322D726F743868B9683A69FC
:1001A00038613960BA60F968FE607E6879607047CE
:1001B000C4010000200003323E7201CF01B440B4FC
:1001C00040CF7047DC01000020000332723E47F848
:1001D000046D40BC01BC043F38607047F40100006E
:1001E00020000332724047F8046D019E47F8046D09
:1001F000009E704706020000200006327264726F93
:10020000700002B070471E02000042000364322FEB
:100210003868F107761040080843386070473202AA
:10022000000062000364322A3868001876413860A2
:1002300070474C0200004200046473687200386822
:10024000F1077608400808433860704762020000F2
:100250006200046473686C00386800187641386086
:100260007047740200004200046461627300002E53
:1002700014D470478E0200004300083F646E656727
:1002800061746500300040CF002807D47047AC028D
:100290000000420007646E6567617465386800217C
:1002A000C043F64301304E4138607047C40200003D
:1002B000640002642D0007CF121AB1410E00043F02
:1002C0003A607047DA020000640002642B0007CF36
:1002D00012184E41043F3A607047EC020000610082
:1002E00003733E6447F8046DF6177047000300007F
:1002F000620003756D2A3868A0FB060638607047F7
:10030000140300006200026D2A00386880FB0606B4
:10031000386070475203000044000375642A07CF19
:10032000564341437618010C130C59437618010CBF
:1003300080B292B25143434350430022C918524104
:100340001204B6180A04090C80184E41043F3860A4
:100350007047E403000044000475646D2A0010B582
:10036000002447F8046D7E6847F8046D3E69FFF786
:10037000C2FF310040CF300040CF47F8046D3E68E7
:1003800047F8046DFE6803B4FFF7B5FF03BC330004
:1003900040CF320040CF47F8046D3E6847F8046D07
:1003A0003E690FB4FFF7A7FF0FBC9219634140CF1E
:1003B00089196241634140CF47F8046D7E6847F870
:1003C000046DFE680FB4FFF796FF0FBC92196341EE
:1003D00040CF89196241634140CF1E003A60796085
:1003E000B86010BD060400004300022A2F0000B5CB
:1003F00040B440CFFFF789FF47F8046D40BC00F0E0
:1004000062F8043700BD280400004300052A2F6D60
:100410006F6400B540B440CFFFF777FF47F8046D35
:1004200040BC00F050F800BD4A04000043000375D2
:100430002A2F00B540B440CFFFF75DFF47F8046DA9
:1004400040BC00F01BF8043700BD6E040000430000
:1004500006752A2F6D6F640000B540B440CFFFF7DA
:100460004AFF47F8046D40BC00F008F800BDBA042C
:100470000000430006756D2F6D6F640010B478683E
:1004800039680022002420236400001849415241A9
:10049000964201D8921B0134013BF5D12023640020
:1004A00049185241964201D8921B0134013BF6D1C2
:1004B00004373A60260010BC70472E050000430048
:1004C000056D2F6D6F6400B5F01718D0764200F0FF
:1004D00019FAF0170DD0FFF7E1FE00F007FAFFF769
:1004E000CDFF39683E600E46764239683E600E4662
:1004F00000BD00F0FBF9FFF7C1FF764200BD00F040
:1005000001FAF0170ED0FFF7C9FE00F0EFF9FFF780
:10051000B5FF764239683E600E46764239683E60E5
:100520000E4600BD00F0E2F9FFF7A8FF00BD8A0506
:10053000000044000675642F6D6F640030B43C68A1
:10054000B86879680022002520236D000018494111
:100550005241944201D8121B0135013BF5D120B420
:10056000002520206D00491852415B419E4204D86D
:10057000944202D8121BB34101350138F2D13D60DB
:10058000BA607B6040BC30BC70470006000044008D
:1005900005642F6D6F6400B5F01719D0FFF77EFE6C
:1005A000FFF7B2FDF0170CD0FFF778FEFFF7ACFDB8
:1005B000FFF7C4FFFFF7A8FDFFF770FEFFF7A4FDEC
:1005C00000BDFFF7A1FDFFF7B9FFFFF767FE00BD14
:1005D000FFF79AFDF0170ED0FFF760FEFFF794FDCE
:1005E000FFF7ACFFFFF75AFEFFF78EFDFFF756FE51
:1005F000FFF78AFD00BDFFF787FDFFF79FFF00BDF6
:1006000016060000440002642F0000B5FFF7C3FF88
:10061000FFF789FD00BDAE060000440002662A0017
:1006200000B5F0170DD0FFF739FEFFF76DFDF0179D
:100630000DD0FFF733FEFFF792FE40CF01CF3860B9
:1006400000BDFFF761FDF017F5D0FFF727FEFFF7BC
:1006500086FE40CF01CF3860FFF720FE00BD30B4EA
:100660003C68B9687A680023002520206D0049188D
:1006700052415B419E4204D8944202D8121BB341BE
:1006800001350138F2D1290020206D0092185B411C
:100690009E4204D8944202D8121BB341013501385E
:1006A000F3D13D60BA607B600E0030BC7047FA0643
:1006B0000000440002662F0000B5F0170ED0FFF7CF
:1006C000EDFDFFF721FDF0170ED0FFF7E7FDFFF777
:1006D0001BFDFFF7C4FFFFF726FD00BDFFF714FD6C
:1006E000F017F4D0FFF7DAFDFFF70EFDFFF7B7FFC5
:1006F000FFF7D4FDFFF717FD00BD0E070000200037
:100700000232210006CF3160726040CF704722076D
:100710000000200002324000043F706838603668F4
:1007200070474207000044000364753C07CF8E42C7
:1007300004D801D1904201D8002670470026F64324
:1007400070476207000044000364753E07CFB14262
:1007500004D801D1824201D8002670470026F64312
:10076000704782070000440002643C0007CF8E42BD
:1007700004DC01D1904201DC002670470026F643DC
:100780007047A2070000440002643E0007CFB14258
:1007900004DC01D1824201DC002670470026F643CA
:1007A0007047B207000062000364303C0437F6175C
:1007B0007047CC07000042000364303D01CF0028A1
:1007C00001D000267047013EB6417047E6070000A1
:1007D000440003643C3E07CF904201D1761A01D019
:1007E0000026F643704702080000440002643D0002
:1007F00007CF904201D000267047761A013EB641DD
:1008000070471408000020000373704047F8046D1F
:100810003E00704724080000200003737021370059
:1008200040CF70473608000020000372704047F840
:10083000046D6E4670474608000020000372702168
:10084000B54640CF70476008000000000564657041
:100850007468E549C91B890847F8046D0E007047A4
:100860007008000061000364757047F8046D7047FC
:100870008008000061000464726F700040CF704710
:10088000960800006100043F64757000002E01D0DE
:1008900047F8046D7047AA0800006200047377618E
:1008A000700039683E600E007047B80800006200B2
:1008B000036E697004377047CC0800006200046F53
:1008C0007665720047F8046D7E687047E2080000A4
:1008D0006200047475636B0001CF083F7E6038606E
:1008E0007047F8080000630003726F7403CF083F7D
:1008F00078603E600E007047100900006300042D10
:10090000726F740003CF083F7E6039600600704745
:10091000220900002000047069636B0057F826600C
:100920007047320900002000023E720040B440CF00
:10093000704744090000200002723E0047F8046D31
:1009400040BC70475609000020000272400047F882
:10095000046D009E704766090000200005726472F5
:100960006F7001B070477C090000600004747275FC
:10097000650047F8046D0026F643704790090000B3
:1009800060000566616C736547F8046D002670476A
:10099000A60900006E0003616E6401CF0640704737
:1009A0000640000616F0BE0900006E00036269638F
:1009B00001CFB043060070478643000636F0D409E5
:1009C00000006E00026F720001CF064370470643BD
:1009D000000656F0EA0900006E0003786F7201CF3E
:1009E000464070474640000696F0F8090000610056
:1009F000036E6F74F6437047080A000061000363DA
:100A00006C7AB6FA86F67047160A00006100037326
:100A1000687276087047240A000061000373686CEE
:100A200076007047340A0000610003726F725FEA5B
:100A300076067047460A0000610003726F6CB619B3
:100A400056F100067047600A00006C000672736879
:100A50006966740001CFF040060070473608002632
:100A60007A0A00006C00076172736869667401CFCE
:100A70003041060070473610F617940A00006C00EB
:100A8000066C73686966740001CFB0400600704759
:100A900036000026A40A0000610002303D00013E3D
:100AA000B6417047B60A0000610003303C3E013E8B
:100AB000B641F6437047C40A0000610002303C00B2
:100AC000F6177047DC0A00004200023E3D0001CFED
:100AD000B042B4BF00264FF0FF367047F40A000062
:100AE0004200023C3D0001CFB042CCBF00264FF097
:100AF000FF3670470A0B00004200013C01CFB042B4
:100B0000B4BF4FF0FF3600267047200B00004200B4
:100B1000013E01CFB042CCBF4FF0FF3600267047F8
:100B2000340B0000620003753E3D01CF861BB641C9
:100B3000F6437047480B0000620003753C3D01CF4F
:100B4000361AB641F64370475A0B00006200027530
:100B50003C0001CF861BB64170476C0B0000620061
:100B600002753E0001CF361AB6417047820B000075
:100B70006B00023C3E0001CF361A18BF4FF0FF3623
:100B80007047940B00006B00013D01CF361A013E07
:100B9000B6417047A80B00006200036D696E01CF7B
:100BA000B042B8BF06467047BC0B00006200036D40
:100BB000617801CFB042C8BF06467047D20B000033
:100BC000620004756D61780001CFB04288BF0646AF
:100BD0007047EC0B0000620004756D696E0001CF78
:100BE000B04238BF06467047380200202A0C000089
:100BF0000000046D6F76650007B5310040CF32000C
:100C000040CF00290FD0B2420DD006D3013E013AA9
:100C1000705C50540139FBD105E03078107001361A
:100C200001320139F9D140CF07BD4C0C0000000062
:100C30000466696C6C00300040CF310040CF002961
:100C400002D001397054FCD140CF7047580C0000DD
:100C50002000014036687047700C00006D000121D3
:100C600003CF30600E007047066070470160704728
:100C7000960C00006D00022B210003CF3268121881
:100C800032600E0070470268921902607047026875
:100C9000521802607047A40C000020000268400057
:100CA00036887047BE0C00006D000268210003CF3B
:100CB00030800E0070470680704701807047E40C5A
:100CC00000006D0003682B2103CF32881218328098
:100CD0000E007047028892190280704702885218ED
:100CE00002807047F20C000020000263400036785A
:100CF00070470C0D00006D000263210003CF3070BF
:100D00000E0070470670704701707047320D00008A
:100D10006D0003632B2103CF3278121832700E005E
:100D20007047027892190270704702785218027068
:100D300070475A0D00006D0004626973210003CFF3
:100D40003268024332600E0070470268324302602C
:100D5000704702680A4302607047820D00006D0010
:100D600004626963210003CF3268824332600E005F
:100D700070470268B2430260704702688A430260AB
:100D80007047AA0D00006D0004786F72210003CF38
:100D90003268424032600E00704702687240026062
:100DA000704702684A4002607047C40D000020008E
:100DB00004626974400001CF3668064018BF4FF0E6
:100DC000FF367047EC0D00006D0005686269732105
:100DD00003CF3288024332800E00704702883243CC
:100DE0000280704702880A4302807047140E000098
:100DF0006D0005686269632103CF328882433280C7
:100E00000E0070470288B2430280704702888A430E
:100E1000028070473C0E00006D000568786F7221FB
:100E200003CF3288424032800E0070470288724001
:100E30000280704702884A4002807047560E0000C8
:100E4000200005686269744001CF3688064018BFEB
:100E50004FF0FF3670477E0E00006D00056362693B
:100E6000732103CF3278024332700E00704702784C
:100E700032430270704702780A4302707047A60E30
:100E800000006D0005636269632103CF32788243FD
:100E900032700E0070470278B243027070470278D9
:100EA0008A4302707047CE0E00006D000563786FB4
:100EB000722103CF3278424032700E0070470278C0
:100EC00072400270704702784A4002707047E80E24
:100ED0000000200005636269744001CF3678064047
:100EE00018BF4FF0FF3670477C0F00000000076806
:100EF000666C61736821300040CF310040CF594BA0
:100F0000984221D3584B98421ED2584B19409942CF
:100F100019D010F00102002A16D102889A4213D18A
:100F200010F10060524A534B1360534B1360534A05
:100F3000012313600180524A136813F00103FBD1AF
:100F40004E4A80231360704700F021FB2A57726FCE
:100F50006E672061646472657373206F72206461D0
:100F6000746120666F722077726974696E6720669B
:100F70006C61736820210A0002F05DB9CA0F00009D
:100F800000000E666C6173687061676565726173FD
:100F900065000FB5300040CF324B984214D3344A2D
:100FA000344B1360344B1360344A02231360354AC8
:100FB0001060324A42231360314A136813F0010370
:100FC000FBD12E4A802313600FBD481000000000A3
:100FD0000A6572617365666C61736800214872B658
:100FE00021494FF6FF72038893421CD047F8046DE5
:100FF000060047F8046D00F0CAFA10457261736587
:1010000020626C6F636B20617420200000F0F8FA9E
:1010100000F0BDFA0C2066726F6D20466C6173683B
:101020000A00FFF7B6FF02308842DCD100F0AFFAC9
:101030001246696E69736865642E20526573657423
:1010400020210A0002F0EAB98810000000000E65B5
:1010500072617365666C61736866726F6D003000F3
:1010600040CFBCE70040000000000100FFFF00008F
:101070000420024023016745AB89EFCD10200240D8
:101080000C200240142002409E1000006900012B39
:1010900001CF3618704736180036000616F1B41026
:1010A00000006900012D01CF861B7047361A003EF3
:1010B0000006B6F1C2100000610002312D00013EB1
:1010C0007047D0100000610002312B0001367047DC
:1010D000DE100000610002322D00023E7047EC106D
:1010E0000000610002322B0002367047FE10000043
:1010F0006100066E65676174650076427047121183
:101100000000610003616273002E48BFD6F1000643
:10111000704730110000420005752F6D6F6401CFDC
:101120003100B0FBF6F67143401A043F3860704757
:101130004E1100004200042F6D6F640001CF31009A
:1011400090FBF6F67143401A043F38607047621115
:1011500000004200036D6F6400B5FFF7EFFF40CF62
:1011600000BD721100006200012F01CF90FBF6F666
:101170007047821100006A00012A01CF4643704780
:10118000464390110000610002322A007600704749
:101190009E110000610002322F0076107047B211DC
:1011A00000006100046576656E000120304036184D
:1011B0007047C6110000400004626173650047F883
:1011C000046D104E7047DC11000000000662696E6D
:1011D000617279000B48022101607047F211000032
:1011E000000007646563696D616C06480A2101604F
:1011F000704708120000000003686578014810215C
:10120000016070471000002024120000810009686E
:101210006F6F6B2D656D697447F8046D6B4E704789
:101220001A13000040120000810008686F6F6B2DD8
:101230006B65790047F8046D654E704740130000F8
:101240005E12000081000A686F6F6B2D3F656D694B
:10125000740047F8046D5F4E70476A1300007A12FD
:101260000000810009686F6F6B2D3F6B657947F84F
:10127000046D594E704796130000981200008100CB
:101280000A686F6F6B2D70617573650047F8046DA8
:10129000524E7047B6320000AE12000000000465E6
:1012A0006D6974000FB5494800F02CF80FBDC212EB
:1012B00000000000036B65790FB5454800F022F887
:1012C0000FBDD81200000000053F656D697400B5C0
:1012D000404800F017F800BDEE1200000000043F87
:1012E0006B65790000B53C4800F00CF800BD0813B0
:1012F0000000000005706175736500B5374800F0A7
:1013000001F800BD006887462E13000000000B7333
:10131000657269616C2D656D697400B500F025F822
:10132000002E40CFFAD02E4A167040CF00BD561383
:10133000000000000A73657269616C2D6B657900AD
:1013400000B500F028F8002E40CFFAD047F8046D21
:10135000234A167800BD8413000000000C736572E8
:1013600069616C2D3F656D69740000B5FFF7C5FFBD
:1013700047F8046D00261B4801688020014000D01A
:10138000F64300BD0414000000000B736572696130
:101390006C2D3F6B657900B5FFF7AFFF47F8046D23
:1013A0000026104801682020014000D0F64300BD0F
:1013B0000D490E4808600E490E4808600E49462047
:1013C00008600E490E48086070470000FC4F00207E
:1013D000F84F0020F44F0020F04F0020EC4F002089
:1013E0000438014000380140181002403D40000020
:1013F00004080140B0040000083801400C380140E6
:101400000C200000801400000000057175657279E1
:101410000FB5EF4800210170EE490022FFF74CFFA5
:10142000300040CF20281BD2092818D00A2823D00A
:101430000D2821D00828F1D1002AEFD000F0A7F81C
:1014400003082008002AE9D00B009B181878013AFD
:1014500080230340E2D040230340F3D0DEE7202086
:10146000C72ADBD247F8046D0600FFF71BFF0132E5
:101470000B009B181870D1E70A7000F041F80FBDFF
:10148000CE140000000007636F6D706172650FB5C8
:10149000300040CF31780278914216D110E0013609
:1014A000013032780378412A02D35B2A38BF2032D8
:1014B000412B02D35B2B38BF20339A4205D101392F
:1014C0000029ECD10026F64300E000260FBDE2140F
:1014D000000000000263720000B500F058F8010A35
:1014E00000BDF4140000000002626C0047F8046DB7
:1014F00020267047081500000000057370616365C1
:1015000047F8046D2026CDE6181500005000065B54
:10151000636861725D0005E030150000000004633F
:101520006861720000B501F02FFB0136367800BD0E
:10153000401500005000012847F8046D292606E0F8
:10154000581500005000015C47F8046D002600B5F6
:1015500001F025FB40CF00BD801500001000022ED9
:1015600022009D4800B547F8046D060000F05FFAC0
:1015700047F8046D222601F012FB00F075FD00BD56
:10158000CA1500001000027322009448EAE70EB466
:101590007246013A47F8046D16001378013313F0D0
:1015A00001015B181EEB030E0EBC14E00EB4724674
:1015B000013A47F8046D16001378013313F0010166
:1015C0005B181EEB030E0EBC7047F4150000000004
:1015D00004747970650003B5310040CF08780028A5
:1015E00007D0013147F8046D0E78FFF75BFE013834
:1015F000F7D103BD2C1600000000046865782E00AA
:1016000003B5310040CF2020043847F8046D31FA8B
:1016100000F616F00F06092E8CBF37363036FFF76E
:1016200041FE0028F0D1FFF76BFF03BD3C16000020
:10163000000003682E731FB5694C0EE04C160000C5
:10164000000003752E731FB5664C06E0CA16000035
:101650000000022E73001FB5634C6449C91B890842
:10166000634A106803B40A201060FFF790FF085324
:101670007461636B3A205B0047F8046D0E0001F063
:1016800054FCFFF784FF025D200003BC584A106041
:1016900000290AD0574A106806B447F8046D0600BE
:1016A000A04706BC043A0139F5D1FFF770FF0620C8
:1016B000544F533A200047F8046D3600A047FFF717
:1016C00066FF04202A3E0A001FBD18170000000014
:1016D0000464756D700000B5300040CF2021FFF725
:1016E00056FF072064756D703E0A47F8046D0600CA
:1016F000FFF786FFFFF74BFF023A2000028847F80A
:10170000046D1600FFF77CFFFFF741FF03203E0A40
:1017100002300139E9D100BDF8170000000005775B
:101720006F72647300B5FFF732FF06776F726473F0
:101730000A0000F0BEFE300040CF8179FF2945D07D
:10174000FFF725FF09416464726573733A2047F817
:10175000046D0600FFF754FFFFF719FF064C696E92
:101760006B3A20000268043047F8046D1600FFF75A
:1017700047FF01880230FFF70AFF07466C61677375
:101780003A2047F8046D0E00FFF73AFF47F8046D62
:10179000060000F0ABFEFFF7FAFE06436F64653A01
:1017A000200047F8046D0600FFF72AFFFFF7EFFE61
:1017B000064E616D653A2000FFF70DFFFFF7E7FE6B
:1017C000010AB2F1FF3F01D01000B6E700BD0000F2
:1017D00000000020700000208E150000AC150000F5
:1017E000011600001B2F00002B2F000038020020E4
:1017F00010000020340200205C19000000000D31B0
:1018000032626974656E636F64696E670FB5FF2E2F
:1018100004D847F8046D5FF0FF360FBD16F0FF10D7
:10182000B0420ED14FF6FF710840310C814208D111
:1018300016F0FF0656F4805647F8046D5FF0FF3649
:101840000FBD16F0FF20B0420FD14FF6FF710840D8
:10185000310C814209D1360A16F0FF0656F40056C3
:1018600047F8046D5FF0FF360FBDFF2231001140D5
:10187000300A1040884210D1300C104088420CD100
:10188000300E1040884208D116F0FF0656F440563C
:1018900047F8046D5FF0FF360FBD300000210131C5
:1018A000001850F100007FF07F020240802A05D02E
:1018B0001F29F4D347F8046D00260FBD0829F9D37A
:1018C000060036F0800611F00100C001064311F059
:1018D0000E00C002064311F010008005064347F8D1
:1018E000046D5FF0FF360FBD47F8046DDFF8F0655B
:1018F0005FF4704110EA0102120116435FF40061C7
:1019000010EA0102D20316435FF4E06110EA01021B
:1019100012011643FF2110EA010216431E4393E30E
:1019200047F8046DDFF8BC655FF0704110EA010212
:10193000120B16435FF0006110EA010252081643D1
:101940005FF0E06110EA0102120B16435FF47F01C1
:1019500010EA0102120C16431E4375E3C21900007F
:1019600000001072656769737465726C69746572E2
:10197000616C2C000FB5330040CF1B02FF2E05D841
:1019800056F400561E4300F037FB0FBDFFF73EFF35
:10199000002E40CF06D0DFF8500506431E4300F06E
:1019A00053FB0FBDF643FFF731FF002E40CF06D0AB
:1019B000DFF8380506431E4300F046FB0FBDF64333
:1019C0000BE0221A00000000096D6F76776D6F76CC
:1019D000742C0FB5330040CF1B02300040CFFFF70F
:1019E00083FF4FF6FF7110EA014001D0FFF798FF27
:1019F0000FBD0FB50136300040CF0023FFF774FF55
:101A0000FFF78EFF06E00FB5013647F8046D00269C
:101A1000FFF7B0FF47F8046D44F2807600F0ECFA6F
:101A20000FBD881A000000000563616C6C2C0FB5B7
:101A3000330000F0F0FD300040CF1B1A043BDFF80C
:101A4000B0141940002906D0DFF8A824914202D032
:101A5000BDE80F40D7E740CF5B08DFF89C0440F2B9
:101A6000FF7119400843DB0A40F2FF3119400904B5
:101A700008439B0A13F001018906084347F8046DE7
:101A8000060000F0E1FA0FBDBE1A00000000086C6D
:101A900069746572616C2C0008B547F8046D4FF6E7
:101AA000470600F0A9FA47F8046D46F6045600F020
:101AB000A3FA47F8046D0626FFF75CFF08BD081B74
:101AC0000000200005646F65733E41F6DB2080470F
:101AD00047F8046DBEF10106704747F8046DBEF18A
:101AE000010600F0DCF8DFF814241368310040CF61
:101AF0000220084000D0023102311160FFF779FF67
:101B0000136000F010FA00BD4A1B00000000073C03
:101B10006275696C647300B500F05DFB00F07BFDDD
:101B20000220064040CF04D047F8046D362600F06E
:101B300063FA47F8046D4BF2005600F05DFA47F87F
:101B4000046D0A2600F0AEFA00BD561B00005000DE
:101B5000035B275D03E0BC1B00000000012700B50C
:101B600001F012F8300040CF017800290CD1FFF7C6
:101B70000EFD102027206E65656473206E616D6513
:101B800020210A0001F057BB47F8046D060000F061
:101B9000BCFC40CF002E10D1D94847F8046D060098
:101BA000FFF719FDFFF7F3FC0C206E6F7420666FD2
:101BB000756E642E0A0001F03EBB00BD0A1C0000D9
:101BC000100008706F7374706F6E650000B500F0E0
:101BD000DBFF00F09AFC300040CF002EDCD010215B
:101BE000014010290ED020210140202905D1FFF706
:101BF00053FF47F8046DC34E04E0FFF74DFF47F86D
:101C0000046DC14EFFF713FF00BD601C0000000013
:101C100007696E6C696E652C00B54BF200514BF68E
:101C2000005244F270733088884208D0904208D045
:101C3000984206D047F8046D060000F0DDF9023640
:101C4000F1E740CF00BD0EB44BF6005244F2707382
:101C500001880230914201D09942F9D10EBC7047FF
:101C6000761C00000000047265742C0047F8046DB7
:101C70004BF60056C0E1841C000030000465786912
:101C80007400F3E7BA1C00003000077265637572D8
:101C9000736500B500F003F8FFF7C9FE00BD0FB58E
:101CA0009A48006806300178013101220A408918FB
:101CB000401847F8046D06000FBDCE1C0000400020
:101CC00005737461746547F8046D914E7047E01CAC
:101CD00000000000015D8E480021C943016070478B
:101CE000F01C00001000015B894800210160704772
:101CF000181D00000000013A00B58648076000F09A
:101D00006AFA47F8046D4BF2005600F075F9804806
:101D10000021C943016000BD601D00003000013B8F
:101D200000B57C480168B9420ED0FFF730FC1520A1
:101D3000537461636B206E6F742062616C616E63BB
:101D400065642E0A01F077BA47F8046D4BF6005629
:101D500000F052F900F0E7F86D480021016000BD85
:101D6000761D0000000007657865637574653000B6
:101D700040CF013087468E1D0000100009696D6D4F
:101D800065646961746547F8046D1026F7E0A41D69
:101D90000000100006696E6C696E650047F8046DFE
:101DA0002026ECE0BE1D000010000B636F6D706913
:101DB0006C656F6E6C7947F8046D3026DFE0D81DD6
:101DC000000010000A302D666F6C6461626C650063
:101DD00047F8046D4026D2E0F21D000010000A31E1
:101DE0002D666F6C6461626C650047F8046D412676
:101DF000C5E00C1E000010000A322D666F6C646195
:101E0000626C650047F8046D4226B8E0261E0000AB
:101E100010000A332D666F6C6461626C650047F8D0
:101E2000046D4326ABE0401E000010000A342D660E
:101E30006F6C6461626C650047F8046D44269EE037
:101E40005A1E000010000A352D666F6C6461626CCA
:101E5000650047F8046D452691E0741E00001000EF
:101E60000A362D666F6C6461626C650047F8046D1C
:101E7000462684E08E1E000010000A372D666F6C27
:101E80006461626C650047F8046D472677E0BE1E0A
:101E90000000000008636F6E7374616E740000B51B
:101EA00000F099F9FFF7F8FD47F8046D44F27076F9
:101EB00000F0A2F8FFF78CFF00F035F800BD181F06
:101EC000000000000932636F6E7374616E7400B5B8
:101ED00000F081F939683E600E46FFF7DDFDE1E76D
:101EE000000040F20000C0F200005FF000007FF050
:101EF0000100C0FF0000C0FF00F800F00400002057
:101F000038030020181C00002E1A000008000020D2
:101F10000C0000201C0000206E1F00000000067353
:101F20006D756467650023480168234A914280F01B
:101F30001A8000B502390A88204B9A4204D147F82A
:101F4000046D002600F058F81D48006847F8046D3D
:101F500006001C4909680431164A1368116000F034
:101F60004BF8136000BD47F8046D002607E0C81F5A
:101F70000000000008736574666C6167730000B54B
:101F80000C4801680C4A914280F006800C480168B8
:101F90003143016040CF00BD320040CF09480068A6
:101FA00004300188054B99420CBF11461143018052
:101FB00000BD00000400002000000020FFFF000022
:101FC0002800002008000020EE1F0000000007612C
:101FD0006C69676E342C00B57448016802200140BA
:101FE00004D047F8046D002600F006F800BD242058
:101FF0000000000002682C000FB56C4801686C4AB4
:10200000914280F0068047F8046D0E00FEF773FFE2
:1020100002E0320040CF0A8047F8046D022600F04B
:1020200041F80FBD3E2000000000012C00B547F82C
:10203000046DFFF7E1FF360CFFF7DEFF00BD5A200D
:1020400000000000033E3C2C00B547F8046D360C40
:10205000FFF7D2FFFFF7D0FF00BD9820000000007F
:1020600007737472696E672C07B5300040CF017832
:102070000131022909D3028847F8046D1600FFF7E1
:10208000BBFF0230023906D0F3E7027847F8046D4F
:102090001600FFF7B1FF07BDF22000000000056148
:1020A0006C6C6F7441480168414A91420FD2320012
:1020B00040CF89183F4A914219D3FFF768FA0B467F
:1020C0006C6173682066756C6C0A01F0B4B83200FC
:1020D00040CF8918384A1268914208D3FFF757FA5F
:1020E0000952616D2066756C6C0A01F0A4B801603C
:1020F00070471A21000000000D636F6D70696C65F8
:10210000746F72616D3F47F8046D002627480068C0
:102110002749884248D3F64370473A21000000001F
:102120000C636F6D70696C65746F72616D001F4830
:1021300000681F49884211D37047C8210000000081
:102140000E636F6D70696C65746F666C61736800A7
:10215000164800681649884200D270471748184947
:1021600002680B680A6003601048164902680B6831
:102170000A60036010480068834215D300B5FFF77A
:1021800006FA23205661726961626C657320636F81
:102190006C6C69646520776974682064696374692C
:1021A0006F6E6172790A00BD704700000400002064
:1021B00000000020000001002C000020080000208A
:1021C0002400002020000020AC2200000000066354
:1021D00072656174650000B500F0D6FC300040CF38
:1021E000017800290ED1FFF7D2F9152043726561FD
:1021F0007465206E65656473206E616D6520210ACB
:1022000001F019B847F8046D060047F8046D00F0B6
:102210007CF940CF300040CF00280ED0FFF7B7F94F
:10222000095265646566696E652047F8046DFFF7BD
:10223000D2F9FFF7ACF9022E0A0000F0ECF98F4852
:1022400000688F49884280F01E808E48002101601E
:1022500047F8046D0626FFF725FF39683E600E46F5
:10226000FFF702FF884801680A68B2F1FF3F07D113
:10227000824A1368116047F8046DFFF7D7FE1360B8
:10228000066040CF00BD804847F8046D0668FFF740
:10229000CDFE47F8046D0026F643FFF7ADFE7A4801
:1022A000310040CF0160FFF7DFFE00BDC422000017
:1022B0000000087661726961626C650047F8046D20
:1022C000012613E0DC220000000009327661726909
:1022D00061626C6547F8046D022607E0B8230000D0
:1022E0000000096E7661726961626C6500B5FFF786
:1022F00072FF62480168624A914280F035800F2087
:102300000640B20061480168891A614A91420BD2C5
:10231000FFF73DF90F4E6F7420656E6F756768208B
:1023200052414D0A00F087BF016047F8046D0E006E
:10233000FFF7B2FB47F8046D44F27076FFF75CFEDE
:10234000300040CF0200002805D00E600431FFF7B6
:102350006DFE0138F9D147F8046D80261643FFF76A
:102360000EFEFFF7E0FD00BD00F055F9022006402B
:1023700040CF04D147F8046D3626FFF73DFE47F8FD
:10238000046D444EFFF760FE47F8046D424EFFF7C0
:102390005BFE47F8046D44F27076FFF72DFE3000C7
:1023A00040CF002803D0FFF741FE0138FBD1FFF7F3
:1023B0000FFDFFF7B8FD00BD9C2400000000076280
:1023C00075666665723A00B5FFF705FF012030407B
:1023D000361802203040361828480168284A9142B1
:1023E00080F0298029480168891B294A91420BD233
:1023F000FFF7CDF80F4E6F7420656E6F756768201C
:1024000052414D0A00F017BF016047F8046D0E00FD
:10241000FFF742FB47F8046D44F27076FFF7ECFDDE
:10242000FFF704FE47F8046D40F24016FFF7A7FDE2
:10243000FFF779FD00BD00F0EEF80220064040CF26
:1024400004D147F8046D3626FFF7D6FD47F8046D32
:10245000104EFFF7F9FD47F8046D0F4EFFF7F4FD3E
:1024600047F8046D44F27076FFF7C6FDFFF71AFED9
:10247000FFF7AEFCFFF757FD00BD00000400002091
:102480000000002028000020080000202C00002070
:10249000000400203E60043F02367E46CC2400004B
:1024A00000000F44696374696F6E617279737461BF
:1024B00072742C4800682C4B1B682C4947F8046D3B
:1024C000884201D22A4E70471E007047FE24000049
:1024D00000000A736B6970737472696E67003178FB
:1024E000013101220A4089187618704706B4017834
:1024F000013101220A408918401806BC704778252E
:10250000000000000466696E64001FB53400FFF728
:10251000D0FF300040CF002600238179FF291CD056
:102520008188144A9142026812D0063047F8046D3F
:10253000060047F8046D2600FEF7A9FF002E40CFE5
:1025400006D0FFF7D3FF06000B000848864204D2EE
:10255000B2F1FF3F01D01000DFE747F8046D1E0025
:102560001FBD000004000020080000200000002023
:10257000AC000000FFFF0000D22500000000066351
:102580006A756D702C00320040CF310040CF8B1B3C
:10259000043B9C49194000290DD09B4881420AD038
:1025A000FEF7F5FF0D4A756D7020746F6F20666140
:1025B000720A00F040BE5B10FF210B401343300055
:1025C0001E0000B5914A13681060FFF715FD1360F7
:1025D00000BD0A2600000000056A756D702C3100F0
:1025E00040CF300040CF0B1A043B894919400029E5
:1025F00002D0884A9142D3D15B10874A134053F4EA
:10260000604347F8046D1E00DBE7FE260000000073
:1026100004686572650047F8046D7C4E3668704743
:1026200000B547F8046D42F60066FFF7E5FC47F891
:10263000046D4CF64076FFF7DFFC00BDEBE700B51C
:1026400000F03AF839683E600E4647F8046D4DF2E6
:102650000016FFF798FF00BD00B500F02DF83968AF
:102660003E600E4647F8046D4DF20076FFF78BFF93
:1026700000BD00B5FFF7D4FF00F01EF839683E60DA
:102680000E4647F8046D4DF20006FFF77CFF00BDD3
:1026900000B500F011F839683E600E46FFF79FFF65
:1026A00000BD00B5FFF7BCFFFFF7B5FF47F8046DAD
:1026B0000226FFF7F7FC00BD00B5FFF7ACFF47F8B7
:1026C000046D0226FFF7EEFC00BD00B5FFF7A3FF87
:1026D000FFF785FF00BD00B5FFF79DFF47F8046DCC
:1026E0004DF20006FFF74FFF00BD00B5FFF793FF67
:1026F00047F8046D4DF20016FFF745FF00BD3A277D
:1027000000003000047468656E00052E01D140CFD2
:10271000DBE7022E01D140CFDDE7FEF738FF17538C
:1027200074727563747572657320646F6E2774209C
:102730006D617463680A00F07EBD6627000030009A
:1027400004656C73650000B5022E7FF4E6AF40CFE0
:10275000FFF7B2FF39683E600E46FFF7BCFF47F84F
:10276000046D052600BD7E2700003000026966006A
:1027700000B5FFF796FF47F8046D022600BDA427B9
:10278000000030000672657065617400042EC4D1CB
:1027900040CF39683E600E4600B5FFF779FFFFF77E
:1027A0009AFF00BDC02700003000057768696C659E
:1027B000012EB2D140CF00B5FFF7DAFF023600BDDF
:1027C000D4270000300005756E74696C012EA4D109
:1027D00040CF4EE7E8270000300005616761696E71
:1027E000012E9AD140CF53E71C280000300005622B
:1027F0006567696E00B5FFF721FF47F8046D012694
:1028000000BD000001FFFFFF00FFFFFF04000020EC
:1028100001F8FFFF00F8FFFFFF0700002C28000071
:102820002000016B47F8046D029E70473C280000B1
:102830002000016A47F8046D009E70474C28000094
:102840002000016947F8046D260070478C280000BD
:102850003000056C6561766500B5684801683B002D
:10286000043F1A68043B1A60043304338B42F8D1E6
:1028700003B4FFF721FF03BC330040CF04390B60E2
:10288000016004390A6801320A6000BD9E28000018
:10289000200006756E6C6F6F700030BC7047D628D4
:1028A00000003000052B6C6F6F70032E00D034E7F2
:1028B00040CF00B547F8046D514EFFF7ADF9FFF773
:1028C000CBFE1AE014F10044641BA41940CF2C4441
:1028D000A4F100447047182900003000046C6F6FA9
:1028E0007000032E00D018E740CF00B547F8046D04
:1028F000444EFFF791F9FFF7A2FE00F023F93F489D
:10290000310040CF016047F8046D3F4EFFF784F976
:1029100000BD0134AC4270476029000078000264B9
:102920006F0000B547F8046D384EFFF775F933486E
:10293000016847F8046D0E0047F8046D0026076033
:10294000FFF77CFE47F8046D032600BD00B500F0DC
:102950002FF8ECE730B4340040CF350040CF70475B
:10296000102A00007800033F646F00B547F8046D3B
:10297000264EFFF751F947F8046D44F2AC26FFF7F5
:102980003BFB1E48016847F8046D0E00FFF794FEFC
:10299000013647F8046D012618480760FFF74EFE20
:1029A00047F8046D032600BD00B500F001F8E2E72A
:1029B00000B547F8046D4BF23046FFF71DFB47F8B2
:1029C000046D0426FEF7D6FF013B08D047F8046DDE
:1029D0000526FEF7CFFF013B00F006FC00BD47F8DF
:1029E000046D3526FFF708FB47F8046D4CF640767A
:1029F000FFF702FB00F0F8FB00BD0000180000200C
:102A0000C4280000122900009A2800005429000060
:102A10002A2A0000300004636173650047F8046DE2
:102A2000002647F8046D08267047402A0000300051
:102A3000033F6F664D4809E0013EB64140CF704705
:102A4000E42A00007800026F66004948082E00D092
:102A500063E640CF00B547F8046D0600FFF7DCF8E9
:102A6000FFF72AFE39683E600E46013647F8046DCE
:102A7000092647F8046D4CF64076FFF7BDFA00BD15
:102A800000B5300040CF013B01B400F0ADFB01BC0C
:102A9000082E00D041E640CF47F8046D0600FF2124
:102AA0003140B14204D133490E43FFF7A5FAD7E7CD
:102AB000FEF7ACFE002E40CF04D02F480643FFF7B0
:102AC000C3FACDE747F8046D0026FEF753FF47F839
:102AD000046D44F2B026FFF78FFAC1E7300040CF13
:102AE000B04270471A2B0000300005656E646F66B7
:102AF000092E00D011E640CF00B540B440CFFFF71B
:102B0000DBFD39683E600E46FFF7EFFD47F8046DC8
:102B100040BC47F8046D082600BD7C2B0000300047
:102B200007656E6463617365082E00D0F5E540CFDC
:102B300000B547F8046D4CF64076FFF75DFA00F0FB
:102B400001F800BD00B5300040CF00280DD003B41F
:102B500001213140002903D0013EFFF7BCFD01E017
:102B6000FFF7B3FD03BC0138EFE700BD382A0000D2
:102B7000DC2A0000002E0000000FB6F1922B0000AE
:102B8000000005746F6B656E202047F8046D060029
:102B900005E0F02B0000000005706172736530B530
:102BA00010480178104A1278104B00248018202E0B
:102BB00007D1914210D0013001320578B542F8D0EA
:102BC00006E0914208D0013001320578B54203D0C9
:102BD000013301341D70F4E703480270034E347072
:102BE00030BD0000700000200000002038030020ED
:102BF0002E2C00000000056469676974CD4B1B68CA
:102C0000303E0BD30A2E0BD3073E0A2E06D3242EBA
:102C100006D3203E0A2E01D3242E01D3002670476E
:102C20009E42FBD247F8046D0026F6437047362DCE
:102C300000000000066E756D626572003FB53000E1
:102C400001780126012204B4BA4B1B680024002538
:102C500000293CD00130013902782D2A04D101B07D
:102C60000022D24304B4F3E7232A01D10A23EFE779
:102C7000242A01D11023EBE7252A01D10223E7E71B
:102C80002E2A01D10226E3E72C2A36D047F8046D1C
:102C90001600FFF7B5FF002E40CF2BD047F8046D8C
:102CA000260047F8046D2E0047F8046D1E0047F813
:102CB000046D00260FB4FDF732FB0FBC350040CF8A
:102CC000340040CF0022A419554140CFC0E704BCD6
:102CD000002A04D50022E443ED430134554133007A
:102CE0002600012B02D047F8046D2E0047F8046D32
:102CF0001E003FBD01B000263FBD25000024022676
:102D00000029E4D0425C01392E2AF9D047F8046D3D
:102D10001600FFF775FF002E40CFEBD0043F3C605C
:102D200047F8046D1E000FB4FDF7A8FB0FBC34007C
:102D300040CF40CFE4E7562D00000000062E646926
:102D4000676974000A2E3CBF303603E0242E34BF7E
:102D50003736232670478C2D0000000004686F6C06
:102D60006400330040CF744801783F290DD201310F
:102D700001704018012907D0013802780130027033
:102D8000013801390129F7D103707047AC2D0000DB
:102D9000000005686F6C643C330040CF66480178E2
:102DA0003F2902D20131017043547047C42D000005
:102DB0000000047369676E00002E01D440CF704795
:102DC0002D26CEE7D42D0000000002233E0004375C
:102DD000594E7047EC2D000000000366235310B5D8
:102DE000202400F008F8013CFBD110BD0E2E00009D
:102DF00000000266230000B547F8046D4D4E3668AA
:102E0000FDF779FAFFF79EFFFFF7C6FF00BD2A2EF8
:102E1000000000000223530000B500F00AF8002E65
:102E2000FBD138680028F8D100BD562E0000000004
:102E3000012300B547F8046D3E4E366847F8046D2F
:102E40000026FDF77BFBFDF75FF940CFFFF77AFF28
:102E5000FFF787FF00BD682E00000000023C230042
:102E600035480021017070477A2E0000000002668C
:102E70002E0047F8046D202604E0C82E0000000054
:102E800003662E6E00B510B4340040CFFDF724FD6C
:102E9000FDF7EDF947F8046D0026FFF7E1FFFFF7B6
:102EA000BBFF40CF2C26FFF777FF002C03D0FFF7A6
:102EB000A2FF013CFBD110BC40CFFFF77DFF47F8DC
:102EC000046D47F8046D1CE0DE2E00000000037561
:102ED000642E00B5FFF7C4FFFFF79EFF11E0102F2F
:102EE0000000000002642E0000B5FDF7F5FCFDF7C0
:102EF000BEF9FFF7B5FFFFF78FFFFDF7F7FCFFF710
:102F00005BFFFFF764FFFEF766FBFEF7F9FA00BD13
:102F1000222F0000000002752E0047F8046D0026E5
:102F2000D7E73C2F00000000012E47F8046DF6178C
:102F3000DAE7000010000020300000200E32000010
:102F4000000009696E7465727072657430B5C648A8
:102F500087420BD9FEF71BFB10537461636B20751E
:102F60006E646572666C6F770A0064E1BF488742E1
:102F70000AD2FEF70CFB0F537461636B206F76650A
:102F800072666C6F770A56E1FFF7FEFD300040CFA6
:102F90000178002900D130BDB54C2568002D01D144
:102FA0003D00256047F8046D0600FFF7AEFA3100DA
:102FB00040CF320040CF002A17D147F8046D0600F9
:102FC000FFF73CFE320040CF002AC0D147F8046D25
:102FD0000600FEF700FBFEF7DAFA0C206E6F742095
:102FE000666F756E642E0A0025E1A24B1B68002BEC
:102FF0001ED10025256030230B40302B11D147F81E
:10300000046D0600FEF7E7FAFEF7C1FA12206973B5
:1030100020636F6D70696C652D6F6E6C792E0A0080
:1030200009E147F8046D1600FEF7A1FEFFF78FFFD8
:1030300080200840802810D0EB1B9B0840200840CF
:10304000402810D108200840082802D1002B00D0C9
:103050001FE00F200840834205D347F8046D160097
:10306000FEF785FE73E700F0BFF847F8046D160021
:1030700010220A40102A02D1FEF779FE67E72022CB
:103080000A40202A02D1FEF7C7FD60E7FEF7CFFC19
:103090005DE7072001401000FEF7D5FD01291FD193
:1030A000012BDAD1FF213140B14204D140880643DF
:1030B000FEF7A2FF4BE7FEF7A9FB002E40CF04D09E
:1030C00040680643FEF7C0FF41E747F8046D00265D
:1030D000FEF750FC47F8046D0688FEF78DFF36E7D3
:1030E000022902D1012BB8D1EFE7032926D1012B08
:1030F000B3D1FF213140B1420AD15F490E43FEF7FF
:103100007BFF043247F8046D1600FEF785FD1EE7CD
:10311000FEF77CFB002E40CF04D058490E43FEF74B
:1031200093FFEEE747F8046D0026FEF723FC02321A
:1031300047F8046D1600FEF76FFD08E7042918D163
:10314000012B8AD1330040CF002B00D1FFE61F2294
:103150001A409A4205D047F8046D4688FEF74CFFA6
:10316000F5E647F8046D06889B011E43FEF744FF11
:10317000EDE6052924D1012B10D147F8046D002676
:10318000FEF7F8FB47F8046D0600FEF745FD47F82B
:10319000046D4CF64076FEF72FFFD8E647F8046D35
:1031A0000026FEF7E7FB47F8046D0126FEF7E2FB79
:1031B000FEF749FD47F8046D0600FEF72DFDC6E653
:1031C00006290ED1012B7FF448AFFEF71FFB002E1E
:1031D00040CF3FF47AAFD0F802000643FEF734FF49
:1031E000B5E601308047B2E600B5002B0CD0013BBC
:1031F00047F8046D1E0057F82660FEF74DFC002BC3
:10320000F5D1043D2F0040CF0025256000BD2A32B6
:103210000000810009686F6F6B2D7175697447F844
:10322000046D174E7047543200008C3200000000CD
:10323000047175697400DFF84CD00B4F12480A21F5
:1032400001600C48002101600948002101600C4820
:1032500000688746FEF7DCF8FFF778FEFEF797F97F
:1032600005206F6B2E0AF5E7380200203801002098
:10327000140000200C000020003E00000006B6F103
:10328000E84F002038030020100000209C3200008E
:1032900020000465696E740062B67047AC320000AD
:1032A00020000464696E740072B67047B832000082
:1032B0000000036E6F707047E232000081000B69FE
:1032C00072712D7379737469636B47F8046D974E4F
:1032D0007047B632000044F6E470C2F200000068A5
:1032E00087460A3300008100096972712D66617595
:1032F0006C7447F8046D8E4E70478C00000044F6E5
:10330000E070C2F20000006887463233000081009E
:10331000096972712D657874693047F8046D854EBE
:103320007047B632000044F6DC70C2F2000000685C
:1033300087465A3300008100096972712D657874DF
:10334000693147F8046D7C4E7047B632000044F690
:10335000D870C2F200000068874682330000810006
:10336000096972712D657874693247F8046D734E7E
:103370007047B632000044F6D470C2F20000006814
:103380008746AA3300008100096972712D6578743F
:10339000693347F8046D6A4E7047B632000044F650
:1033A000D070C2F2000000688746D233000081006E
:1033B000096972712D657874693447F8046D614E3E
:1033C0007047B632000044F6CC70C2F200000068CC
:1033D0008746F83300008100076972712D616463CC
:1033E00047F8046D584E7047B632000044F6C87076
:1033F000C2F200000068874600400000FFFF182D61
:103400002D2D20466C6173682044696374696F6E6A
:10341000617279202D2D2D00FDF7CAFF4B4885469E
:103420004B4F2A264B484C4901604C484C4901609F
:103430004B484C4D040002680430018802304FF6BE
:10344000FF73994222D0484B0B4009D0FFF74EF84A
:10345000FEF7F9FB0388408800040343ED1A15E0EA
:1034600080230B4012D00F23194089006D1AFFF7FB
:103470003DF8FEF7E8FB47F8046D060047F8046DD9
:103480002E0047F8046D0E00FDF7B6FBB2F1FF3FCA
:1034900005D0100006321278FF2A00D0CAE7334860
:1034A00004603348056033483349344A884204D0C5
:1034B000023803889342F9D0023031490860FEF7A0
:1034C00066F8354D6563726973702D5374656C6C65
:1034D0006172697320312E3120666F722053544D12
:1034E000333246313033206279204D61747468691B
:1034F0006173204B6F63680A22480A2101602248E9
:1035000000210160214800210160214847F8046D35
:103510000600FEF7FAFF40CF002E02D0FEF727FC90
:1035200095E640CF87E604696E697400E44F002099
:10353000E04F0020DC4F0020D84F0020D44F002067
:10354000D04F0020CC4F0020C84F0020380300206F
:1035500038020020040000200004002008000020A1
:10356000AC000000005000200001000024000020FA
:103570002C0000200000010000400000FFFF0000C0
:1035800020000020100000200C000020140000206B
:0435900026350000DC
:0400000508000000EF
:00000001FF
