:020000040800F2
:100000002C030020C5360000AB350000AB350000E6
:10001000AB350000AB350000AB3500000000000040
:10002000000000000000000000000000AB350000F0
:10003000AB35000000000000AB3500008335000048
:10004000AB350000AB350000AB350000AB35000030
:10005000AB350000AB350000D3350000FB350000A8
:10006000233600004B36000073360000AB3500002D
:10007000AB350000AB350000AB350000AB35000000
:10008000AB350000AB3500009936000000B501F03B
:100090000BFB16556E68616E646C656420496E7466
:1000A00065727275707420210A0000BDD2000000D4
:1000B000FFFF1E2D2D2D204D6563726973702D532A
:1000C00074656C6C6172697320436F7265202D2DAD
:1000D0002D00EA00000042000432647570003868A8
:1000E00047F8046D043F38607047FC000000620070
:1000F000053264726F70043740CF70471A010000F8
:10010000440005327377617007CF043F386047F8C9
:10011000046D043F3A600E0070472E01000062003B
:1001200004326E69700007CF043F386070474801A1
:100130000000440005326F766572B86847F8046DB8
:10014000043F3860FE6870476C01000044000532CF
:100150007475636B07CF043F386047F8046D043F44
:100160003A60043F3960043F386070478E010000F8
:1001700046000432726F74003868B9683A69B86032
:1001800039613A6079687E60FE68F9607047B00155
:100190000000460005322D726F743868B9683A69FC
:1001A00038613960BA60F968FE607E6879607047CE
:1001B000C4010000200003323E7201CF01B440B4FC
:1001C00040CF7047DC01000020000332723E47F848
:1001D000046D40BC01BC043F38607047F40100006E
:1001E00020000332724047F8046D019E47F8046D09
:1001F000009E704706020000200006327264726F93
:10020000700002B070471E02000042000364322FEB
:100210003868F107761040080843386070473202AA
:10022000000062000364322A3868001876413860A2
:1002300070474C0200004200046473687200386822
:10024000F1077608400808433860704762020000F2
:100250006200046473686C00386800187641386086
:100260007047740200004200046461627300002E53
:1002700014D470478E0200004300083F646E656727
:1002800061746500300040CF002807D47047AC028D
:100290000000420007646E6567617465386800217C
:1002A000C043F64301304E4138607047C40200003D
:1002B000640002642D0007CF121AB1410E00043F02
:1002C0003A607047DA020000640002642B0007CF36
:1002D00012184E41043F3A607047EC020000610082
:1002E00003733E6447F8046DF6177047000300007F
:1002F000620003756D2A3868A0FB060638607047F7
:10030000140300006200026D2A00386880FB0606B4
:10031000386070475203000044000375642A07CF19
:10032000564341437618010C130C59437618010CBF
:1003300080B292B25143434350430022C918524104
:100340001204B6180A04090C80184E41043F3860A4
:100350007047E403000044000475646D2A0010B582
:10036000002447F8046D7E6847F8046D3E69FFF786
:10037000C2FF310040CF300040CF47F8046D3E68E7
:1003800047F8046DFE6803B4FFF7B5FF03BC330004
:1003900040CF320040CF47F8046D3E6847F8046D07
:1003A0003E690FB4FFF7A7FF0FBC9219634140CF1E
:1003B00089196241634140CF47F8046D7E6847F870
:1003C000046DFE680FB4FFF796FF0FBC92196341EE
:1003D00040CF89196241634140CF1E003A60796085
:1003E000B86010BD060400004300022A2F0000B5CB
:1003F00040B440CFFFF789FF47F8046D40BC00F0E0
:1004000062F8043700BD280400004300052A2F6D60
:100410006F6400B540B440CFFFF777FF47F8046D35
:1004200040BC00F050F800BD4A04000043000375D2
:100430002A2F00B540B440CFFFF75DFF47F8046DA9
:1004400040BC00F01BF8043700BD6E040000430000
:1004500006752A2F6D6F640000B540B440CFFFF7DA
:100460004AFF47F8046D40BC00F008F800BDBA042C
:100470000000430006756D2F6D6F640010B478683E
:1004800039680022002420236400001849415241A9
:10049000964201D8921B0134013BF5D12023640020
:1004A00049185241964201D8921B0134013BF6D1C2
:1004B00004373A60260010BC70472E050000430048
:1004C000056D2F6D6F6400B5F01718D0764200F0FF
:1004D00019FAF0170DD0FFF7E1FE00F007FAFFF769
:1004E000CDFF39683E600E46764239683E600E4662
:1004F00000BD00F0FBF9FFF7C1FF764200BD00F040
:1005000001FAF0170ED0FFF7C9FE00F0EFF9FFF780
:10051000B5FF764239683E600E46764239683E60E5
:100520000E4600BD00F0E2F9FFF7A8FF00BD8A0506
:10053000000044000675642F6D6F640030B43C68A1
:10054000B86879680022002520236D000018494111
:100550005241944201D8121B0135013BF5D120B420
:10056000002520206D00491852415B419E4204D86D
:10057000944202D8121BB34101350138F2D13D60DB
:10058000BA607B6040BC30BC70470006000044008D
:1005900005642F6D6F6400B5F01719D0FFF77EFE6C
:1005A000FFF7B2FDF0170CD0FFF778FEFFF7ACFDB8
:1005B000FFF7C4FFFFF7A8FDFFF770FEFFF7A4FDEC
:1005C00000BDFFF7A1FDFFF7B9FFFFF767FE00BD14
:1005D000FFF79AFDF0170ED0FFF760FEFFF794FDCE
:1005E000FFF7ACFFFFF75AFEFFF78EFDFFF756FE51
:1005F000FFF78AFD00BDFFF787FDFFF79FFF00BDF6
:1006000016060000440002642F0000B5FFF7C3FF88
:10061000FFF789FD00BDAE060000440002662A0017
:1006200000B5F0170DD0FFF739FEFFF76DFDF0179D
:100630000DD0FFF733FEFFF792FE40CF01CF3860B9
:1006400000BDFFF761FDF017F5D0FFF727FEFFF7BC
:1006500086FE40CF01CF3860FFF720FE00BD30B4EA
:100660003C68B9687A680023002520206D0049188D
:1006700052415B419E4204D8944202D8121BB341BE
:1006800001350138F2D1290020206D0092185B411C
:100690009E4204D8944202D8121BB341013501385E
:1006A000F3D13D60BA607B600E0030BC7047FA0643
:1006B0000000440002662F0000B5F0170ED0FFF7CF
:1006C000EDFDFFF721FDF0170ED0FFF7E7FDFFF777
:1006D0001BFDFFF7C4FFFFF726FD00BDFFF714FD6C
:1006E000F017F4D0FFF7DAFDFFF70EFDFFF7B7FFC5
:1006F000FFF7D4FDFFF717FD00BD0E070000200037
:100700000232210006CF3160726040CF704722076D
:100710000000200002324000043F706838603668F4
:1007200070474207000044000364753C07CF8E42C7
:1007300004D801D1904201D8002670470026F64324
:1007400070476207000044000364753E07CFB14262
:1007500004D801D1824201D8002670470026F64312
:10076000704782070000440002643C0007CF8E42BD
:1007700004DC01D1904201DC002670470026F643DC
:100780007047A2070000440002643E0007CFB14258
:1007900004DC01D1824201DC002670470026F643CA
:1007A0007047B207000062000364303C0437F6175C
:1007B0007047CC07000042000364303D01CF0028A1
:1007C00001D000267047013EB6417047E6070000A1
:1007D000440003643C3E07CF904201D1761A01D019
:1007E0000026F643704702080000440002643D0002
:1007F00007CF904201D000267047761A013EB641DD
:1008000070471408000020000373704047F8046D1F
:100810003E00704724080000200003737021370059
:1008200040CF70473608000020000372704047F840
:10083000046D6E4670474608000020000372702168
:10084000B54640CF70476008000000000564657041
:100850007468E549C91B890847F8046D0E007047A4
:100860007008000061000364757047F8046D7047FC
:100870008008000061000464726F700040CF704710
:10088000960800006100043F64757000002E01D0DE
:1008900047F8046D7047AA0800006200047377618E
:1008A000700039683E600E007047B80800006200B2
:1008B000036E697004377047CC0800006200046F53
:1008C0007665720047F8046D7E687047E2080000A4
:1008D0006200047475636B0001CF083F7E6038606E
:1008E0007047F8080000630003726F7403CF083F7D
:1008F00078603E600E007047100900006300042D10
:10090000726F740003CF083F7E6039600600704745
:10091000220900002000047069636B0057F826600C
:100920007047320900002000023E720040B440CF00
:10093000704744090000200002723E0047F8046D31
:1009400040BC70475609000020000272400047F882
:10095000046D009E704766090000200005726472F5
:100960006F7001B070477C090000600004747275FC
:10097000650047F8046D0026F643704790090000B3
:1009800060000566616C736547F8046D002670476A
:10099000A60900006E0003616E6401CF0640704737
:1009A0000640000616F0BE0900006E00036269638F
:1009B00001CFB043060070478643000636F0D409E5
:1009C00000006E00026F720001CF064370470643BD
:1009D000000656F0EA0900006E0003786F7201CF3E
:1009E000464070474640000696F0F8090000610056
:1009F000036E6F74F6437047080A000061000363DA
:100A00006C7AB6FA86F67047160A00006100037326
:100A1000687276087047240A000061000373686CEE
:100A200076007047340A0000610003726F725FEA5B
:100A300076067047460A0000610003726F6CB619B3
:100A400056F100067047600A00006C000672736879
:100A50006966740001CFF040060070473608002632
:100A60007A0A00006C00076172736869667401CFCE
:100A70003041060070473610F617940A00006C00EB
:100A8000066C73686966740001CFB0400600704759
:100A900036000026A40A0000610002303D00013E3D
:100AA000B6417047B60A0000610003303C3E013E8B
:100AB000B641F6437047C40A0000610002303C00B2
:100AC000F6177047DC0A00004200023E3D0001CFED
:100AD000B042B4BF00264FF0FF367047F40A000062
:100AE0004200023C3D0001CFB042CCBF00264FF097
:100AF000FF3670470A0B00004200013C01CFB042B4
:100B0000B4BF4FF0FF3600267047200B00004200B4
:100B1000013E01CFB042CCBF4FF0FF3600267047F8
:100B2000340B0000620003753E3D01CF861BB641C9
:100B3000F6437047480B0000620003753C3D01CF4F
:100B4000361AB641F64370475A0B00006200027530
:100B50003C0001CF861BB64170476C0B0000620061
:100B600002753E0001CF361AB6417047820B000075
:100B70006B00023C3E0001CF361A18BF4FF0FF3623
:100B80007047940B00006B00013D01CF361A013E07
:100B9000B6417047A80B00006200036D696E01CF7B
:100BA000B042B8BF06467047BC0B00006200036D40
:100BB000617801CFB042C8BF06467047D20B000033
:100BC000620004756D61780001CFB04288BF0646AF
:100BD0007047EC0B0000620004756D696E0001CF78
:100BE000B04238BF064670472C0200202A0C000095
:100BF0000000046D6F76650007B5310040CF32000C
:100C000040CF00290FD0B2420DD006D3013E013AA9
:100C1000705C50540139FBD105E03078107001361A
:100C200001320139F9D140CF07BD4C0C0000000062
:100C30000466696C6C00300040CF310040CF002961
:100C400002D001397054FCD140CF7047580C0000DD
:100C50002000014036687047700C00006D000121D3
:100C600003CF30600E007047066070470160704728
:100C7000960C00006D00022B210003CF3268121881
:100C800032600E0070470268921902607047026875
:100C9000521802607047A40C000020000268400057
:100CA00036887047BE0C00006D000268210003CF3B
:100CB00030800E0070470680704701807047E40C5A
:100CC00000006D0003682B2103CF32881218328098
:100CD0000E007047028892190280704702885218ED
:100CE00002807047F20C000020000263400036785A
:100CF00070470C0D00006D000263210003CF3070BF
:100D00000E0070470670704701707047320D00008A
:100D10006D0003632B2103CF3278121832700E005E
:100D20007047027892190270704702785218027068
:100D300070475A0D00006D0004626973210003CFF3
:100D40003268024332600E0070470268324302602C
:100D5000704702680A4302607047820D00006D0010
:100D600004626963210003CF3268824332600E005F
:100D700070470268B2430260704702688A430260AB
:100D80007047AA0D00006D0004786F72210003CF38
:100D90003268424032600E00704702687240026062
:100DA000704702684A4002607047C40D000020008E
:100DB00004626974400001CF3668064018BF4FF0E6
:100DC000FF367047EC0D00006D0005686269732105
:100DD00003CF3288024332800E00704702883243CC
:100DE0000280704702880A4302807047140E000098
:100DF0006D0005686269632103CF328882433280C7
:100E00000E0070470288B2430280704702888A430E
:100E1000028070473C0E00006D000568786F7221FB
:100E200003CF3288424032800E0070470288724001
:100E30000280704702884A4002807047560E0000C8
:100E4000200005686269744001CF3688064018BFEB
:100E50004FF0FF3670477E0E00006D00056362693B
:100E6000732103CF3278024332700E00704702784C
:100E700032430270704702780A4302707047A60E30
:100E800000006D0005636269632103CF32788243FD
:100E900032700E0070470278B243027070470278D9
:100EA0008A4302707047CE0E00006D000563786FB4
:100EB000722103CF3278424032700E0070470278C0
:100EC00072400270704702784A4002707047E80E24
:100ED0000000200005636269744001CF3678064047
:100EE00018BF4FF0FF367047F80E00006100056331
:100EF000656C6C2B04367047080F000061000563B9
:100F0000656C6C73B60070479C0F000000000768AA
:100F1000666C61736821300040CF310040CF594B7F
:100F2000984221D3584B98421ED2584B19409942AF
:100F300019D010F00102002A16D102889A4213D16A
:100F400010F10060524A534B1360534B1360534AE5
:100F5000012313600180524A136813F00103FBD18F
:100F60004E4A80231360704700F09EFB2A57726F31
:100F70006E672061646472657373206F72206461B0
:100F8000746120666F722077726974696E6720667B
:100F90006C61736820210A0002F097BAEA0F000022
:100FA00000000E666C6173687061676565726173DD
:100FB00065000FB5300040CF324B984214D3344A0D
:100FC000344B1360344B1360344A02231360354AA8
:100FD0001060324A42231360314A136813F0010350
:100FE000FBD12E4A802313600FBD68100000000063
:100FF0000A6572617365666C61736800214872B638
:1010000021494FF6FF72038893421CD047F8046DC4
:10101000060047F8046D00F047FB104572617365E8
:1010200020626C6F636B20617420200000F0B7FBBE
:1010300000F03AFB0C2066726F6D20466C6173689D
:101040000A00FFF7B6FF02308842DCD100F02CFB2B
:101050001246696E69736865642E20526573657403
:1010600020210A0002F030BBA810000000000E652D
:1010700072617365666C61736866726F6D003000D3
:1010800040CFBCE70040000000000100FFFF00006F
:101090000420024023016745AB89EFCD10200240B8
:1010A0000C20024014200240BE1000006900012BF9
:1010B00001CF3618704736180036000616F1D410E6
:1010C00000006900012D01CF861B7047361A003ED3
:1010D0000006B6F1E2100000610002312D00013E71
:1010E0007047F0100000610002312B00013670479C
:1010F000FE100000610002322D00023E70470C110C
:101100000000610002322B00023670471E11000001
:101110006100066E65676174650076427047321142
:101120000000610003616273002E48BFD6F1000623
:10113000704750110000420005752F6D6F6401CF9C
:101140003100B0FBF6F67143401A043F3860704737
:101150006E1100004200042F6D6F640001CF31005A
:1011600090FBF6F67143401A043F386070478211D5
:1011700000004200036D6F6400B5FFF7EFFF40CF42
:1011800000BD921100006200012F01CF90FBF6F626
:101190007047A21100006A00012A01CF4643704740
:1011A0004643B0110000610002322A007600704709
:1011B000BE110000610002322F0076107047D2117C
:1011C00000006100046576656E000120304036182D
:1011D0007047EA110000810004626173650047F8FE
:1011E000046D114E70470A0000000012000000005C
:1011F0000662696E617279000B48022101607047D6
:1012000016120000000007646563696D616C064892
:101210000A21016070472C12000000000368657805
:101220000148102101607047FC4F00204812000067
:10123000810009686F6F6B2D656D697447F8046DE7
:101240006B4E70473E130000641200008100086876
:101250006F6F6B2D6B65790047F8046D654E7047B5
:10126000641300008212000081000A686F6F6B2D0A
:10127000656D69743F0047F8046D5F4E70478E13CB
:1012800000009E120000810009686F6F6B2D6B6576
:10129000793F47F8046D594E7047BA130000BC12ED
:1012A000000081000A686F6F6B2D706175736500B7
:1012B00047F8046D524E704762350000D2120000AC
:1012C000000004656D6974000FB5494800F02CF802
:1012D0000FBDE61200000000036B65790FB54548AD
:1012E00000F022F80FBDFC120000000005656D69DA
:1012F000743F00B5404800F017F800BD121300001D
:101300000000046B65793F0000B53C4800F00CF824
:1013100000BD2C130000000005706175736500B5F9
:10132000374800F001F800BD0068874652130000FE
:1013300000000B73657269616C2D656D697400B591
:1013400000F025F8002E40CFFAD02E4A167040CF7C
:1013500000BD7A13000000000A73657269616C2D8C
:101360006B65790000B500F028F8002E40CFFAD068
:1013700047F8046D234A167800BDA813000000004A
:101380000C73657269616C2D656D69743F0000B501
:10139000FFF7C5FF47F8046D00261B480168802051
:1013A000014000D0F64300BD2814000000000B737C
:1013B000657269616C2D6B65793F00B5FFF7AFFF12
:1013C00047F8046D0026104801682020014000D035
:1013D000F64300BD0D490E4808600E490E480860EE
:1013E0000E49462008600E490E480860704700000C
:1013F000F84F0020F44F0020F04F0020EC4F002069
:10140000E84F002004380140003801401810024025
:101410003D40000004080140B004000008380140CD
:101420000C3801400C2000004C1400000000076341
:1014300065787065637400B5386801B40130386050
:1014400000F00BF801BC067040CF00BDBE140000D8
:101450000000066163636570740000B502CF013956
:101460000022FFF73BFF300040CF202819D2092887
:1014700016D00A281FD00D281DD00828F1D1002A27
:10148000EFD000F011F903082008002AE9D0885CA9
:10149000013A80230340E4D040230340F5D0E0E745
:1014A0002020B242DDD247F8046D0600FFF70CFFA2
:1014B00001328854D5E7160000F0A2F800BDD01420
:1014C000000040000374696247F8046D294E7047BC
:1014D000E61400008100033E696E47F8046D264E55
:1014E0007047000000000C15000082000E6375724A
:1014F00072656E742D736F757263650047F8046DC5
:101500001E4E7047000000006400002028150000F7
:10151000000009736574736F75726365174802CFB5
:101520000660416040CF704746150000000006731A
:101530006F757263650047F8046D104E043F706864
:1015400038603668704780150000000005717565C9
:1015500072790FB5084800210160FFF7B5FF47F821
:10156000046D47F8046DC826FFF777FFFFF7D6FF35
:101570000FBD000064000020E44F0020DC4F00207D
:10158000CE150000000007636F6D706172650FB5C6
:10159000310040CF01CF884202D040CF00260FBD9E
:1015A00002CF002810D001380A5C335C412A02D3F4
:1015B0005B2A38BF2032412B02D35B2B38BF20334C
:1015C0009A42EED000260FBD0026F6430FBDE2156D
:1015D000000000000263720000B500F065F8010A27
:1015E00000BDF4150000000002626C0047F8046DB5
:1015F00020267047081600000000057370616365BF
:1016000047F8046D20265FE62E16000000000673E2
:1016100070616365730000B5002E06DD47F8046D48
:101620002026FFF751FE013EF8D140CF00BD3E1607
:1016300000005000065B636861725D0005E05616AD
:101640000000000004636861720000B501F0BEFB99
:1016500040CF367800BD661600005000012847F8DC
:10166000046D292606E0801600005000015C47F852
:10167000046D002600B501F0B3FB043740CF00BD78
:10168000C61600001000022E2200B84800B547F828
:10169000046D060000F097FA47F8046D222601F069
:1016A0009FFB00F0DEFD00BD0EB47246013A47F824
:1016B000046D16001378013313F001015B181EEB63
:1016C000030E0EBC40E0F216000010000263220080
:1016D000A748DBE70EB47246013A47F8046D1600DE
:1016E0001378013313F001015B181EEB030E0EBCDF
:1016F0007047241700001000027322009D48C5E7C0
:101700000EB4724647F8046D1600013A137847F894
:10171000046D1E00013313F001015B181EEB030E74
:101720000EBC70473C170000000005636F756E74B7
:10173000013647F8046D013E3678704766170000A1
:10174000000005637479706503B5310040CF0878F7
:10175000002807D0013147F8046D0E78FFF7B4FD7B
:101760000138F7D103BD92170000000004747970AE
:10177000650000B5300040CF002808D0002147F8B0
:10178000046D765CFFF7A0FD01318842F7D140CFB0
:1017900000BDCA1700000000046865782E0003B57C
:1017A000310040CF2020043847F8046D31FA00F6AC
:1017B00016F00F06092E8CBF37363036FFF784FD42
:1017C0000028F0D1FFF71CFF03BDDA17000000006E
:1017D00003682E731FB5684C0EE0EA170000000086
:1017E00003752E731FB5654C06E0681800000000F5
:1017F000022E73001FB5624C6249C91B8908624AF8
:10180000106803B40A201060FFF74EFF085374619C
:10181000636B3A205B0047F8046D0E0001F0A8FCF2
:10182000FFF742FF025D200003BC574A1060002909
:101830000AD0564A106806B447F8046D0600A0475F
:1018400006BC043A0139F5D1FFF72EFF0620544FAC
:10185000533A200047F8046D3600A047FFF724FFF5
:1018600004202A3E0A001FBDB618000000000464D0
:10187000756D700000B5300040CF2021FFF714FFD8
:10188000072064756D703E0A47F8046D0600FFF787
:1018900086FFFFF709FF023A2000028847F8046D2F
:1018A0001600FFF77CFFFFF7FFFE03203E0A023021
:1018B0000139E9D100BD90190000000005776F7271
:1018C000647300B5FFF7F0FE06776F7264730A0069
:1018D00000F0FDFE300040CF8179FF2944D0FFF7B2
:1018E000E3FE09416464726573733A2047F8046D3E
:1018F0000600FFF754FFFFF7D7FE064C696E6B3A00
:1019000020000268043047F8046D1600FFF747FF17
:1019100001880230FFF7C8FE07466C6167733A2002
:1019200047F8046D0E00FFF73AFF47F8046D060014
:1019300000F0EAFEFFF7B8FE06436F64653A200048
:1019400047F8046D0600FFF72AFFFFF7ADFE064ECD
:10195000616D653A2000FFF7F7FEFFF7A5FE010A6B
:10196000501C01D01000B7E700BD0000A816000011
:10197000D4160000001700009F170000613100001E
:10198000713100002C020020FC4F002028020020B2
:10199000F41A000000000D3132626974656E636FE5
:1019A00064696E670FB5FF2E04D847F8046D5FF0C9
:1019B000FF360FBD16F0FF10B0420ED14FF6FF718B
:1019C0000840310C814208D116F0FF0656F48056CB
:1019D00047F8046D5FF0FF360FBD16F0FF20B042F0
:1019E0000FD14FF6FF710840310C814209D1360A00
:1019F00016F0FF0656F4005647F8046D5FF0FF3608
:101A00000FBDFF2231001140300A1040884210D132
:101A1000300C104088420CD1300E1040884208D162
:101A200016F0FF0656F4405647F8046D5FF0FF3697
:101A30000FBD300000210131001850F100007FF08F
:101A40007F020240802A05D01F29F4D347F8046D95
:101A500000260FBD0829F9D3060036F0800611F0E4
:101A60000100C001064311F00E00C002064311F050
:101A700010008005064347F8046D5FF0FF360FBD88
:101A800047F8046DDFF828665FF4704110EA010240
:101A9000120116435FF4006110EA0102D2031643FB
:101AA0005FF4E06110EA010212011643FF2110EA1F
:101AB000010216431E43C4E347F8046DDFF8F465E2
:101AC0005FF0704110EA0102120B16435FF00061F3
:101AD00010EA0102520816435FF0E06110EA0102C9
:101AE000120B16435FF47F0110EA0102120C164339
:101AF0001E43A6E35A1B000000001072656769735D
:101B00007465726C69746572616C2C000FB533007A
:101B100040CF1B02FF2E05D856F400561E4300F09E
:101B200068FB0FBDFFF73EFF002E40CF06D0DFF869
:101B3000880506431E4300F084FB0FBDF643FFF704
:101B400031FF002E40CF06D0DFF8700506431E435C
:101B500000F077FB0FBDF6430BE0BA1B000000005E
:101B6000096D6F76776D6F76742C0FB5330040CFAB
:101B70001B02300040CFFFF783FF4FF6FF7110EAE2
:101B8000014001D0FFF798FF0FBD0FB501363000BF
:101B900040CF0023FFF774FFFFF78EFF06E00FB57D
:101BA000013647F8046D0026FFF7B0FF47F8046DD3
:101BB00044F2807600F01DFB0FBD201C00000000E9
:101BC0000563616C6C2C0FB5330000F036FE3000FD
:101BD00040CF1B1A043BDFF8E8141940002906D057
:101BE000DFF8E024914202D0BDE80F40D7E740CFB4
:101BF0005B08DFF8D40440F2FF7119400843DB0AA8
:101C000040F2FF311940090408439B0A13F0010117
:101C10008906084347F8046D060000F012FB0FBD6B
:101C2000561C00000000086C69746572616C2C0021
:101C300008B547F8046D4FF6470600F0DAFA47F8A2
:101C4000046D46F6045600F0D4FA47F8046D0626F3
:101C5000FFF75CFF08BD7A1C000000000663726598
:101C60006174650000B500F034F841F69740804794
:101C700047F8046DBEF1010600BDC41C0000200041
:101C800005646F65733E41F69740804747F8046DE1
:101C9000BEF10106704747F8046DBEF1010600F081
:101CA000E4F8DFF828241368310040CF0220084010
:101CB00000D0023102311160FFF767FF136000F0BE
:101CC00018FA00BD061D00000000073C6275696C33
:101CD000647300B500F090FB00F0AFFD02200640F9
:101CE00040CF04D047F8046D362600F082FA47F85A
:101CF000046D4BF2005600F07CFA47F8046D0A269A
:101D000000F0E2FA00BD121D00005000035B275DE9
:101D100003E0841D00000000012700B501F056F823
:101D2000320040CF330040CF002A0CD1FFF7BCFC7B
:101D3000102027206E65656473206E616D6520211B
:101D40000A0001F0C2BB47F8046D1E0047F8046D9D
:101D5000160000F0E8FC40CF002E12D147F8046DC9
:101D60001E0047F8046D1600FFF703FDFFF79CFC0B
:101D70000C206E6F7420666F756E642E0A0001F081
:101D8000A4BB00BDD61D0000100008706F737470F6
:101D90006F6E650000B501F019F832003B6800F085
:101DA000C2FC300040CF002ED8D0102101401029B5
:101DB0000ED020210140202905D1FFF739FF47F837
:101DC000046DC34E04E0FFF733FF47F8046DC14EC6
:101DD000FFF7F9FE00BD2C1E0000000007696E6CC5
:101DE000696E652C00B54BF200514BF6005244F27F
:101DF00070733088884208D0904208D0984206D04C
:101E000047F8046D060000F0F4F90236F1E740CF20
:101E100000BD0EB44BF6005244F2707301880230DC
:101E2000914201D09942F9D10EBC7047421E000088
:101E30000000047265742C0047F8046D4BF60056E0
:101E4000D7E1501E00003000046578697400F3E7A4
:101E5000861E00003000077265637572736500B5F9
:101E600000F003F8FFF7AFFE00BD0FB59A48006819
:101E700006300178013101220A408918401847F8DC
:101E8000046D06000FBD9E1E000081000573746185
:101E9000746547F8046D914E704700000000B01E55
:101EA00000000000015D8D480021C94301607047BA
:101EB000C01E00001000015B8848002101607047CF
:101EC000E81E00000000013A00B58548076000F0F8
:101ED00093FA47F8046D4BF2005600F08AF97F48F8
:101EE0000021C943016000BD301F00003000013BEC
:101EF00000B57B480168B9420ED0FFF7D5FB15202D
:101F0000537461636B206E6F742062616C616E63E9
:101F100065642E0A01F0D9BA47F8046D4BF60056F5
:101F200000F067F900F0E5F86C480021016000BDA1
:101F3000461F000000000765786563757465300012
:101F400040CF013087465E1F0000100009696D6DAB
:101F500065646961746547F8046D1026F9E0741FC3
:101F60000000100006696E6C696E650047F8046D2C
:101F70002026EEE08E1F000010000B636F6D70696D
:101F80006C656F6E6C7947F8046D3026E1E0A81F30
:101F9000000010000A302D666F6C6461626C650091
:101FA00047F8046D4026D4E0C21F000010000A313B
:101FB0002D666F6C6461626C650047F8046D4126A4
:101FC000C7E0DC1F000010000A322D666F6C6461F0
:101FD000626C650047F8046D4226BAE0F61F000007
:101FE00010000A332D666F6C6461626C650047F8FF
:101FF000046D4326ADE01020000010000A342D6669
:102000006F6C6461626C650047F8046D4426A0E063
:102010002A20000010000A352D666F6C6461626C26
:10202000650047F8046D452693E044200000100049
:102030000A362D666F6C6461626C650047F8046D4A
:10204000462686E05E20000010000A372D666F6C81
:102050006461626C650047F8046D472679E08E2064
:102060000000000008636F6E7374616E740000B549
:1020700000F0C2F9FFF7DCFD47F8046D44F270761A
:1020800000F0B7F8FFF78CFF00F033F800BDE42054
:10209000000000000932636F6E7374616E7400B5E6
:1020A00000F0AAF939683E600E46FFF7C1FDE1E78E
:1020B000000040F20000C0F200005FF000007FF07E
:1020C0000100C0FF0000C0FF00F800F00000002089
:1020D000E41D0000C61B000004000020D84F0020B3
:1020E0001000002042210000000006736D75646737
:1020F000650000B524480168234A914280F01B80A6
:1021000002390A88214B9A4204D147F8046D00260F
:1021100000F06FF800F05CF81D48006847F8046DA7
:1021200006001C4909680431174A1368116000F061
:1021300060F8136000BD00F04BF847F8046D00260E
:1021400008E098210000000008736574666C616700
:10215000730000B50C4801680B4A914280F006807C
:102160000B4801683143016040CF00BD320040CFD1
:102170000848006804300188044B99420CBF11469E
:102180001143018000BD000000000020FFFF00009F
:102190001C00002004000020A621000000000561B2
:1021A0006C69676E14E0C2210000410007616C6930
:1021B000676E6564012030403618022030403618C2
:1021C0007047E8210000000007616C69676E342CDD
:1021D00000B57F4801680220014004D047F8046D33
:1021E000002600F006F800BD1E2200000000026874
:1021F0002C000FB576480168754A914280F0068040
:1022000047F8046D0E00FEF786FE02E0320040CF74
:102210000A8047F8046D022600F056F80FBD3822F8
:1022200000000000012C00B547F8046DFFF7E1FF46
:10223000360CFFF7DEFF00BD542200000000033E15
:102240003C2C00B547F8046D360CFFF7D2FFFFF7C2
:10225000D0FF00BDBC220000000007737472696EDD
:10226000672C07B5FF21314040CF300040CF002917
:1022700005D147F8046D0026FFF7BBFF07BD47F8FF
:10228000046D067836020E43FFF7B3FF01300139C3
:1022900002290AD347F8046D4678360202781643BD
:1022A000FFF7A7FF02300239F2E7002900D107BD8E
:1022B00047F8046D0678FFF79CFF07BD1623000062
:1022C000000005616C6C6F7441480168404A91429E
:1022D0000FD2320040CF89183E4A914219D3FFF7FE
:1022E000E3F90B466C6173682066756C6C0A01F04B
:1022F000ECB8320040CF8918374A1268914208D3AF
:10230000FFF7D2F90952616D2066756C6C0A01F015
:10231000DCB8016070473E23000000000D636F6D64
:1023200070696C65746F72616D3F47F8046D0026CB
:10233000274800682649884248D3F64370475E2301
:10234000000000000C636F6D70696C65746F7261E2
:102350006D001F4800681E49884211D37047E8236A
:10236000000000000E636F6D70696C65746F666CC1
:1023700061736800164800681549884200D27047AA
:102380001648174902680B680A600360104815492F
:1023900002680B680A6003600F480068834215D327
:1023A00000B5FFF781F923205661726961626C659F
:1023B0007320636F6C6C696465207769746820644E
:1023C000696374696F6E6172790A00BD70470000BD
:1023D0000000002000000100200000200400002078
:1023E0001800002014000020CC2400000000082861
:1023F000637265617465290000B500F0E7FC002E8A
:102400000ED1FFF751F91520437265617465206E96
:1024100065656473206E616D6520210A01F055B811
:10242000386847F8046D043F386000F07CF940CF0D
:10243000002E40CF11D0386847F8046D043F386053
:10244000FFF732F9095265646566696E6520FFF72A
:1024500090F9FFF729F9022E0A00FFF7B9FE00F004
:10246000ECF98E4800688D49884280F01C808C48C9
:102470000021016047F8046D0626FFF725FFFEF7EF
:1024800041FAFFF7EEFE874801680A68531C07D13E
:10249000824A1368116047F8046DFFF7C4FE1360A9
:1024A000066040CF00BD7F4847F8046D0668FFF71F
:1024B000BAFE47F8046D0026F643FFF79AFE794806
:1024C000310040CF0160FFF7CCFE00BDE4240000E6
:1024D0000000087661726961626C650047F8046DFE
:1024E000012613E0FC2400000000093276617269C5
:1024F00061626C6547F8046D022607E0D82500008C
:102500000000096E7661726961626C6500B5FFF763
:1025100073FF62480168614A914280F035800F2064
:102520000640B20060480168891A604A91420BD2A5
:10253000FFF7BAF80F4E6F7420656E6F75676820ED
:1025400052414D0A00F0C1BF016047F8046D0E0012
:10255000FFF76EFB47F8046D44F27076FFF749FE13
:10256000300040CF0200002805D00E600431FFF794
:102570005AFE0138F9D147F8046D80261643FFF75B
:10258000E8FDFFF7B6FD00BD00F057F90220064058
:1025900040CF04D147F8046D3626FFF72AFE47F8EE
:1025A000046D434EFFF74DFE47F8046D414EFFF7B3
:1025B00048FE47F8046D44F27076FFF71AFE3000CB
:1025C00040CF002803D0FFF72EFE0138FBD1FFF7E4
:1025D000E7FCFFF78EFD00BDB82600000000076293
:1025E00075666665723A00B5FFF706FF0120304058
:1025F000361802203040361828480168274A914290
:1026000080F0298028480168891B284A91420BD212
:10261000FFF74AF80F4E6F7420656E6F756768207C
:1026200052414D0A00F051BF016047F8046D0E00A1
:10263000FFF7FEFA47F8046D44F27076FFF7D9FD14
:10264000FFF7F1FD47F8046D40F24016FFF781FDFA
:10265000FFF74FFD00BD00F0F0F80220064040CF2C
:1026600004D147F8046D3626FFF7C3FD47F8046D23
:102670000F4EFFF7E6FD47F8046D0E4EFFF7E1FD44
:1026800047F8046D44F27076FFF7B3FDFFF71CFEC8
:10269000FFF786FCFFF72DFD00BD000000000020C5
:1026A0001C00002004000020200000202C0300203B
:1026B0003E60043F02367E46E826000000000F44DC
:1026C000696374696F6E61727973746172742F4893
:1026D00000682F4B1B682D4947F8046D884201D2D2
:1026E0002C4E70471E0070471A27000000000A7326
:1026F0006B6970737472696E670031780131012201
:102700000A4089187618704706B401780131012211
:102710000A408918401806BC70479C27000000003A
:102720000466696E64003FB5350040CF3400FFF7A2
:10273000CEFF300040CF002600238179FF2920D032
:102740008188154A9142026817D0063047F8046D17
:102750000600FEF7EDFF47F8046D260047F8046D0C
:102760002E00FEF714FF002E40CF06D0FFF7CCFF5F
:1027700006000B000548864203D2501C01D0100011
:10278000DBE747F8046D1E003FBD0000000000209D
:1027900004000020AC000000FFFF0000F62700004E
:1027A000000006636A756D702C00320040CF310066
:1027B00040CF8B1B043BA349194000290DD0A248F0
:1027C00081420AD0FEF770FF0D4A756D7020746F5C
:1027D0006F206661720A00F078BE5B10FF210B402B
:1027E000134330001E0000B5984A13681060FFF7CD
:1027F00000FD136000BD2E2800000000056A756D05
:10280000702C310040CF300040CF0B1A043B904970
:102810001940002902D08F4A9142D3D15B108E4AD1
:10282000134053F4604347F8046D1E00DBE744286F
:102830000000000004686572650047F8046D834E6F
:10284000366870474029000000000D666C617368AF
:102850007661722D6865726547F8046D7F4E366843
:10286000704700B547F8046D42F60066FFF7C1FCFB
:1028700047F8046D4CF64076FFF7BBFC00BDDCE783
:1028800000B500F03AF839683E600E4647F8046D2E
:102890004DF20016FFF789FF00BD00B500F02DF8DE
:1028A00039683E600E4647F8046D4DF20076FFF73A
:1028B0007CFF00BD00B5FFF7D4FF00F01EF83968BB
:1028C0003E600E4647F8046D4DF20006FFF76DFFBF
:1028D00000BD00B500F011F839683E600E46FFF704
:1028E00090FF00BD00B5FFF7BCFFFFF7A6FF47F85C
:1028F000046D0226FFF7E8FC00BD00B5FFF79DFF61
:1029000047F8046D0226FFF7DFFC00BD00B5FFF7B6
:1029100094FFFFF776FF00BD00B5FFF78EFF47F885
:10292000046D4DF20006FFF740FF00BD00B5FFF754
:1029300084FF47F8046D4DF20016FFF736FF00BD27
:102940007C2900003000047468656E00052E01D1FA
:1029500040CFDBE7022E01D140CFDDE7FEF7A4FE3A
:10296000175374727563747572657320646F6E2784
:1029700074206D617463680A00F0A7BDA829000087
:10298000300004656C73650000B5022E7FF4E6AF7D
:1029900040CFFFF7B2FF39683E600E46FFF7BCFF3D
:1029A00047F8046D052600BDC0290000300002690B
:1029B000660000B5FFF796FF47F8046D022600BDDC
:1029C000E629000030000672657065617400042E0F
:1029D000C4D140CF39683E600E4600B5FFF779FF9D
:1029E000FFF79AFF00BD022A0000300005776869F2
:1029F0006C65012EB2D140CF00B5FFF7DAFF023689
:102A000000BD162A0000300005756E74696C012E39
:102A1000A4D140CF4EE72A2A00003000056167614B
:102A2000696E012E9AD140CF53E7602A0000300032
:102A300005626567696E00B5FFF721FF47F8046D11
:102A4000012600BD01FFFFFF00FFFFFF0000002087
:102A500001F8FFFF00F8FFFFFF0700002000002043
:102A6000702A00002000016B47F8046D029E704739
:102A7000802A00002000016A47F8046D009E70471C
:102A8000902A00002000016947F8046D2600704775
:102A9000D02A00003000056C6561766500B5684895
:102AA00001683B00043F1A68043B1A600433043396
:102AB0008B42F8D103B4FFF720FF03BC330040CFB3
:102AC00004390B60016004390A6801320A6000BDF4
:102AD000E22A0000200006756E6C6F6F700030BC3B
:102AE00070471A2B00003000052B6C6F6F70032E9F
:102AF00000D033E740CF00B547F8046D514EFFF7E3
:102B000071F9FFF7CAFE1AE014F10044641BA4191E
:102B100040CF2C44A4F1004470475C2B00003000EF
:102B2000046C6F6F7000032E00D017E740CF00B524
:102B300047F8046D444EFFF755F9FFF7A1FE00F08A
:102B400023F93F48310040CF016047F8046D3F4E04
:102B5000FFF748F900BD0134AC427047A42B0000D8
:102B6000780002646F0000B547F8046D384EFFF737
:102B700039F93348016847F8046D0E0047F8046DD1
:102B800000260760FFF77BFE47F8046D032600BDB3
:102B900000B500F02FF8ECE730B4340040CF35003A
:102BA00040CF7047542C00007800033F646F00B59D
:102BB00047F8046D264EFFF715F947F8046D44F207
:102BC000AC26FFF716FB1E48016847F8046D0E009F
:102BD000FFF793FE013647F8046D01261848076099
:102BE000FFF74DFE47F8046D032600BD00B500F069
:102BF00001F8E2E700B547F8046D4BF23046FFF705
:102C0000F8FA47F8046D0426FEF780FF013B08D070
:102C100047F8046D0526FEF779FF013B00F02EFC16
:102C200000BD47F8046D3526FFF7E3FA47F8046D59
:102C30004CF64076FFF7DDFA00F020FC00BD000006
:102C40000C000020082B0000562B0000DE2A00009C
:102C5000982B00006E2C0000300004636173650047
:102C600047F8046D002647F8046D08267047842C49
:102C700000003000033F6F664D4809E0013EB64159
:102C800040CF7047282D00007800026F6600494849
:102C9000082E00D062E640CF00B547F8046D06006C
:102CA000FFF7A0F8FFF729FE39683E600E460136AF
:102CB00047F8046D092647F8046D4CF64076FFF797
:102CC00098FA00BD00B5300040CF013B01B400F0E0
:102CD000D5FB01BC082E00D040E640CF47F8046D7C
:102CE0000600FF213140B14204D133490E43FFF7C2
:102CF00080FAD7E7FEF756FE002E40CF04D02F48CB
:102D00000643FFF79EFACDE747F8046D0026FEF76D
:102D1000FDFE47F8046D44F2B026FFF76AFAC1E7FA
:102D2000300040CFB04270475E2D00003000056596
:102D30006E646F66092E00D010E640CF00B540B437
:102D400040CFFFF7DAFD39683E600E46FFF7EEFD33
:102D500047F8046D40BC47F8046D082600BDC02D3F
:102D60000000300007656E6463617365082E00D053
:102D7000F4E540CF00B547F8046D4CF64076FFF718
:102D800038FA00F001F800BD00B5300040CF00284F
:102D90000DD003B401213140002903D0013EFFF7DB
:102DA000BBFD01E0FFF7B2FD03BC0138EFE700BD5A
:102DB0007C2C0000202D0000002E0000000FB6F13A
:102DC000D42D0000000005746F6B656E47F8046D2C
:102DD000202605E0302E000000000570617273654A
:102DE00010B5FEF7A8FB310040CF300040CF0F4AAE
:102DF00012688418202E07D191420FD0835CB34211
:102E000002D101328418F7E7914207D0835C013286
:102E1000B342F9D18618361B013E01E08618361BF5
:102E2000043F3C600148026010BD0000E44F0020F8
:102E30006E2E00000000056469676974CE4B1B6844
:102E4000303E0BD30A2E0BD3073E0A2E06D3242E78
:102E500006D3203E0A2E01D3242E01D3002670472C
:102E60009E42FBD247F8046D0026F6437047782F48
:102E700000000000066E756D626572003FB531009E
:102E800040CF701E0126012204B4BB4B1B680024F6
:102E9000002500293CD00130013902782D2A04D1C7
:102EA00001B00022D24304B4F3E7232A01D10A235C
:102EB000EFE7242A01D11023EBE7252A01D10223D1
:102EC000E7E72E2A01D10226E3E72C2A36D047F87D
:102ED000046D1600FFF7B4FF002E40CF2BD047F84B
:102EE000046D260047F8046D2E0047F8046D1E009F
:102EF00047F8046D00260FB4FDF711FA0FBC35003A
:102F000040CF340040CF0022A419554140CFC0E744
:102F100004BC002A04D50022E443ED4301345541AA
:102F200033002600012B02D047F8046D2E0047F82D
:102F3000046D1E003FBD01B000263FBD25000024EA
:102F400002260029E4D0425C01392E2AF9D047F844
:102F5000046D1600FFF774FF002E40CFEBD0043F46
:102F60003C6047F8046D1E000FB4FDF787FA0FBCF4
:102F7000340040CF40CFE4E7982F00000000062E39
:102F80006469676974000A2E3CBF303603E0242E62
:102F900034BF373623267047CE2F00000000046868
:102FA0006F6C6400330040CF744801783F290DD224
:102FB000013101704018012907D001380278013031
:102FC0000270013801390129F7D103707047EE2FE3
:102FD0000000000005686F6C643C330040CF674818
:102FE00001783F2902D20131017043547047063005
:102FF00000000000047369676E00002E01D440CF0A
:1030000070472D26CEE71A300000000002233E0054
:103010005A480678013038607047323000000000AE
:103020000366235310B5202400F008F8013CFBD1BF
:1030300010BD5430000000000266230000B547F8C0
:10304000046D4D4E3668FDF756F9FFF79CFFFFF70C
:10305000C4FF00BD7030000000000223530000B523
:1030600000F00AF8002EFBD138680028F8D100BD26
:103070009C3000000000012300B547F8046D3E4E6F
:10308000366847F8046D0026FDF758FAFDF73CF85E
:1030900040CFFFF778FFFFF785FF00BDAE3000009F
:1030A0000000023C23003548002101707047C03009
:1030B0000000000002662E0047F8046D202604E0A0
:1030C0000E310000000003662E6E00B510B434000F
:1030D00040CFFDF701FCFDF7CAF847F8046D002664
:1030E000FFF7E1FFFFF7BBFF40CF2C26FFF775FF8F
:1030F000002C03D0FFF7A2FF013CFBD110BC40CF56
:10310000FFF77BFF47F8046D47F8046D1CE024319E
:10311000000000000375642E00B5FFF7C4FFFFF741
:103120009EFF11E056310000000002642E0000B541
:10313000FDF7D2FBFDF79BF8FFF7B5FFFFF78FFF19
:10314000FDF7D4FBFFF759FFFFF762FFFEF711FB16
:10315000FEF756FA00BD68310000000002752E002F
:1031600047F8046D0026D7E7803100000000012EEB
:1031700047F8046DF617DAE7FC4F00202400002022
:10318000C83100000000086576616C7561746500E7
:1031900000B5FEF7D0F901CF01B440B440CFDA4812
:1031A000016802B400210160FEF7B8F900F014F8DC
:1031B000D54802BC016047F8046D40BC01BC043F27
:1031C0003860FEF7ABF900BDA234000000000969C9
:1031D0006E7465727072657430B5CC4887420BD9D5
:1031E000FEF762FA10537461636B20756E6465724A
:1031F000666C6F770A0068E1C54887420AD2FEF71D
:1032000053FA0F537461636B206F766572666C6F4F
:10321000770A5AE1BF4C2568002D01D13D00256099
:10322000FFF7D4FD002E02D1043740CF30BD3868FF
:1032300047F8046D043F3860FFF775FA310040CF5E
:10324000320040CF002A19D138683100FFF716FE4E
:10325000320040CF002AC0D147F8046D060047F87D
:10326000046D0E00FEF785FAFEF71EFA0C206E6F55
:103270007420666F756E642E0A0026E1A64B1B68EB
:10328000002B1DD10025256030230B40302B0ED1A3
:10329000FEF76FFAFEF708FA1220697320636F6D6C
:1032A00070696C652D6F6E6C792E0A000DE1043724
:1032B00040CF47F8046D1600FEF741FEFFF78DFF83
:1032C000043740CF80200840802810D0EB1B9B089B
:1032D00040200840402810D108200840082802D18A
:1032E000002B00D01FE00F200840834205D347F891
:1032F000046D1600FEF723FE6FE700F0BFF847F8F5
:10330000046D160010220A40102A02D1FEF717FEA3
:1033100063E720220A40202A02D1FEF763FD5CE722
:10332000FEF751FC59E7072001401000FEF771FD40
:1033300001291FD1012BDAD1FF213140B14204D143
:1033400040880643FEF755FF47E7FEF72BFB002EAC
:1033500040CF04D040680643FEF773FF3DE747F8CF
:10336000046D0026FEF7D2FB47F8046D0688FEF7D1
:1033700040FF32E7022902D1012BB8D1EFE7032940
:1033800026D1012BB3D1FF213140B1420AD163498B
:103390000E43FEF72EFF043247F8046D1600FEF7C9
:1033A00021FD1AE7FEF7FEFA002E40CF04D05C495B
:1033B0000E43FEF746FFEEE747F8046D0026FEF7E2
:1033C000A5FB023247F8046D1600FEF70BFD04E77B
:1033D000042918D1012B8AD1330040CF002B00D112
:1033E000FBE61F221A409A4205D047F8046D468832
:1033F000FEF7FFFEF1E647F8046D06889B011E43C9
:10340000FEF7F7FEE9E6052924D1012B10D147F894
:10341000046D0026FEF77AFB47F8046D0600FEF700
:10342000E1FC47F8046D4CF64076FEF7E2FED4E688
:1034300047F8046D0026FEF769FB47F8046D012686
:10344000FEF764FBFEF7E5FC47F8046D0600FEF7A7
:10345000C9FCC2E606290ED1012B7FF448AFFEF766
:10346000A1FA002E40CF3FF47AAFD0F80200064315
:10347000FEF7E7FEB1E601308047AEE600B5002B6F
:103480000CD0013B47F8046D1E0057F82660FEF78C
:10349000CFFB002BF5D1043D2F0040CF0025256048
:1034A00000BDBE340000810009686F6F6B2D71751F
:1034B000697447F8046D1B4E7047F23400003835CC
:1034C00000000000047175697400DFF85CD00F4FD4
:1034D00016480A2101601048002101600D48016072
:1034E0000948016012480160124941600D480068B6
:1034F0008746FEF72EF8FFF76FFEFEF7D5F805209A
:103500006F6B2E0AF5E70000E44F00202C0200202C
:103510002C01002008000020D84F0020003E0000B1
:103520000006B6F1D44F00202C030020FC4F0020F1
:10353000DC4F0020640000204835000020000465B6
:10354000696E740062B6704758350000200004644C
:10355000696E740072B67047643500000000036E37
:103560006F7070478E35000081000B6972712D738A
:1035700079737469636B47F8046D954E70476235D3
:10358000000044F6D070C2F2000000688746B635ED
:1035900000008100096972712D6661756C7447F8CD
:1035A000046D8C4E70478C00000044F6CC70C2F263
:1035B000000000688746DE350000810009697271ED
:1035C0002D657874693047F8046D834E7047623515
:1035D000000044F6C870C2F2000000688746063654
:1035E00000008100096972712D657874693147F8AE
:1035F000046D7A4E70476235000044F6C470C2F222
:103600000000006887462E3600008100096972714B
:103610002D657874693247F8046D714E70476235D4
:10362000000044F6C070C2F20000006887465636BB
:1036300000008100096972712D657874693347F85B
:10364000046D684E70476235000044F6BC70C2F2EB
:103650000000006887467E360000810009697271AB
:103660002D657874693447F8046D5F4E7047623594
:10367000000044F6B870C2F2000000688746A43625
:1036800000008100076972712D61646347F8046D61
:10369000564E70476235000044F6B470C2F2000026
:1036A0000068874600400000FFFF182D2D2D2046A2
:1036B0006C6173682044696374696F6E617279200C
:1036C0002D2D2D00FDF786FE49488546494F2A26B7
:1036D0004948474901604948494901604848494DBE
:1036E000040002680430018802304FF6FF739942EB
:1036F00022D0454B0B4009D0FFF706F8FEF789FBB7
:103700000388408800040343ED1A15E080230B4032
:1037100012D00F23194089006D1AFEF7F5FFFEF74E
:1037200078FB47F8046D060047F8046D2E0047F853
:10373000046D0E00FDF760FA501C05D01000063233
:103740001278FF2A00D0CBE730480460304805608B
:1037500030483149314A884204D0023803889342C4
:10376000F9D002302E490860FDF79EFF374D6563A2
:10377000726973702D5374656C6C61726973203259
:103780002E302E3020666F722053544D3332463126
:103790003033206279204D61747468696173204B05
:1037A0006F63680A1F480021016047F8046D1E4ED0
:1037B00047F8046D0426FEF7B6FF40CF002E02D076
:1037C000FEF7BDFB92E640CF7FE6696E69740000AC
:1037D000D04F0020CC4F0020C84F0020C44F002005
:1037E000C04F0020BC4F0020B84F0020B44F002035
:1037F0002C0300202C0200200000002004000020E8
:10380000AC00000000500020000100001800002063
:10381000200000200000010000400000FFFF000029
:0C3820001400002008000020CA3700003F
:0400000508000000EF
:00000001FF
