:020000040800F2
:1000000038030020AD330000BD000000BD0000003B
:10001000BD000000BD000000BD00000000000000A9
:10002000000000000000000000000000BD00000013
:10003000BD00000000000000BD0000001B320000F9
:10004000BD000000BD000000BD000000BD000000BC
:10005000BD000000BD000000433200006B32000014
:1000600093320000BB320000E3320000BD0000000C
:10007000BD000000BD000000BD000000BD0000008C
:10008000BD000000BD00000009330000BD000000FD
:10009000BD000000BD000000BD000000BD0000006C
:1000A000BD000000BD000000BD000000BD0000005C
:1000B00031330000593300008133000000B501F0F6
:1000C000EFF916556E68616E646C656420496E7454
:1000D00065727275707420210A0000BD0201000073
:1000E000FFFF1E2D2D2D204D6563726973702D53FA
:1000F00074656C6C6172697320436F7265202D2D7D
:100100002D001A0100004200043264757000386846
:1001100047F8046D043F386070472C01000062000E
:10012000053264726F70043740CF70474A01000097
:10013000440005327377617007CF043F386047F899
:10014000046D043F3A600E0070475E0100006200DB
:1001500004326E69700007CF043F38607047780141
:100160000000440005326F766572B86847F8046D88
:10017000043F3860FE6870479C010000440005326F
:100180007475636B07CF043F386047F8046D043F14
:100190003A60043F3960043F38607047BE01000098
:1001A00046000432726F74003868B9683A69B86002
:1001B00039613A6079687E60FE68F9607047E001F5
:1001C0000000460005322D726F743868B9683A69CC
:1001D00038613960BA60F968FE607E68796070479E
:1001E000F4010000200003323E7201CF01B440B49C
:1001F00040CF70470C02000020000332723E47F8E7
:10020000046D40BC01BC043F38607047240200000C
:1002100020000332724047F8046D019E47F8046DD8
:10022000009E704736020000200006327264726F32
:10023000700002B070474E02000042000364322F8B
:100240003868F1077610400808433860704762024A
:10025000000062000364322A386800187641386072
:1002600070477C02000042000464736872003868C2
:10027000F107760840080843386070479202000092
:100280006200046473686C00386800187641386056
:100290007047A40200004200046461627300002EF3
:1002A00014D47047BE0200004300083F646E6567C7
:1002B00061746500300040CF002807D47047DC022D
:1002C0000000420007646E6567617465386800214C
:1002D000C043F64301304E4138607047F4020000DD
:1002E000640002642D0007CF121AB1410E00043FD2
:1002F0003A6070470A030000640002642B0007CFD5
:1003000012184E41043F3A6070471C030000610020
:1003100003733E6447F8046DF6177047300300001E
:10032000620003756D2A3868A0FB060638607047C6
:10033000440300006200026D2A00386880FB060654
:10034000386070478203000044000375642A07CFB9
:10035000564341437618010C130C59437618010C8F
:1003600080B292B25143434350430022C9185241D4
:100370001204B6180A04090C80184E41043F386074
:1003800070471404000044000475646D2A0010B521
:10039000002447F8046D7E6847F8046D3E69FFF756
:1003A000C2FF310040CF300040CF47F8046D3E68B7
:1003B00047F8046DFE6803B4FFF7B5FF03BC3300D4
:1003C00040CF320040CF47F8046D3E6847F8046DD7
:1003D0003E690FB4FFF7A7FF0FBC9219634140CFEE
:1003E00089196241634140CF47F8046D7E6847F840
:1003F000046DFE680FB4FFF796FF0FBC92196341BE
:1004000040CF89196241634140CF1E003A60796054
:10041000B86010BD360400004300022A2F0000B56A
:1004200040B440CFFFF789FF47F8046D40BC00F0AF
:1004300062F8043700BD580400004300052A2F6D00
:100440006F6400B540B440CFFFF777FF47F8046D05
:1004500040BC00F050F800BD7A0400004300037572
:100460002A2F00B540B440CFFFF75DFF47F8046D79
:1004700040BC00F01BF8043700BD9E0400004300A0
:1004800006752A2F6D6F640000B540B440CFFFF7AA
:100490004AFF47F8046D40BC00F008F800BDEA04CC
:1004A0000000430006756D2F6D6F640010B478680E
:1004B0003968002200242023640000184941524179
:1004C000964201D8921B0134013BF5D120236400F0
:1004D00049185241964201D8921B0134013BF6D192
:1004E00004373A60260010BC70475E0500004300E8
:1004F000056D2F6D6F6400B5F01718D0764200F0CF
:10050000F7F9F0170DD0FFF7E1FE00F0E5F9FFF77E
:10051000CDFF39683E600E46764239683E600E4631
:1005200000BD00F0D9F9FFF7C1FF764200BD00F031
:10053000DFF9F0170ED0FFF7C9FE00F0CDF9FFF795
:10054000B5FF764239683E600E46764239683E60B5
:100550000E4600BD00F0C0F9FFF7A8FF00BDBA05C8
:10056000000044000675642F6D6F640030B43C6871
:10057000B86879680022002520236D0000184941E1
:100580005241944201D8121B0135013BF5D120B4F0
:10059000002520206D00491852415B419E4204D83D
:1005A000944202D8121BB34101350138F2D13D60AB
:1005B000BA607B6040BC30BC70473006000044002D
:1005C00005642F6D6F6400B5F01719D0FFF77EFE3C
:1005D000FFF7B2FDF0170CD0FFF778FEFFF7ACFD88
:1005E000FFF7C4FFFFF7A8FDFFF770FEFFF7A4FDBC
:1005F00000BDFFF7A1FDFFF7B9FFFFF767FE00BDE4
:10060000FFF79AFDF0170ED0FFF760FEFFF794FD9D
:10061000FFF7ACFFFFF75AFEFFF78EFDFFF756FE20
:10062000FFF78AFD00BDFFF787FDFFF79FFF00BDC5
:1006300046060000440002642F0000B5FFF7C3FF28
:10064000FFF789FD00BDDE060000440002662A00B7
:1006500000B5F0170DD0FFF739FEFFF76DFDF0176D
:100660000DD0FFF733FEFFF792FE40CF01CF386089
:1006700000BDFFF761FDF017F5D0FFF727FEFFF78C
:1006800086FE40CF01CF3860FFF720FE00BD30B4BA
:100690003C68B9687A680023002520206D0049185D
:1006A00052415B419E4204D8944202D8121BB3418E
:1006B00001350138F2D1290020206D0092185B41EC
:1006C0009E4204D8944202D8121BB341013501382E
:1006D000F3D13D60BA607B600E0030BC70472A07E2
:1006E0000000440002662F0000B5F0170ED0FFF79F
:1006F000EDFDFFF721FDF0170ED0FFF7E7FDFFF747
:100700001BFDFFF7C4FFFFF726FD00BDFFF714FD3B
:10071000F017F4D0FFF7DAFDFFF70EFDFFF7B7FF94
:10072000FFF7D4FDFFF717FD00BD3E0700002000D6
:100730000232210006CF3160726040CF704752070D
:100740000000200002324000043F706838603668C4
:1007500070477207000044000364753C07CF8E4267
:1007600004D801D1904201D8002670470026F643F4
:1007700070479207000044000364753E07CFB14202
:1007800004D801D1824201D8002670470026F643E2
:100790007047B2070000440002643C0007CF8E425D
:1007A00004DC01D1904201DC002670470026F643AC
:1007B0007047D2070000440002643E0007CFB142F8
:1007C00004DC01D1824201DC002670470026F6439A
:1007D0007047E207000062000364303C0437F617FC
:1007E0007047FC07000042000364303D01CF002841
:1007F00001D000267047013EB64170471608000040
:10080000440003643C3E07CF904201D1761A01D0E8
:100810000026F643704732080000440002643D00A1
:1008200007CF904201D000267047761A013EB641AC
:1008300070474C0800000000056465707468E54965
:10084000C91B890847F8046D0E0070475C0800005A
:1008500061000364757047F8046D70476C08000010
:1008600061000464726F700040CF7047820800001E
:100870006100043F64757000002E01D047F8046DDC
:100880007047960800006200047377617000396851
:100890003E600E007047A40800006200036E69709D
:1008A00004377047B80800006200046F7665720074
:1008B00047F8046D7E687047CE080000620004743B
:1008C00075636B0001CF083F7E6038607047E408B5
:1008D0000000630003726F7403CF083F78603E60CE
:1008E0000E007047FC0800006300042D726F740056
:1008F00003CF083F7E603960060070470E09000094
:100900002000047069636B0057F8266070471E0969
:1009100000002000023E720040B440CF7047300912
:100920000000200002723E0047F8046D40BC704792
:100930004209000020000272400047F8046D009E4A
:100940007047520900002000057264726F7001B098
:10095000704768090000600004747275650047F80C
:10096000046D0026F64370477C09000060000566B0
:10097000616C736547F8046D0026704792090000AA
:100980006E0003616E6401CF0640704706400006AA
:1009900016F0AA0900006E000362696301CFB0433C
:1009A000060070478643000636F0C00900006E005E
:1009B000026F720001CF064370470643000656F0EF
:1009C000D60900006E0003786F7201CF4640704771
:1009D0004640000696F0E40900006100036E6F7463
:1009E000F6437047F4090000610003636C7AB6FABD
:1009F00086F67047020A0000610003736872760889
:100A00007047100A000061000373686C760070473D
:100A1000200A0000610003726F725FEA7606704779
:100A2000320A0000610003726F6CB61956F10006BD
:100A300070474C0A00006C000672736869667400A7
:100A400001CFF0400600704736080026660A000015
:100A50006C00076172736869667401CF30410600EB
:100A600070473610F617800A00006C00066C736839
:100A70006966740001CFB04006007047360000265A
:100A8000900A0000610002303D00013EB64170470F
:100A9000A20A0000610003303C3E013EB641F6432D
:100AA0007047B00A0000610002303C00F617704742
:100AB000C80A00004200023E3D0001CFB042B4BF70
:100AC00000264FF0FF367047E00A00004200023C6B
:100AD0003D0001CFB042CCBF00264FF0FF3670473B
:100AE000F60A00004200013C01CFB042B4BF4FF013
:100AF000FF36002670470C0B00004200013E01CF7C
:100B0000B042CCBF4FF0FF3600267047200B0000EC
:100B1000620003753E3D01CF861BB641F643704728
:100B2000340B0000620003753C3D01CF361AB6411C
:100B3000F6437047460B0000620002753C0001CF8F
:100B4000861BB6417047580B0000620002753E00DC
:100B500001CF361AB64170476E0B00006B00023CA5
:100B60003E0001CF361A18BF4FF0FF367047800B9A
:100B700000006B00013D01CF361A013EB6417047BF
:100B8000940B00006200036D696E01CFB042B8BFE4
:100B900006467047A80B00006200036D617801CF24
:100BA000B042C8BF06467047BE0B00006200047525
:100BB0006D61780001CFB04288BF06467047D80B00
:100BC0000000620004756D696E0001CFB04238BF4D
:100BD0000646704738020020160C00000000046D25
:100BE0006F76650007B5310040CF320040CF002955
:100BF0000FD0B2420DD006D3013E013A705C505482
:100C00000139FBD105E0307810700136013201392D
:100C1000F9D140CF07BD380C000000000466696CB4
:100C20006C00300040CF310040CF002902D00139A4
:100C30007054FCD140CF7047440C000020000140AC
:100C400036687047580C00006D00012103CF3060FA
:100C50000E007047066001606E0C00002000022B41
:100C6000210003CF3268121832600E0070477C0CEE
:100C7000000020000268400036887047920C000097
:100C80006D000268210003CF30800E00704706809F
:100C90000180A80C0000200003682B2103CF3288BC
:100CA000121832800E007047B60C0000200002635C
:100CB000400036787047CC0C00006D0002632100C4
:100CC00003CF30700E00704706700170E20C000018
:100CD000200003632B2103CF3278121832700E00EC
:100CE0007047FA0C0000200004626973210003CFF2
:100CF0003268024332600E007047120D000020007F
:100D000004626963210003CF3268824332600E00BF
:100D100070472A0D0000200004786F72210003CF75
:100D20003268424032600E007047440D00002000DF
:100D300004626974400001CF3668064018BF4FF066
:100D4000FF3670475C0D0000200005686269732162
:100D500003CF3288024332800E007047740D0000CA
:100D6000200005686269632103CF328882433280A4
:100D70000E0070478C0D000020000568786F72210E
:100D800003CF3288424032800E007047A60D00002B
:100D9000200005686269744001CF3688064018BF9C
:100DA0004FF0FF367047BE0D0000200005636269FA
:100DB000732103CF3278024332700E007047D60D94
:100DC0000000200005636269632103CF327882430B
:100DD00032700E007047EE0D000020000563786F42
:100DE000722103CF3278424032700E007047080EF5
:100DF0000000200005636269744001CF3678064028
:100E000018BF4FF0FF3670479C0E000000000768C7
:100E1000666C61736821300040CF310040CF954B44
:100E2000984221D3944B98421ED2944B1940994238
:100E300019D010F00102002A16D102889A4213D16B
:100E400010F100608E4A8F4B13608F4B13608F4AF6
:100E50008F4B136001808F4A136813F48033FBD1EA
:100E60008A4A8D4B1360704700F01AFB2A57726F45
:100E70006E672061646472657373206F72206461B1
:100E8000746120666F722077726974696E6720667C
:100E90006C61736820210A0002F073B9F40E00003F
:100EA00000000763666C61736821300040CF310039
:100EB00040CF704B9842D7D36F4B9842D4D211F0A9
:100EC000FF01FF2915D00278FF2ACDD110F1006073
:100ED0006B4A6C4B13606C4B13606C4A6F4B136026
:100EE00001706C4A136813F48033FBD1674A6A4B74
:100EF000136070476A0F000000001065726173652F
:100F0000666C617368736563746F720000B5012E5F
:100F100029D30C2E27D25A4A5A4B13605A4B1360CE
:100F200000F0BEFA0D457261736520736563746FDE
:100F3000722047F8046D01F0A6FF544A584BF600A2
:100F400033431360534A136813F48033FBD14F4A81
:100F5000514B136000F0A4FA0C66726F6D20466C62
:100F60006173682E0A0040CF00BDDC100000000055
:100F70000A6572617365666C6173680072B600B56C
:100F8000484849490268B2F1FF3F05D047F8046D6F
:100F90000126FFF7BBFF02E004308842F2D343484A
:100FA00043490268B2F1FF3F05D047F8046D0226BD
:100FB000FFF7ACFF02E004308842F2D33D483E49DF
:100FC0000268B2F1FF3F05D047F8046D0326FFF732
:100FD0009DFF02E004308842F2D338483849026865
:100FE000B2F1FF3F05D047F8046D0426FFF78EFFEE
:100FF00002E004308842F2D3324833490268B2F149
:10100000FF3F05D047F8046D0526FFF77FFF02E09C
:1010100004308842F2D32D482D490268B2F1FF3FD7
:1010200005D047F8046D0626FFF770FF02E0043094
:101030008842F2D3274828490268B2F1FF3F05D021
:1010400047F8046D0726FFF761FF02E0043088428D
:10105000F2D300F025FA1246696E69736865642E52
:1010600020526573657420210A005DF804EB62B6B6
:1010700002F09EB90040000000000800FFFF0000E1
:10108000043C024023016745AB89EFCD103C024090
:10109000010100000C3C0240000000800100000043
:1010A0000200010000400008FF7F000800800008E7
:1010B000FFBF000800C00008FFFF00080000010893
:1010C000FFFF010800000208FFFF030800000408FA
:1010D000FFFF050800000608FFFF0708F2100000E8
:1010E0006900012B01CF361870473618003600060C
:1010F00016F1081100006900012D01CF861B704711
:10110000361A003E0006B6F11611000061000231E9
:101110002D00013E704724110000610002312B00B8
:101120000136704732110000610002322D00023E8C
:10113000704740110000610002322B0002367047F8
:10114000521100006100066E6567617465007642A9
:10115000704766110000610003616273002E48BF92
:10116000D6F10006704784110000420005752F6D0E
:101170006F6401CF3100B0FBF6F67143401A043FB3
:1011800038607047A21100004200042F6D6F6400A8
:1011900001CF310090FBF6F67143401A043F3860EE
:1011A0007047B61100004200036D6F6400B5FFF791
:1011B000EFFF40CF00BDC61100006200012F01CF3C
:1011C00090FBF6F67047D61100006A00012A01CFA5
:1011D000464370474643E4110000610002322A0092
:1011E00076007047F2110000610002322F00761085
:1011F0007047061200006100046576656E000120EC
:101200003040361870471A120000400004626173C3
:10121000650047F8046D104E704730120000000062
:101220000662696E617279000B48022101607047A5
:1012300046120000000007646563696D616C064832
:101240000A21016070475C120000000003686578A5
:101250000148102101607047100000207E1200003C
:10126000000004656D69740007B4204A802011688D
:101270000140FCD01E4A167040CF07BC7047A01238
:1012800000000000036B657907B4184A202011683C
:101290000140FCD047F8046D154A167807BC70472A
:1012A0001C1300000000043F6B65790047F8046DD3
:1012B00000260E4801682020014000D0F643704708
:1012C0000C490D4808600D49086850F0A0000860FE
:1012D0000B490C4808600C490C4808600C498B20ED
:1012E00008600C490C48086070470000004400404A
:1012F00004440040303802409F00000000000240DB
:101300002000024000770000403802400000020048
:10131000084400400C4400400C20000092130000E0
:1013200000000571756572790FB5ED4800210170F7
:10133000EC490022FFF7A8FF300040CF202818D248
:101340000A2822D00D2820D00828F3D1002AF1D075
:1013500000F0A6F803082008002AEBD00B009B1829
:101360001878013A80230340E4D040230340F3D0AF
:10137000E0E7C72ADED247F8046D0600FFF774FFE6
:1013800001320B009B181870D4E70A7000F041F886
:101390000FBDE0130000000007636F6D70617265A0
:1013A0000FB5300040CF31780278914216D110E06D
:1013B0000136013032780378412A02D35B2A38BFE4
:1013C0002032412B02D35B2B38BF20339A4205D108
:1013D00001390029ECD10026F64300E000260FBDBC
:1013E000F413000000000263720000B500F058F82A
:1013F000010A00BD06140000000002626C0047F8FC
:10140000046D202670471A140000000005737061F7
:10141000636547F8046D202626E72A140000500073
:10142000065B636861725D0005E042140000000025
:1014300004636861720000B501F05CFB0136367828
:1014400000BD521400005000012847F8046D292601
:1014500006E06A1400005000015C47F8046D0026A5
:1014600000B501F052FB40CF00BD92140000100007
:10147000022E22009C4800B547F8046D060000F0DB
:101480005EFA47F8046D222601F03FFB00F0A1FD53
:1014900000BDDC1400001000027322009348EAE74C
:1014A0000EB47246013A47F8046D16001378013302
:1014B00013F001015B181EEB030E0EBC14E00EB41A
:1014C0007246013A47F8046D16001378013313F0A1
:1014D00001015B181EEB030E0EBC704706150000E1
:1014E000000004747970650003B5310040CF0878BE
:1014F000002807D0013147F8046D0E78FFF7B4FEDD
:101500000138F7D103BD3E1500000000046865787E
:101510002E0003B5310040CF2020043847F8046D79
:1015200031FA00F616F00F06092E8CBF373630362A
:10153000FFF79AFE0028F0D1FFF76BFF03BD4E15B1
:101540000000000003682E731FB5694C0EE05E15A5
:101550000000000003752E731FB5664C06E0DC1515
:1015600000000000022E73001FB5634C6349C91BC5
:101570008908634A106803B40A201060FFF790FFDF
:1015800008537461636B3A205B0047F8046D0E00EA
:1015900001F081FCFFF784FF025D200003BC584A84
:1015A000106000290AD0574A106806B447F8046D45
:1015B0000600A04706BC043A0139F5D1FFF770FFD9
:1015C0000620544F533A200047F8046D3600A047D8
:1015D000FFF766FF04202A3E0A001FBD2A160000FE
:1015E00000000464756D700000B5300040CF20210C
:1015F000FFF756FF072064756D703E0A47F8046DCB
:101600000600FFF786FFFFF74BFF023A2000028833
:1016100047F8046D1600FFF77CFFFFF741FF03203A
:101620003E0A02300139E9D100BD08170000000070
:1016300005776F72647300B5FFF732FF06776F723C
:1016400064730A0000F0EBFE300040CF8179FF297F
:1016500045D0FFF725FF09416464726573733A2032
:1016600047F8046D0600FFF754FFFFF719FF064C1B
:10167000696E6B3A20000268043047F8046D16006A
:10168000FFF747FF01880230FFF70AFF07466C614A
:1016900067733A2047F8046D0E00FFF73AFF47F8EA
:1016A000046D060000F0D8FEFFF7FAFE06436F64F3
:1016B000653A200047F8046D0600FFF72AFFFFF7A0
:1016C000EFFE064E616D653A2000FFF70DFFFFF754
:1016D000E7FE010AB2F1FF3F01D01000B6E700BDFE
:1016E0000000002070000020A0140000BE140000C4
:1016F00013150000872E0000972E000038020020EE
:1017000010000020340200206C18000000000D3191
:1017100032626974656E636F64696E670FB5FF2E20
:1017200004D847F8046D5FF0FF360FBD16F0FF10C8
:10173000B0420ED14FF6FF710840310C814208D102
:1017400016F0FF0656F4805647F8046D5FF0FF363A
:101750000FBD16F0FF20B0420FD14FF6FF710840C9
:10176000310C814209D1360A16F0FF0656F40056B4
:1017700047F8046D5FF0FF360FBDFF2231001140C6
:10178000300A1040884210D1300C104088420CD1F1
:10179000300E1040884208D116F0FF0656F440562D
:1017A00047F8046D5FF0FF360FBD300000210131B6
:1017B000001850F100007FF07F020240802A05D01F
:1017C0001F29F4D347F8046D00260FBD0829F9D36B
:1017D000060036F0800611F00100C001064311F04A
:1017E0000E00C002064311F010008005064347F8C2
:1017F000046D5FF0FF360FBD47F8046DDFF8F0654C
:101800005FF4704110EA0102120116435FF40061B7
:1018100010EA0102D20316435FF4E06110EA01020C
:1018200012011643FF2110EA010216431E43C0E3D2
:1018300047F8046DDFF8BC655FF0704110EA010203
:10184000120B16435FF0006110EA010252081643C2
:101850005FF0E06110EA0102120B16435FF47F01B2
:1018600010EA0102120C16431E43A2E3D218000034
:1018700000001072656769737465726C69746572D3
:10188000616C2C000FB5330040CF1B02FF2E05D832
:1018900056F400561E4300F064FB0FBDFFF73EFFF9
:1018A000002E40CF06D0DFF8500506431E4300F05F
:1018B00080FB0FBDF643FFF731FF002E40CF06D06F
:1018C000DFF8380506431E4300F073FB0FBDF643F7
:1018D0000BE0321900000000096D6F76776D6F76AE
:1018E000742C0FB5330040CF1B02300040CFFFF700
:1018F00083FF4FF6FF7110EA014001D0FFF798FF18
:101900000FBD0FB50136300040CF0023FFF774FF45
:10191000FFF78EFF06E00FB5013647F8046D00268D
:10192000FFF7B0FF47F8046D44F2807600F019FB32
:101930000FBD9819000000000563616C6C2C0FB599
:10194000330000F01EFE300040CF1B1A043BDFF8CE
:10195000B0141940002906D0DFF8A824914202D023
:10196000BDE80F40D7E740CF5B08DFF89C0440F2AA
:10197000FF7119400843DB0A40F2FF3119400904A6
:1019800008439B0A13F001018906084347F8046DD8
:10199000060000F00EFB0FBDCE1900000000086C21
:1019A00069746572616C2C0008B547F8046D4FF6D8
:1019B000470600F0D6FA47F8046D46F6045600F0E4
:1019C000D0FA47F8046D0626FFF75CFF08BD181A29
:1019D0000000200005646F65733E41F6EB10804700
:1019E00047F8046DBEF10106704747F8046DBEF17B
:1019F000010600F0DCF8DFF814241368310040CF52
:101A00000220084000D0023102311160FFF779FF57
:101A1000136000F010FA00BD5A1A00000000073CE5
:101A20006275696C647300B500F089FB00F0A9FD74
:101A30000220064040CF04D047F8046D362600F05F
:101A400090FA47F8046D4BF2005600F08AFA47F816
:101A5000046D0A2600F0DBFA00BD661A0000500093
:101A6000035B275D03E0CC1A00000000012700B5EE
:101A700001F040F8300040CF017800290CD1FFF789
:101A80000FFD102027206E65656473206E616D6503
:101A900020210A0001F075BB47F8046D060000F034
:101AA000EAFC40CF002E10D1D94847F8046D06005B
:101AB000FFF71AFDFFF7F4FC0C206E6F7420666FC1
:101AC000756E642E0A0001F05CBB00BD1A1B00009D
:101AD000100008706F7374706F6E650000B501F0D0
:101AE00009F800F0C8FC300040CF002EDCD01021F7
:101AF000014010290ED020210140202905D1FFF7F7
:101B000053FF47F8046DC34E04E0FFF74DFF47F85D
:101B1000046DC14EFFF713FF00BD701B00000000F5
:101B200007696E6C696E652C00B54BF200514BF67F
:101B3000005244F270733088884208D0904208D036
:101B4000984206D047F8046D060000F00AFA023603
:101B5000F1E740CF00BD0EB44BF6005244F2707373
:101B600001880230914201D09942F9D10EBC7047F0
:101B7000861B00000000047265742C0047F8046D99
:101B80004BF60056EDE1941B0000300004657869C7
:101B90007400F3E7CA1B00003000077265637572BA
:101BA000736500B500F003F8FFF7C9FE00BD0FB57F
:101BB0009A48006806300178013101220A408918EC
:101BC000401847F8046D06000FBDDE1B0000400002
:101BD00005737461746547F8046D914E7047F01B8E
:101BE00000000000015D8E480021C943016070477C
:101BF000001C00001000015B894800210160704753
:101C0000281C00000000013A00B58648076000F07B
:101C100096FA47F8046D4BF2005600F0A2F980489E
:101C20000021C943016000BD701C00003000013B71
:101C300000B57C480168B9420ED0FFF731FC152091
:101C4000537461636B206E6F742062616C616E63AC
:101C500065642E0A01F095BA47F8046D4BF60056FC
:101C600000F07FF900F0E7F86D480021016000BD49
:101C7000861C000000000765786563757465300098
:101C800040CF013087469E1C0000100009696D6D31
:101C900065646961746547F8046D1026F7E0B41C4B
:101CA0000000100006696E6C696E650047F8046DEF
:101CB0002026ECE0CE1C000010000B636F6D7069F5
:101CC0006C656F6E6C7947F8046D3026DFE0E81CB8
:101CD000000010000A302D666F6C6461626C650054
:101CE00047F8046D4026D2E0021D000010000A31C2
:101CF0002D666F6C6461626C650047F8046D412667
:101D0000C5E01C1D000010000A322D666F6C646176
:101D1000626C650047F8046D4226B8E0361D00008D
:101D200010000A332D666F6C6461626C650047F8C1
:101D3000046D4326ABE0501D000010000A342D66F0
:101D40006F6C6461626C650047F8046D44269EE028
:101D50006A1D000010000A352D666F6C6461626CAC
:101D6000650047F8046D452691E0841D00001000D1
:101D70000A362D666F6C6461626C650047F8046D0D
:101D8000462684E09E1D000010000A372D666F6C09
:101D90006461626C650047F8046D472677E0CE1DEC
:101DA0000000000008636F6E7374616E740000B50C
:101DB00000F0C5F9FFF7F8FD47F8046D44F27076BE
:101DC00000F0CFF8FFF78CFF00F035F800BD281EBB
:101DD000000000000932636F6E7374616E7400B5A9
:101DE00000F0ADF939683E600E46FFF7DDFDE1E732
:101DF000000040F20000C0F200005FF000007FF041
:101E00000100C0FF0000C0FF00F800F00400002047
:101E100038030020281B00003E19000008000020A5
:101E20000C0000201C0000207E1E00000000067335
:101E30006D756467650023480168234A914280F00C
:101E40001A8000B502390A88204B9A4204D147F81B
:101E5000046D002600F085F81D48006847F8046D01
:101E600006001C4909680431164A1368116000F025
:101E700078F8136000BD47F8046D002607E0D81E0F
:101E80000000000008736574666C6167730000B53C
:101E90000C4801680C4A914280F006800C480168A9
:101EA0003143016040CF00BD320040CF0948006897
:101EB00004300188054B99420CBF11461143018043
:101EC00000BD00000400002000000020FFFF000013
:101ED0002800002008000020FA1E00000000066113
:101EE0006C69676E2C008B4801680120014003D0AB
:101EF00047F8046D00261AE07047241F0000000018
:101F000007616C69676E342C00B5FFF7ECFF814800
:101F100001680220014004D047F8046D002600F05B
:101F200020F800BD581F0000000002632C0000B51F
:101F300078480168784A914205D247F8046D0E004E
:101F4000FEF7B3FF02E0320040CF0A7047F8046D9D
:101F5000012600F05CF800BD8E1F00000000026842
:101F60002C000FB56B4801686B4A914280F00680E7
:101F700047F8046D0E00FEF74EFF02E0320040CF3E
:101F80000A8047F8046D022600F041F80FBDA81F33
:101F900000000000012C00B547F8046DFFF7E1FFD9
:101FA000360CFFF7DEFF00BDC41F00000000033E3B
:101FB0003C2C00B547F8046D360CFFF7D2FFFFF755
:101FC000D0FF00BD02200000000007737472696E2C
:101FD000672C07B5300040CF01780131022909D3C1
:101FE000028847F8046D1600FFF7BBFF0230023984
:101FF00006D0F3E7027847F8046D1600FFF7B1FF4B
:1020000007BD5C200000000005616C6C6F744148E6
:102010000168414A91420FD2320040CF89183F4AAD
:10202000914219D3FFF73CFA0B466C617368206646
:10203000756C6C0A01F0A5B8320040CF8918384A97
:102040001268914208D3FFF72BFA0952616D20669E
:10205000756C6C0A01F095B801607047842000002F
:1020600000000D636F6D70696C65746F72616D3F18
:1020700047F8046D0026274800682749884248D35E
:10208000F6437047A420000000000C636F6D706978
:102090006C65746F72616D001E4800681E4988424D
:1020A00011D370473021000000000E636F6D70691E
:1020B0006C65746F666C6173680016480068164939
:1020C000884200D270471748174902680B680A60B7
:1020D00003601048154902680B680A6003601048E5
:1020E0000068834215D300B5FFF7DAF92320566163
:1020F000726961626C657320636F6C6C69646520E2
:10210000776974682064696374696F6E6172790AB3
:1021100000BD7047040000200000002000000800FF
:102120002C000020080000202400002020000020B7
:10213000182200000000066372656174650000B536
:1021400000F0D8FC300040CF017800290ED1FFF715
:10215000A7F91520437265617465206E6565647327
:10216000206E616D6520210A01F00BB847F8046DFF
:10217000060047F8046D00F07EF940CF300040CFF4
:1021800000280ED0FFF78CF9095265646566696E08
:10219000652047F8046DFFF7A7F9FFF781F9022ED4
:1021A0000A00FFF7A0FE00F0ECF98F4800688F49A5
:1021B000884280F01E808E480021016047F8046D3F
:1021C0000626FFF724FF39683E600E46FFF701FF41
:1021D000884801680A68B2F1FF3F07D1824A136854
:1021E000116047F8046DFFF7D6FE1360066040CF1C
:1021F00000BD804847F8046D0668FFF7CCFE47F83D
:10220000046D0026F643FFF7ACFE7A48310040CF5C
:102210000160FFF7DEFE00BD3022000000000876FE
:1022200061726961626C650047F8046D012613E014
:1022300048220000000009327661726961626C65B3
:1022400047F8046D022607E0242300000000096E11
:102250007661726961626C6500B5FFF770FF624874
:102260000168624A914280F035800F200640B2003A
:1022700061480168891A614A91420BD2FFF710F94F
:102280000F4E6F7420656E6F7567682052414D0A5E
:1022900000F077BF016047F8046D0E00FFF784FB84
:1022A00047F8046D44F27076FFF75BFE300040CFD4
:1022B0000200002805D00E600431FFF76CFE0138E3
:1022C000F9D147F8046D80261643FFF7E0FDFFF7CC
:1022D000B2FD00BD00F055F90220064040CF04D108
:1022E00047F8046D3626FFF73CFE47F8046D444E70
:1022F000FFF75FFE47F8046D424EFFF75AFE47F8BE
:10230000046D44F27076FFF72CFE300040CF0028B9
:1023100003D0FFF740FE0138FBD1FFF7E1FCFFF7E8
:102320008AFD00BD0824000000000762756666652E
:10233000723A00B5FFF703FF012030403618022043
:102340003040361828480168284A914280F0298098
:1023500029480168891B294A91420BD2FFF7A0F84E
:102360000F4E6F7420656E6F7567682052414D0A7D
:1023700000F007BF016047F8046D0E00FFF714FB83
:1023800047F8046D44F27076FFF7EBFDFFF703FEAC
:1023900047F8046D40F24016FFF779FDFFF74BFD5B
:1023A00000BD00F0EEF80220064040CF04D147F80F
:1023B000046D3626FFF7D5FD47F8046D104EFFF784
:1023C000F8FD47F8046D0F4EFFF7F3FD47F8046D75
:1023D00044F27076FFF7C5FDFFF719FEFFF780FCAA
:1023E000FFF729FD00BD00000400002000000020D0
:1023F00028000020080000202C00002000040020FD
:102400003E60043F02367E463824000000000F4440
:10241000696374696F6E61727973746172742C4848
:1024200000682C4B1B682C4947F8046D884201D288
:102430002A4E70471E0070476A24000000000A738D
:102440006B6970737472696E6700317801310122B3
:102450000A4089187618704706B4017801310122C4
:102460000A408918401806BC7047E42400000000A8
:102470000466696E64001FB53400FFF7D0FF3000BA
:1024800040CF002600238179FF291CD08188144A7F
:102490009142026812D0063047F8046D060047F8F2
:1024A000046D2600FEF77CFF002E40CF06D0FFF71C
:1024B000D3FF06000B000848864204D2B2F1FF3F6A
:1024C00001D01000DFE747F8046D1E001FBD0000BB
:1024D000040000200800002000000020DC000000B4
:1024E000FFFF00003E250000000006636A756D7066
:1024F0002C00320040CF310040CF8B1B043B9C4965
:10250000194000290DD09B4881420AD0FEF7C8FF30
:102510000D4A756D7020746F6F206661720A00F04D
:1025200030BE5B10FF210B40134330001E0000B58E
:10253000914A13681060FFF714FD136000BD762503
:1025400000000000056A756D702C310040CF30002E
:1025500040CF0B1A043B89491940002902D0884A10
:102560009142D3D15B10874A134053F4604347F83C
:10257000046D1E00DBE76A26000000000468657237
:10258000650047F8046D7C4E3668704700B547F823
:10259000046D42F60066FFF7E4FC47F8046D4CF664
:1025A0004076FFF7DEFC00BDEBE700B500F03AF83F
:1025B00039683E600E4647F8046D4DF20016FFF78D
:1025C00098FF00BD00B500F02DF839683E600E465A
:1025D00047F8046D4DF20076FFF78BFF00BD00B5A4
:1025E000FFF7D4FF00F01EF839683E600E4647F84A
:1025F000046D4DF20006FFF77CFF00BD00B500F052
:1026000011F839683E600E46FFF79FFF00BD00B528
:10261000FFF7BCFFFFF7B5FF47F8046D0226FFF791
:10262000F6FC00BD00B5FFF7ACFF47F8046D0226CD
:10263000FFF7EDFC00BD00B5FFF7A3FFFFF785FF37
:1026400000BD00B5FFF79DFF47F8046D4DF2000691
:10265000FFF74FFF00BD00B5FFF793FF47F8046D8C
:102660004DF20016FFF745FF00BDA6260000300022
:10267000047468656E00052E01D140CFDBE7022EA1
:1026800001D140CFDDE7FEF70BFF1753747275637E
:10269000747572657320646F6E2774206D61746346
:1026A000680A00F06EBDD2260000300004656C732D
:1026B000650000B5022E7FF4E6AF40CFFFF7B2FF12
:1026C00039683E600E46FFF7BCFF47F8046D0526EB
:1026D00000BDEA26000030000269660000B5FFF781
:1026E00096FF47F8046D022600BD10270000300059
:1026F0000672657065617400042EC4D140CF3968DC
:102700003E600E4600B5FFF779FFFFF79AFF00BD68
:102710002C2700003000057768696C65012EB2D166
:1027200040CF00B5FFF7DAFF023600BD40270000BA
:10273000300005756E74696C012EA4D140CF4EE750
:1027400054270000300005616761696E012E9AD13F
:1027500040CF53E788270000300005626567696E47
:1027600000B5FFF721FF47F8046D012600BD00000A
:1027700001FFFFFF00FFFFFF0400002001F8FFFF43
:1027800000F8FFFFFF070000982700002000016B02
:1027900047F8046D029E7047A82700002000016AD8
:1027A00047F8046D009E7047B827000020000169BB
:1027B00047F8046D26007047F82700003000056CCC
:1027C0006561766500B5684801683B00043F1A689A
:1027D000043B1A60043304338B42F8D103B4FFF78F
:1027E00021FF03BC330040CF04390B600160043982
:1027F0000A6801320A6000BD0A2800002000067540
:102800006E6C6F6F700030BC704742280000300063
:10281000052B6C6F6F70032E00D034E740CF00B5EE
:1028200047F8046D514EFFF77FF9FFF7CBFE1AE032
:1028300014F10044641BA41940CF2C44A4F10044BB
:102840007047842800003000046C6F6F7000032E06
:1028500000D018E740CF00B547F8046D444EFFF7AD
:1028600063F9FFF7A2FE00F023F93F48310040CFA3
:10287000016047F8046D3F4EFFF756F900BD013483
:10288000AC427047CC280000780002646F0000B5AD
:1028900047F8046D384EFFF747F93348016847F8A9
:1028A000046D0E0047F8046D00260760FFF77CFEFC
:1028B00047F8046D032600BD00B500F02FF8ECE7E3
:1028C00030B4340040CF350040CF70477C29000041
:1028D0007800033F646F00B547F8046D264EFFF79C
:1028E00023F947F8046D44F2AC26FFF73AFB1E4883
:1028F000016847F8046D0E00FFF794FE013647F8B3
:10290000046D012618480760FFF74EFE47F8046D76
:10291000032600BD00B500F001F8E2E700B547F876
:10292000046D4BF23046FFF71CFB47F8046D04269C
:10293000FEF7A8FF013B08D047F8046D0526FEF717
:10294000A1FF013B00F004FC00BD47F8046D3526F3
:10295000FFF707FB47F8046D4CF64076FFF701FBE5
:1029600000F0F6FB00BD0000180000203028000039
:102970007E28000006280000C028000096290000DC
:10298000300004636173650047F8046D002647F862
:10299000046D08267047AC2900003000033F6F66C5
:1029A0004D4809E0013EB64140CF7047502A000033
:1029B0007800026F66004948082E00D063E640CFD9
:1029C00000B547F8046D0600FFF7AEF8FFF72AFEE2
:1029D00039683E600E46013647F8046D092647F80F
:1029E000046D4CF64076FFF7BCFA00BD00B5300030
:1029F00040CF013B01B400F0ABFB01BC082E00D07E
:102A000041E640CF47F8046D0600FF213140B14256
:102A100004D133490E43FFF7A4FAD7E7FEF77EFE51
:102A2000002E40CF04D02F480643FFF7C2FACDE76F
:102A300047F8046D0026FEF725FF47F8046D44F2C1
:102A4000B026FFF78EFAC1E7300040CFB0427047A2
:102A5000862A0000300005656E646F66092E00D07E
:102A600011E640CF00B540B440CFFFF7DBFD396839
:102A70003E600E46FFF7EFFD47F8046D40BC47F897
:102A8000046D082600BDE82A0000300007656E646A
:102A900063617365082E00D0F5E540CF00B547F8B7
:102AA000046D4CF64076FFF75CFA00F001F800BDCB
:102AB00000B5300040CF00280DD003B401213140D3
:102AC000002903D0013EFFF7BCFD01E0FFF7B3FD95
:102AD00003BC0138EFE700BDA4290000482A00002C
:102AE000002E0000000FB6F1FE2A00000000057461
:102AF0006F6B656E202047F8046D060005E05C2BC7
:102B00000000000005706172736530B510480178EF
:102B1000104A1278104B00248018202E07D19142C1
:102B200010D0013001320578B542F8D006E091426C
:102B300008D0013001320578B54203D001330134A9
:102B40001D70F4E703480270034E347030BD00007E
:102B50007000002000000020380300209A2B0000A5
:102B60000000056469676974CD4B1B68303E0BD368
:102B70000A2E0BD3073E0A2E06D3242E06D3203E60
:102B80000A2E01D3242E01D3002670479E42FBD289
:102B900047F8046D0026F6437047A22C00000000A1
:102BA000066E756D626572003FB5300001780126D2
:102BB000012204B4BA4B1B680024002500293CD034
:102BC0000130013902782D2A04D101B00022D2430C
:102BD00004B4F3E7232A01D10A23EFE7242A01D121
:102BE0001023EBE7252A01D10223E7E72E2A01D1A2
:102BF0000226E3E72C2A36D047F8046D1600FFF7CB
:102C0000B5FF002E40CF2BD047F8046D260047F8C3
:102C1000046D2E0047F8046D1E0047F8046D002671
:102C20000FB4FDF794FB0FBC350040CF340040CF0C
:102C30000022A419554140CFC0E704BC002A04D5A6
:102C40000022E443ED430134554133002600012BBB
:102C500002D047F8046D2E0047F8046D1E003FBDFA
:102C600001B000263FBD2500002402260029E4D043
:102C7000425C01392E2AF9D047F8046D1600FFF79F
:102C800075FF002E40CFEBD0043F3C6047F8046D49
:102C90001E000FB4FDF70AFC0FBC340040CF40CF3C
:102CA000E4E7C22C00000000062E64696769740026
:102CB0000A2E3CBF303603E0242E34BF373623269D
:102CC0007047F82C0000000004686F6C640033004B
:102CD00040CF744801783F290DD20131017040186E
:102CE000012907D00138027801300270013801391A
:102CF0000129F7D103707047182D00000000056806
:102D00006F6C643C330040CF664801783F2902D2A3
:102D10000131017043547047302D000000000473EE
:102D200069676E00002E01D440CF70472D26CEE794
:102D3000402D0000000002233E000437594E70472A
:102D4000582D000000000366235310B5202400F026
:102D500008F8013CFBD110BD7A2D0000000002668E
:102D6000230000B547F8046D4D4E3668FDF7DBFAD9
:102D7000FFF79EFFFFF7C6FF00BD962D0000000085
:102D80000223530000B500F00AF8002EFBD138688A
:102D90000028F8D100BDC22D00000000012300B5BD
:102DA00047F8046D3E4E366847F8046D0026FDF77F
:102DB000DDFBFDF7C1F940CFFFF77AFFFFF787FF93
:102DC00000BDD42D00000000023C23003548002146
:102DD00001707047E62D0000000002662E0047F8E3
:102DE000046D202604E0342E0000000003662E6EE1
:102DF00000B510B4340040CFFDF764FDFDF74FFA85
:102E000047F8046D0026FFF7E1FFFFF7BBFF40CF57
:102E10002C26FFF777FF002C03D0FFF7A2FF013C21
:102E2000FBD110BC40CFFFF77DFF47F8046D47F89A
:102E3000046D1CE04A2E000000000375642E00B5EE
:102E4000FFF7C4FFFFF79EFF11E07C2E000000009B
:102E500002642E0000B5FDF735FDFDF720FAFFF7FF
:102E6000B5FFFFF78FFFFDF737FDFFF75BFFFFF7BC
:102E700064FFFEF739FBFEF7CCFA00BD8E2E000092
:102E8000000002752E0047F8046D0026D7E7A82E33
:102E900000000000012E47F8046DF617DAE7000085
:102EA0001000002030000020763100000000096989
:102EB0006E7465727072657430B5BD4887420BD907
:102EC000FEF7EEFA10537461636B20756E646572E1
:102ED000666C6F770A0054E1B64887420AD2FEF763
:102EE000DFFA0F537461636B206F766572666C6FE7
:102EF000770A46E1FFF7FEFD300040CF0178002958
:102F000000D130BDAC4C2568002D01D13D002560BD
:102F100047F8046D0600FFF7AEFA310040CF3200EB
:102F200040CF002A17D147F8046D0600FFF73CFE9A
:102F3000320040CF002AC0D147F8046D0600FEF7EA
:102F4000D3FAFEF7ADFA0C206E6F7420666F756EC3
:102F5000642E0A0015E1994B1B68002B1ED1002539
:102F6000256030230B40302B11D147F8046D06004B
:102F7000FEF7BAFAFEF794FA1220697320636F6DB8
:102F800070696C652D6F6E6C792E0A00F9E047F858
:102F9000046D1600FEF773FEFFF78FFF80200840D8
:102FA000802810D0EB1B9B0840200840402810D1FF
:102FB00008200840082802D1002B00D01FE00F2075
:102FC0000840834205D347F8046D1600FEF757FE0C
:102FD00073E700F0BDF847F8046D160010220A40B0
:102FE000102A02D1FEF74BFE67E720220A40202A72
:102FF00002D1FEF799FD60E7FEF7A1FC5DE707202F
:1030000001401000FEF7A7FD01291FD1012BDAD1E5
:10301000FF213140B14204D140880643FEF7A1FFB1
:103020004BE7FEF77BFB002E40CF04D04068064301
:10303000FEF7BFFF41E747F8046D0026FEF722FCCC
:1030400047F8046D0688FEF78CFF36E7022902D1A7
:10305000012BB8D1EFE7032926D1012BB3D1FF21F2
:103060003140B1420AD156490E43FEF77AFF04328D
:1030700047F8046D1600FEF757FD1EE7FEF74EFBFE
:10308000002E40CF04D04F490E43FEF792FFEEE7EB
:1030900047F8046D0026FEF7F5FB023247F8046D91
:1030A0001600FEF741FD08E7042918D1012B8AD14B
:1030B000330040CF002B00D1FFE61F221A409A4276
:1030C00005D047F8046D4688FEF74BFFF5E647F854
:1030D000046D06889B011E43FEF743FFEDE60529BC
:1030E00022D1012B10D147F8046D0026FEF7CAFB50
:1030F00047F8046D0688FEF734FF47F8046D4CF678
:103100004076FEF72EFFD8E647F8046D0026FEF75E
:10311000B9FB47F8046D0126FEF7B4FB47F8046DD0
:103120004688FEF71EFFC8E606290ED1012B7FF464
:103130004AAFFEF7F3FA002E40CF3FF47CAFD0F851
:1031400002000643FEF735FFB7E601308047B4E6DC
:1031500000B5002B0CD0013B47F8046D1E0057F85A
:103160002660FEF721FC002BF5D1043D2F0040CF57
:103170000025256000BDD031000000000471756994
:103180007400DFF844D00A4F10480A2101600B4850
:1031900000210160084800210160FEF7C5F8FFF733
:1031A0008BFEFEF77DF905206F6B2E0AF5E7000018
:1031B0003802002038010020140000200C000020FC
:1031C000003E00000006B6F1380300201000002089
:1031D000E031000020000465696E740062B670473B
:1031E000F031000020000464696E740072B670470C
:1031F000FC3100000000036E6F7070472632000043
:1032000081000B6972712D7379737469636B47F870
:10321000046DAA4E7047FA31000047F6FC70C2F206
:103220000100006887464E32000081000969727112
:103230002D657874693047F8046DA14E7047FA31F6
:10324000000047F6F870C2F2010000688746763247
:1032500000008100096972712D657874693147F841
:10326000046D984E7047FA31000047F6F470C2F2D0
:103270000100006887469E32000081000969727172
:103280002D657874693247F8046D8F4E7047FA31B6
:10329000000047F6F070C2F2010000688746C632AF
:1032A00000008100096972712D657874693347F8EF
:1032B000046D864E7047FA31000047F6EC70C2F29A
:1032C000010000688746EE320000810009697271D2
:1032D0002D657874693447F8046D7D4E7047FA3176
:1032E000000047F6E870C2F2010000688746143318
:1032F00000008100076972712D61646347F8046DF5
:10330000744E7047FA31000047F6E470C2F20100D3
:10331000006887463C3300008100086972712D7493
:10332000696D320047F8046D6B4E7047FA3100004A
:1033300047F6E070C2F2010000688746643300007F
:103340008100086972712D74696D330047F8046D4E
:10335000624E7047FA31000047F6DC70C2F201009D
:10336000006887468C3300008100086972712D74F3
:10337000696D340047F8046D594E7047FA3100000A
:1033800047F6D870C2F2010000688746004000008E
:10339000FFFF182D2D2D20466C6173682044696352
:1033A00074696F6E617279202D2D2D00FDF788FFF5
:1033B0004C4F2A264C484D4901604D484D4901600B
:1033C0004C484D4D040002680430018802304FF62D
:1033D000FF73994222D0494B0B4009D0FFF73CF8CC
:1033E000FEF7B9FB0388408800040343ED1A15E09B
:1033F00080230B4012D00F23194089006D1AFFF76C
:103400002BF8FEF7A8FB47F8046D060047F8046D9B
:103410002E0047F8046D0E00FDF7E4FBB2F1FF3F0C
:1034200005D0100006321278FF2A00D0CAE73448CF
:1034300004603448056034483449354A884204D031
:10344000023803889342F9D0023032490860FEF70F
:1034500027F8354D6563726973702D5374656C6C14
:103460006172697320312E3120666F722053544D82
:10347000333246343031206279204D61747468698A
:103480006173204B6F63680A23480A210160234857
:1034900000210160224800210160224847F8046DA4
:1034A0000600FEF7E8FF40CF002E02D0FEF7E7FB54
:1034B00073E640CF65E604696E697400FC7F012005
:1034C000F87F0120F47F0120F07F0120EC7F0120B4
:1034D000E87F0120E47F0120E07F0120DC7F0120E4
:1034E000D87F0120380200200400002000040020C2
:1034F00008000020DC000000008001200001000026
:10350000240000202C0000200000080000400000E3
:10351000FFFF000020000020100000200C00002011
:0835200014000020B634000085
:0400000508000000EF
:00000001FF
