:020000040800F2
:1000000038030020D13600003F3500003F350000A6
:100010003F3500003F3500003F3500000000000084
:100020000000000000000000000000003F3500005C
:100030003F350000000000003F350000173500008C
:100040003F3500003F3500003F3500003F350000E0
:100050003F3500003F350000673500008F35000058
:10006000B7350000DF350000073600003F350000DF
:100070003F3500003F3500003F3500003F350000B0
:100080003F3500003F3500002D3600003F350000B1
:100090003F3500003F3500003F3500003F35000090
:1000A0003F3500003F3500003F3500003F35000080
:1000B000553600007D360000A536000000B501F081
:1000C00049FB16556E68616E646C656420496E74F8
:1000D00065727275707420210A0000BD0201000073
:1000E000FFFF1E2D2D2D204D6563726973702D53FA
:1000F00074656C6C6172697320436F7265202D2D7D
:100100002D001A0100004200043264757000386846
:1001100047F8046D043F386070472C01000062000E
:10012000053264726F70043740CF70474A01000097
:10013000440005327377617007CF043F386047F899
:10014000046D043F3A600E0070475E0100006200DB
:1001500004326E69700007CF043F38607047780141
:100160000000440005326F766572B86847F8046D88
:10017000043F3860FE6870479C010000440005326F
:100180007475636B07CF043F386047F8046D043F14
:100190003A60043F3960043F38607047BE01000098
:1001A00046000432726F74003868B9683A69B86002
:1001B00039613A6079687E60FE68F9607047E001F5
:1001C0000000460005322D726F743868B9683A69CC
:1001D00038613960BA60F968FE607E68796070479E
:1001E000F4010000200003323E7201CF01B440B49C
:1001F00040CF70470C02000020000332723E47F8E7
:10020000046D40BC01BC043F38607047240200000C
:1002100020000332724047F8046D019E47F8046DD8
:10022000009E704736020000200006327264726F32
:10023000700002B070474E02000042000364322F8B
:100240003868F1077610400808433860704762024A
:10025000000062000364322A386800187641386072
:1002600070477C02000042000464736872003868C2
:10027000F107760840080843386070479202000092
:100280006200046473686C00386800187641386056
:100290007047A40200004200046461627300002EF3
:1002A00014D47047BE0200004300083F646E6567C7
:1002B00061746500300040CF002807D47047DC022D
:1002C0000000420007646E6567617465386800214C
:1002D000C043F64301304E4138607047F4020000DD
:1002E000640002642D0007CF121AB1410E00043FD2
:1002F0003A6070470A030000640002642B0007CFD5
:1003000012184E41043F3A6070471C030000610020
:1003100003733E6447F8046DF6177047300300001E
:10032000620003756D2A3868A0FB060638607047C6
:10033000440300006200026D2A00386880FB060654
:10034000386070478203000044000375642A07CFB9
:10035000564341437618010C130C59437618010C8F
:1003600080B292B25143434350430022C9185241D4
:100370001204B6180A04090C80184E41043F386074
:1003800070471404000044000475646D2A0010B521
:10039000002447F8046D7E6847F8046D3E69FFF756
:1003A000C2FF310040CF300040CF47F8046D3E68B7
:1003B00047F8046DFE6803B4FFF7B5FF03BC3300D4
:1003C00040CF320040CF47F8046D3E6847F8046DD7
:1003D0003E690FB4FFF7A7FF0FBC9219634140CFEE
:1003E00089196241634140CF47F8046D7E6847F840
:1003F000046DFE680FB4FFF796FF0FBC92196341BE
:1004000040CF89196241634140CF1E003A60796054
:10041000B86010BD360400004300022A2F0000B56A
:1004200040B440CFFFF789FF47F8046D40BC00F0AF
:1004300062F8043700BD580400004300052A2F6D00
:100440006F6400B540B440CFFFF777FF47F8046D05
:1004500040BC00F050F800BD7A0400004300037572
:100460002A2F00B540B440CFFFF75DFF47F8046D79
:1004700040BC00F01BF8043700BD9E0400004300A0
:1004800006752A2F6D6F640000B540B440CFFFF7AA
:100490004AFF47F8046D40BC00F008F800BDEA04CC
:1004A0000000430006756D2F6D6F640010B478680E
:1004B0003968002200242023640000184941524179
:1004C000964201D8921B0134013BF5D120236400F0
:1004D00049185241964201D8921B0134013BF6D192
:1004E00004373A60260010BC70475E0500004300E8
:1004F000056D2F6D6F6400B5F01718D0764200F0CF
:1005000019FAF0170DD0FFF7E1FE00F007FAFFF738
:10051000CDFF39683E600E46764239683E600E4631
:1005200000BD00F0FBF9FFF7C1FF764200BD00F00F
:1005300001FAF0170ED0FFF7C9FE00F0EFF9FFF750
:10054000B5FF764239683E600E46764239683E60B5
:100550000E4600BD00F0E2F9FFF7A8FF00BDBA05A6
:10056000000044000675642F6D6F640030B43C6871
:10057000B86879680022002520236D0000184941E1
:100580005241944201D8121B0135013BF5D120B4F0
:10059000002520206D00491852415B419E4204D83D
:1005A000944202D8121BB34101350138F2D13D60AB
:1005B000BA607B6040BC30BC70473006000044002D
:1005C00005642F6D6F6400B5F01719D0FFF77EFE3C
:1005D000FFF7B2FDF0170CD0FFF778FEFFF7ACFD88
:1005E000FFF7C4FFFFF7A8FDFFF770FEFFF7A4FDBC
:1005F00000BDFFF7A1FDFFF7B9FFFFF767FE00BDE4
:10060000FFF79AFDF0170ED0FFF760FEFFF794FD9D
:10061000FFF7ACFFFFF75AFEFFF78EFDFFF756FE20
:10062000FFF78AFD00BDFFF787FDFFF79FFF00BDC5
:1006300046060000440002642F0000B5FFF7C3FF28
:10064000FFF789FD00BDDE060000440002662A00B7
:1006500000B5F0170DD0FFF739FEFFF76DFDF0176D
:100660000DD0FFF733FEFFF792FE40CF01CF386089
:1006700000BDFFF761FDF017F5D0FFF727FEFFF78C
:1006800086FE40CF01CF3860FFF720FE00BD30B4BA
:100690003C68B9687A680023002520206D0049185D
:1006A00052415B419E4204D8944202D8121BB3418E
:1006B00001350138F2D1290020206D0092185B41EC
:1006C0009E4204D8944202D8121BB341013501382E
:1006D000F3D13D60BA607B600E0030BC70472A07E2
:1006E0000000440002662F0000B5F0170ED0FFF79F
:1006F000EDFDFFF721FDF0170ED0FFF7E7FDFFF747
:100700001BFDFFF7C4FFFFF726FD00BDFFF714FD3B
:10071000F017F4D0FFF7DAFDFFF70EFDFFF7B7FF94
:10072000FFF7D4FDFFF717FD00BD3E0700002000D6
:100730000232210006CF3160726040CF704752070D
:100740000000200002324000043F706838603668C4
:1007500070477207000044000364753C07CF8E4267
:1007600004D801D1904201D8002670470026F643F4
:1007700070479207000044000364753E07CFB14202
:1007800004D801D1824201D8002670470026F643E2
:100790007047B2070000440002643C0007CF8E425D
:1007A00004DC01D1904201DC002670470026F643AC
:1007B0007047D2070000440002643E0007CFB142F8
:1007C00004DC01D1824201DC002670470026F6439A
:1007D0007047E207000062000364303C0437F617FC
:1007E0007047FC07000042000364303D01CF002841
:1007F00001D000267047013EB64170471608000040
:10080000440003643C3E07CF904201D1761A01D0E8
:100810000026F643704732080000440002643D00A1
:1008200007CF904201D000267047761A013EB641AC
:1008300070474408000020000373704047F8046DBF
:100840003E007047540800002000037370213700F9
:1008500040CF70476608000020000372704047F8E0
:10086000046D6E4670477608000020000372702108
:10087000B54640CF704790080000000005646570E1
:100880007468E549C91B890847F8046D0E00704774
:10089000A008000061000364757047F8046D70479C
:1008A000B008000061000464726F700040CF7047B0
:1008B000C60800006100043F64757000002E01D07E
:1008C00047F8046D7047DA0800006200047377612E
:1008D000700039683E600E007047E8080000620052
:1008E000036E697004377047FC0800006200046FF3
:1008F0007665720047F8046D7E6870471209000043
:100900006200047475636B0001CF083F7E6038603D
:10091000704728090000630003726F7403CF083F1B
:1009200078603E600E007047400900006300042DAF
:10093000726F740003CF083F7E6039600600704715
:10094000520900002000047069636B0057F82660AC
:100950007047620900002000023E720040B440CFA0
:10096000704774090000200002723E0047F8046DD1
:1009700040BC70478609000020000272400047F822
:10098000046D009E70479609000020000572647295
:100990006F7001B07047AC0900006000047472759C
:1009A000650047F8046D0026F6437047C009000053
:1009B00060000566616C736547F8046D002670473A
:1009C000D60900006E0003616E6401CF06407047D7
:1009D0000640000616F0EE0900006E00036269632F
:1009E00001CFB043060070478643000636F0040A84
:1009F00000006E00026F720001CF0643704706438D
:100A0000000656F01A0A00006E0003786F7201CFDC
:100A1000464070474640000696F0280A00006100F4
:100A2000036E6F74F6437047380A00006100036379
:100A30006C7AB6FA86F67047460A000061000373C6
:100A4000687276087047540A000061000373686C8E
:100A500076007047640A0000610003726F725FEAFB
:100A600076067047760A0000610003726F6CB61953
:100A700056F100067047900A00006C000672736819
:100A80006966740001CFF040060070473608002602
:100A9000AA0A00006C00076172736869667401CF6E
:100AA0003041060070473610F617C40A00006C008B
:100AB000066C73686966740001CFB0400600704729
:100AC00036000026D40A0000610002303D00013EDD
:100AD000B6417047E60A0000610003303C3E013E2B
:100AE000B641F6437047F40A0000610002303C0052
:100AF000F61770470C0B00004200023E3D0001CF8C
:100B0000B042B4BF00264FF0FF367047240B000000
:100B10004200023C3D0001CFB042CCBF00264FF066
:100B2000FF3670473A0B00004200013C01CFB04253
:100B3000B4BF4FF0FF3600267047500B0000420054
:100B4000013E01CFB042CCBF4FF0FF3600267047C8
:100B5000640B0000620003753E3D01CF861BB64169
:100B6000F6437047780B0000620003753C3D01CFEF
:100B7000361AB641F64370478A0B000062000275D0
:100B80003C0001CF861BB64170479C0B0000620001
:100B900002753E0001CF361AB6417047B20B000015
:100BA0006B00023C3E0001CF361A18BF4FF0FF36F3
:100BB0007047C40B00006B00013D01CF361A013EA7
:100BC000B6417047D80B00006200036D696E01CF1B
:100BD000B042B8BF06467047EC0B00006200036DE0
:100BE000617801CFB042C8BF06467047020C0000D2
:100BF000620004756D61780001CFB04288BF06467F
:100C000070471C0C0000620004756D696E0001CF16
:100C1000B04238BF06467047380200205A0C000028
:100C20000000046D6F76650007B5310040CF3200DB
:100C300040CF00290FD0B2420DD006D3013E013A79
:100C4000705C50540139FBD105E0307810700136EA
:100C500001320139F9D140CF07BD7C0C0000000002
:100C60000466696C6C00300040CF310040CF002931
:100C700002D001397054FCD140CF7047880C00007D
:100C80002000014036687047A00C00006D00012173
:100C900003CF30600E0070470660704701607047F8
:100CA000C60C00006D00022B210003CF3268121821
:100CB00032600E0070470268921902607047026845
:100CC000521802607047D40C0000200002684000F7
:100CD00036887047EE0C00006D000268210003CFDB
:100CE00030800E0070470680704701807047140DF9
:100CF00000006D0003682B2103CF32881218328068
:100D00000E007047028892190280704702885218BC
:100D100002807047220D00002000026340003678F8
:100D200070473C0D00006D000263210003CF30705E
:100D30000E0070470670704701707047620D00002A
:100D40006D0003632B2103CF3278121832700E002E
:100D50007047027892190270704702785218027038
:100D600070478A0D00006D0004626973210003CF93
:100D70003268024332600E007047026832430260FC
:100D8000704702680A4302607047B20D00006D00B0
:100D900004626963210003CF3268824332600E002F
:100DA00070470268B2430260704702688A4302607B
:100DB0007047DA0D00006D0004786F72210003CFD8
:100DC0003268424032600E00704702687240026032
:100DD000704702684A4002607047F40D000020002E
:100DE00004626974400001CF3668064018BF4FF0B6
:100DF000FF3670471C0E00006D00056862697321A4
:100E000003CF3288024332800E007047028832439B
:100E10000280704702880A4302807047440E000037
:100E20006D0005686269632103CF32888243328096
:100E30000E0070470288B2430280704702888A43DE
:100E4000028070476C0E00006D000568786F72219B
:100E500003CF3288424032800E00704702887240D1
:100E60000280704702884A4002807047860E000068
:100E7000200005686269744001CF3688064018BFBB
:100E80004FF0FF367047AE0E00006D0005636269DB
:100E9000732103CF3278024332700E00704702781C
:100EA00032430270704702780A4302707047D60ED0
:100EB00000006D0005636269632103CF32788243CD
:100EC00032700E0070470278B243027070470278A9
:100ED0008A4302707047FE0E00006D000563786F54
:100EE000722103CF3278424032700E007047027890
:100EF00072400270704702784A4002707047180FC3
:100F00000000200005636269744001CF3678064016
:100F100018BF4FF0FF367047AC0F000000000768A5
:100F2000666C61736821300040CF310040CF954B33
:100F3000984221D3944B98421ED2944B1940994227
:100F400019D010F00102002A16D102889A4213D15A
:100F500010F100608E4A8F4B13608F4B13608F4AE5
:100F60008F4B136001808F4A136813F48033FBD1D9
:100F70008A4A8D4B1360704700F0ECFB2A57726F62
:100F80006E672061646472657373206F72206461A0
:100F9000746120666F722077726974696E6720666B
:100FA0006C61736820210A0002F065BA0410000029
:100FB00000000763666C61736821300040CF310028
:100FC00040CF704B9842D7D36F4B9842D4D211F098
:100FD000FF01FF2915D00278FF2ACDD110F1006062
:100FE0006B4A6C4B13606C4B13606C4A6F4B136015
:100FF00001706C4A136813F48033FBD1674A6A4B63
:10100000136070477A10000000001065726173650C
:10101000666C617368736563746F720000B5012E4E
:1010200029D30C2E27D25A4A5A4B13605A4B1360BD
:1010300000F090FB0D457261736520736563746FFA
:10104000722047F8046D02F088F8544A584BF600B5
:1010500033431360534A136813F48033FBD14F4A70
:10106000514B136000F076FB0C66726F6D20466C7E
:101070006173682E0A0040CF00BDEC110000000033
:101080000A6572617365666C6173680072B600B55B
:10109000484849490268B2F1FF3F05D047F8046D5E
:1010A0000126FFF7BBFF02E004308842F2D3434839
:1010B00043490268B2F1FF3F05D047F8046D0226AC
:1010C000FFF7ACFF02E004308842F2D33D483E49CE
:1010D0000268B2F1FF3F05D047F8046D0326FFF721
:1010E0009DFF02E004308842F2D338483849026854
:1010F000B2F1FF3F05D047F8046D0426FFF78EFFDD
:1011000002E004308842F2D3324833490268B2F137
:10111000FF3F05D047F8046D0526FFF77FFF02E08B
:1011200004308842F2D32D482D490268B2F1FF3FC6
:1011300005D047F8046D0626FFF770FF02E0043083
:101140008842F2D3274828490268B2F1FF3F05D010
:1011500047F8046D0726FFF761FF02E0043088427C
:10116000F2D300F0F7FA1246696E69736865642E6F
:1011700020526573657420210A005DF804EB62B6A5
:1011800002F0A8BA0040000000000800FFFF0000C5
:10119000043C024023016745AB89EFCD103C02407F
:1011A000010100000C3C0240000000800100000032
:1011B0000200010000400008FF7F000800800008D6
:1011C000FFBF000800C00008FFFF00080000010882
:1011D000FFFF010800000208FFFF030800000408E9
:1011E000FFFF050800000608FFFF070802120000C5
:1011F0006900012B01CF36187047361800360006FB
:1012000016F1181200006900012D01CF861B7047EE
:10121000361A003E0006B6F12612000061000231C7
:101220002D00013E704734120000610002312B0096
:101230000136704742120000610002322D00023E6A
:10124000704750120000610002322B0002367047D6
:10125000621200006100066E656761746500764287
:10126000704776120000610003616273002E48BF70
:10127000D6F10006704794120000420005752F6DEC
:101280006F6401CF3100B0FBF6F67143401A043FA2
:1012900038607047B21200004200042F6D6F640086
:1012A00001CF310090FBF6F67143401A043F3860DD
:1012B0007047C61200004200036D6F6400B5FFF76F
:1012C000EFFF40CF00BDD61200006200012F01CF1A
:1012D00090FBF6F67047E61200006A00012A01CF83
:1012E000464370474643F4120000610002322A0070
:1012F0007600704702130000610002322F00761062
:101300007047161300006100046576656E000120C9
:101310003040361870472A130000400004626173A1
:10132000650047F8046D104E704740130000000040
:101330000662696E617279000B4802210160704794
:1013400056130000000007646563696D616C064810
:101350000A21016070476C13000000000368657883
:101360000148102101607047100000208813000020
:10137000810009686F6F6B2D656D697447F8046DA6
:101380006F4E70477E140000A413000081000868AF
:101390006F6F6B2D6B65790047F8046D694E704770
:1013A000A4140000C213000081000A686F6F6B2D47
:1013B0003F656D69740047F8046D634E7047CE1445
:1013C0000000DE130000810009686F6F6B2D3F6B1A
:1013D000657947F8046D5D4E7047FA140000FC1300
:1013E000000081000A686F6F6B2D70617573650076
:1013F00047F8046D564E7047F63400001214000092
:10140000000004656D6974000FB54D4800F02CF8BC
:101410000FBD261400000000036B65790FB5494825
:1014200000F022F80FBD3C1400000000053F656D80
:10143000697400B5444800F017F800BD521400006C
:101440000000043F6B65790000B5404800F00CF8DF
:1014500000BD6C140000000005706175736500B577
:101460003B4800F001F800BD006887469214000078
:1014700000000B73657269616C2D656D697400B550
:1014800000F025F8002E40CFFAD0324A167040CF37
:1014900000BDBA14000000000A73657269616C2D0A
:1014A0006B65790000B500F028F8002E40CFFAD027
:1014B00047F8046D274A167800BDE81400000000C4
:1014C0000C73657269616C2D3F656D69740000B5C0
:1014D000FFF7C5FF47F8046D00261F48016880200C
:1014E000014000D0F64300BD8415000000000B73DE
:1014F000657269616C2D3F6B657900B5FFF7AFFFD1
:1015000047F8046D0026144801682020014000D0EF
:10151000F64300BD1149124808601249086850F0AE
:10152000A00008601049114808601149114808607E
:1015300011498B200860114911480860704700006C
:10154000FC7F0120F87F0120F47F0120F07F012043
:10155000EC7F012004440040004400403038024049
:101560009F000000000002402000024000770000C1
:101570004038024000000200084400400C44004093
:101580000C200000FE150000000006657870656301
:10159000740000B502CF0022FFF740FF300040CFBB
:1015A00020281BD2092818D00A2823D00D2821D0A2
:1015B0000828F1D1002AEFD000F0CCF80308200869
:1015C000002AE9D00B009B181878013A80230340C9
:1015D000E2D040230340F3D0DEE72020B242DBD24A
:1015E00047F8046D0600FFF70FFF01320B009B1850
:1015F0001870D1E70A7000F066F840CF00BD1016F1
:10160000000040000374696247F8046DE14E7047C2
:10161000221600004000033E696E47F8046DDE4E5E
:1016200070474616000000000571756572790FB5A8
:10163000D94800210170FFF7E7FF47F8046DC7267E
:10164000FFF7A7FF0FBD94160000000007636F6D42
:10165000706172650FB5300040CF317802789142E9
:1016600016D110E00136013032780378412A02D3D6
:101670005B2A38BF2032412B02D35B2B38BF20338B
:101680009A4205D101390029ECD10026F64300E049
:1016900000260FBDA816000000000263720000B50E
:1016A00000F058F8010A00BDBA16000000000262FE
:1016B0006C0047F8046D20267047CE16000000002D
:1016C00005737061636547F8046D20269CE6DE169D
:1016D00000005000065B636861725D0005E0F6166D
:1016E0000000000004636861720000B501F06CFB4B
:1016F0000136367800BD061700005000012847F873
:10170000046D292606E01E1700005000015C47F812
:10171000046D002600B501F062FB40CF00BD461706
:1017200000001000022E22009C4800B547F8046D0E
:10173000060000F05EFA47F8046D222601F04FFB28
:1017400000F0A1FD00BD9017000010000273220000
:101750009348EAE70EB47246013A47F8046D160062
:101760001378013313F001015B181EEB030E0EBC5E
:1017700014E00EB47246013A47F8046D160013786F
:10178000013313F001015B181EEB030E0EBC704712
:10179000BA170000000004747970650003B53100C9
:1017A00040CF0878002807D0013147F8046D0E7843
:1017B000FFF72AFE0138F7D103BDF2170000000041
:1017C000046865782E0003B5310040CF202004382E
:1017D00047F8046D31FA00F616F00F06092E8CBF9B
:1017E00037363036FFF710FE0028F0D1FFF76BFFD9
:1017F00003BD02180000000003682E731FB5694C7A
:101800000EE012180000000003752E731FB5664C21
:1018100006E0901800000000022E73001FB5634C14
:101820006349C91B8908634A106803B40A20106021
:10183000FFF790FF08537461636B3A205B0047F831
:10184000046D0E0001F091FCFFF784FF025D2000A3
:1018500003BC584A106000290AD0574A106806B4E1
:1018600047F8046D0600A04706BC043A0139F5D1DB
:10187000FFF770FF0620544F533A200047F8046DDD
:101880003600A047FFF766FF04202A3E0A001FBD6E
:10189000DE18000000000464756D700000B53000B3
:1018A00040CF2021FFF756FF072064756D703E0A78
:1018B00047F8046D0600FFF786FFFFF74BFF023A7B
:1018C0002000028847F8046D1600FFF77CFFFFF741
:1018D00041FF03203E0A02300139E9D100BDBC19A5
:1018E0000000000005776F72647300B5FFF732FFE8
:1018F00006776F7264730A0000F0EBFE300040CF91
:101900008179FF2945D0FFF725FF0941646472659D
:1019100073733A2047F8046D0600FFF754FFFFF792
:1019200019FF064C696E6B3A20000268043047F8D4
:10193000046D1600FFF747FF01880230FFF70AFF2A
:1019400007466C6167733A2047F8046D0E00FFF795
:101950003AFF47F8046D060000F0D8FEFFF7FAFEE4
:1019600006436F64653A200047F8046D0600FFF7F0
:101970002AFFFFF7EFFE064E616D653A2000FFF784
:101980000DFFFFF7E7FE010AB2F1FF3F01D01000A3
:10199000B6E700BD700000200000002054170000D2
:1019A00072170000C71700005B3100006B310000A8
:1019B000380200201000002034020020201B00000C
:1019C00000000D3132626974656E636F64696E6721
:1019D0000FB5FF2E04D847F8046D5FF0FF360FBD3A
:1019E00016F0FF10B0420ED14FF6FF710840310CD7
:1019F000814208D116F0FF0656F4805647F8046D70
:101A00005FF0FF360FBD16F0FF20B0420FD14FF64A
:101A1000FF710840310C814209D1360A16F0FF06E9
:101A200056F4005647F8046D5FF0FF360FBDFF22F5
:101A300031001140300A1040884210D1300C104063
:101A400088420CD1300E1040884208D116F0FF06B3
:101A500056F4405647F8046D5FF0FF360FBD300076
:101A600000210131001850F100007FF07F02024098
:101A7000802A05D01F29F4D347F8046D00260FBD36
:101A80000829F9D3060036F0800611F00100C001E4
:101A9000064311F00E00C002064311F0100080054D
:101AA000064347F8046D5FF0FF360FBD47F8046D3D
:101AB000DFF8F0655FF4704110EA0102120116438D
:101AC0005FF4006110EA0102D20316435FF4E061A3
:101AD00010EA010212011643FF2110EA0102164327
:101AE0001E43C0E347F8046DDFF8BC655FF070414A
:101AF00010EA0102120B16435FF0006110EA0102C6
:101B0000520816435FF0E06110EA0102120B16431F
:101B10005FF47F0110EA0102120C16431E43A2E398
:101B2000861B000000001072656769737465726C33
:101B300069746572616C2C000FB5330040CF1B02D5
:101B4000FF2E05D856F400561E4300F064FB0FBD6F
:101B5000FFF73EFF002E40CF06D0DFF850050643CA
:101B60001E4300F080FB0FBDF643FFF731FF002E50
:101B700040CF06D0DFF8380506431E4300F073FB64
:101B80000FBDF6430BE0E61B00000000096D6F7609
:101B9000776D6F76742C0FB5330040CF1B02300089
:101BA00040CFFFF783FF4FF6FF7110EA014001D0ED
:101BB000FFF798FF0FBD0FB50136300040CF00236F
:101BC000FFF774FFFFF78EFF06E00FB5013647F809
:101BD000046D0026FFF7B0FF47F8046D44F28076ED
:101BE00000F019FB0FBD4C1C000000000563616C88
:101BF0006C2C0FB5330000F01EFE300040CF1B1AD6
:101C0000043BDFF8B0141940002906D0DFF8A824FF
:101C1000914202D0BDE80F40D7E740CF5B08DFF824
:101C20009C0440F2FF7119400843DB0A40F2FF3187
:101C30001940090408439B0A13F00101890608436F
:101C400047F8046D060000F00EFB0FBD821C00007B
:101C50000000086C69746572616C2C0008B547F867
:101C6000046D4FF6470600F0D6FA47F8046D46F6C5
:101C7000045600F0D0FA47F8046D0626FFF75CFF23
:101C800008BDCC1C0000200005646F65733E41F662
:101C90009F40804747F8046DBEF10106704747F842
:101CA000046DBEF1010600F0DCF8DFF814241368BF
:101CB000310040CF0220084000D0023102311160D3
:101CC000FFF779FF136000F010FA00BD0E1D000051
:101CD0000000073C6275696C647300B500F089FB15
:101CE00000F0A9FD0220064040CF04D047F8046D63
:101CF000362600F090FA47F8046D4BF2005600F0DB
:101D00008AFA47F8046D0A2600F0DBFA00BD1A1DB6
:101D100000005000035B275D03E0801D0000000011
:101D2000012700B501F050F8300040CF01780029BC
:101D30000CD1FFF70FFD102027206E65656473201E
:101D40006E616D6520210A0001F095BB47F8046DB6
:101D5000060000F0EAFC40CF002E10D1D94847F829
:101D6000046D0600FFF71AFDFFF7F4FC0C206E6F00
:101D70007420666F756E642E0A0001F07CBB00BD96
:101D8000CE1D0000100008706F7374706F6E6500D8
:101D900000B501F019F800F0C8FC300040CF002E6B
:101DA000DCD01021014010290ED020210140202933
:101DB00005D1FFF753FF47F8046DC34E04E0FFF76A
:101DC0004DFF47F8046DC14EFFF713FF00BD241E01
:101DD0000000000007696E6C696E652C00B54BF25F
:101DE00000514BF6005244F270733088884208D09C
:101DF000904208D0984206D047F8046D060000F0E3
:101E00000AFA0236F1E740CF00BD0EB44BF600529D
:101E100044F2707301880230914201D09942F9D1A5
:101E20000EBC70473A1E00000000047265742C005E
:101E300047F8046D4BF60056EDE1481E00003000F7
:101E4000046578697400F3E77E1E000030000772B5
:101E500065637572736500B500F003F8FFF7C9FE9E
:101E600000BD0FB59A4800680630017801310122A3
:101E70000A408918401847F8046D06000FBD921EED
:101E80000000400005737461746547F8046D914E5D
:101E90007047A41E00000000015D8E480021C94368
:101EA00001607047B41E00001000015B89480021EA
:101EB00001607047DC1E00000000013A00B5864852
:101EC000076000F096FA47F8046D4BF2005600F0F8
:101ED000A2F980480021C943016000BD241F000011
:101EE0003000013B00B57C480168B9420ED0FFF7D5
:101EF00031FC1520537461636B206E6F7420626136
:101F00006C616E6365642E0A01F0B5BA47F8046D22
:101F10004BF6005600F07FF900F0E7F86D4800211D
:101F2000016000BD3A1F0000000007657865637519
:101F30007465300040CF01308746521F000010000A
:101F400009696D6D65646961746547F8046D1026F3
:101F5000F7E0681F0000100006696E6C696E65008E
:101F600047F8046D2026ECE0821F000010000B6390
:101F70006F6D70696C656F6E6C7947F8046D302613
:101F8000DFE09C1F000010000A302D666F6C64615A
:101F9000626C650047F8046D4026D2E0B61F000071
:101FA00010000A312D666F6C6461626C650047F841
:101FB000046D4126C5E0D01F000010000A322D66D6
:101FC0006F6C6461626C650047F8046D4226B8E08E
:101FD000EA1F000010000A332D666F6C6461626CAA
:101FE000650047F8046D4326ABE0042000001000B4
:101FF0000A342D666F6C6461626C650047F8046D8D
:1020000044269EE01E20000010000A352D666F6CED
:102010006461626C650047F8046D452691E03820E4
:10202000000010000A362D666F6C6461626C6500FA
:1020300047F8046D462684E05220000010000A375D
:102040002D666F6C6461626C650047F8046D47260D
:1020500077E082200000000008636F6E7374616E89
:10206000740000B500F0C5F9FFF7F8FD47F8046DFE
:1020700044F2707600F0CFF8FFF78CFF00F035F8EF
:1020800000BDDC20000000000932636F6E737461D4
:102090006E7400B500F0ADF939683E600E46FFF78A
:1020A000DDFDE1E7000040F20000C0F200005FF05B
:1020B00000007FF00100C0FF0000C0FF00F800F04A
:1020C0000400002038030020DC1D0000F21B00008B
:1020D000080000200C0000201C000020322100001D
:1020E000000006736D756467650023480168234A24
:1020F000914280F01A8000B502390A88204B9A423A
:1021000004D147F8046D002600F085F81D480068EA
:1021100047F8046D06001C4909680431164A136823
:10212000116000F078F8136000BD47F8046D0026D8
:1021300007E08C210000000008736574666C61671D
:10214000730000B50C4801680C4A914280F006808B
:102150000C4801683143016040CF00BD320040CFE0
:102160000948006804300188054B99420CBF1146AC
:102170001143018000BD0000040000200000002089
:10218000FFFF00002800002008000020AE21000012
:10219000000006616C69676E2C008B4801680120A5
:1021A000014003D047F8046D00261AE07047D8219B
:1021B0000000000007616C69676E342C00B5FFF702
:1021C000ECFF814801680220014004D047F8046D0B
:1021D000002600F020F800BD0C2200000000026381
:1021E0002C0000B578480168784A914205D247F83A
:1021F000046D0E00FEF7E1FE02E0320040CF0A70EF
:1022000047F8046D012600F05CF800BD4222000092
:10221000000002682C000FB56B4801686B4A9142C0
:1022200080F0068047F8046D0E00FEF77CFE02E0A9
:10223000320040CF0A8047F8046D022600F041F8D2
:102240000FBD5C2200000000012C00B547F8046DB2
:10225000FFF7E1FF360CFFF7DEFF00BD782200003C
:102260000000033E3C2C00B547F8046D360CFFF728
:10227000D2FFFFF7D0FF00BDB622000000000773B9
:102280007472696E672C07B5300040CF0178013158
:10229000022909D3028847F8046D1600FFF7BBFF37
:1022A0000230023906D0F3E7027847F8046D1600D1
:1022B000FFF7B1FF07BD10230000000005616C6C43
:1022C0006F7441480168414A91420FD2320040CFB9
:1022D00089183F4A914219D3FFF73CFA0B466C61CB
:1022E00073682066756C6C0A01F0C5B8320040CF87
:1022F0008918384A1268914208D3FFF72BFA09521D
:10230000616D2066756C6C0A01F0B5B801607047AC
:102310003823000000000D636F6D70696C65746F89
:1023200072616D3F47F8046D002627480068274911
:10233000884248D3F64370475823000000000C63DE
:102340006F6D70696C65746F72616D001E48006816
:102350001E49884211D37047E423000000000E6339
:102360006F6D70696C65746F666C61736800164898
:1023700000681649884200D270471748174902681A
:102380000B680A6003601048154902680B680A6010
:10239000036010480068834215D300B5FFF7DAF9EF
:1023A00023205661726961626C657320636F6C6C87
:1023B00069646520776974682064696374696F6E05
:1023C0006172790A00BD70470400002000000020FF
:1023D000000008002C00002008000020240000203D
:1023E00020000020CC2400000000066372656174A8
:1023F000650000B500F0E8FC300040CF017800290E
:102400000ED1FFF7A7F91520437265617465206E40
:1024100065656473206E616D6520210A01F02BB83B
:1024200047F8046D060047F8046D00F07EF940CFD0
:10243000300040CF00280ED0FFF78CF909526564B8
:102440006566696E652047F8046DFFF7A7F9FFF729
:1024500081F9022E0A00FFF7A0FE00F0ECF98F4888
:1024600000688F49884280F01E808E4800210160FC
:1024700047F8046D0626FFF724FF39683E600E46D4
:10248000FFF701FF884801680A68B2F1FF3F07D1F2
:10249000824A1368116047F8046DFFF7D6FE136097
:1024A000066040CF00BD804847F8046D0668FFF71E
:1024B000CCFE47F8046D0026F643FFF7ACFE7A48E1
:1024C000310040CF0160FFF7DEFE00BDE4240000D4
:1024D0000000087661726961626C650047F8046DFE
:1024E000012613E0FC2400000000093276617269C5
:1024F00061626C6547F8046D022607E0D82500008C
:102500000000096E7661726961626C6500B5FFF763
:1025100070FF62480168624A914280F035800F2066
:102520000640B20061480168891A614A91420BD2A3
:10253000FFF710F90F4E6F7420656E6F7567682096
:1025400052414D0A00F097BF016047F8046D0E003C
:10255000FFF784FB47F8046D44F27076FFF75BFEEB
:10256000300040CF0200002805D00E600431FFF794
:102570006CFE0138F9D147F8046D80261643FFF749
:10258000E0FDFFF7B2FD00BD00F055F90220064066
:1025900040CF04D147F8046D3626FFF73CFE47F8DC
:1025A000046D444EFFF75FFE47F8046D424EFFF79F
:1025B0005AFE47F8046D44F27076FFF72CFE3000A7
:1025C00040CF002803D0FFF740FE0138FBD1FFF7D2
:1025D000E1FCFFF78AFD00BDBC2600000000076299
:1025E00075666665723A00B5FFF703FF012030405B
:1025F000361802203040361828480168284A91428F
:1026000080F0298029480168891B294A91420BD210
:10261000FFF7A0F80F4E6F7420656E6F7567682026
:1026200052414D0A00F027BF016047F8046D0E00CB
:10263000FFF714FB47F8046D44F27076FFF7EBFDEB
:10264000FFF703FE47F8046D40F24016FFF779FDEF
:10265000FFF74BFD00BD00F0EEF80220064040CF32
:1026600004D147F8046D3626FFF7D5FD47F8046D11
:10267000104EFFF7F8FD47F8046D0F4EFFF7F3FD1E
:1026800047F8046D44F27076FFF7C5FDFFF719FEB9
:10269000FFF780FCFFF729FD00BD000004000020CB
:1026A0000000002028000020080000202C0000204E
:1026B000000400203E60043F02367E46EC26000007
:1026C00000000F44696374696F6E6172797374619D
:1026D00072742C4800682C4B1B682C4947F8046D19
:1026E000884201D22A4E70471E0070471E27000004
:1026F00000000A736B6970737472696E67003178D9
:10270000013101220A4089187618704706B4017811
:10271000013101220A408918401806BC70479827E9
:10272000000000000466696E64001FB53400FFF706
:10273000D0FF300040CF002600238179FF291CD034
:102740008188144A9142026812D0063047F8046D1D
:10275000060047F8046D2600FEF77CFF002E40CFF0
:1027600006D0FFF7D3FF06000B000848864204D2CC
:10277000B2F1FF3F01D01000DFE747F8046D1E0003
:102780001FBD000004000020080000200000002001
:10279000DC000000FFFF0000F227000000000663DD
:1027A0006A756D702C00320040CF310040CF8B1B1A
:1027B000043BA349194000290DD0A24881420AD008
:1027C000FEF7C8FF0D4A756D7020746F6F2066614B
:1027D000720A00F050BE5B10FF210B401343300023
:1027E0001E0000B5984A13681060FFF714FD1360CF
:1027F00000BD2A2800000000056A756D702C3100AC
:1028000040CF300040CF0B1A043B904919400029BB
:1028100002D08F4A9142D3D15B108E4A134053F4B9
:10282000604347F8046D1E00DBE74028000000000D
:1028300004686572650047F8046D834E366870471A
:102840003C29000000000D666C6173687661722D92
:102850006865726547F8046D7F4E3668704700B54D
:1028600047F8046D42F60066FFF7D5FC47F8046DA3
:102870004CF64076FFF7CFFC00BDDCE700B500F07A
:102880003AF839683E600E4647F8046D4DF200167E
:10289000FFF789FF00BD00B500F02DF839683E60F4
:1028A0000E4647F8046D4DF20076FFF77CFF00BD41
:1028B00000B5FFF7D4FF00F01EF839683E600E4601
:1028C00047F8046D4DF20006FFF76DFF00BD00B53F
:1028D00000F011F839683E600E46FFF790FF00BD2A
:1028E00000B5FFF7BCFFFFF7A6FF47F8046D02260F
:1028F000FFF7E7FC00BD00B5FFF79DFF47F8046D4B
:102900000226FFF7DEFC00BD00B5FFF794FFFFF7DE
:1029100076FF00BD00B5FFF78EFF47F8046D4DF25E
:102920000006FFF740FF00BD00B5FFF784FF47F842
:10293000046D4DF20016FFF736FF00BD7829000048
:102940003000047468656E00052E01D140CFDBE7CE
:10295000022E01D140CFDDE7FEF7FCFE1753747263
:102960007563747572657320646F6E2774206D6172
:102970007463680A00F07FBDA4290000300004657C
:102980006C73650000B5022E7FF4E6AF40CFFFF711
:10299000B2FF39683E600E46FFF7BCFF47F8046D92
:1029A000052600BDBC29000030000269660000B5A4
:1029B000FFF796FF47F8046D022600BDE2290000EC
:1029C00030000672657065617400042EC4D140CF7A
:1029D00039683E600E4600B5FFF779FFFFF79AFFB2
:1029E00000BDFE2900003000057768696C65012E86
:1029F000B2D140CF00B5FFF7DAFF023600BD122A90
:102A00000000300005756E74696C012EA4D140CFB2
:102A10004EE7262A0000300005616761696E012ECD
:102A20009AD140CF53E75C2A000030000562656709
:102A3000696E00B5FFF721FF47F8046D012600BD60
:102A400001FFFFFF00FFFFFF0400002001F8FFFF70
:102A500000F8FFFFFF0700002C0000206C2A000098
:102A60002000016B47F8046D029E70477C2A00002D
:102A70002000016A47F8046D009E70478C2A000010
:102A80002000016947F8046D26007047CC2A000039
:102A90003000056C6561766500B5684801683B00EB
:102AA000043F1A68043B1A60043304338B42F8D1A4
:102AB00003B4FFF720FF03BC330040CF04390B60A1
:102AC000016004390A6801320A6000BDDE2A000094
:102AD000200006756E6C6F6F700030BC7047162B4F
:102AE00000003000052B6C6F6F70032E00D033E7B1
:102AF00040CF00B547F8046D514EFFF76FF9FFF76F
:102B0000CAFE1AE014F10044641BA41940CF2C44FF
:102B1000A4F100447047582B00003000046C6F6F24
:102B20007000032E00D017E740CF00B547F8046DC2
:102B3000444EFFF753F9FFF7A1FE00F023F93F4899
:102B4000310040CF016047F8046D3F4EFFF746F972
:102B500000BD0134AC427047A02B00007800026435
:102B60006F0000B547F8046D384EFFF737F933486A
:102B7000016847F8046D0E0047F8046D00260760F1
:102B8000FFF77BFE47F8046D032600BD00B500F09B
:102B90002FF8ECE730B4340040CF350040CF704719
:102BA000502C00007800033F646F00B547F8046DB7
:102BB000264EFFF713F947F8046D44F2AC26FFF7F1
:102BC0002AFB1E48016847F8046D0E00FFF793FECC
:102BD000013647F8046D012618480760FFF74DFEDF
:102BE00047F8046D032600BD00B500F001F8E2E7E8
:102BF00000B547F8046D4BF23046FFF70CFB47F881
:102C0000046D0426FEF798FF013B08D047F8046DD9
:102C10000526FEF791FF013B00F006FC00BD47F8DA
:102C2000046D3526FFF7F7FA47F8046D4CF6407649
:102C3000FFF7F1FA00F0F8FB00BD000018000020DB
:102C4000042B0000522B0000DA2A0000942B000015
:102C50006A2C0000300004636173650047F8046D5E
:102C6000002647F8046D08267047802C00003000CD
:102C7000033F6F664D4809E0013EB64140CF7047C3
:102C8000242D00007800026F66004948082E00D00D
:102C900062E640CF00B547F8046D0600FFF79EF8E6
:102CA000FFF729FE39683E600E46013647F8046D8D
:102CB000092647F8046D4CF64076FFF7ACFA00BDE4
:102CC00000B5300040CF013B01B400F0ADFB01BCCA
:102CD000082E00D040E640CF47F8046D0600FF21E3
:102CE0003140B14204D133490E43FFF794FAD7E79C
:102CF000FEF76EFE002E40CF04D02F480643FFF7AC
:102D0000B2FACDE747F8046D0026FEF715FF47F845
:102D1000046D44F2B026FFF77EFAC1E7300040CFE1
:102D2000B04270475A2D0000300005656E646F6632
:102D3000092E00D010E640CF00B540B440CFFFF7D9
:102D4000DAFD39683E600E46FFF7EEFD47F8046D88
:102D500040BC47F8046D082600BDBC2D00003000C3
:102D600007656E6463617365082E00D0F4E540CF9B
:102D700000B547F8046D4CF64076FFF74CFA00F0CA
:102D800001F800BD00B5300040CF00280DD003B4DD
:102D900001213140002903D0013EFFF7BBFD01E0D6
:102DA000FFF7B2FD03BC0138EFE700BD782C00004F
:102DB0001C2D0000002E0000000FB6F1D22D0000E7
:102DC000000005746F6B656E202047F8046D0600E7
:102DD00005E0302E0000000005706172736530B5AB
:102DE00010480178104A1278104B00248018202EC9
:102DF00007D1914210D0013001320578B542F8D0A8
:102E000006E0914208D0013001320578B54203D086
:102E1000013301341D70F4E703480270034E34702F
:102E200030BD0000700000200000002038030020AA
:102E30006E2E00000000056469676974CD4B1B6845
:102E4000303E0BD30A2E0BD3073E0A2E06D3242E78
:102E500006D3203E0A2E01D3242E01D3002670472C
:102E60009E42FBD247F8046D0026F6437047762F4A
:102E700000000000066E756D626572003FB530009F
:102E800001780126012204B4BA4B1B6800240025F6
:102E900000293CD00130013902782D2A04D101B03B
:102EA0000022D24304B4F3E7232A01D10A23EFE737
:102EB000242A01D11023EBE7252A01D10223E7E7D9
:102EC0002E2A01D10226E3E72C2A36D047F8046DDA
:102ED0001600FFF7B5FF002E40CF2BD047F8046D4A
:102EE000260047F8046D2E0047F8046D1E0047F8D1
:102EF000046D00260FB4FDF72AFA0FBC350040CF51
:102F0000340040CF0022A419554140CFC0E704BC93
:102F1000002A04D50022E443ED4301345541330037
:102F20002600012B02D047F8046D2E0047F8046DEF
:102F30001E003FBD01B000263FBD25000024022633
:102F40000029E4D0425C01392E2AF9D047F8046DFB
:102F50001600FFF775FF002E40CFEBD0043F3C601A
:102F600047F8046D1E000FB4FDF7A0FA0FBC340043
:102F700040CF40CFE4E7962F00000000062E6469A2
:102F8000676974000A2E3CBF303603E0242E34BF3C
:102F9000373623267047CC2F0000000004686F6C82
:102FA0006400330040CF744801783F290DD20131CD
:102FB00001704018012907D00138027801300270F1
:102FC000013801390129F7D103707047EC2F000057
:102FD000000005686F6C643C330040CF66480178A0
:102FE0003F2902D201310170435470470430000080
:102FF0000000047369676E00002E01D440CF704753
:103000002D26CEE714300000000002233E000437D6
:10301000594E70472C30000000000366235310B552
:10302000202400F008F8013CFBD110BD4E30000018
:1030300000000266230000B547F8046D4D4E366867
:10304000FDF771F9FFF79EFFFFF7C6FF00BD6A307D
:10305000000000000223530000B500F00AF8002E23
:10306000FBD138680028F8D100BD96300000000080
:10307000012300B547F8046D3E4E366847F8046DED
:103080000026FDF773FAFDF757F840CFFFF77AFFF8
:10309000FFF787FF00BDA83000000000023C2300BE
:1030A0003548002101707047BA3000000000026608
:1030B0002E0047F8046D202604E0083100000000CF
:1030C00003662E6E00B510B4340040CFFDF71CFC33
:1030D000FDF7E5F847F8046D0026FFF7E1FFFFF77D
:1030E000BBFF40CF2C26FFF777FF002C03D0FFF764
:1030F000A2FF013CFBD110BC40CFFFF77DFF47F89A
:10310000046D47F8046D1CE01E31000000000375DB
:10311000642E00B5FFF7C4FFFFF79EFF11E05031AA
:103120000000000002642E0000B5FDF7EDFBFDF786
:10313000B6F8FFF7B5FFFFF78FFFFDF7EFFBFFF7DF
:103140005BFFFFF764FFFEF729FBFEF7BCFA00BD4B
:1031500062310000000002752E0047F8046D002661
:10316000D7E77C3100000000012E47F8046DF61708
:10317000DAE7000010000020300000204E3400008C
:10318000000009696E7465727072657430B5C64866
:1031900087420BD9FEF7DEFA10537461636B20751A
:1031A0006E646572666C6F770A0064E1BF4887429F
:1031B0000AD2FEF7CFFA0F537461636B206F766506
:1031C00072666C6F770A56E1FFF7FEFD300040CF64
:1031D0000178002900D130BDB54C2568002D01D102
:1031E0003D00256047F8046D0600FFF79EFA3100A8
:1031F00040CF320040CF002A17D147F8046D0600B7
:10320000FFF73CFE320040CF002AC0D147F8046DE2
:103210000600FEF7C3FAFEF79DFA0C206E6F7420CD
:10322000666F756E642E0A0025E1A24B1B68002BA9
:103230001ED10025256030230B40302B11D147F8DB
:10324000046D0600FEF7AAFAFEF784FA12206973ED
:1032500020636F6D70696C652D6F6E6C792E0A003E
:1032600009E147F8046D1600FEF763FEFFF78FFFD4
:1032700080200840802810D0EB1B9B08402008408D
:10328000402810D108200840082802D1002B00D087
:103290001FE00F200840834205D347F8046D160055
:1032A000FEF747FE73E700F0BFF847F8046D16001D
:1032B00010220A40102A02D1FEF73BFE67E72022C7
:1032C0000A40202A02D1FEF789FD60E7FEF791FC53
:1032D0005DE7072001401000FEF797FD01291FD18F
:1032E000012BDAD1FF213140B14204D1408806439D
:1032F000FEF791FF4BE7FEF76BFB002E40CF04D0AB
:1033000040680643FEF7AFFF41E747F8046D00262B
:10331000FEF712FC47F8046D0688FEF77CFF36E7DF
:10332000022902D1012BB8D1EFE7032926D1012BC5
:10333000B3D1FF213140B1420AD15F490E43FEF7BC
:103340006AFF043247F8046D1600FEF747FD1EE7DA
:10335000FEF73EFB002E40CF04D058490E43FEF747
:1033600082FFEEE747F8046D0026FEF7E5FB023228
:1033700047F8046D1600FEF731FD08E7042918D15F
:10338000012B8AD1330040CF002B00D1FFE61F2252
:103390001A409A4205D047F8046D4688FEF73BFF75
:1033A000F5E647F8046D06889B011E43FEF733FFE0
:1033B000EDE6052924D1012B10D147F8046D002634
:1033C000FEF7BAFB47F8046D0600FEF707FD47F865
:1033D000046D4CF64076FEF71EFFD8E647F8046D04
:1033E0000026FEF7A9FB47F8046D0126FEF7A4FBB3
:1033F000FEF70BFD47F8046D0600FEF7EFFCC6E68E
:1034000006290ED1012B7FF448AFFEF7E1FA002E1A
:1034100040CF3FF47AAFD0F802000643FEF723FF17
:10342000B5E601308047B2E600B5002B0CD0013B79
:1034300047F8046D1E0057F82660FEF70FFC002BBE
:10344000F5D1043D2F0040CF0025256000BD6A3432
:103450000000810009686F6F6B2D7175697447F802
:10346000046D174E704794340000CC340000000007
:10347000047175697400DFF84CD00B4F12480A21B3
:1034800001600C48002101600948002101600C48DE
:1034900000688746FEF7CBF8FFF778FEFEF75AF98B
:1034A00005206F6B2E0AF5E7380200203801002056
:1034B000140000200C000020003E00000006B6F1C1
:1034C000E87F01203803002010000020DC340000D9
:1034D00020000465696E740062B67047EC34000029
:1034E00020000464696E740072B67047F8340000FE
:1034F0000000036E6F7070472235000081000B6979
:1035000072712D7379737469636B47F8046DB54EEE
:103510007047F634000047F6E470C2F2010000681C
:1035200087464A3500008100096972712D66617510
:103530006C7447F8046DAC4E7047BC00000047F651
:10354000E070C2F201000068874672350000810019
:10355000096972712D657874693047F8046DA34E5E
:103560007047F634000047F6DC70C2F201000068D4
:1035700087469A3500008100096972712D6578745B
:10358000693147F8046D9A4E7047F634000047F6EB
:10359000D870C2F2010000688746C2350000810081
:1035A000096972712D657874693247F8046D914E1E
:1035B0007047F634000047F6D470C2F2010000688C
:1035C0008746EA3500008100096972712D657874BB
:1035D000693347F8046D884E7047F634000047F6AB
:1035E000D070C2F2010000688746123600008100E8
:1035F000096972712D657874693447F8046D7F4EDE
:103600007047F634000047F6CC70C2F20100006843
:103610008746383600008100076972712D61646346
:1036200047F8046D764E7047F634000047F6C870D0
:10363000C2F2010000688746603600008100086918
:1036400072712D74696D320047F8046D6D4E7047CC
:10365000F634000047F6C470C2F2010000688746E5
:10366000883600008100086972712D74696D33001D
:1036700047F8046D644E7047F634000047F6C0709A
:10368000C2F2010000688746B03600008100086978
:1036900072712D74696D340047F8046D5B4E70478C
:1036A000F634000047F6BC70C2F20100006887469D
:1036B00000400000FFFF182D2D2D20466C6173681F
:1036C0002044696374696F6E617279202D2D2D001D
:1036D000FDF720FF4E4885464E4F2A264E484F495B
:1036E00001604F484F4901604E484F4D0400026849
:1036F0000430018802304FF6FF73994222D04B4BC1
:103700000B4009D0FFF702F8FEF77FFB03884088E3
:1037100000040343ED1A15E080230B4012D00F2361
:10372000194089006D1AFEF7F1FFFEF76EFB47F8AE
:10373000046D060047F8046D2E0047F8046D0E0076
:10374000FDF772FAB2F1FF3F05D010000632127891
:10375000FF2A00D0CAE7364804603648056036487C
:103760003649374A884204D0023803889342F9D058
:10377000023034490860FDF7EDFF354D656372692D
:1037800073702D5374656C6C6172697320312E31C6
:1037900020666F722053544D3332463430312062EC
:1037A00079204D61747468696173204B6F63680A96
:1037B00025480A2101602548002101602448002194
:1037C0000160244847F8046D0600FEF7AEFF40CFC5
:1037D000002E02D0FEF7ADFB59E640CF4BE6046960
:1037E0006E697400E47F0120E07F0120DC7F01200E
:1037F000D87F0120D47F0120D07F0120CC7F012001
:10380000C87F0120C47F0120C07F0120BC7F012030
:1038100038030020380200200400002000040020AB
:1038200008000020DC0000000080012000010000F2
:10383000240000202C0000200000080000400000B0
:10384000FFFF000020000020100000200C000020DE
:0838500014000020DE37000027
:0400000508000000EF
:00000001FF
