:020000040800F2
:1000000038030020153000008D0000008D00000036
:100010008D0000008D0000008D0000000000000039
:100020000000000000000000000000008D00000043
:100030008D000000000000008D000000FB2E00007D
:100040008D0000008D0000008D0000008D0000007C
:100050008D0000008D000000232F00004B2F0000BA
:10006000732F00009B2F0000C32F00008D000000A5
:100070008D0000008D0000008D0000008D0000004C
:100080008D0000008D000000E92F000000B501F098
:100090004FF916556E68616E646C656420496E7424
:1000A00065727275707420210A0000BDD2000000D4
:1000B000FFFF1E2D2D2D204D6563726973702D532A
:1000C00074656C6C6172697320436F7265202D2DAD
:1000D0002D00EA00000042000432647570003868A8
:1000E00047F8046D043F38607047FC000000620070
:1000F000053264726F70043740CF70471A010000F8
:10010000440005327377617007CF043F386047F8C9
:10011000046D043F3A600E0070472E01000062003B
:1001200004326E69700007CF043F386070474801A1
:100130000000440005326F766572B86847F8046DB8
:10014000043F3860FE6870476C01000044000532CF
:100150007475636B07CF043F386047F8046D043F44
:100160003A60043F3960043F386070478E010000F8
:1001700046000432726F74003868B9683A69B86032
:1001800039613A6079687E60FE68F9607047B00155
:100190000000460005322D726F743868B9683A69FC
:1001A00038613960BA60F968FE607E6879607047CE
:1001B000C4010000200003323E7201CF01B440B4FC
:1001C00040CF7047DC01000020000332723E47F848
:1001D000046D40BC01BC043F38607047F40100006E
:1001E00020000332724047F8046D019E47F8046D09
:1001F000009E704706020000200006327264726F93
:10020000700002B070471E02000042000364322FEB
:100210003868F107761040080843386070473202AA
:10022000000062000364322A3868001876413860A2
:1002300070474C0200004200046473687200386822
:10024000F1077608400808433860704762020000F2
:100250006200046473686C00386800187641386086
:100260007047740200004200046461627300002E53
:1002700014D470478E0200004300083F646E656727
:1002800061746500300040CF002807D47047AC028D
:100290000000420007646E6567617465386800217C
:1002A000C043F64301304E4138607047C40200003D
:1002B000640002642D0007CF121AB1410E00043F02
:1002C0003A607047DA020000640002642B0007CF36
:1002D00012184E41043F3A607047EC020000610082
:1002E00003733E6447F8046DF6177047000300007F
:1002F000620003756D2A3868A0FB060638607047F7
:10030000140300006200026D2A00386880FB0606B4
:10031000386070475203000044000375642A07CF19
:10032000564341437618010C130C59437618010CBF
:1003300080B292B25143434350430022C918524104
:100340001204B6180A04090C80184E41043F3860A4
:100350007047E403000044000475646D2A0010B582
:10036000002447F8046D7E6847F8046D3E69FFF786
:10037000C2FF310040CF300040CF47F8046D3E68E7
:1003800047F8046DFE6803B4FFF7B5FF03BC330004
:1003900040CF320040CF47F8046D3E6847F8046D07
:1003A0003E690FB4FFF7A7FF0FBC9219634140CF1E
:1003B00089196241634140CF47F8046D7E6847F870
:1003C000046DFE680FB4FFF796FF0FBC92196341EE
:1003D00040CF89196241634140CF1E003A60796085
:1003E000B86010BD060400004300022A2F0000B5CB
:1003F00040B440CFFFF789FF47F8046D40BC00F0E0
:1004000062F8043700BD280400004300052A2F6D60
:100410006F6400B540B440CFFFF777FF47F8046D35
:1004200040BC00F050F800BD4A04000043000375D2
:100430002A2F00B540B440CFFFF75DFF47F8046DA9
:1004400040BC00F01BF8043700BD6E040000430000
:1004500006752A2F6D6F640000B540B440CFFFF7DA
:100460004AFF47F8046D40BC00F008F800BDBA042C
:100470000000430006756D2F6D6F640010B478683E
:1004800039680022002420236400001849415241A9
:10049000964201D8921B0134013BF5D12023640020
:1004A00049185241964201D8921B0134013BF6D1C2
:1004B00004373A60260010BC70472E050000430048
:1004C000056D2F6D6F6400B5F01718D0764200F0FF
:1004D000F7F9F0170DD0FFF7E1FE00F0E5F9FFF7AF
:1004E000CDFF39683E600E46764239683E600E4662
:1004F00000BD00F0D9F9FFF7C1FF764200BD00F062
:10050000DFF9F0170ED0FFF7C9FE00F0CDF9FFF7C5
:10051000B5FF764239683E600E46764239683E60E5
:100520000E4600BD00F0C0F9FFF7A8FF00BD8A0528
:10053000000044000675642F6D6F640030B43C68A1
:10054000B86879680022002520236D000018494111
:100550005241944201D8121B0135013BF5D120B420
:10056000002520206D00491852415B419E4204D86D
:10057000944202D8121BB34101350138F2D13D60DB
:10058000BA607B6040BC30BC70470006000044008D
:1005900005642F6D6F6400B5F01719D0FFF77EFE6C
:1005A000FFF7B2FDF0170CD0FFF778FEFFF7ACFDB8
:1005B000FFF7C4FFFFF7A8FDFFF770FEFFF7A4FDEC
:1005C00000BDFFF7A1FDFFF7B9FFFFF767FE00BD14
:1005D000FFF79AFDF0170ED0FFF760FEFFF794FDCE
:1005E000FFF7ACFFFFF75AFEFFF78EFDFFF756FE51
:1005F000FFF78AFD00BDFFF787FDFFF79FFF00BDF6
:1006000016060000440002642F0000B5FFF7C3FF88
:10061000FFF789FD00BDAE060000440002662A0017
:1006200000B5F0170DD0FFF739FEFFF76DFDF0179D
:100630000DD0FFF733FEFFF792FE40CF01CF3860B9
:1006400000BDFFF761FDF017F5D0FFF727FEFFF7BC
:1006500086FE40CF01CF3860FFF720FE00BD30B4EA
:100660003C68B9687A680023002520206D0049188D
:1006700052415B419E4204D8944202D8121BB341BE
:1006800001350138F2D1290020206D0092185B411C
:100690009E4204D8944202D8121BB341013501385E
:1006A000F3D13D60BA607B600E0030BC7047FA0643
:1006B0000000440002662F0000B5F0170ED0FFF7CF
:1006C000EDFDFFF721FDF0170ED0FFF7E7FDFFF777
:1006D0001BFDFFF7C4FFFFF726FD00BDFFF714FD6C
:1006E000F017F4D0FFF7DAFDFFF70EFDFFF7B7FFC5
:1006F000FFF7D4FDFFF717FD00BD0E070000200037
:100700000232210006CF3160726040CF704722076D
:100710000000200002324000043F706838603668F4
:1007200070474207000044000364753C07CF8E42C7
:1007300004D801D1904201D8002670470026F64324
:1007400070476207000044000364753E07CFB14262
:1007500004D801D1824201D8002670470026F64312
:10076000704782070000440002643C0007CF8E42BD
:1007700004DC01D1904201DC002670470026F643DC
:100780007047A2070000440002643E0007CFB14258
:1007900004DC01D1824201DC002670470026F643CA
:1007A0007047B207000062000364303C0437F6175C
:1007B0007047CC07000042000364303D01CF0028A1
:1007C00001D000267047013EB6417047E6070000A1
:1007D000440003643C3E07CF904201D1761A01D019
:1007E0000026F643704702080000440002643D0002
:1007F00007CF904201D000267047761A013EB641DD
:1008000070471C0800000000056465707468E549C5
:10081000C91B890847F8046D0E0070472C080000BA
:1008200061000364757047F8046D70473C08000070
:1008300061000464726F700040CF7047520800007E
:100840006100043F64757000002E01D047F8046D0C
:1008500070476608000062000473776170003968B1
:100860003E600E007047740800006200036E6970FD
:1008700004377047880800006200046F76657200D4
:1008800047F8046D7E6870479E080000620004749B
:1008900075636B0001CF083F7E6038607047B40815
:1008A0000000630003726F7403CF083F78603E60FE
:1008B0000E007047CC0800006300042D726F7400B6
:1008C00003CF083F7E60396006007047DE080000F5
:1008D0002000047069636B0057F826607047EE08CB
:1008E00000002000023E720040B440CF7047000973
:1008F0000000200002723E0047F8046D40BC7047C3
:100900001209000020000272400047F8046D009EAA
:100910007047220900002000057264726F7001B0F8
:10092000704738090000600004747275650047F86C
:10093000046D0026F64370474C0900006000056610
:10094000616C736547F8046D00267047620900000A
:100950006E0003616E6401CF0640704706400006DA
:1009600016F07A0900006E000362696301CFB0439C
:10097000060070478643000636F0900900006E00BE
:10098000026F720001CF064370470643000656F01F
:10099000A60900006E0003786F7201CF46407047D1
:1009A0004640000696F0B40900006100036E6F74C3
:1009B000F6437047C4090000610003636C7AB6FA1D
:1009C00086F67047D20900006100037368727608EA
:1009D0007047E009000061000373686C760070479F
:1009E000F0090000610003726F725FEA76067047DB
:1009F000020A0000610003726F6CB61956F100061E
:100A000070471C0A00006C00067273686966740007
:100A100001CFF0400600704736080026360A000075
:100A20006C00076172736869667401CF304106001B
:100A300070473610F617500A00006C00066C736899
:100A40006966740001CFB04006007047360000268A
:100A5000600A0000610002303D00013EB64170476F
:100A6000720A0000610003303C3E013EB641F6438D
:100A70007047800A0000610002303C00F6177047A2
:100A8000980A00004200023E3D0001CFB042B4BFD0
:100A900000264FF0FF367047B00A00004200023CCB
:100AA0003D0001CFB042CCBF00264FF0FF3670476B
:100AB000C60A00004200013C01CFB042B4BF4FF073
:100AC000FF3600267047DC0A00004200013E01CFDD
:100AD000B042CCBF4FF0FF3600267047F00A00004E
:100AE000620003753E3D01CF861BB641F643704759
:100AF000040B0000620003753C3D01CF361AB6417D
:100B0000F6437047160B0000620002753C0001CFEF
:100B1000861BB6417047280B0000620002753E003C
:100B200001CF361AB64170473E0B00006B00023C05
:100B30003E0001CF361A18BF4FF0FF367047500BFA
:100B400000006B00013D01CF361A013EB6417047EF
:100B5000640B00006200036D696E01CFB042B8BF44
:100B600006467047780B00006200036D617801CF84
:100B7000B042C8BF064670478E0B00006200047585
:100B80006D61780001CFB04288BF06467047A80B60
:100B90000000620004756D696E0001CFB04238BF7D
:100BA0000646704738020020E60B00000000046D86
:100BB0006F76650007B5310040CF320040CF002985
:100BC0000FD0B2420DD006D3013E013A705C5054B2
:100BD0000139FBD105E0307810700136013201395E
:100BE000F9D140CF07BD080C000000000466696C15
:100BF0006C00300040CF310040CF002902D00139D5
:100C00007054FCD140CF7047140C0000200001400C
:100C100036687047280C00006D00012103CF30605A
:100C20000E007047066001603E0C00002000022BA1
:100C3000210003CF3268121832600E0070474C0C4E
:100C4000000020000268400036887047620C0000F7
:100C50006D000268210003CF30800E0070470680CF
:100C60000180780C0000200003682B2103CF32881C
:100C7000121832800E007047860C000020000263BC
:100C80004000367870479C0C00006D000263210024
:100C900003CF30700E00704706700170B20C000078
:100CA000200003632B2103CF3278121832700E001C
:100CB0007047CA0C0000200004626973210003CF52
:100CC0003268024332600E007047E20C00002000E0
:100CD00004626963210003CF3268824332600E00F0
:100CE0007047FA0C0000200004786F72210003CFD7
:100CF0003268424032600E007047140D0000200040
:100D000004626974400001CF3668064018BF4FF096
:100D1000FF3670472C0D00002000056862697321C2
:100D200003CF3288024332800E007047440D00002A
:100D3000200005686269632103CF328882433280D4
:100D40000E0070475C0D000020000568786F72216E
:100D500003CF3288424032800E007047760D00008B
:100D6000200005686269744001CF3688064018BFCC
:100D70004FF0FF3670478E0D00002000056362695A
:100D8000732103CF3278024332700E007047A60DF4
:100D90000000200005636269632103CF327882433B
:100DA00032700E007047BE0D000020000563786FA2
:100DB000722103CF3278424032700E007047D80D56
:100DC0000000200005636269744001CF3678064058
:100DD00018BF4FF0FF3670476C0E00000000076828
:100DE000666C61736821300040CF310040CF594BB1
:100DF000984221D3584B98421ED2584B19409942E1
:100E000019D010F00102002A16D102889A4213D19B
:100E100010F10060524A534B1360534B1360534A16
:100E2000012313600180524A136813F00103FBD1C0
:100E30004E4A80231360704700F07AFA2A57726F87
:100E40006E672061646472657373206F72206461E1
:100E5000746120666F722077726974696E672066AC
:100E60006C61736820210A0001F0FBBFBA0E00001C
:100E700000000E666C61736870616765657261730E
:100E800065000FB5300040CF324B984214D3344A3E
:100E9000344B1360344B1360344A02231360354AD9
:100EA0001060324A42231360314A136813F0010381
:100EB000FBD12E4A802313600FBD380F00000000C5
:100EC0000A6572617365666C61736800214872B669
:100ED00021494FF6FF72038893421CD047F8046DF6
:100EE000060047F8046D00F023FA1045726173653F
:100EF00020626C6F636B20617420200000F051FA57
:100F000000F016FA0C2066726F6D20466C617368F3
:100F10000A00FFF7B6FF02308842DCD100F008FA81
:100F20001246696E69736865642E20526573657434
:100F300020210A0002F070B8780F000000000E6552
:100F400072617365666C61736866726F6D00300004
:100F500040CFBCE70040000000000200FFFF00009F
:100F60000420024023016745AB89EFCD10200240E9
:100F70000C200240142002408E0F00006900012B5B
:100F800001CF3618704736180036000616F1A40F48
:100F900000006900012D01CF861B7047361A003E04
:100FA0000006B6F1B20F0000610002312D00013ED3
:100FB0007047C00F0000610002312B0001367047FE
:100FC000CE0F0000610002322D00023E7047DC0FA0
:100FD0000000610002322B0002367047EE0F000065
:100FE0006100066E656761746500764270470210A5
:100FF0000000610003616273002E48BFD6F1000655
:10100000704720100000420005752F6D6F6401CFFE
:101010003100B0FBF6F67143401A043F3860704768
:101020003E1000004200042F6D6F640001CF3100BC
:1010300090FBF6F67143401A043F38607047521037
:1010400000004200036D6F6400B5FFF7EFFF40CF73
:1010500000BD621000006200012F01CF90FBF6F688
:101060007047721000006A00012A01CF46437047A2
:10107000464380100000610002322A00760070476B
:101080008E100000610002322F0076107047A2100F
:1010900000006100046576656E000120304036185E
:1010A0007047B6100000400004626173650047F8A5
:1010B000046D104E7047CC10000000000662696E8F
:1010C000617279000B48022101607047E210000054
:1010D000000007646563696D616C06480A21016060
:1010E0007047121100000000036865780148102164
:1010F00001607047100000202249234808602349FE
:10110000234808602349244808602449244808608B
:10111000704736110000000004656D69740007B463
:10112000300040CF1F4A116811F08001FBD01E4AE9
:10113000107007BC70475A1100000000036B6579FE
:1011400007B4184A116811F02001FBD0164A107834
:1011500047F8046D060007BC7047AC1100000000A2
:10116000043F6B6579000F48016811F0200104D03D
:1011700047F8046D5FF0FF36704747F8046D0026AE
:1011800070470000181002403D4000000408014074
:10119000B004000008380140460000000C3801404F
:1011A0000C200000003801400438014022120000E9
:1011B00000000571756572790FB5ED480021017069
:1011C000EC490022FFF7BCFF300040CF202818D2A6
:1011D0000A2822D00D2820D00828F3D1002AF1D0E7
:1011E00000F0A6F803082008002AEBD00B009B189B
:1011F0001878013A80230340E4D040230340F3D021
:10120000E0E7C72ADED247F8046D0600FFF787FF44
:1012100001320B009B181870D4E70A7000F041F8F7
:101220000FBD70120000000007636F6D7061726582
:101230000FB5300040CF31780278914216D110E0DE
:101240000136013032780378412A02D35B2A38BF55
:101250002032412B02D35B2B38BF20339A4205D179
:1012600001390029ECD10026F64300E000260FBD2D
:101270008412000000000263720000B500F058F80C
:10128000010A00BD96120000000002626C0047F8DF
:10129000046D20267047AA120000000005737061DB
:1012A000636547F8046D202639E7BA120000500044
:1012B000065B636861725D0005E0D2120000000009
:1012C00004636861720000B501F084FA0136367873
:1012D00000BDE21200005000012847F8046D2926E5
:1012E00006E0FA1200005000015C47F8046D002689
:1012F00000B501F07AFA40CF00BD221300001000C3
:10130000022E22009C4800B547F8046D060000F04C
:101310005EFA47F8046D222601F067FA00F051FDED
:1013200000BD6C1300001000027322009348EAE72E
:101330000EB47246013A47F8046D16001378013373
:1013400013F001015B181EEB030E0EBC14E00EB48B
:101350007246013A47F8046D16001378013313F012
:1013600001015B181EEB030E0EBC704796130000C4
:10137000000004747970650003B5310040CF08782F
:10138000002807D0013147F8046D0E78FFF7C7FE3B
:101390000138F7D103BDCE13000000000468657862
:1013A0002E0003B5310040CF2020043847F8046DEB
:1013B00031FA00F616F00F06092E8CBF373630369C
:1013C000FFF7ADFE0028F0D1FFF76BFF03BDDE1382
:1013D0000000000003682E731FB5694C0EE0EE1389
:1013E0000000000003752E731FB5664C06E06C14F8
:1013F00000000000022E73001FB5634C6349C91B37
:101400008908634A106803B40A201060FFF790FF50
:1014100008537461636B3A205B0047F8046D0E005B
:1014200001F0A9FBFFF784FF025D200003BC584ACE
:10143000106000290AD0574A106806B447F8046DB6
:101440000600A04706BC043A0139F5D1FFF770FF4A
:101450000620544F533A200047F8046D3600A04749
:10146000FFF766FF04202A3E0A001FBDBA140000E1
:1014700000000464756D700000B5300040CF20217D
:10148000FFF756FF072064756D703E0A47F8046D3C
:101490000600FFF786FFFFF74BFF023A20000288A5
:1014A00047F8046D1600FFF77CFFFFF741FF0320AC
:1014B0003E0A02300139E9D100BD98150000000054
:1014C00005776F72647300B5FFF732FF06776F72AE
:1014D00064730A0000F013FE300040CF8179FF29C9
:1014E00045D0FFF725FF09416464726573733A20A4
:1014F00047F8046D0600FFF754FFFFF719FF064C8D
:10150000696E6B3A20000268043047F8046D1600DB
:10151000FFF747FF01880230FFF70AFF07466C61BB
:1015200067733A2047F8046D0E00FFF73AFF47F85B
:10153000046D060000F000FEFFF7FAFE06436F643C
:10154000653A200047F8046D0600FFF72AFFFFF711
:10155000EFFE064E616D653A2000FFF70DFFFFF7C5
:10156000E7FE010AB2F1FF3F01D01000B6E700BD6F
:101570000000002070000020301300004E13000017
:10158000A3130000672B0000772B00003802002017
:101590001000002034020020FC16000000000D3175
:1015A00032626974656E636F64696E670FB5FF2E92
:1015B00004D847F8046D5FF0FF360FBD16F0FF103A
:1015C000B0420ED14FF6FF710840310C814208D174
:1015D00016F0FF0656F4805647F8046D5FF0FF36AC
:1015E0000FBD16F0FF20B0420FD14FF6FF7108403B
:1015F000310C814209D1360A16F0FF0656F4005626
:1016000047F8046D5FF0FF360FBDFF223100114037
:10161000300A1040884210D1300C104088420CD162
:10162000300E1040884208D116F0FF0656F440569E
:1016300047F8046D5FF0FF360FBD30000021013127
:10164000001850F100007FF07F020240802A05D090
:101650001F29F4D347F8046D00260FBD0829F9D3DC
:10166000060036F0800611F00100C001064311F0BB
:101670000E00C002064311F010008005064347F833
:10168000046D5FF0FF360FBD47F8046DDFF8D065DD
:101690005FF4704110EA0102120116435FF4006129
:1016A00010EA0102D20316435FF4E06110EA01027E
:1016B00012011643FF2110EA010216431E4370E394
:1016C00047F8046DDFF89C655FF0704110EA010295
:1016D000120B16435FF0006110EA01025208164334
:1016E0005FF0E06110EA0102120B16435FF47F0124
:1016F00010EA0102120C16431E4352E36217000067
:1017000000001072656769737465726C6974657244
:10171000616C2C000FB5330040CF1B02FF2E05D8A3
:1017200056F400561E4300F014FB0FBDFFF73EFFBA
:10173000002E40CF06D0DFF8300506431E4300F0F0
:1017400030FB0FBDF643FFF731FF002E40CF06D030
:10175000DFF8180506431E4300F023FB0FBDF643D8
:101760000BE0C21700000000096D6F76776D6F7691
:10177000742C0FB5330040CF1B02300040CFFFF771
:1017800083FF4FF6FF7110EA014001D0FFF798FF89
:101790000FBD0FB50136300040CF0023FFF774FFB7
:1017A000FFF78EFF06E00FB5013647F8046D0026FF
:1017B000FFF7B0FF47F8046D44F2807600F0C9FAF5
:1017C0000FBD2818000000000563616C6C2C0FB57C
:1017D000330000F046FD300040CF1B1A043BDFF819
:1017E00090141940002906D0DFF88824914202D0D5
:1017F000BDE80F40D7E740CF5B08DFF87C0440F23C
:10180000FF7119400843DB0A40F2FF311940090417
:1018100008439B0A13F001018906084347F8046D49
:10182000060000F0BEFA0FBD5E1800000000086C54
:1018300069746572616C2C0008B547F8046D4FF649
:10184000470600F086FA47F8046D46F6045600F0A5
:1018500080FA47F8046D0626FFF75CFF08BD9E1866
:101860000000200005646F65733E41F67B008047F1
:1018700047F8046DBEF10106704747F8046DBEF1EC
:10188000010600F0CCF8FD4A1368310040CF023168
:101890001160FFF77EFF136000F005FA00BDCA1863
:1018A00000000000073C6275696C647300B500F0CD
:1018B00030FB47F8046D4BF2005600F04AFA47F847
:1018C000046D0A2600F09BFA00BDD61800005000F7
:1018D000035B275D03E03C1900000000012700B511
:1018E00000F078FF300040CF017800290CD1FFF7DD
:1018F0001FFD102027206E65656473206E616D6585
:1019000020210A0001F0ADBA47F8046D060000F08E
:1019100022FC40CF002E10D1D94847F8046D0600B4
:10192000FFF72AFDFFF704FD0C206E6F7420666F31
:10193000756E642E0A0001F094BA00BD8A19000089
:10194000100008706F7374706F6E650000B500F062
:1019500041FF00F000FC300040CF002EDCD0102111
:10196000014010290ED020210140202905D1FFF788
:1019700063FF47F8046DC34E04E0FFF75DFF47F8CF
:10198000046DC14EFFF723FF00BDE0190000000009
:1019900007696E6C696E652C00B54BF200514BF611
:1019A000005244F270733088884208D0904208D0C8
:1019B000984206D047F8046D060000F0CAF90236D6
:1019C000F1E740CF00BD0EB44BF6005244F2707305
:1019D00001880230914201D09942F9D10EBC704782
:1019E000F61900000000047265742C0047F8046DBD
:1019F0004BF60056ADE1041A00003000046578692A
:101A00007400F3E73A1A00003000077265637572DC
:101A1000736500B500F003F8FFF7D9FE00BD0FB500
:101A20009A48006806300178013101220A4089187D
:101A3000401847F8046D06000FBD4E1A0000400024
:101A400005737461746547F8046D914E7047601AB0
:101A500000000000015D8E480021C943016070470D
:101A6000701A00001000015B894800210160704776
:101A7000981A00000000013A00B58648076000F09F
:101A800048FA47F8046D4BF2005600F062F98048BE
:101A90000021C943016000BDE01A00003000013B95
:101AA00000B57C480168B9420ED0FFF741FC152013
:101AB000537461636B206E6F742062616C616E633E
:101AC00065642E0A01F0CDB947F8046D4BF6005657
:101AD00000F03FF900F0E7F86D480021016000BD1B
:101AE000F61A0000000007657865637574653000BC
:101AF00040CF013087460E1B0000100009696D6D54
:101B000065646961746547F8046D1026F7E0241B6D
:101B10000000100006696E6C696E650047F8046D80
:101B20002026ECE03E1B000010000B636F6D706917
:101B30006C656F6E6C7947F8046D3026DFE0581BDA
:101B4000000010000A302D666F6C6461626C6500E5
:101B500047F8046D4026D2E0721B000010000A31E5
:101B60002D666F6C6461626C650047F8046D4126F8
:101B7000C5E08C1B000010000A322D666F6C64619A
:101B8000626C650047F8046D4226B8E0A61B0000B1
:101B900010000A332D666F6C6461626C650047F853
:101BA000046D4326ABE0C01B000010000A342D6614
:101BB0006F6C6461626C650047F8046D44269EE0BA
:101BC000DA1B000010000A352D666F6C6461626CD0
:101BD000650047F8046D452691E0F41B00001000F5
:101BE0000A362D666F6C6461626C650047F8046D9F
:101BF000462684E00E1C000010000A372D666F6C2C
:101C00006461626C650047F8046D472677E03E1C0E
:101C10000000000008636F6E7374616E740000B59D
:101C200000F077F9FFF708FE47F8046D44F270768C
:101C300000F08FF8FFF78CFF00F035F800BD981C1E
:101C4000000000000932636F6E7374616E7400B53A
:101C500000F05FF939683E600E46FFF7EDFDE1E701
:101C6000000040F20000C0F200005FF000007FF0D2
:101C70000100C0FF0000C0FF00F800F004000020D9
:101C80003803002098190000CE170000080000203B
:101C90000C0000201C000020EE1C00000000067359
:101CA0006D756467650023480168234A914280F09E
:101CB0001A8000B502390A88204B9A4204D147F8AD
:101CC000046D002600F045F81D48006847F8046DD3
:101CD00006001C4909680431164A1368116000F0B7
:101CE00038F8136000BD47F8046D002607E0481D72
:101CF0000000000008736574666C6167730000B5CE
:101D00000C4801680C4A914280F006800C4801683A
:101D10003143016040CF00BD320040CF0948006828
:101D200004300188054B99420CBF114611430180D4
:101D300000BD00000400002000000020FFFF0000A4
:101D400028000020080000207E1D0000000002681E
:101D50002C000FB5DA480168DA4A914280F006801B
:101D600047F8046D0E00FFF73EF802E0320040CF66
:101D70000A8047F8046D022600F041F80FBD981D57
:101D800000000000012C00B547F8046DFFF7E1FFEB
:101D9000360CFFF7DEFF00BDB41D00000000033E5F
:101DA0003C2C00B547F8046D360CFFF7D2FFFFF767
:101DB000D0FF00BDF21D0000000007737472696E51
:101DC000672C07B5300040CF01780131022909D3D3
:101DD000028847F8046D1600FFF7BBFF0230023996
:101DE00006D0F3E7027847F8046D1600FFF7B1FF5D
:101DF00007BD4C1E0000000005616C6C6F74B0489C
:101E00000168B04A91420FD2320040CF8918AE4AE1
:101E1000914219D3FFF78CFA0B466C617368206608
:101E2000756C6C0A01F01DB8320040CF8918A74AC2
:101E30001268914208D3FFF77BFA0952616D206660
:101E4000756C6C0A01F00DB801607047741E0000DB
:101E500000000D636F6D70696C65746F72616D3F2A
:101E600047F8046D0026964800689649884248D392
:101E7000F6437047941E000000000C636F6D70699C
:101E80006C65746F72616D008D4800688D49884281
:101E900011D37047041F000000000E636F6D70695E
:101EA0006C65746F666C617368008548006885496D
:101EB000884200D270478648864902680B680A60EB
:101EC00003607F48844902680B680A6003607F48AA
:101ED0000068834215D300B5FFF72AFA2320566124
:101EE000726961626C657320636F6C6C69646520F4
:101EF000776974682064696374696F6E6172790AC6
:101F000000BD7047E81F0000000006637265617441
:101F1000650000B500F05EFC300040CF017800297C
:101F20000ED1FFF705FA1520437265617465206EC6
:101F300065656473206E616D6520210A00F091BFB4
:101F400047F8046D060047F8046D00F004F940CF2F
:101F5000300040CF00280ED0FFF7EAF9095265643F
:101F60006566696E652047F8046DFFF705FAFFF7AF
:101F7000DFF9022E0A0000F074F951480068514957
:101F8000884280F01E8055480021016047F8046DAA
:101F90000626FFF734FF39683E600E46FFF711FF53
:101FA0004B4801680A68B2F1FF3F07D1444A136801
:101FB000116047F8046DFFF7E6FE1360066040CF3E
:101FC00000BD434847F8046D0668FFF7DCFE47F89C
:101FD000046D0026F643FFF7BCFE3D48310040CFBC
:101FE0000160FFF7EEFE00BD002000000000087653
:101FF00061726961626C650047F8046D012613E047
:1020000018200000000009327661726961626C6517
:1020100047F8046D022607E0E82000000000096E82
:102020007661726961626C6500B5FFF772FF2448E2
:102030000168244A914280F026800F200640B200B9
:1020400022480168891A016047F8046D0E00FFF705
:10205000F3FB47F8046D44F27076FFF77AFE300028
:1020600040CF0200002805D00E600431FFF78BFE40
:102070000138F9D147F8046D80261643FFF73FFE7B
:10208000FFF711FE00BD47F8046D154EFFF789FEFE
:1020900047F8046D134EFFF784FE47F8046D44F2D1
:1020A0007076FFF756FE300040CF002803D0FFF7D0
:1020B0006AFE0138FBD1FFF74BFDFFF7F4FD00BDD1
:1020C0000400002000000020000002002C0000207E
:1020D000080000202400002020000020280000200C
:1020E0003E60043F02367E461821000000000F4487
:1020F000696374696F6E61727973746172742C486C
:1021000000682C4B1B682C4947F8046D884201D2AB
:102110002A4E70471E0070474A21000000000A73D3
:102120006B6970737472696E6700317801310122D6
:102130000A4089187618704706B4017801310122E7
:102140000A408918401806BC7047C42100000000EE
:102150000466696E64001FB53400FFF7D0FF3000DD
:1021600040CF002600238179FF291CD08188144AA2
:102170009142026812D0063047F8046D060047F815
:10218000046D2600FFF754F8002E40CF06D0FFF76D
:10219000D3FF06000B000848864204D2B2F1FF3F8D
:1021A00001D01000DFE747F8046D1E001FBD0000DE
:1021B000040000200800002000000020AC00000007
:1021C000FFFF00001E220000000006636A756D70AC
:1021D0002C00320040CF310040CF8B1B043B9C4988
:1021E000194000290DD09B4881420AD0FFF7A0F882
:1021F0000D4A756D7020746F6F206661720A00F071
:1022000030BE5B10FF210B40134330001E0000B5B1
:10221000914A13681060FFF79CFD136000BD5622C1
:1022200000000000056A756D702C310040CF300051
:1022300040CF0B1A043B89491940002902D0884A33
:102240009142D3D15B10874A134053F4604347F85F
:10225000046D1E00DBE74A2300000000046865727D
:10226000650047F8046D7C4E3668704700B547F846
:10227000046D42F60066FFF76CFD47F8046D4CF6FE
:102280004076FFF766FD00BDEBE700B500F03AF8D9
:1022900039683E600E4647F8046D4DF20016FFF7B0
:1022A00098FF00BD00B500F02DF839683E600E467D
:1022B00047F8046D4DF20076FFF78BFF00BD00B5C7
:1022C000FFF7D4FF00F01EF839683E600E4647F86D
:1022D000046D4DF20006FFF77CFF00BD00B500F075
:1022E00011F839683E600E46FFF79FFF00BD00B54C
:1022F000FFF7BCFFFFF7B5FF47F8046D0226FFF7B5
:102300007EFD00BD00B5FFF7ACFF47F8046D022667
:10231000FFF775FD00BD00B5FFF7A3FFFFF785FFD1
:1023200000BD00B5FFF79DFF47F8046D4DF20006B4
:10233000FFF74FFF00BD00B5FFF793FF47F8046DAF
:102340004DF20016FFF745FF00BD86230000300068
:10235000047468656E00052E01D140CFDBE7022EC4
:1023600001D140CFDDE7FEF7E3FF175374727563C9
:10237000747572657320646F6E2774206D61746369
:10238000680A00F06EBDB2230000300004656C7373
:10239000650000B5022E7FF4E6AF40CFFFF7B2FF35
:1023A00039683E600E46FFF7BCFF47F8046D05260E
:1023B00000BDCA23000030000269660000B5FFF7C7
:1023C00096FF47F8046D022600BDF02300003000A0
:1023D0000672657065617400042EC4D140CF3968FF
:1023E0003E600E4600B5FFF779FFFFF79AFF00BD8C
:1023F0000C2400003000057768696C65012EB2D1AD
:1024000040CF00B5FFF7DAFF023600BD2024000000
:10241000300005756E74696C012EA4D140CF4EE773
:1024200034240000300005616761696E012E9AD185
:1024300040CF53E768240000300005626567696E8D
:1024400000B5FFF721FF47F8046D012600BD00002D
:1024500001FFFFFF00FFFFFF0400002001F8FFFF66
:1024600000F8FFFFFF070000782400002000016B48
:1024700047F8046D029E7047882400002000016A1E
:1024800047F8046D009E7047982400002000016901
:1024900047F8046D26007047D82400003000056C12
:1024A0006561766500B5684801683B00043F1A68BD
:1024B000043B1A60043304338B42F8D103B4FFF7B2
:1024C00021FF03BC330040CF04390B6001600439A5
:1024D0000A6801320A6000BDEA2400002000067587
:1024E0006E6C6F6F700030BC7047222500003000AA
:1024F000052B6C6F6F70032E00D034E740CF00B512
:1025000047F8046D514EFFF747FAFFF7CBFE1AE08C
:1025100014F10044641BA41940CF2C44A4F10044DE
:102520007047642500003000046C6F6F7000032E4C
:1025300000D018E740CF00B547F8046D444EFFF7D0
:102540002BFAFFF7A2FE00F023F93F48310040CFFD
:10255000016047F8046D3F4EFFF71EFA00BD0134DD
:10256000AC427047AC250000780002646F0000B5F3
:1025700047F8046D384EFFF70FFA3348016847F803
:10258000046D0E0047F8046D00260760FFF77CFE1F
:1025900047F8046D032600BD00B500F02FF8ECE706
:1025A00030B4340040CF350040CF70475C26000087
:1025B0007800033F646F00B547F8046D264EFFF7BF
:1025C000EBF947F8046D44F2AC26FFF7C2FB1E4856
:1025D000016847F8046D0E00FFF794FE013647F8D6
:1025E000046D012618480760FFF74EFE47F8046D9A
:1025F000032600BD00B500F001F8E2E700B547F89A
:10260000046D4BF23046FFF7A4FB47F8046D042637
:10261000FFF780F8013B08D047F8046D0526FFF767
:1026200079F8013B00F004FC00BD47F8046D352645
:10263000FFF78FFB47F8046D4CF64076FFF789FBF8
:1026400000F0F6FB00BD000018000020102500007F
:102650005E250000E6240000A0250000762600008C
:10266000300004636173650047F8046D002647F885
:10267000046D082670478C2600003000033F6F660B
:102680004D4809E0013EB64140CF70473027000079
:102690007800026F66004948082E00D063E640CFFC
:1026A00000B547F8046D0600FFF776F9FFF72AFE3C
:1026B00039683E600E46013647F8046D092647F832
:1026C000046D4CF64076FFF744FB00BD00B53000CA
:1026D00040CF013B01B400F0ABFB01BC082E00D0A1
:1026E00041E640CF47F8046D0600FF213140B1427A
:1026F00004D133490E43FFF72CFBD7E7FEF756FF13
:10270000002E40CF04D02F480643FFF74AFBCDE709
:1027100047F8046D0026FEF7FDFF47F8046D44F20C
:10272000B026FFF716FBC1E7300040CFB04270473C
:1027300066270000300005656E646F66092E00D0C4
:1027400011E640CF00B540B440CFFFF7DBFD39685C
:102750003E600E46FFF7EFFD47F8046D40BC47F8BA
:10276000046D082600BDC8270000300007656E64B0
:1027700063617365082E00D0F5E540CF00B547F8DA
:10278000046D4CF64076FFF7E4FA00F001F800BD66
:1027900000B5300040CF00280DD003B401213140F6
:1027A000002903D0013EFFF7BCFD01E0FFF7B3FDB8
:1027B00003BC0138EFE700BD842600002827000095
:1027C000002E0000000FB6F1DE27000000000574A7
:1027D0006F6B656E202047F8046D060005E03C280D
:1027E0000000000005706172736530B51048017813
:1027F000104A1278104B00248018202E07D19142E5
:1028000010D0013001320578B542F8D006E091428F
:1028100008D0013001320578B54203D001330134CC
:102820001D70F4E703480270034E347030BD0000A1
:102830007000002000000020380300207A280000EB
:102840000000056469676974CD4B1B68303E0BD38B
:102850000A2E0BD3073E0A2E06D3242E06D3203E83
:102860000A2E01D3242E01D3002670479E42FBD2AC
:1028700047F8046D0026F6437047822900000000E7
:10288000066E756D626572003FB5300001780126F5
:10289000012204B4BA4B1B680024002500293CD057
:1028A0000130013902782D2A04D101B00022D2432F
:1028B00004B4F3E7232A01D10A23EFE7242A01D144
:1028C0001023EBE7252A01D10223E7E72E2A01D1C5
:1028D0000226E3E72C2A36D047F8046D1600FFF7EE
:1028E000B5FF002E40CF2BD047F8046D260047F8E7
:1028F000046D2E0047F8046D1E0047F8046D002695
:102900000FB4FDF70CFD0FBC350040CF340040CFB5
:102910000022A419554140CFC0E704BC002A04D5C9
:102920000022E443ED430134554133002600012BDE
:1029300002D047F8046D2E0047F8046D1E003FBD1D
:1029400001B000263FBD2500002402260029E4D066
:10295000425C01392E2AF9D047F8046D1600FFF7C2
:1029600075FF002E40CFEBD0043F3C6047F8046D6C
:102970001E000FB4FDF782FD0FBC340040CF40CFE6
:10298000E4E7A22900000000062E6469676974006C
:102990000A2E3CBF303603E0242E34BF37362326C0
:1029A0007047D8290000000004686F6C6400330091
:1029B00040CF744801783F290DD201310170401891
:1029C000012907D00138027801300270013801393D
:1029D0000129F7D103707047F8290000000005684D
:1029E0006F6C643C330040CF664801783F2902D2C7
:1029F0000131017043547047102A00000000047335
:102A000069676E00002E01D440CF70472D26CEE7B7
:102A1000202A0000000002233E000437594E704770
:102A2000382A000000000366235310B5202400F06C
:102A300008F8013CFBD110BD5A2A000000000266D4
:102A4000230000B547F8046D4D4E3668FDF753FC82
:102A5000FFF79EFFFFF7C6FF00BD762A00000000CB
:102A60000223530000B500F00AF8002EFBD13868AD
:102A70000028F8D100BDA22A00000000012300B503
:102A800047F8046D3E4E366847F8046D0026FDF7A2
:102A900055FDFDF739FB40CFFFF77AFFFFF787FFC2
:102AA00000BDB42A00000000023C2300354800218C
:102AB00001707047C62A0000000002662E0047F829
:102AC000046D202604E0142B0000000003662E6E27
:102AD00000B510B4340040CFFDF7DCFEFDF7C7FBB6
:102AE00047F8046D0026FFF7E1FFFFF7BBFF40CF7B
:102AF0002C26FFF777FF002C03D0FFF7A2FF013C45
:102B0000FBD110BC40CFFFF77DFF47F8046D47F8BD
:102B1000046D1CE02A2B000000000375642E00B534
:102B2000FFF7C4FFFFF79EFF11E05C2B00000000E1
:102B300002642E0000B5FDF7ADFEFDF798FBFFF730
:102B4000B5FFFFF78FFFFDF7AFFEFFF75BFFFFF766
:102B500064FFFEF711FCFEF7A4FB00BD6E2B000026
:102B6000000002752E0047F8046D0026D7E7882B79
:102B700000000000012E47F8046DF617DAE70000A8
:102B80001000002030000020562E000000000969CF
:102B90006E7465727072657430B5BD4887420BD92A
:102BA000FEF7C6FB10537461636B20756E6465722B
:102BB000666C6F770A0054E1B64887420AD2FEF786
:102BC000B7FB0F537461636B206F766572666C6F31
:102BD000770A46E1FFF7FEFD300040CF017800297B
:102BE00000D130BDAC4C2568002D01D13D002560E1
:102BF00047F8046D0600FFF7AEFA310040CF32000F
:102C000040CF002A17D147F8046D0600FFF73CFEBD
:102C1000320040CF002AC0D147F8046D0600FEF70D
:102C2000ABFBFEF785FB0C206E6F7420666F756E34
:102C3000642E0A0015E1994B1B68002B1ED100255C
:102C4000256030230B40302B11D147F8046D06006E
:102C5000FEF792FBFEF76CFB1220697320636F6D29
:102C600070696C652D6F6E6C792E0A00F9E047F87B
:102C7000046D1600FEF73BFFFFF78FFF8020084032
:102C8000802810D0EB1B9B0840200840402810D122
:102C900008200840082802D1002B00D01FE00F2098
:102CA0000840834205D347F8046D1600FEF71FFF66
:102CB00073E700F0BDF847F8046D160010220A40D3
:102CC000102A02D1FEF713FF67E720220A40202ACC
:102CD00002D1FEF761FE60E7FEF779FD5DE70720B0
:102CE00001401000FEF76FFE01291FD1012BDAD140
:102CF000FF213140B14204D140880643FFF729F853
:102D00004BE7FEF753FC002E40CF04D0406806434B
:102D1000FFF747F841E747F8046D0026FEF7FAFC95
:102D200047F8046D0688FFF714F836E7022902D148
:102D3000012BB8D1EFE7032926D1012BB3D1FF2115
:102D40003140B1420AD156490E43FFF702F804322E
:102D500047F8046D1600FEF71FFE1EE7FEF726FC7F
:102D6000002E40CF04D04F490E43FFF71AF8EEE78C
:102D700047F8046D0026FEF7CDFC023247F8046DDB
:102D80001600FEF709FE08E7042918D1012B8AD1A5
:102D9000330040CF002B00D1FFE61F221A409A4299
:102DA00005D047F8046D4688FEF7D3FFF5E647F8EF
:102DB000046D06889B011E43FEF7CBFFEDE6052957
:102DC00022D1012B10D147F8046D0026FEF7A2FC9A
:102DD00047F8046D0688FEF7BCFF47F8046D4CF613
:102DE0004076FEF7B6FFD8E647F8046D0026FEF7FA
:102DF00091FC47F8046D0126FEF78CFC47F8046D42
:102E00004688FEF7A6FFC8E606290ED1012B7FF4FF
:102E10004AAFFEF7CBFB002E40CF3FF47CAFD0F89B
:102E200002000643FEF7BDFFB7E601308047B4E677
:102E300000B5002B0CD0013B47F8046D1E0057F87D
:102E40002660FEF7F9FC002BF5D1043D2F0040CFA2
:102E50000025256000BDB02E0000000004717569DA
:102E60007400DFF844D00A4F10480A2101600B4873
:102E700000210160084800210160FEF79DF9FFF77D
:102E80008BFEFEF755FA05206F6B2E0AF5E7000062
:102E90003802002038010020140000200C0000201F
:102EA000003E00000006B6F13803002010000020AC
:102EB000C02E000020000465696E740062B6704781
:102EC000D02E000020000464696E740072B6704752
:102ED000DC2E00000000036E6F707047062F0000AC
:102EE00081000B6972712D7379737469636B47F894
:102EF000046D864E7047DA2E000041F6FC70C2F277
:102F00000000006887462E2F000081000969727159
:102F10002D657874693047F8046D7D4E7047DA2E60
:102F2000000041F6F870C2F2000000688746562F94
:102F300000008100096972712D657874693147F864
:102F4000046D744E7047DA2E000041F6F470C2F240
:102F50000000006887467E2F0000810009697271B9
:102F60002D657874693247F8046D6B4E7047DA2E20
:102F7000000041F6F070C2F2000000688746A62FFC
:102F800000008100096972712D657874693347F812
:102F9000046D624E7047DA2E000041F6EC70C2F20A
:102FA000000000688746CE2F000081000969727119
:102FB0002D657874693447F8046D594E7047DA2EE0
:102FC000000041F6E870C2F2000000688746F42F66
:102FD00000008100076972712D61646347F8046D18
:102FE000504E7047DA2E000041F6E470C2F2000045
:102FF0000068874600400000FFFF182D2D2D204659
:103000006C6173682044696374696F6E61727920C2
:103010002D2D2D00FEF770F8434F2A2643484449D2
:1030200001604448444901604348444D040002683B
:103030000430018802304FF6FF73994215D0802387
:103040000B4012D00F23194089006D1AFFF774F856
:10305000FEF7B9FC47F8046D060047F8046D2E0032
:1030600047F8046D0E00FDF7A5FDB2F1FF3F05D056
:10307000100006321278FF2A00D0D7E730480460EB
:103080003048056030483149314A884204D002381E
:1030900003889342F9D002302E490860FEF748F9C0
:1030A000354D6563726973702D5374656C6C617214
:1030B000697320312E3120666F722053544D3332A4
:1030C00046313030206279204D61747468696173D3
:1030D000204B6F63680A20480A2101601F480021C5
:1030E00001601F48002101601E4847F8046D06007A
:1030F000FFF731F840CF002E02D0FEF7F8FCBCE617
:1031000040CFAEE604696E6974000000FC1F002029
:10311000F81F0020F41F0020F01F0020EC1F0020EB
:10312000E81F0020E41F00203802002004000020D7
:103130000004002008000020AC0000000020002057
:10314000240000202C0000200000020000400000AD
:10315000FFFF000020000020100000200C000020D5
:083160001400002004310000FE
:0400000508000000EF
:00000001FF
