:020000040800F2
:10000000300300201B3700005B3500005B3500002B
:100010005B3500005B3500005B3500000000000030
:100020000000000000000000000000008935000012
:1000300089350000000000008935000033350000DC
:1000400089350000893500008935000089350000B8
:100050008935000089350000B1350000D935000030
:1000600001360000293600005136000089350000B5
:100070008935000089350000893500008935000088
:100080008935000089350000773600008935000089
:100090008935000089350000893500008935000068
:1000A0008935000089350000893500008935000058
:1000B0009F360000C7360000EF360000893500008B
:1000C0008935000089350000893500008935000038
:1000D0008935000089350000893500008935000028
:1000E0008935000089350000893500008935000018
:1000F0008935000089350000893500008935000008
:1001000089350000893500008935000089350000F7
:1001100089350000893500008935000089350000E7
:1001200089350000893500008935000089350000D7
:1001300089350000893500008935000089350000C7
:1001400089350000893500008935000089350000B7
:1001500089350000893500008935000089350000A7
:100160008935000089350000893500008935000097
:100170008935000089350000893500008935000087
:100180008935000089350000AE010000FFFF1E2DFB
:100190002D2D204D6563726973702D5374656C6CE1
:1001A0006172697320436F7265202D2D2D00C60189
:1001B00000004200043264757000386847F8046D2E
:1001C000043F38607047D801000062000532647255
:1001D0006F70043740CF7047F601000044000532CD
:1001E0007377617007CF043F386047F8046D043FB0
:1001F0003A600E0070470A020000620004326E6925
:10020000700007CF043F38607047240200004400AC
:1002100005326F766572B86847F8046D043F386040
:10022000FE68704748020000440005327475636B35
:1002300007CF043F386047F8046D043F3A60043F3D
:100240003960043F386070476A020000460004329B
:10025000726F74003868B9683A69B86039613A6099
:1002600079687E60FE68F96070478C020000460085
:1002700005322D726F743868B9683A69386139602F
:10028000BA60F968FE607E6879607047A00200007D
:10029000200003323E7201CF01B440B440CF70471A
:1002A000B802000020000332723E47F8046D40BCE3
:1002B00001BC043F38607047D002000020000332C8
:1002C000724047F8046D019E47F8046D009E704728
:1002D000E2020000200006327264726F700002B009
:1002E0007047FA02000042000364322F3868F107B9
:1002F000761040080843386070470E030000620023
:100300000364322A38680018764138607047280341
:10031000000042000464736872003868F1077608D0
:1003200040080843386070473E03000062000464E0
:1003300073686C0038680018764138607047500365
:1003400000004200046461627300002E14D4704700
:100350006A0300004300083F646E656761746500CE
:10036000300040CF002807D47047880300004200C7
:1003700007646E656761746538680021C043F643A1
:1003800001304E4138607047A003000064000264F1
:100390002D0007CF121AB1410E00043F3A6070479A
:1003A000B6030000640002642B0007CF12184E4110
:1003B000043F3A607047C8030000610003733E6465
:1003C00047F8046DF6177047DC0300006200037500
:1003D0006D2A3868A0FB060638607047F0030000FD
:1003E0006200026D2A00386880FB0606386070479C
:1003F0002E04000044000375642A07CF564341438E
:100400007618010C130C59437618010C80B292B285
:100410005143434350430022C91852411204B618B5
:100420000A04090C80184E41043F38607047C0042C
:10043000000044000475646D2A0010B5002447F8DC
:10044000046D7E6847F8046D3E69FFF7C2FF310016
:1004500040CF300040CF47F8046D3E6847F8046D48
:10046000FE6803B4FFF7B5FF03BC330040CF320092
:1004700040CF47F8046D3E6847F8046D3E690FB4FD
:10048000FFF7A7FF0FBC9219634140CF8919624162
:10049000634140CF47F8046D7E6847F8046DFE68FD
:1004A0000FB4FFF796FF0FBC9219634140CF891933
:1004B0006241634140CF1E003A607960B86010BD70
:1004C000E20400004300022A2F0000B540B440CFF0
:1004D000FFF789FF47F8046D40BC00F04CF8043783
:1004E00000BD040500004300052A2F6D6F6400B5B0
:1004F00040B440CFFFF777FF47F8046D40BC00F0F1
:100500003AF800BD26050000430003752A2F00B508
:1005100040B440CFFFF75DFF47F8046D40BC00F0EA
:100520001BF8043700BD4A050000430006752A2F5A
:100530006D6F640000B540B440CFFFF74AFF47F845
:10054000046D40BC00F008F800BD6A0500004300DF
:1005500006756D2F6D6F640000B547F8046D0026B9
:1005600000F019F840CF043700BD880500004300B3
:10057000056D2F6D6F6400B547F8046DF61700F038
:1005800032F840CF043700BDDA050000440006759C
:10059000642F6D6F640030B4002300227968B8685E
:1005A00035003C6840264000494152415B41AB4226
:1005B00002D804D3A24202D3121BAB410130013E48
:1005C000F1D10E0038607B60BA6030BC704730B447
:1005D00000237A68B9680020E2E750060000440072
:1005E00005642F6D6F6400B5F01719D0FFF7C4FED6
:1005F000FFF7F8FDF0170CD0FFF7BEFEFFF7F2FD96
:10060000FFF7C9FFFFF7EEFDFFF7B6FEFFF7EAFDC4
:1006100000BDFFF7E7FDFFF7BEFFFFF7ADFE00BD32
:10062000FFF7E0FDF0170ED0FFF7A6FEFFF7DAFDAB
:10063000FFF7B1FFFFF7A0FEFFF7D4FDFFF79CFE29
:10064000FFF7D0FD00BDFFF7CDFDFFF7A4FF00BD14
:1006500066060000440002642F0000B5FFF7C3FFE8
:10066000FFF7CFFD00BDAE060000440002662A0081
:1006700000B5F0170DD0FFF77FFEFFF7B3FDF017C1
:100680000DD0FFF779FEFFF7D8FE40CF01CF3860DD
:1006900000BDFFF7A7FDF017F5D0FFF76DFEFFF7E0
:1006A000CCFE40CF01CF3860FFF766FE00BDFA06F2
:1006B0000000440002662F0000B5F0170ED0FFF7CF
:1006C0005BFEFFF78FFDF0170ED0FFF755FEFFF72B
:1006D00089FDFFF77CFFFFF794FD00BDFFF782FD6A
:1006E000F017F4D0FFF748FEFFF77CFDFFF76FFF30
:1006F000FFF742FEFFF785FD00BD0E07000020005A
:100700000232210006CF3160726040CF704722076D
:100710000000200002324000043F706838603668F4
:1007200070474207000044000364753C07CF8E42C7
:1007300004D801D1904201D8002670470026F64324
:1007400070476207000044000364753E07CFB14262
:1007500004D801D1824201D8002670470026F64312
:10076000704782070000440002643C0007CF8E42BD
:1007700004DC01D1904201DC002670470026F643DC
:100780007047A2070000440002643E0007CFB14258
:1007900004DC01D1824201DC002670470026F643CA
:1007A0007047B207000062000364303C0437F6175C
:1007B0007047CC07000042000364303D01CF0028A1
:1007C00001D000267047013EB6417047E6070000A1
:1007D000440003643C3E07CF904201D1761A01D019
:1007E0000026F643704702080000440002643D0002
:1007F00007CF904201D000267047761A013EB641DD
:1008000070471408000020000373704047F8046D1F
:100810003E00704724080000200003737021370059
:1008200040CF70473608000020000372704047F840
:10083000046D6E4670474608000020000372702168
:10084000B54640CF70476008000000000564657041
:100850007468E549C91B890847F8046D0E007047A4
:100860007008000061000364757047F8046D7047FC
:100870008008000061000464726F700040CF704710
:10088000960800006100043F64757000002E01D0DE
:1008900047F8046D7047AA0800006200047377618E
:1008A000700039683E600E007047B80800006200B2
:1008B000036E697004377047CC0800006200046F53
:1008C0007665720047F8046D7E687047E2080000A4
:1008D0006200047475636B0001CF083F7E6038606E
:1008E0007047F8080000630003726F7403CF083F7D
:1008F00078603E600E007047100900006300042D10
:10090000726F740003CF083F7E6039600600704745
:10091000220900002000047069636B0057F826600C
:100920007047320900002000023E720040B440CF00
:10093000704744090000200002723E0047F8046D31
:1009400040BC70475609000020000272400047F882
:10095000046D009E704766090000200005726472F5
:100960006F7001B070477C090000600004747275FC
:10097000650047F8046D0026F643704790090000B3
:1009800060000566616C736547F8046D002670476A
:10099000A60900006E0003616E6401CF0640704737
:1009A0000640000616F0BE0900006E00036269638F
:1009B00001CFB043060070478643000636F0D409E5
:1009C00000006E00026F720001CF064370470643BD
:1009D000000656F0EA0900006E0003786F7201CF3E
:1009E000464070474640000696F0F8090000610056
:1009F000036E6F74F6437047080A000061000363DA
:100A00006C7AB6FA86F67047160A00006100037326
:100A1000687276087047240A000061000373686CEE
:100A200076007047340A0000610003726F725FEA5B
:100A300076067047460A0000610003726F6CB619B3
:100A400056F100067047600A00006C000672736879
:100A50006966740001CFF040060070473608002632
:100A60007A0A00006C00076172736869667401CFCE
:100A70003041060070473610F617940A00006C00EB
:100A8000066C73686966740001CFB0400600704759
:100A900036000026A40A0000610002303D00013E3D
:100AA000B6417047B60A0000610003303C3E013E8B
:100AB000B641F6437047C40A0000610002303C00B2
:100AC000F6177047DC0A00004200023E3D0001CFED
:100AD000B042B4BF00264FF0FF367047F40A000062
:100AE0004200023C3D0001CFB042CCBF00264FF097
:100AF000FF3670470A0B00004200013C01CFB042B4
:100B0000B4BF4FF0FF3600267047200B00004200B4
:100B1000013E01CFB042CCBF4FF0FF3600267047F8
:100B2000340B0000620003753E3D01CF861BB641C9
:100B3000F6437047480B0000620003753C3D01CF4F
:100B4000361AB641F64370475A0B00006200027530
:100B50003C0001CF861BB64170476C0B0000620061
:100B600002753E0001CF361AB6417047820B000075
:100B70006B00023C3E0001CF361A18BF4FF0FF3623
:100B80007047940B00006B00013D01CF361A013E07
:100B9000B6417047A80B00006200036D696E01CF7B
:100BA000B042B8BF06467047BC0B00006200036D40
:100BB000617801CFB042C8BF06467047D20B000033
:100BC000620004756D61780001CFB04288BF0646AF
:100BD0007047EC0B0000620004756D696E0001CF78
:100BE000B04238BF06467047300200202A0C000091
:100BF0000000046D6F76650007B5310040CF32000C
:100C000040CF00290FD0B2420DD006D3013E013AA9
:100C1000705C50540139FBD105E03078107001361A
:100C200001320139F9D140CF07BD4C0C0000000062
:100C30000466696C6C00300040CF310040CF002961
:100C400002D001397054FCD140CF7047580C0000DD
:100C50002000014036687047700C00006D000121D3
:100C600003CF30600E007047066070470160704728
:100C7000960C00006D00022B210003CF3268121881
:100C800032600E0070470268921902607047026875
:100C9000521802607047A40C000020000268400057
:100CA00036887047BE0C00006D000268210003CF3B
:100CB00030800E0070470680704701807047E40C5A
:100CC00000006D0003682B2103CF32881218328098
:100CD0000E007047028892190280704702885218ED
:100CE00002807047F20C000020000263400036785A
:100CF00070470C0D00006D000263210003CF3070BF
:100D00000E0070470670704701707047320D00008A
:100D10006D0003632B2103CF3278121832700E005E
:100D20007047027892190270704702785218027068
:100D300070475A0D00006D0004626973210003CFF3
:100D40003268024332600E0070470268324302602C
:100D5000704702680A4302607047820D00006D0010
:100D600004626963210003CF3268824332600E005F
:100D700070470268B2430260704702688A430260AB
:100D80007047AA0D00006D0004786F72210003CF38
:100D90003268424032600E00704702687240026062
:100DA000704702684A4002607047C40D000020008E
:100DB00004626974400001CF3668064018BF4FF0E6
:100DC000FF367047EC0D00006D0005686269732105
:100DD00003CF3288024332800E00704702883243CC
:100DE0000280704702880A4302807047140E000098
:100DF0006D0005686269632103CF328882433280C7
:100E00000E0070470288B2430280704702888A430E
:100E1000028070473C0E00006D000568786F7221FB
:100E200003CF3288424032800E0070470288724001
:100E30000280704702884A4002807047560E0000C8
:100E4000200005686269744001CF3688064018BFEB
:100E50004FF0FF3670477E0E00006D00056362693B
:100E6000732103CF3278024332700E00704702784C
:100E700032430270704702780A4302707047A60E30
:100E800000006D0005636269632103CF32788243FD
:100E900032700E0070470278B243027070470278D9
:100EA0008A4302707047CE0E00006D000563786FB4
:100EB000722103CF3278424032700E0070470278C0
:100EC00072400270704702784A4002707047E80E24
:100ED0000000200005636269744001CF3678064047
:100EE00018BF4FF0FF367047F80E00006100056331
:100EF000656C6C2B04367047080F000061000563B9
:100F0000656C6C73B60070479C0F000000000768AA
:100F1000666C61736821300040CF310040CF594B7F
:100F2000984221D3584B98421ED2584B19409942AF
:100F300019D001220240002A16D102889A4213D108
:100F4000534A8018534A544B1360544B1360544A0D
:100F5000012313600180534A136801201840FBD11C
:100F60004F4A80231360704700F0A7FB2A57726F27
:100F70006E672061646472657373206F72206461B0
:100F8000746120666F722077726974696E6720667B
:100F90006C61736820210A0002F044BAEA0F000075
:100FA00000000E666C6173687061676565726173DD
:100FB00065000FB5300040CF324B984214D3354A0C
:100FC000354B1360354B1360354A02231360364AA4
:100FD0001060334A42231360324A136801201840DC
:100FE000FBD12F4A802313600FBD66100000000064
:100FF0000A6572617365666C61736800214872B638
:101000002149224A038893421CD047F8046D060008
:1010100047F8046D00F051FB104572617365206262
:101020006C6F636B20617420200000F0B9FB00F04E
:1010300044FB0C2066726F6D20466C6173680A0079
:10104000FFF7B7FF02308842DCD100F036FB1246D2
:10105000696E69736865642E20526573657420211A
:101060000A0002F05CFBAC10000000000E6572612B
:101070007365666C61736866726F6D00300040CF97
:10108000BDE700000040000000000400FFFF00007A
:10109000000000080420024023016745AB89EFCD22
:1010A000102002400C20024014200240C210000018
:1010B0006900012B01CF361870473618003600063C
:1010C00016F1D81000006900012D01CF861B704772
:1010D000361A003E0006B6F1E6100000610002314B
:1010E0002D00013E7047F4100000610002312B001A
:1010F0000136704702110000610002322D00023EED
:10110000704710110000610002322B000236704758
:10111000221100006100066E656761746500764209
:10112000704736110000610003616273002E48BFF2
:10113000D6F10006704754110000420005752F6D6E
:101140006F6401CF3100B0FBF6F67143401A043FE3
:1011500038607047721100004200042F6D6F640008
:1011600001CF310090FBF6F67143401A043F38601E
:101170007047861100004200036D6F6400B5FFF7F1
:10118000EFFF40CF00BD961100006200012F01CF9C
:1011900090FBF6F67047A61100006A00012A01CF05
:1011A000464370474643B4110000610002322A00F2
:1011B00076007047C2110000610002322F007610E5
:1011C0007047D61100006100046576656E0001204D
:1011D000304036187047EE110000810004626173E0
:1011E000650047F8046D824E70470A000000041243
:1011F000000000000662696E617279007C4802217D
:10120000016070471A120000000007646563696D91
:10121000616C77480A21016070475212000000009B
:1012200003686578724810210160704771497248FF
:1012300008607249724808607249734808607349CF
:101240007348086073494620086073497348086012
:1012500070476E120000810009686F6F6B2D656D1D
:10126000697447F8046D6E4E7047581300008A1277
:101270000000810008686F6F6B2D6B65790047F87F
:10128000046D684E70477E130000A81200008100B4
:101290000A686F6F6B2D656D69743F0047F8046DC8
:1012A000614E7047A8130000C41200008100096855
:1012B0006F6F6B2D6B65793F47F8046D5B4E704720
:1012C000D4130000E212000081000A686F6F6B2DDA
:1012D00070617573650047F8046D554E7047D034E2
:1012E0000000F8120000000004656D6974000FB57D
:1012F0004B4800F026F80FBD0C1300000000036BF4
:1013000065790FB5474800F01CF80FBD1E130000AB
:10131000000005656D69743F4348006887463013D7
:1013200000000000046B65793F0040480068874674
:101330004613000000000570617573653C48006845
:101340008746006887466C13000000000B736572C7
:1013500069616C2D656D697400B500F025F8002E8B
:1013600040CFFAD0334A167040CF00BD941300002E
:1013700000000A73657269616C2D6B65790000B5B8
:1013800000F028F8002E40CFFAD047F8046D2A4A22
:10139000167800BDC213000000000C73657269610D
:1013A0006C2D656D69743F0000B5FFF7C7FF47F806
:1013B000046D0026214801688020014000D0F643DA
:1013C00000BD4014000000000B73657269616C2D54
:1013D0006B65793F00B5FFF7B1FF47F8046D002654
:1013E000164801682020014000D0F64300BD0000EF
:1013F000FC9F00201410024014007E0018100240D0
:101400000040000000000048000028A82400004818
:10141000700700000C380140003801400D0000004A
:10142000F89F0020F49F0020F09F0020EC9F0020F8
:10143000E89F002028380140243801401C38014032
:10144000641400000000076365787065637400B57C
:10145000386801B40130386000F00BF801BC067048
:1014600040CF00BDD61400000000066163636570C4
:10147000740000B502CF01390022FFF742FF3000AF
:1014800040CF202819D2092816D00A281FD00D28AD
:101490001DD00828F1D1002AEFD000F00EF9030882
:1014A0002008002AE9D0885C013A80230340E4D078
:1014B00040230340F5D0E0E72020B242DDD247F8D8
:1014C000046D0600FFF713FF01328854D5E71600BC
:1014D00000F0A2F800BDE814000040000374696247
:1014E00047F8046D294E7047FE1400008100033E4A
:1014F000696E47F8046D264E704700000000241501
:10150000000082000E63757272656E742D736F75C4
:101510007263650047F8046D1E4E704700000000BE
:101520006800002040150000000009736574736FA7
:1015300075726365174802CF0660416040CF7047FF
:101540005E150000000006736F757263650047F852
:10155000046D104E043F7068386036687047981507
:10156000000000000571756572790FB5084800210B
:101570000160FFF7B5FF47F8046D47F8046DC82612
:10158000FFF777FFFFF7D6FF0FBD000068000020D0
:10159000E49F0020DC9F0020E615000000000763A8
:1015A0006F6D706172650FB5310040CF01CF884219
:1015B00002D040CF00260FBD02CF002810D0013846
:1015C0000A5C335C412A02D35B2A38BF2032412BAC
:1015D00002D35B2B38BF20339A42EED000260FBDDA
:1015E0000026F6430FBDFA150000000002637200EA
:1015F00000B500F062F8010A00BD0C160000000002
:1016000002626C0047F8046D202670472016000027
:10161000000005737061636547F8046D202666E677
:10162000401600000000067370616365730000B52A
:10163000002E03DDFFF7F0FF013EFBD140CF00BDE0
:10164000501600005000065B636861725D0005E0A3
:1016500068160000000004636861720000B501F0C4
:101660005BFB40CF367800BD7816000050000128A3
:1016700047F8046D292606E0921600005000015C30
:1016800047F8046D002600B501F050FB043740CF49
:1016900000BDD61600001000022E22009C4800B5A6
:1016A00047F8046D060000F060FA47F8046D222642
:1016B00001F03CFB00F061FD00BD0AB447F8046D89
:1016C0007646013E33780121013319405B181EEB49
:1016D000030E0ABC39E0FC16000010000263220071
:1016E0008C48DCE747F8046D7646013E33780121EB
:1016F000013319405B181EEB030E704726170000DC
:101700001000027322008448C9E747F8046D76464A
:1017100047F8046D013E36780121731C19405B18AF
:101720001EEB030E70473E170000000005636F7547
:101730006E74013647F8046D013E367870476617BF
:101740000000000005637479706501B530780028E9
:1017500007D0013647F8046D3678FFF7C8FD013829
:10176000F7D140CF01BD94170000000004747970D8
:101770006500310040CF300040CF00B5002908D0CF
:10178000002247F8046D865CFFF7B1FD01329142FB
:10179000F7D100BDCC1700000000046865782E006A
:1017A00003B5310040CF2020043847F8046D31FAEA
:1017B00000F616F00F06092E8CBF37363036FFF7CD
:1017C00096FD0028F0D1FFF727FF03BDDC170000CE
:1017D000000003682E731FB5504C0EE0EC1700009C
:1017E000000003752E731FB54D4C06E06A1800000B
:1017F0000000022E73001FB54A4C4B49C91B8908D3
:101800004A4A106803B40A201060FFF756FF0853D5
:101810007461636B3A205B0047F8046D0E0001F0C1
:101820005FFCFFF74AFF025D200003BC3F4A1060E7
:1018300000290AD03E4A106806B447F8046D060035
:10184000A04706BC043A0139F5D1FFF736FF062060
:10185000544F533A200047F8046D3600A047FFF775
:101860002CFF04202A3E0A001FBD3419000000008E
:1018700005776F72647300B5FFF71FFF06776F720D
:1018800064730A0000F0B9FEFFF717FF09416464B2
:10189000726573733A2047F8046DFFF781FFFFF715
:1018A0000CFF064C696E6B3A200047F8046D3668F1
:1018B000FFF776FFFFF701FF07466C6167733A2079
:1018C00047F8046DB688FFF76BFFFFF7F6FE064397
:1018D0006F64653A2000B01D00F0C8FE47F8046D43
:1018E0000600FFF75DFFFFF7E8FE064E616D653A03
:1018F000200047F8046D0636FFF727FFFFF7DDFEEF
:10190000010A00F091FE300040CFBDD040CF00BDB5
:10191000BA160000E41600000A170000A117000024
:10192000D1300000E130000030020020FC9F002098
:101930002C020020981A000000000D3132626974F8
:10194000656E636F64696E670FB5FF2E04D847F844
:10195000046D5FF0FF360FBD16F0FF10B0420ED1E0
:101960004FF6FF710840310C814208D116F0FF0696
:1019700056F4805647F8046D5FF0FF360FBD16F041
:10198000FF20B0420FD14FF6FF710840310C814269
:1019900009D1360A16F0FF0656F4005647F8046DD2
:1019A0005FF0FF360FBDFF2231001140300A1040BA
:1019B000884210D1300C104088420CD1300E1040BB
:1019C000884208D116F0FF0656F4405647F8046DD9
:1019D0005FF0FF360FBD300000210131001850F1DB
:1019E00000007FF07F020240802A05D01F29F4D337
:1019F00047F8046D00260FBD0829F9D3060036F01C
:101A0000800611F00100C001064311F00E00C00273
:101A1000064311F010008005064347F8046D5FF09F
:101A2000FF360FBD47F8046DDFF840665FF4704184
:101A300010EA0102120116435FF4006110EA01028C
:101A4000D20316435FF4E06110EA0102120116436B
:101A5000FF2110EA010216431E437EE347F8046D9E
:101A6000DFF80C665FF0704110EA0102120B1643BA
:101A70005FF0006110EA0102520816435FF0E06176
:101A800010EA0102120B16435FF47F0110EA010213
:101A9000120C16431E4360E3FE1A00000000107291
:101AA000656769737465726C69746572616C2C002A
:101AB0000FB5330040CF1B02FF2E05D856F4005659
:101AC0001E4300F022FB0FBDFFF73EFF002E40CF6C
:101AD00006D0DFF8A00506431E4300F03EFB0FBD15
:101AE000F643FFF731FF002E40CF06D0DFF8880520
:101AF00006431E4300F031FB0FBDF6430BE05E1BB7
:101B000000000000096D6F76776D6F76742C0FB54D
:101B1000330040CF1B02300040CFFFF783FF4FF66A
:101B2000FF7110EA014001D0FFF798FF0FBD0FB51C
:101B30000136300040CF0023FFF774FFFFF78EFF20
:101B400006E00FB5013647F8046D0026FFF7B0FF39
:101B500047F8046D44F2807600F0D7FA0FBDC41B3D
:101B6000000000000563616C6C2C0FB5330000F0C1
:101B700015FE300040CF1B1A043BDFF8001519405A
:101B8000002906D0DFF8F824914202D0BDE80F40CA
:101B9000D7E740CF5B08DFF8EC0440F2FF71194053
:101BA0000843DB0A40F2FF311940090408439B0A4D
:101BB00013F001018906084347F8046D060000F0A0
:101BC000CCFA0FBDFA1B00000000086C6974657246
:101BD000616C2C0008B547F8046D4FF6470600F01D
:101BE00094FA47F8046D46F6045600F08EFA47F86A
:101BF000046D0626FFF75CFF08BD1E1C00000000F8
:101C0000066372656174650000B500F033F841F653
:101C10003B40804747F8046DBEF1010600BD661CDD
:101C20000000200005646F65733E41F63B4080472D
:101C300047F8046DBEF10106704747F8046DBEF128
:101C40000106DFF844241368DFF840140968022015
:101C5000084000D0023102311160FFF768FF1360C5
:101C600000F0BAF900BDA81C00000000073C627536
:101C7000696C647300B500F04BFB00F08FFD02202F
:101C8000064040CF04D047F8046D362600F03DFAF8
:101C900047F8046D4BF2005600F037FA47F8046D30
:101CA0000A2600F09DFA00BDB41C00005000035B42
:101CB000275D03E0CA1C00000000012700B501F009
:101CC0002BF800F011FD40CF00BD101D00001000EA
:101CD00008706F7374706F6E650000B501F01CF8CA
:101CE00000F002FD300040CF102101400DD1202135
:101CF000014005D0FFF76EFF47F8046DE44E04E0A5
:101D0000FFF768FF47F8046DE24EFFF72EFF00BDB6
:101D1000661D0000000007696E6C696E652C00B5D9
:101D20004BF200514BF6005244F2707330888842F7
:101D300008D0904208D0984206D047F8046D0600BB
:101D400000F0E3F90236F1E740CF00BD0EB44BF6E8
:101D5000005244F2707301880230914201D09942DE
:101D6000F9D10EBC70477C1D000000000472657440
:101D70002C0047F8046D4BF60056C6E18A1D0000A2
:101D80003000046578697400F3E7A21D000030009C
:101D9000077265637572736547F8046DBB4E3668EC
:101DA000E3E6BA1D0000810005737461746547F8AD
:101DB000046DB94E704700000000CC1D000000000B
:101DC000015DB5480021C94301607047DC1D00007A
:101DD0001000015BB048002101607047041E000044
:101DE0000000013A00B5AD48076000F091FA47F8ED
:101DF000046D4BF2005600F088F9A7480021C94352
:101E0000016000BD4C1E00003000013B00B5A3483E
:101E10000168B9420ED0FFF750FC1520537461637E
:101E20006B206E6F742062616C616E6365642E0A54
:101E300001F0F8BA47F8046D4BF6005600F065F96A
:101E400000F0CAF894480021016000BD601E000047
:101E500000000765786563757465300040CF87467C
:101E6000781E0000100009696D6D65646961746514
:101E700047F8046D1026DFE08E1E00001000066992
:101E80006E6C696E650047F8046D2026D4E0A81ECC
:101E9000000010000B636F6D70696C656F6E6C797C
:101EA00047F8046D3026C7E0C21E000010000A305B
:101EB0002D666F6C6461626C650047F8046D4026A6
:101EC000BAE0DC1E000010000A312D666F6C646100
:101ED000626C650047F8046D4126ADE0F61E000017
:101EE00010000A322D666F6C6461626C650047F801
:101EF000046D4226A0E0101F000010000A332D667A
:101F00006F6C6461626C650047F8046D432693E072
:101F10002A1F000010000A342D666F6C6461626C29
:101F2000650047F8046D442686E0441F0000100059
:101F30000A352D666F6C6461626C650047F8046D4C
:101F4000452679E05E1F000010000A362D666F6C92
:101F50006461626C650047F8046D46266CE0781F8A
:101F6000000010000A372D666F6C6461626C6500BA
:101F700047F8046D47265FE0A81F000000000863D3
:101F80006F6E7374616E740000B500F0C1F9FFF7F5
:101F900021FE47F8046D44F2707600F0B6F8FFF7C2
:101FA0008CFF00F019F800BDCA1F000000000932C4
:101FB000636F6E7374616E7400B500F0A9F93968CF
:101FC0003E600E46FFF706FEE1E728200000000015
:101FD00006736D756467650000B52B4801682A4A71
:101FE000914280F01B8002390A882D4B9A4204D11D
:101FF00047F8046D2B4E00F088F800F075F82A4879
:10200000006847F8046D06002849096804311E4A33
:102010001368116000F079F8136000BD00F064F8F7
:1020200047F8046D002608E0B020000000000873A7
:102030006574666C6167730000B513480168124AE5
:10204000914280F00680184801683143016040CF1A
:1020500000BD320040CF1548006804300188104BA5
:1020600099420CBF11461143018000BD000040F2AF
:102070000000C0F200005FF000007FF00100C0FF30
:102080000000C0FF00F800F0000000201400002055
:102090001E1D00006A1B0000D89F002010000020B9
:1020A000FFFF0000000000002000002004000020CE
:1020B000BE200000000005616C69676E14E0DA2044
:1020C0000000410007616C69676E65640120304063
:1020D00036180220304036187047002100000000FA
:1020E00007616C69676E342C00B57F480168022077
:1020F000014004D047F8046D002600F006F800BD4A
:1021000036210000000002682C000FB576480168F7
:10211000754A914280F0068047F8046D0E00FEF784
:10212000FAFE02E0320040CF0A8047F8046D022632
:1021300000F056F80FBD502100000000012C00B542
:1021400047F8046DFFF7E1FF360CFFF7DEFF00BD37
:102150006C2100000000033E3C2C00B547F8046DE4
:10216000360CFFF7D2FFFFF7D0FF00BDD4210000EF
:10217000000007737472696E672C07B5FF21314048
:1021800040CF300040CF002905D147F8046D00262C
:10219000FFF7BBFF07BD47F8046D067836020E4314
:1021A000FFF7B3FF0130013902290AD347F8046D64
:1021B0004678360202781643FFF7A7FF023002394D
:1021C000F2E7002900D107BD47F8046D0678FFF754
:1021D0009CFF07BD2E220000000005616C6C6F742F
:1021E00041480168404A91420FD2320040CF8918DD
:1021F0003E4A914219D3FFF760FA0B466C6173684F
:102200002066756C6C0A01F00DB9320040CF891858
:10221000374A1268914208D3FFF74FFA0952616DAD
:102220002066756C6C0A01F0FDB80160704756229B
:10223000000000000D636F6D70696C65746F7261F2
:102240006D3F47F8046D00262748006826498842FC
:1022500048D3F64370477622000000000C636F6D90
:1022600070696C65746F72616D001F4800681E496B
:10227000884211D370470023000000000E636F6D89
:1022800070696C65746F666C6173680016480068ED
:102290001549884200D270471648174902680B68F2
:1022A0000A6003601048154902680B680A60036001
:1022B0000F480068834215D300B5FFF7FEF92320CD
:1022C0005661726961626C657320636F6C6C6964DE
:1022D0006520776974682064696374696F6E6172E0
:1022E000790A00BD704700000000002000000400D3
:1022F00024000020040000201C0000201800002002
:10230000EC230000000008286372656174652900F1
:1023100000B500F001FD002E0ED1FFF7CEF915201B
:10232000437265617465206E65656473206E616DCE
:102330006520210A01F076B8386847F8046D043F3B
:10234000386000F0A2F940CF002E40CF11D038689D
:1023500047F8046D043F3860FFF7AFF90952656430
:102360006566696E6520FFF704FAFFF7A6F9022E8D
:102370000A00FFF7B9FE00F011FA904800688F4993
:10238000884280F01D808E480021016047F8046D6E
:102390000626FFF725FFFEF7B5FAFFF7EEFE8948A0
:1023A00001680A68884B9A4207D1844A1368116011
:1023B00047F8046DFFF7C3FE1360066040CF10E0DE
:1023C000804847F8046D0668FFF7B9FE47F8046DCA
:1023D0007E4EFFF79AFE7B48310040CF0160FFF749
:1023E000CCFE764801687A48016000BD04240000F4
:1023F0000000087661726961626C650047F8046DDF
:10240000012613E01C240000000009327661726985
:1024100061626C6547F8046D022607E0F82400004D
:102420000000096E7661726961626C6500B5FFF744
:102430006FFF62480168614A914280F035800F2049
:102440000640B20063480168891A634A91420BD280
:10245000FFF733F90F4E6F7420656E6F7567682054
:1024600052414D0A00F0DEBF016047F8046D0E00D6
:10247000FFF7B0FB47F8046D44F27076FFF745FEB6
:10248000300040CF0200002805D00E600431FFF775
:1024900056FE0138F9D147F8046D80261643FFF740
:1024A000CBFDFFF799FD00BD00F078F90220064052
:1024B00040CF04D147F8046D3626FFF726FE47F8D3
:1024C000046D464EFFF749FE47F8046D444EFFF792
:1024D00044FE47F8046D44F27076FFF716FE3000B4
:1024E00040CF002803D0FFF72AFE0138FBD1FFF7C9
:1024F000E4FCFFF771FD00BDE42500000000076269
:1025000075666665723A00B5FFF702FF012030403C
:10251000361802203040361828480168274A914270
:1025200080F029802B480168891B2B4A91420BD2ED
:10253000FFF7C3F80F4E6F7420656E6F75676820E4
:1025400052414D0A00F06EBF016047F8046D0E0065
:10255000FFF740FB47F8046D44F27076FFF7D5FDB6
:10256000FFF7EDFD47F8046D40F24016FFF764FDFC
:10257000FFF732FD00BD00F011F90220064040CF08
:1025800004D147F8046D3626FFF7BFFD47F8046D08
:10259000124EFFF7E2FD47F8046D114EFFF7DDFD27
:1025A00047F8046D44F27076FFF7AFFDFFF718FEB1
:1025B000FFF783FCFFF710FD00BD000000000020C6
:1025C0002000002004000020FFFFFFFFFFFF0000AD
:1025D0001400002024000020300300203E60043F4F
:1025E00002367E461226000000000F64696374699B
:1025F0006F6E6172797374617274EB480068EA49B6
:1026000047F8046D884201D2E84E7047E84E3668BC
:1026100070474C26000000000E64696374696F6E99
:102620006172796E6578740003B53168E148814262
:1026300007D08879FF2804D00E0047F8046D0026E3
:1026400003BD47F8046D0026F64303BD7E26000057
:1026500000000A736B6970737472696E6700317879
:10266000013101220A4089187618704706B40178B2
:10267000013101220A408918401806BC7047FE2625
:10268000000000000466696E64003FB5002200236C
:10269000350040CF340040CFFFF7AFFFC648B188C8
:1026A000884217D047F8046D0636FFF742F847F81E
:1026B000046D260047F8046D2E00FEF774FF002E0F
:1026C00040CF07D0B01DFFF7D1FF02000B00B64886
:1026D000824204D2FFF7A8FF300040CFDED01600C0
:1026E00047F8046D1E003FBD00B531003868FFF7A4
:1026F000CCFF3A68002A01D100F066FD00BD5827E2
:102700000000000006636A756D702C00320040CF37
:10271000310040CF8B1B043BA849194000290DD044
:10272000A74881420AD0FEF7C8FF0D4A756D702098
:10273000746F6F206661720A00F074BE5B10FF2137
:102740000B40134330001E0000B5974A1368106019
:10275000FFF7DBFC136000BD902700000000056A56
:10276000756D702C310040CF300040CF0B1A043B08
:1027700094491940002902D0934A9142D3D15B1069
:10278000924A134053F4604347F8046D1E00DBE7A0
:10279000A6270000000004686572650047F8046D14
:1027A000814E36687047A228000000000D666C61FB
:1027B00073687661722D6865726547F8046D844EA2
:1027C0003668704700B547F8046D42F60066FFF7BB
:1027D0009CFC47F8046D4CF64076FFF796FC00BD74
:1027E000DCE700B500F03AF839683E600E4647F87D
:1027F000046D4DF20016FFF789FF00BD00B500F033
:102800002DF839683E600E4647F8046D4DF20076AB
:10281000FFF77CFF00BD00B5FFF7D4FF00F01EF806
:1028200039683E600E4647F8046D4DF20006FFF72A
:102830006DFF00BD00B500F011F839683E600E462E
:10284000FFF790FF00BD00B5FFF7BCFFFFF7A6FF45
:1028500047F8046D0226FFF7C3FC00BD00B5FFF783
:102860009DFF47F8046D0226FFF7BAFC00BD00B5D6
:10287000FFF794FFFFF776FF00BD00B5FFF78EFF6F
:1028800047F8046D4DF20006FFF740FF00BD00B5AC
:10289000FFF784FF47F8046D4DF20016FFF736FF8F
:1028A00000BDDE2800003000047468656E00052E4F
:1028B00001D140CFDBE7022E01D140CFDDE7FEF7AB
:1028C000FCFE175374727563747572657320646FC0
:1028D0006E2774206D617463680A00F0A3BD0A2935
:1028E0000000300004656C73650000B5022E7FF4B3
:1028F000E6AF40CFFFF7B2FF39683E600E46FFF704
:10290000BCFF47F8046D052600BD222900003000F9
:102910000269660000B5FFF796FF47F8046D0226CE
:1029200000BD4829000030000672657065617400C2
:10293000042EC4D140CF39683E600E4600B5FFF783
:1029400079FFFFF79AFF00BD64290000300005778A
:1029500068696C65012EB2D140CF00B5FFF7DAFF90
:10296000023600BD78290000300005756E74696C70
:10297000012EA4D140CF4EE78C2900003000056124
:102980006761696E012E9AD140CF53E7D4290000C8
:10299000300005626567696E00B5FFF721FF47F8F3
:1029A000046D012600BD0000000000208801000029
:1029B00004000020FFFFFFFFFFFF000001FFFFFFFB
:1029C00000FFFFFF01F8FFFF00F8FFFFFF07000017
:1029D00024000020E42900002000016B47F8046D6A
:1029E000029E7047F42900002000016A47F8046D38
:1029F000009E7047042A00002000016947F8046D1A
:102A000026007047422A00003000056C656176653B
:102A100000B5D94801683B00043F1A68043B1A60BE
:102A200008338B42F9D103B4FFF718FF03BC33001E
:102A300040CF04390B60016004390A6801320A6032
:102A400000BD542A0000200006756E6C6F6F700088
:102A500030BC70478C2A00003000052B6C6F6F7003
:102A6000032E00D02BE740CF00B547F8046DC34ECE
:102A7000FFF755F9FFF7C2FE1AE014F10044641B9A
:102A8000A41940CF2C44A4F100447047CE2A000082
:102A90003000046C6F6F7000032E00D00FE740CF42
:102AA00000B547F8046DB64EFFF739F9FFF799FE08
:102AB00000F018F9B048310040CF016047F8046DCC
:102AC000B04EFFF72CF900BD0134AC427047162B15
:102AD0000000780002646F0000B547F8046DAA4E4C
:102AE000FFF71DF9A448016847F8046D0E0047F888
:102AF000046D00260760FFF773FE47F8046D032698
:102B000000BD00B500F02FF8ECE730B4340040CF42
:102B1000350040CF7047B02B00007800033F646F52
:102B200000B547F8046D984EFFF7F9F847F8046DC3
:102B300044F2AC26FFF7E9FA8F48016847F8046DC4
:102B40000E00FFF78BFE013647F8046D01268A4818
:102B50000760FFF745FE47F8046D032600BD00B58A
:102B600000F001F8E2E700B547F8046D4BF230469B
:102B7000FFF7CBFA47F8046D0426FEF799FF013BF7
:102B800008D047F8046D0526FEF792FF013B00F0E0
:102B900022FC00BD47F8046D3526FFF7B6FA47F86A
:102BA000046D4CF64076FFF7B0FA00F014FC00BD5F
:102BB000CA2B0000300004636173650047F8046DA0
:102BC000002647F8046D08267047E02B000030000F
:102BD000033F6F666D4809E0013EB64140CF704744
:102BE000842C00007800026F66006948082E00D02F
:102BF00065E640CF00B547F8046D0600FFF78FF893
:102C0000FFF72CFE39683E600E46013647F8046D2A
:102C1000092647F8046D4CF64076FFF776FA00BDBA
:102C200000B5300040CF013B01B400F0D4FB01BC43
:102C3000082E00D043E640CF47F8046D0600FF2180
:102C40003140B14204D153490E43FFF75EFAD7E752
:102C5000FEF77AFE002E40CF04D04F480643FFF720
:102C60007CFACDE747F8046D0026FEF721FF47F810
:102C7000046D44F2B026FFF748FAC1E7300040CFB8
:102C8000B0427047BA2C0000300005656E646F6674
:102C9000092E00D013E640CF00B540B440CFFFF777
:102CA000DDFD39683E600E46FFF7F1FD47F8046D23
:102CB00040BC47F8046D082600BD0C2D0000300014
:102CC00007656E6463617365082E00D0F7E540CF39
:102CD00000B547F8046D4CF64076FFF716FA00F0A1
:102CE00001F800BD00B5300040CF00280DD003B47E
:102CF00001213140002903D0013EFFF7BEFD01E074
:102D0000FFF7B5FD03BC0138EFE700BD202D000043
:102D1000000005746F6B656E47F8046D202605E0B2
:102D2000A02D0000000005706172736510B5FEF7FC
:102D30000EFC310040CF300040CF184A1268841892
:102D4000202E07D191420FD0835CB34202D10132D1
:102D50008418F7E7914207D0835C0132B342F9D17E
:102D60008618361B013E01E08618361B043F3C6086
:102D70000A48026010BD00000C0000207A2A000002
:102D8000C82A0000502A00000A2B0000D82B00009F
:102D90007C2C0000002E0000000FB6F1E49F002004
:102DA000DE2D00000000056469676974CE4B1B6866
:102DB000303E0BD30A2E0BD3073E0A2E06D3242E09
:102DC00006D3203E0A2E01D3242E01D300267047BD
:102DD0009E42FBD247F8046D0026F6437047E82E6A
:102DE00000000000066E756D626572003FB531002F
:102DF00040CF701E0126012204B4BB4B1B68002487
:102E0000002500293CD00130013902782D2A04D157
:102E100001B00022D24304B4F3E7232A01D10A23EC
:102E2000EFE7242A01D11023EBE7252A01D1022361
:102E3000E7E72E2A01D10226E3E72C2A36D047F80D
:102E4000046D1600FFF7B4FF002E40CF2BD047F8DB
:102E5000046D260047F8046D2E0047F8046D1E002F
:102E600047F8046D00260FB4FDF7C7FA0FBC350014
:102E700040CF340040CF0022A419554140CFC0E7D5
:102E800004BC002A04D50022E443ED43013455413B
:102E900033002600012B02D047F8046D2E0047F8BE
:102EA000046D1E003FBD01B000263FBD250000247B
:102EB00002260029E4D0425C01392E2AF9D047F8D5
:102EC000046D1600FFF774FF002E40CFEBD0043FD7
:102ED0003C6047F8046D1E000FB4FDF73DFB0FBCCE
:102EE000340040CF40CFE4E7082F00000000062E5A
:102EF0006469676974000A2E3CBF303603E0242EF3
:102F000034BF3736232670473E2F00000000046888
:102F10006F6C6400330040CF744801783F290DD2B4
:102F2000013101704018012907D0013802780130C1
:102F30000270013801390129F7D1037070475E2F03
:102F40000000000005686F6C643C330040CF6748A8
:102F500001783F2902D20131017043547047762F26
:102F600000000000047369676E00002E01D440CF9A
:102F700070472D26CEE78A2F0000000002233E0076
:102F80005A480678013038607047A22F00000000D0
:102F90000366235310B5202400F008F8013CFBD150
:102FA00010BDC42F000000000266230000B547F8E2
:102FB000046D4D4E3668FDF70CFAFFF79CFFFFF7E6
:102FC000C4FF00BDE02F000000000223530000B545
:102FD00000F00AF8002EFBD138680028F8D100BDB7
:102FE0000C3000000000012300B547F8046D3E4E90
:102FF000366847F8046D0026FDF7CDFAFDF7F2F8C4
:1030000040CFFFF778FFFFF785FF00BD1E300000BF
:103010000000023C23003548002101707047303029
:103020000000000002662E0047F8046D202604E030
:103030007E300000000003662E6E00B510B4340030
:1030400040CFFDF749FCFDF780F947F8046D0026F5
:10305000FFF7E1FFFFF7BBFF40CF2C26FFF775FF1F
:10306000002C03D0FFF7A2FF013CFBD110BC40CFE6
:10307000FFF77BFF47F8046D47F8046D1CE09430C0
:10308000000000000375642E00B5FFF7C4FFFFF7D2
:103090009EFF11E0C6300000000002642E0000B563
:1030A000FDF71AFCFDF751F9FFF7B5FFFFF78FFFAA
:1030B000FDF71CFCFFF759FFFFF762FFFEF759FB16
:1030C000FEF7AAFA00BDD8300000000002752E00FD
:1030D00047F8046D0026D7E7F03000000000012E0D
:1030E00047F8046DF617DAE7FC9F0020280000205F
:1030F000383100000000086576616C756174650008
:1031000000B5FEF724FA01CF01B440B440CFD44853
:10311000016802B400210160FEF70CFA00F014F817
:10312000CF4802BC016047F8046D40BC01BC043FBD
:103130003860FEF7FFF900BDFC33000000000969AC
:103140006E7465727072657430B5C64887420BD96B
:10315000FEF7B3FA10537461636B20756E64657289
:10316000666C6F770A005DE1BF4887420AD2FEF7BE
:10317000A4FA0F537461636B206F766572666C6F8F
:10318000770A4FE1B94C2568002D01D13D0025603B
:10319000FFF7C2FD002E02D1043740CF30BD3868A2
:1031A00047F8046D043F3860FFF76FFA310040CFF5
:1031B000320040CF002A13D138683100FFF716FEE5
:1031C000320040CF002AC0D1FEF7D7FAFEF775FAD9
:1031D0000C206E6F7420666F756E642E0A0021E1FC
:1031E000A34B1B68002B1DD10025256030230B400D
:1031F000302B0ED1FEF7BDFAFEF75FFA122069738D
:1032000020636F6D70696C652D6F6E6C792E0A008E
:1032100008E1043740CF47F8046D1600FEF71DFEA5
:10322000FFF793FF043740CF802008400ED1EB1BFF
:103230009B08402008400FD00820084002D0002BF7
:1032400000D01DE00F200840834205D347F8046DED
:103250001600FEF702FE78E700F0BDF847F8046DAF
:10326000160010220A4002D0FEF7F7FD6DE720227B
:103270000A4002D0FEF753FD67E7FEF776FC64E7ED
:10328000072001401000FEF761FD01291FD1012B2D
:10329000DCD1FF213140B14204D140880643FEF722
:1032A00034FF52E7FEF750FB002E40CF04D04068B9
:1032B0000643FEF752FF48E747F8046D0026FEF785
:1032C000F7FB47F8046D0688FEF71FFF3DE702296C
:1032D00002D1012BBAD1EFE7032926D1012BB5D1B9
:1032E000FF213140B1420AD162490E43FEF70DFF82
:1032F000043247F8046D1600FEF711FD25E7FEF7CE
:1033000023FB002E40CF04D05B490E43FEF725FF80
:10331000EEE747F8046D0026FEF7CAFB023247F8D5
:10332000046D1600FEF7FBFC0FE7042918D1012BF2
:103330008CD1330040CF002B00D106E71F221A406A
:103340009A4205D047F8046D4688FEF7DEFEFCE69B
:1033500047F8046D06889B011E43FEF7D6FEF4E68F
:10336000052924D1012B10D147F8046D0026FEF762
:103370009FFB47F8046D0600FEF7D1FC47F8046D8B
:103380004CF64076FEF7C1FEDFE647F8046D0026F6
:10339000FEF78EFB47F8046D0126FEF789FBFEF76A
:1033A000D5FC47F8046D0600FEF7B9FCCDE606290A
:1033B0000ED1012B7FF44AAFFEF7C6FA002E40CFA4
:1033C0003FF47AAFD0F802000643FEF7C6FEBCE633
:1033D00001308047B9E600B5002B0CD0013B47F81F
:1033E000046D1E0057F82660FEF7F4FB002BF5D1A4
:1033F000043D2F0040CF0025256000BD183400009B
:10340000810009686F6F6B2D7175697447F8046DE1
:103410001A4E70474C3400009034000000000471D4
:1034200075697400DFF858D00E4F16480A21016004
:103430000F48002101600D480160094801601248F1
:103440000160124941600D4800688746FEF78DF81B
:10345000FFF77AFEFEF731F905206F6B2E0AF5E7CC
:10346000E49F0020300200203001002008000020EE
:10347000D89F0020003E00000006B6F1D49F002037
:1034800030030020FC9F0020DC9F0020680000200B
:10349000A034000020000465696E740062B67047B5
:1034A000B034000020000464696E740072B6704786
:1034B000C6340000200004697073720047F8046D80
:1034C000EFF305867047D23400000000036E6F7082
:1034D000704714350000000009756E68616E646CF9
:1034E000656400B5FEF7E9F814556E68616E646CAA
:1034F000656420496E74657272757074200047F8B7
:10350000046DEFF30586FEF74BF9FEF7D6F80221BE
:103510000A0000BD3E35000081000B6972712D73F9
:1035200079737469636B47F8046DBD4E7047E2347C
:10353000000049F6D070C2F2000000688746663588
:1035400000008100096972712D6661756C7447F81D
:10355000046DB44E7047E234000049F6CC70C2F2FC
:103560000000006887469435000081000E69727182
:103570002D636F6C6C656374696F6E0047F8046D42
:10358000A94E7047E234000049F6C870C2F200004C
:1035900000688746BC3500008100096972712D659D
:1035A0007874693047F8046DA04E7047E23400002B
:1035B00049F6C470C2F2000000688746E435000096
:1035C0008100096972712D657874693147F8046D5D
:1035D000974E7047E234000049F6C070C2F2000016
:1035E000006887460C3600008100096972712D65FC
:1035F0007874693247F8046D8E4E7047E2340000EB
:1036000049F6BC70C2F200000068874634360000FC
:103610008100096972712D657874693347F8046D0A
:10362000854E7047E234000049F6B870C2F20000DF
:10363000006887465C3600008100096972712D655B
:103640007874693447F8046D7C4E7047E2340000AA
:1036500049F6B470C2F20000006887468236000066
:103660008100076972712D61646347F8046D744EBF
:103670007047E234000049F6B070C2F20000006802
:103680008746AA3600008100086972712D74696D41
:10369000320047F8046D6B4E7047E234000049F683
:1036A000AC70C2F2000000688746D236000081008C
:1036B000086972712D74696D330047F8046D624EAC
:1036C0007047E234000049F6A870C2F200000068BA
:1036D0008746FA3600008100086972712D74696DA1
:1036E000340047F8046D594E7047E234000049F643
:1036F000A470C2F200000068874600400000FFFF8F
:10370000182D2D2D20466C617368204469637469FF
:103710006F6E617279202D2D2D00FDF787FD4C48CD
:1037200085464C4F2A264C48494901604B484C4934
:10373000016047F8046D4A4E4A4DB1884A4B9942A0
:1037400024D04A4B0B400AD0B01DFEF78FFFFEF786
:10375000FDFA0388408800040343ED1A16E0802335
:103760000B4013D00F23194089006D1AB01DFEF7CE
:103770007DFFFEF7EBFA47F8046D060047F8046D8D
:103780002E0047F8046D0E00FDF736FAFEF74CFFE9
:10379000300040CFD1D03648066040CF3548056074
:1037A00035483649304A884204D00238038893426B
:1037B000F9D0023032490860FDF77FFF374D65636D
:1037C000726973702D5374656C6C61726973203209
:1037D0002E302E3320666F722053544D33324633D1
:1037E0003033206279204D61747468696173204BB5
:1037F0006F63680A23480021016047F8046D224E78
:1038000047F8046D0426FEF740FF40CF002E02D09B
:10381000FEF723FB17E640CF04E6696E69740000EB
:10382000D09F0020CC9F0020C89F0020C49F002074
:10383000C09F0020BC9F0020B89F0020B49F0020A4
:10384000B09F0020AC9F0020A89F0020A49F0020D4
:10385000300300203002002000000020040000207F
:103860008801000000A00020FFFF00000001000010
:103870001C00002024000020000004000040000084
:0C38800018000020080000201A3800008A
:0400000508000000EF
:00000001FF
